:100000000C947E000C94D6140C9403150C94A6004A
:100010000C94A6000C94A6000C94A6000C94A600C8
:100020000C94A6000C94A6000C94A6000C94A600B8
:100030000C94A6000C94F1040C94A6000C94A60059
:100040000C9430150C94A6000C9453170C94A11723
:100050000C94A6000C94A6000C94A6000C94A60088
:100060000C94A6000C94A60053656E64696E67201C
:100070005258207479706520696E666F0052656908
:100080006E697420525820636F6E6669670053650D
:100090006E64696E6720525820636F6E66696700F0
:1000A00000000000240027002A00000000002500B6
:1000B00028002B0000000000230026002900040473
:1000C0000404040404040202020202020303030300
:1000D00003030102040810204080010204081020DC
:1000E00001020408102000000007000201000003C4
:1000F000040600000000000000000D1911241FBEBE
:10010000CFEFD8E0DEBFCDBF13E0A0E0B1E0E4E682
:10011000F7E302C005900D92A030B107D9F714E0C3
:10012000A0E0B3E001C01D92AD3BB107E1F710E0E4
:10013000CCEFD0E004C02297FE010E94AC1BCA3F66
:10014000D107C9F70E9463190C94B01B0C940000EE
:1001500080910003813019F482E080930003809144
:100160000003833019F484E0809300030895682F1E
:1001700070E0CB018C599F4F8E3B910548F4665F30
:100180007F4F80E090E02AE030E040E050E014C093
:10019000823D910548F46055704080E090E024E68F
:1001A00030E040E050E008C06956704080E090E0E8
:1001B00028E532E040E050E00E943A1B24E630E0BF
:1001C00040E050E00E943A1B0895FC0120A530E079
:1001D000C901817090700196277030703595279510
:1001E000820F931F880F880F08958F929F92AF926E
:1001F000BF92CF92DF92EF92FF920F931F93FC0179
:1002000000A510E087A190E023E130E0829FF0019B
:10021000839FF00D929FF00D1124E35EFD4F8080CF
:100220009180A280B380F801E770F070E951FD4F32
:10023000608170E0615F7F4F882777FD8095982F00
:1002400020E43FE14DE750E00E943A1BA5019401F4
:100250000E946D1B69017A0180ED97E0A0E0B0E09B
:10026000C80ED91EEA1EFB1E08711070012B81F00A
:1002700060E07EEE8AEB9BE0A50194010E946D1B7D
:1002800028513C4F4F4F5F4FC20ED31EE41EF51E48
:1002900087EE93E0A0E0B0E0C80ED91EEA1EFB1E78
:1002A000C701B60128EE33E040E050E00E946D1B2C
:1002B000CA01B90128EE33E040E050E00E943A1B49
:1002C0001F910F91FF90EF90DF90CF90BF90AF9074
:1002D0009F908F900895FF920F931F93082FFB011B
:1002E000DA01F82EF69410E0808191818C9382815E
:1002F000938111968C9311978481958112968C939A
:1003000012978681978113968C9313972081318160
:100310004281538164817581868197819295990F7D
:10032000990F907C832F8370982B852F8370880F73
:10033000880F982B872F83708295807F982B149637
:100340009C931497159638961F5FF11668F600FF78
:100350005CC0808191818F3F910509F010F440E0ED
:100360000CC022E08030920710F441E006C08050BB
:10037000934010F043E001C042E0828193818F3FBF
:10038000910509F010F450E00CC022E08030920793
:1003900010F451E006C08050934010F053E001C0CB
:1003A00052E0848195818F3F910509F010F480E03F
:1003B0000CC022E08030920710F481E006C080502B
:1003C000934010F083E001C082E0268137812F3F07
:1003D000310509F010F490E00CC092E020303907AC
:1003E00010F491E006C02050334010F093E001C0BB
:1003F00092E05295507F4295440F440F407C452B2C
:10040000880F880F842B892B8C931F910F91FF905D
:1004100008951F93182FDB01FA01482F469530E00D
:10042000848190E083709070982F88272081820FBC
:10043000911D11969C938E93848190E08C709070A6
:1004400056E0880F991F5A95E1F72181820F911D7F
:1004500013969C938E931297848190E08073907092
:1004600024E0880F991F2A95E1F72281820F911DC0
:1004700015969C938E931497848190E0807C907065
:10048000880F991F880F991F2381820F911D17963E
:100490009C938E931697359618963F5F431708F0F6
:1004A000BFCF10FF50C0808182958695869583705E
:1004B00090E02DE431E0AC01429FC001439F900DDC
:1004C000529F900D11240C9611969C938E938081CF
:1004D00090E064E0969587956A95E1F78370907057
:1004E000AC01429FC001439F900D529F900D11247B
:1004F0000C9613969C938E931297808190E096951C
:1005000087959695879583709070AC01429FC00146
:10051000439F900D529F900D11240C9615969C931D
:100520008E931497808190E083709070AC01429F0D
:10053000C001439F900D529F900D11240C96179669
:100540009C938E9316971F910895882339F04298B3
:100550000000419A0000429A00000895429800006D
:1005600041980000429A000008950F931F93082FAE
:100570005C9A42985C9810E0802F80780E94A502D7
:10058000000F1F5F1830C1F742981F910F91089517
:100590008F770E94B50208950F931F93082F10E0E4
:1005A000802F80780E94A502000F1F5F1830C1F7CE
:1005B00042981F910F910895429890E020E0990F82
:1005C000429A000086B1429800008170980F2F5F18
:1005D0002830A9F7892F08950E94C8020E94DC02E2
:1005E0005C9A08951F93162F80680E94B502812F90
:1005F0000E94CC025C9A1F9108951F9310910A03E8
:100600001827E1E0F3E0E80FF11D89E767850E9414
:10061000F2028DE3612F0E94F20282E4612F0E94B8
:10062000F2021F91089586E20E94EC0208950F9352
:100630001F938BE20E94EC02082F8CE20E94EC02D6
:10064000282F30E076E0369527957A95E1F710E08F
:10065000000F111F000F111F202B312BC9011F91FB
:100660000F9108950F931F938C018CE1F801648121
:100670000E94F2028DE1F80165810E94F2028EE192
:10068000F80166810E94F20280E2F80167810E940F
:10069000F20281E2F80160850E94F20282E2F80132
:1006A00061850E94F20283E2F80162850E94F202F3
:1006B00084E2F80163850E94F20285E2F801648514
:1006C0000E94F2028AE2F80165850E94F2028EE63B
:1006D000F80166850E94F2028FE6F80167850E94A4
:1006E000F20280E7F80160890E94F20281E7F801D6
:1006F00061890E94F20282E7F80162890E94F20297
:100700001F910F910895EF92FF920F931F93CF9334
:10071000DF937B018C01603028E372072CE98207AC
:100720002CE1920728F520E836E948E950E00E94DC
:100730006D1BE9016897B90180E090E020E839E697
:1007400047E65FEF0E943A1B6E0D7F1D801F911FD1
:10075000F2E0660F771F881F991FFA95D1F721E7FE
:1007600032E040E050E00E946D1B890180E421C02E
:1007700020E03DE241E351E00E946D1BE9016897F2
:10078000B90180E090E020E033ED4EEC5EEF0E9496
:100790003A1B6E0D7F1D801F911F660F771F881FEC
:1007A000991F21E732E040E050E00E946D1B890173
:1007B00080E69E012F71622F680F85E70E94F2028A
:1007C00086E7612F0E94F20287E7602F0E94F20203
:1007D000DF91CF911F910F91FF90EF9008959F921D
:1007E000AF92BF92CF92DF920F93DF93CF9300D05F
:1007F00000D0CDB7DEB7982E83E00E94EC02809344
:10080000450384E00E94EC028093460386E060E0AA
:100810000E94F20287E061E00E94F20289E06FE745
:100820000E94F2028AE065E00E94F2028BE062E13F
:100830000E94F2028CE065E10E94F2028DE06DEF11
:100840000E94F2028EE060E00E94F202992019F00C
:100850008CE792E008C08091280323E1829FC001C9
:100860001124835E9D4F0E94320380E36CE80E9456
:10087000F20282E36FE00E94F20283E362E40E94EC
:10088000F20284E36AE00E94F20285E36AE20E94D7
:10089000F20286E36DE20E94F20287E364ED0E94B9
:1008A000F20288E360E00E94F20289E360E00E94C5
:1008B000F202992049F00EE1A02E0EEBB02E01ECD1
:1008C000C02E0EEDD02E08C0A0900A03B0900B03EE
:1008D000C0900C03D0900D030AE38D2D9927AA2711
:1008E000BB2789839A83AB83BC83802F69810E9455
:1008F000F202802F8B5F69810E94F202DC2CCB2CEC
:10090000BA2CAA240F5F0E3341F783E46FEF0E94E5
:10091000F20284E46FEF0E94F20285E46FEF0E941E
:10092000F20286E46FEF0E94F202992019F08DE640
:1009300066E003C08DE660910E030E94F20289E733
:1009400060E00E94F2028AE760910F030E94F202C7
:1009500083E760E00E94F20284E760E00E94F20216
:10096000992029F060EC72E98DEE99E108C0609160
:1009700006037091070380910803909109030E9478
:1009800083030F900F900F900F90CF91DF910F91F5
:10099000DF90CF90BF90AF909F90089587E061E087
:1009A0000E94F2028EE764E20E94F20288E063E0B5
:1009B0000E94F20288E060E00E94F20287E065E0B7
:1009C0000E94F20285E062E00E94F20283E00E944F
:1009D000EC028093450384E00E94EC02809346037E
:1009E00008951F920F920FB60F9211242F933F93E9
:1009F0004F938F939F93EF93FF93409166033091B2
:100A0000B102431708F099C08091C2039091C303CB
:100A10009093870080938600E42FF0E0EE0FFF1F95
:100A2000E157FD4F0190F081E02DEC30F10540F4ED
:100A300024E0EE0FFF1F2A95E1F7E85DFC4F15C09B
:100A400083E0E43FF80718F4E452FC4F0EC084E062
:100A5000E030F80718F0E0E9F8E007C0E657F34F98
:100A600094E0EE0FFF1F9A95E1F7EE0FFF1FF09352
:100A7000C303E093C2032091C2033091C30380916A
:100A8000AF029091B002821B930B9093B0028093BF
:100A9000AF022091400330914103220F331F821790
:100AA000930720F43093B0022093AF028091680343
:100AB000882339F48091380380FF98C0483008F4C7
:100AC00095C08FEF9FEF909389008093880080916D
:100AD0008400909185008097D0F385B19091BF03F9
:100AE000892385B988B19091C003892388B98BB1D6
:100AF0009091C10389238BB9809167038823C9F43E
:100B00004423B9F025B14150842F90E04F5FFC01A0
:100B1000EE0FFF1FE80FF91FE157FC4F8081282BD4
:100B200025B988B19181892B88B98BB19281892BA4
:100B30008BB94F5F4093660360C08091C203909170
:100B4000C30390938700809386008091AF029091B9
:100B5000B0029093C3038093C203809168038823FB
:100B600019F08FEF9FEF06C08091C2039091C303ED
:100B700088559240909389008093880080E49CE996
:100B80009093B0028093AF02809184009091850091
:100B90008097D0F385B19091BF03892385B988B13F
:100BA0009091C003892388B98BB19091C1038923A7
:100BB0008BB9809167038823B1F425B13150832F1D
:100BC00090E0FC01EE0FFF1FE80FF91FE157FC4F0B
:100BD0008081282B25B988B19181892B88B98BB167
:100BE0009281892B8BB91092660307C08091C20352
:100BF0009091C3038855924066CFFF91EF919F91EA
:100C00008F914F913F912F910F900FBE0F901F909A
:100C1000189580910003813011F081E008950E94C1
:100C20008615209147033091480340914903509124
:100C30004A03621B730B840B950B615A7648814003
:100C4000904010F480E0089582E00895FF920F93A1
:100C50001F93CF93DF93182F092FF62E8EE30E9458
:100C6000F202212F302FC901EC0110E005C08FE7FF
:100C700069910E94F2021F5F1F15C8F385E064E0CE
:100C80000E94F20283E00E94EC028093450384E01C
:100C90000E94EC02809346030E94861560934703EE
:100CA000709348038093490390934A0387E069E077
:100CB0000E94F20281E080930003DF91CF911F91A7
:100CC0000F91FF9008950E942606809100038130C5
:100CD000D9F40E9486152091470330914803409132
:100CE000490350914A03621B730B840B950B605AA6
:100CF00076488140904040F4E8CF8BE994E060E092
:100D000071E00E94271B0895809100038130A9F3B0
:100D10000895CF93DF938BE994E00E946318892BA9
:100D2000F9F080910304C82FD0E09E012F5F3F4F60
:100D30002F7130708091020490E02817390781F0FC
:100D40008BE994E00E949418CE51DC4F8883809107
:100D5000030490E001968F71907080930304DBCFC1
:100D6000DF91CF9108958EE060E00E946C168FE0D5
:100D700061E00E946C1680E161E00E946C1682E0E6
:100D800060E00E946C1684E061E00E946C16089599
:100D9000EF92FF921F93CF93DF9381E093E00E9445
:100DA000E5008093B10290913903981719F49F5F81
:100DB0009093B102EFE8F3E0108211821282339631
:100DC00083E0E63BF807C1F78FEF8093BF03809382
:100DD000C0038093C1038BE2E82E83E0F82EA0ECE1
:100DE000B2E0E7016FEF5FEF4FEF88818031F0F401
:100DF00090E03C91FC01EE0FFF1FE80FF91FE15757
:100E0000FC4F8081832B808311962C9111978181D7
:100E1000822B818312969C9112978281892B8283E7
:100E2000309543232095522390956923219613965C
:100E3000E3E0C833DE07C9F66093C1035093C003F3
:100E40004093BF03C3EBD2E010E0F7018081823210
:100E500038F08632B0F0863219F4888160E00FC035
:100E60001B3021F48091C1008F7E05C01C3029F415
:100E70008091C100877F8093C100888161E00E94DA
:100E80006C161F5F0894E11CF11C21961D30E9F6D9
:100E900080913003803231F489E061E00E94AB162A
:100EA00082E801C082E08093800081E08093670344
:100EB0008093680380912B03813211F08732D9F43B
:100EC00083E061E00E946C1683E060E00E94AB1654
:100ED00080912B03813231F481E08093B1008093C3
:100EE000B00009C082E08093B00085E08093B1003B
:100EF0008EE38093B3008AE1809381008FEF9FEFB0
:100F0000909389008093880080ED97E0909387000C
:100F10008093860080E49CE99093B0028093AF02B6
:100F20009093C3038093C2031092660380916F0075
:100F3000816080936F008091380383FF25C080918A
:100F40008A03882309F180913903482F50E0AAE6EB
:100F5000B3E020E030E02417350761F0F8948D917C
:100F60009C911197F901EE0FFF1FE157FD4F9183FF
:100F7000808378942F5F3F4F12962031310559F7C7
:100F80001092680310926703DF91CF911F91FF9039
:100F9000EF90089520916403309165033F77C90174
:100FA0009695879585759575281B390BA9015695DA
:100FB0004795569547954373537323733373420F85
:100FC000531FCA0164E0969587956A95E1F7840FEF
:100FD000951F8F709F7021E031E0AC01429FC001EE
:100FE000439F900D529F900D11249F3031F48091BA
:100FF000600386958695805404C08DE0989FC0015B
:10100000112480936103E0913903E031E0F4F89416
:101010008091610390E0880F991F880F991F8C3091
:10102000910518F48CE090E006C053E0853F9507E9
:1010300010F084EF93E0F0E0EE0FFF1FE157FD4F5B
:1010400091838083789480912B038132C9F49091AD
:101050006103892F81508E3F60F08091B0008F7DB9
:101060008093B00060E0911161E083E00E94AB16D4
:1010700008959093B4008091B00080628093B00096
:101080000895EF92FF920F931F93CF93DF93EB019D
:101090009C01442737FD4095542F60E271EA87E0B8
:1010A00090E00E948F1B89011216130614F001E0D4
:1010B00010E0BE01882777FD8095982F20E231EA65
:1010C00047E050E00E943A1B9801442737FD4095C5
:1010D000542F0E948F1B7901C0E0D0E009C0419AD3
:1010E000C8010E9405164198C8010E940516219664
:1010F000CE15DF05A4F3DF91CF911F910F91FF90E3
:10110000EF900895FF920F931F93082FF62E61E042
:101110000E946C16802F61E00E94AB168F2D61E05B
:101120000E94AB168AE090E00E9405168F2D0E9467
:10113000FF16892B11F410E00FC0802F60E00E9491
:10114000AB168AE090E00E9405168F2D0E94FF16D4
:1011500010E0892B09F411E0802F60E00E946C16EA
:10116000802F60E00E94AB168F2D60E00E94AB16CE
:10117000812F1F910F91FF900895EF92FF920F938F
:101180001F93DF93CF93CDB7DEB764970FB6F89474
:10119000DEBF0FBECDBF00E010E07E010894E11C71
:1011A000F11CB80160587E4F85E094E00E94A014C5
:1011B000F701E00FF11F80830F5F1F4F043011050F
:1011C00081F789818A3F49F58A81813131F58B81A7
:1011D0008A3519F58C818E3F01F500E010E07E0123
:1011E0000894E11CF11CB8016C577E4F85E094E037
:1011F0000E94A014F701E00FF11F80830F5F1F4FC3
:101200000431110581F786E06AE673E0A7010E94C8
:10121000090281E080938A0302C010928A036496D7
:101220000FB6F894DEBF0FBECDBFCF91DF911F91F7
:101230000F91FF90EF900895EF92FF920F931F93FD
:10124000CF93DF9380E090E0A0E0B0E0C0E0D1E099
:10125000EE24F82E092F1A2F85E094E0BE010E949B
:10126000A014A8019701280F311D411D511DDA015D
:10127000C901219631E0C430D30751F78E519E4BFE
:10128000A14CBE4D19F020E030E018C0C4E0D1E020
:1012900085E094E0BE010E94A014FE01E350FE4FE1
:1012A0008083219651E0CD32D50791F720E030E0E0
:1012B00080910103893011F421E030E0C901DF9110
:1012C000CF911F910F91FF90EF9008952D9A83E099
:1012D0000E94EC028093450384E00E94EC0280931C
:1012E000460386E060E00E94F20287E061E00E942F
:1012F000F20289E06FE70E94F2028AE065E00E9454
:10130000F2028BE062E10E94F2028CE065E10E9451
:10131000F2028DE06DEF0E94F2028EE060E00E942A
:10132000F20280E76CE20E94F20280E360E00E9439
:10133000F20289E760E00E94F2028AE765E00E941B
:10134000F20281E762E10E94F20282E762E00E941B
:10135000F20283E760E00E94F20284E760E00E940C
:10136000F20260913A0370913B0380913C039091AB
:101370003D030E9483038DE667E00E94F2026AE06B
:1013800070E080E090E00E94AC1587E069E00E9488
:10139000F2026AE070E080E090E00E94AC1588E81C
:1013A00091E061E070E00E9441088DE665E00E94F6
:1013B000F2026AE070E080E090E00E94AC1588EBF9
:1013C00091E061E070E00E9441088DE664E00E94D7
:1013D000F2026AE070E080E090E00E94AC158DE5DA
:1013E00091E061E070E00E9441088DE662E00E94B9
:1013F000F2026AE070E080E090E00E94AC158FEAB3
:1014000090E061E070E00E9441088DE660E00E949B
:10141000F2026AE070E080E090E00E94AC1585E0A6
:1014200091E062E070E00E94410887E061E00E9484
:10143000F2022D98089583E00E94EC028093450308
:1014400084E00E94EC028093460387E061E00E9402
:10145000F2026AE070E080E090E00E94AC150E9429
:10146000CE04000008950F931F93082F17C0439ACE
:1014700064E670E080E090E00E94AC15439864E67A
:1014800070E080E090E00E94AC151F5F101778F3C9
:101490006CE271E080E090E00E94AC1510E0F6CFC5
:1014A000EF92FF920F931F938C01BBE9EB2EB4E0F8
:1014B000FB2EC701612F70E04AE050E00E94A21AA3
:1014C000C7016EE20E94BF19A4E016950795AA9580
:1014D000E1F70F701070C701B8014AE050E00E94B8
:1014E000A21A1F910F91FF90EF9008952F923F92B3
:1014F0004F925F926F927F928F929F92AF92BF9224
:10150000CF92DF92EF92FF920F93DF93CF93CDB7FD
:10151000DEB7A8970FB6F894DEBF0FBECDBF7E0131
:101520000894E11CF11C80E1D7011D928A95E9F72E
:1015300043982D988BE994E06CE071E00E94271BA2
:101540000E941B0A20E431EE4DE958E129A33AA399
:101550004BA35CA380EC91EDA8E9BBE18D8F9E8F3E
:10156000AF8FB8A324EF31E040E050E0298F3A8FED
:101570004B8F5C8F80E593ECA0E0B0E08D8B9E8B71
:10158000AF8BB88F20E4422E21EE522E2DE9622E31
:1015900028E1722E88249924540100E02224198A1B
:1015A0001A8A1B8A1C8A332402C18BE994E00E94A8
:1015B00094188C32D9F1843421F0833209F0C5C0FB
:1015C00024C08BE994E064E40E94BF198BE994E0A5
:1015D00040E451EE6DE978E12AE030E00E94C51A5E
:1015E0008BE994E06CE20E94BF198BE994E040EC37
:1015F00051ED68E97BE12AE030E00E94C51A8BE9F1
:1016000094E06CE20E94FB19D2C019821A821B82FC
:101610001C821D821E821F82188619861A861B86CE
:101620001C861D861E861F86188A42C00F5F0430E6
:1016300009F0BDC069817A818B819C8128EE33E0FD
:1016400040E050E00E943A1B69A37AA38BA39CA3BD
:101650006D817E818F8198850E943A1B6D8F7E8F70
:101660008F8F98A329853A854B855C85298F3A8F82
:101670004B8F5C8F6D857E858F85988928EE33E052
:1016800040E050E00E943A1B6D8B7E8B8F8B988FD1
:1016900060527E448040904068F48CE162E30E9496
:1016A000F20249A05AA06BA07CA08824992454017E
:1016B00000E07DC08D899E89AF89B88D80539547A4
:1016C000A040B04018F48CE162E2E9CF2D893E8958
:1016D0004F89588D20543C494040504018F48CE1CB
:1016E00066E2DDCF2D893E894F89588D2055334CD8
:1016F0004040504018F48CE162E1D1CF2D893E8901
:101700004F89588D20563A4E4040504018F48CE195
:1017100065E1C5CF2D893E894F89588D20573141CC
:101720004140504018F48CE161E0B9CF2D893E89E9
:101730004F89588D205A36484140504018F48CE16A
:1017400063E0ADCF8CE165E0AACF80538A3078F5B5
:10175000C02EDD24CC0CDD1CCC0CDD1CA1E0B0E0E7
:10176000AC0FBD1FCA0EDB1E282F332727FD309577
:10177000432F532F2DA33EA34FA358A7D6016D91FE
:101780007D918D919C912AE030E040E050E00E94F4
:101790003A1B2DA13EA14FA158A5260F371F481F68
:1017A000591FD6012D933D934D935C9313978BE96D
:1017B00094E00E946318892B09F0F7CE81149104FC
:1017C000A104B10489F4C301B2010E94830361E062
:1017D00070E080E090E00E94AC1522242A94198ADF
:1017E0001A8A1B8A1C8A3324298D3A8D4B8D5C8D75
:1017F00082169306A406B506D0F40E941303298925
:101800003A894B895C89280F311D411D511D298B57
:101810003A8B4B8B5C8B381608F4382E821508F403
:10182000282E0894811C911CA11CB11C5AC0C30114
:10183000B20128EE33E040E050E00E946D1B8BE9DE
:1018400094E0BA01A9012AE030E00E94931A8BE9E2
:1018500094E06CE20E94BF198BE994E0632D4AE0AA
:1018600050E00E94B31A8BE994E06CE20E94BF1929
:1018700069897A898B899C89A50194010E946D1BD5
:101880008BE994E0BA01A9012AE030E00E94931AA2
:101890008BE994E06CE20E94BF198BE994E0622D21
:1018A0004AE050E00E94B31A8BE994E06CE20E9497
:1018B000FB198D899E89AF89B88D480E591E6A1E05
:1018C0007B1E2D8D3E8D4F8D58A124153505460567
:1018D000570520F449A05AA06BA07CA08824992425
:1018E000540189A19AA1ABA1BCA1885E9340A040FC
:1018F000B04009F05CCFA8960FB6F894DEBF0FBEDB
:10190000CDBFCF91DF910F91FF90EF90DF90CF90FF
:10191000BF90AF909F908F907F906F905F904F900F
:101920003F902F9008950F931F93CF93DF93EC0177
:10193000062F15E0115071F085E094E0BE010E9481
:10194000A014081751F085E094E0BE01402F0E94DA
:10195000A714F0CF82E00E94330ADF91CF911F914C
:101960000F910895AF92BF92CF92DF92EF92FF92C4
:101970000F931F93DF93CF93CDB7DEB764970FB666
:10198000F894DEBF0FBECDBF0E9478155B016C01DD
:10199000AAE6B3E020E030E0F901EE0FFF1FE157C7
:1019A000FD4F808191818D939D932F5F3F4F20311B
:1019B000310591F781E080938A0386E06AE673E05F
:1019C0008E010F5F1F4FA8010E946B01EE24FF24C0
:1019D000F801EE0DFF1DC7018C579E4F60810E94DC
:1019E000930C0894E11CF11C84E1E816F10481F7E2
:1019F0008AEF898381E18A838AE58B838EEF8C83EA
:101A000000E010E07E010894E11CF11CF701E00FFA
:101A1000F11FC80180589E4F60810E94930C0F5F98
:101A20001F4F0430110591F70E9478159B01AC01FE
:101A30002A193B094C095D09283C3105410551052E
:101A400050F468EC70E080E090E0621B730B840B54
:101A5000950B0E94AC1564960FB6F894DEBF0FBECE
:101A6000CDBFCF91DF911F910F91FF90EF90DF904D
:101A7000CF90BF90AF9008954F925F926F927F92F8
:101A80008F929F92AF92BF92CF92DF92EF92FF928E
:101A90000F931F938CE00E94EC02882359F48BE98A
:101AA00094E069E171E00E94271B80E00E94EF034F
:101AB0000E941B0A0E9489060E94861580910003DD
:101AC000843009F061C10E94861560934C037093C5
:101AD0004D0380934E0390934F0310928C0380919B
:101AE000640390916503880F991F8160909365034B
:101AF0008093640343982D9A80912B03873229F4B5
:101B00008091B0008F7E8093B0008FE70E94C80262
:101B100000E010E008C00E94DC02F801EC53FC4F2A
:101B200080830F5F1F4FE0912903F0E0E770F070B2
:101B3000E951FD4F808190E00817190764F30E9476
:101B4000170390936303809362038091C403282F4B
:101B500030E0C9018E739070892BE1F5F894809183
:101B6000290387706FE872E045EC53E00E94090298
:101B7000E0913903E031D0F48091610390E0880F67
:101B8000991F880F991F8C30910518F48CE090E014
:101B900006C023E0853F920710F084EF93E0F0E069
:101BA000EE0FFF1FE157FD4F918380837894809162
:101BB000C40390918E0380FF08C0992379F50E9499
:101BC000B20C81E080938E0329C0992339F11092E1
:101BD0008E0324C0C90188739070C897F9F44091AE
:101BE000D903842F822787FF19C040584093D90317
:101BF00010E00AC01F5FE12FF0E0EC53FC4F8BE9CF
:101C000094E060810E94CD18212F30E08091C403C0
:101C100090E0877090708217930764F780918B0330
:101C2000882319F481E080938B031092690310924A
:101C300067031092680380912903887109F49BC09F
:101C40004091D9038091C40390E0242F30E0822793
:101C5000932786FD84C0407C80E448274093D903C5
:101C60009091020480910304981701F1AAEDB3E06A
:101C700030E00FC03F5F892F90E0FC01EE51FC4F38
:101C800020812D9301968F719070809302043830DB
:101C900031F09091020480910304981759F7395C50
:101CA0008091D903382B3093D90359C080915F03B9
:101CB0008093DA0380913403863251F482E10E94EA
:101CC0004A1695958795959587958093DB0302C075
:101CD0001092DB0380913503863251F483E10E9438
:101CE0004A1695958795959587958093DC0302C054
:101CF0001092DC03809163038093DD038091620383
:101D00008093DE0320916403309165033F77C9011E
:101D10009695879585759575281B390BA90156955C
:101D20004795569547954373537323733373420F07
:101D3000531FCA01E4E096958795EA95E1F7840F71
:101D4000951F8F709F7021E031E0AC01429FC00170
:101D5000439F900D529F900D11249093DF0389EDC6
:101D600093E069E00E94260602C00E9489060E9454
:101D700009068823D1F383E0809300030E94CE04F8
:101D800081E080938D032D980E9486155B016C0184
:101D90000E9478152B013C0180918C03823008F061
:101DA00065C0E0904C03F0904D0300914E031091FC
:101DB0004F038091500390915103A0915203B09131
:101DC00053038E159F05A007B10709F44FC081E0AA
:101DD00093E00E94F500A60195012E193F09400BE2
:101DE000510B6C5D7540804090406217730784070B
:101DF0009507E0F5E0925003F092510300935203EF
:101E0000109353030E94130380935F0320915D039B
:101E100030915E03280F311D30935E0320935D03E4
:101E200060915C036F5F60935C036930F8F0C901F7
:101E300070E00E94591BCB0170935E0360935D03B9
:101E40002091600343E0249F90011124820F931F8F
:101E50009695879596958795809360030E94CA070B
:101E600010925E0310925D0310925C0380918B03CD
:101E700080900404882309F4FFC190908C03981487
:101E800008F03EC2E0904C03F0904D0300914E03E9
:101E900010914F0381E093E00E94F500AE18BF0857
:101EA000C00AD10A68517C4F8F4F9F4F6A157B053E
:101EB0008C059D0508F072C08091640390916503C4
:101EC000880F991F909365038093640381E080934A
:101ED0008D03992081F440925403509255036092EF
:101EE00056037092570310925803109259031092A0
:101EF0005A0310925B03939490928C0381E093E0D9
:101F00000E94F500E60EF71E081F191FE0924C0311
:101F1000F0924D0300934E0310934F0381E08093A2
:101F20008D03439A80912B03873229F48091B0006E
:101F300080618093B0000E94CA0730C081E093E0C6
:101F40000E94F5009B01AC0180914C0390914D03E0
:101F5000A0914E03B0914F0386017501E81AF90A6A
:101F60000A0B1B0B692D70E080E090E00E943A1B89
:101F70006E157F058007910788F410926503109213
:101F8000640381E080938D030E94CA07A0924C03F2
:101F9000B0924D03C0924E03D0924F0380918C03B8
:101FA000882309F493C160914203662309F47DC03C
:101FB00080916903882309F078C0E0905403F09081
:101FC0005503009156031091570370E06436710574
:101FD00018F480E090E022C06E3B710548F46A5529
:101FE000704080E090E02AE030E040E050E014C033
:101FF000623D710548F4645B704080E090E024E647
:1020000030E040E050E008C06D5C704080E090E05F
:1020100028E532E040E050E00E943A1BA301920123
:102020002E193F09400B510B79018A0124E630E05B
:1020300040E050E00E943A1B6E157F058007910733
:10204000A0F581E08093690380918A038823E1F001
:10205000AAE6B3E020E030E08091390390E0281751
:10206000390761F0F8948D919C911197F901EE0F69
:10207000FF1FE157FD4F9183808378942F5F3F4F7F
:1020800012962031310541F780913E030E94B7003E
:10209000640D751D861D971D6160609358037093D4
:1020A000590380935A0390935B0360914403662322
:1020B00009F44CC080916703882309F047C0E09081
:1020C0005403F0905503009156031091570370E0AC
:1020D0006436710518F480E090E022C06E3B710513
:1020E00048F46A55704080E090E02AE030E040E03B
:1020F00050E014C0623D710548F4645B704080E0BC
:1021000090E024E630E040E050E008C06D5C7040B4
:1021100080E090E028E532E040E050E00E943A1B89
:10212000A30192012E193F09400B510B79018A013D
:1021300024E630E040E050E00E943A1B6E157F0537
:102140008007910718F481E080936703609143034F
:10215000662309F44CC080916803882309F047C0C6
:10216000E0905403F09055030091560310915703EB
:1021700070E06436710518F480E090E022C06E3B98
:10218000710548F46A55704080E090E02AE030E044
:1021900040E050E014C0623D710548F4645B70405B
:1021A00080E090E024E630E040E050E008C06D5C64
:1021B000704080E090E028E532E040E050E00E948E
:1021C0003A1BA30192012E193F09400B510B7901D3
:1021D0008A0124E630E040E050E00E943A1B6E1590
:1021E0007F058007910718F481E080936803809150
:1021F0003A0390913B03A0913C03B0913D030097BB
:10220000A105B10509F462C080915803909159036A
:10221000A0915A03B0915B030097A105B10509F4A1
:1022200055C083017201E81AF90A0A0B1B0B17FD4E
:102230004DC060913F0370E080E090E028EE33E015
:1022400040E050E00E943A1B6E157F058007910721
:10225000E8F50E94660980E00E94EF030E94CE0428
:102260000E947815616060935803709359038093BE
:102270005A0390935B032AC081E093E00E94F5002B
:102280009B01AC0180914C0390914D03A0914E03B2
:10229000B0914F0386017501E81AF90A0A0B1B0B6E
:1022A000682D70E080E090E00E943A1B6E157F057B
:1022B0008007910758F4A0924C03B0924D03C0924E
:1022C0004E03D0924F0381E080938D0380918D0364
:1022D0008130D1F4E0914B03EF5FE0934B03E831A1
:1022E00031F0F0E0EF5FFC4F8785882311F4109206
:1022F0004B0380914B030E94FD0210928D0304C09A
:10230000981409F04BCE1ACE1F910F91FF90EF90C9
:10231000DF90CF90BF90AF909F908F907F906F9005
:102320005F904F900895CF92DF92EF92FF920F93BC
:102330001F93CF93DF93C8E1D0E000E411E04EE1BA
:10234000C42E4EEBD42E41ECE42E4EEDF42EA7011C
:1023500096010C2E04C056954795379527950A94FB
:10236000D2F7C801622F0E94930C28970F5F1F4F6E
:102370008FEFC83FD80759F7C4E4D1E0FE01EA5116
:10238000FE4FCE0160810E94930C219681E0CF35F3
:10239000D807A1F7DF91CF911F910F91FF90EF9098
:1023A000DF90CF900895282F81E080932A0381E267
:1023B00080932B03ECE2F3E080E081938F5F883021
:1023C000E1F786E2809334038093350384E28093BF
:1023D000360385E28093370382E0809338038FEFE2
:1023E000809339039AE09093420310924303109232
:1023F000440310923A0310923B0310923C03109254
:102400003D038EE180933E0390933F0388EB9BE076
:102410009093410380934003222311F00E94931173
:102420000895EF92FF920F931F93CF93DF9380E075
:1024300090E0A0E0B0E0C0E4D1E0EE24F82E092F57
:102440001A2F85E094E0BE010E94A014A801970114
:10245000280F311D411D511DDA01C901219631E0BE
:10246000C434D30751F78E519E4BA14CBE4D21F081
:1024700081E00E94D3111DC0C4E4D1E085E094E066
:10248000BE010E94A014FE01EA51FE4F80832196F6
:1024900051E0CF35D50791F780912A03813019F0AB
:1024A00081E00E94D3118BE994E061E271E00E9427
:1024B000271BDF91CF911F910F91FF90EF9008950F
:1024C0002F923F924F925F926F927F928F929F9244
:1024D000AF92BF92CF92DF92EF92FF920F931F9332
:1024E000DF93CF93CDB7DEB7E4970FB6F894DEBF96
:1024F0000FBECDBF6B017C010E9478154B015C01C2
:1025000081E00E94EF0383E0809300030E941B0A96
:102510008BE994E06FE271E00E94271B1E01089492
:10252000211C311C77E0472E512C4C0E5D1E62E0C1
:10253000662E712C6C0E7D1E93C08BE994E06DE3CA
:1025400071E00E94271B8FE70E94C8020E94DC02F4
:102550008983823601F501E013E00E94DC02F80174
:1025600081938F01F3E00A321F07B9F780910103CD
:10257000893009F070C08BE994E066E471E00E9454
:10258000271B82E48983CE01019661E00E946306E5
:102590002D9A81E07BC0803719F0893629F50CC06F
:1025A0008BE994E06EE870E00E94E71980E5898F7E
:1025B000CC24DD2476010BC08BE994E06DE770E05C
:1025C0000E94E71981E00E94D311E9E4E98FDE015E
:1025D0005A96EAE2F3E08BE101900D928150E1F727
:1025E000CE0149966CE135C0843701F58BE994E062
:1025F00068E670E00E94E719F4E5FA8383E08B83D4
:10260000E0E5EC83FDE0FD8389E08E83D201EBE021
:10261000F2E082E101900D928150E1F7C30167E1A0
:102620000E946306CC24DD24760115C0853799F419
:102630000AE213E00E94DC02F80181938F01F3E0CB
:1026400005341F07B9F70E94931185E58983C101FD
:1026500061E00E946306E3E0E09300030E94CE0481
:10266000C114D104E104F10459F00E9478156819ED
:1026700079098A099B096C157D058E059F0528F44B
:1026800080910003843061F758CF80E0E4960FB664
:10269000F894DEBF0FBECDBFCF91DF911F910F9198
:1026A000FF90EF90DF90CF90BF90AF909F908F9072
:1026B0007F906F905F904F903F902F900895CF92B2
:1026C000DF92EF92FF920F931F93CF93DF93C8E1B6
:1026D000D0E000E011E0EEE1CE2EEEEBDE2EE1ECFC
:1026E000EE2EEEEDFE2EA70196010C2E04C056959F
:1026F0004795379527950A94D2F7C801622F0E9413
:10270000930C28970F5F1F4F8FEFC83FD80759F7DB
:10271000C4E0D1E0FE01E350FE4FCE0160810E9493
:10272000930C219681E0CD32D807A1F7DF91CF91AC
:102730001F910F91FF90EF90DF90CF90089580E070
:1027400068EA70E042E050E00E94B31408958DE022
:1027500061E00E946C1681E161E00E946C160E94AB
:10276000B30680E060E00E946C1681E061E00E94A8
:102770006C168BE994E040E052EC61E070E00E945E
:10278000DC170E9411120E94BD088BE994E061E5FC
:1027900071E00E94241B80E593E00E94500A8BE9BF
:1027A00094E068E671E00E94241B8BE994E063E00A
:1027B00070E04AE050E00E94051B0E949F1378944D
:1027C000439A86E067E00E948208882319F00E94FD
:1027D000760AFDCF83E065E00E948208882329F411
:1027E0000E941C09892B09F0A4C08BE994E060E7E2
:1027F00071E00E94241B60E070E080E090E00E94A5
:102800006012882349F00E945F138BE994E069EA23
:1028100071E00E94271B2D9A0E94C80615C082FDF8
:1028200013C064EF71E080E090E00E9460128823A2
:1028300059F00E945F138BE994E069EA71E00E940D
:10284000271B0E94C8062D9A809134038232C1F45E
:10285000809135038332A1F48091380382FF0AC04E
:102860008BE994E064EC71E00E94271B85E00E94F4
:10287000330A06C08BE994E06FEC71E00E94271BDD
:102880008BE994E066EF71E00E94241B80E00E94D7
:10289000EF0310924B0380E00E94FD0210920404AB
:1028A00090E0983158F4292F2F5FE92FF0E0EF5F87
:1028B000FC4F8785882311F0922FF3CF9093040467
:1028C00083E0809300030E941B0A80912903887192
:1028D000803139F48BE994E040E855E260E070E043
:1028E0000AC0409102035091030360910403709168
:1028F00005038BE994E00E94DC1704C08BE994E0A7
:102900000E9494188BE994E00E946318892BB1F718
:10291000109202041092030410928B030E948615F9
:1029200060934C0370934D0380934E0390934F0339
:1029300008950E94C8068091380381FD70CF84CF2E
:10294000F999FECF72BD61BDF89A80B50895F999E5
:10295000FECF1FBA72BD61BD40BD0FB6F894FA9AA2
:10296000F99A0FBE0895823000F5E82FF0E0EE0FDF
:10297000FF1FEA5FFB4F71836083882319F081306A
:10298000A1F408C0809169008C7F842B809369003A
:10299000E89A089580916900440F551F440F551F10
:1029A000837F842B80936900E99A08951F920F9288
:1029B0000FB60F9211242F933F934F935F936F9312
:1029C0007F938F939F93AF93BF93EF93FF938091E8
:1029D000060490910704892B29F0E0910604F091F8
:1029E00007040995FF91EF91BF91AF919F918F914E
:1029F0007F916F915F914F913F912F910F900FBEFB
:102A00000F901F9018951F920F920FB60F921124DE
:102A10002F933F934F935F936F937F938F939F93E6
:102A2000AF93BF93EF93FF938091080490910904B3
:102A3000892B29F0E0910804F09109040995FF9190
:102A4000EF91BF91AF919F918F917F916F915F9126
:102A50004F913F912F910F900FBE0F901F9018959F
:102A60001F920F920FB60F9211242F933F938F93C3
:102A70009F93AF93BF9380910E0490910F04A09108
:102A80001004B0911104309112040196A11DB11DE2
:102A9000232F2D5F2D3720F02D570196A11DB11D3D
:102AA0002093120480930E0490930F04A0931004BB
:102AB000B093110480910A0490910B04A0910C042E
:102AC000B0910D040196A11DB11D80930A0490934D
:102AD0000B04A0930C04B0930D04BF91AF919F9190
:102AE0008F913F912F910F900FBE0F901F901895CF
:102AF0008FB7F89420910E0430910F044091100488
:102B0000509111048FBFB901CA0108959FB7F8947D
:102B100020910A0430910B0440910C0450910D0453
:102B200086B5A89B06C08F3F21F02F5F3F4F4F4FC8
:102B30005F4F9FBF542F432F322F2227280F311D65
:102B4000411D511D82E0220F331F441F551F8A95DE
:102B5000D1F7B901CA0108959B01AC017FB7F89480
:102B600080910A0490910B04A0910C04B0910D0483
:102B700066B5A89B05C06F3F19F00196A11DB11D58
:102B80007FBFBA2FA92F982F8827860F911DA11DCF
:102B9000B11D62E0880F991FAA1FBB1F6A95D1F76C
:102BA000BC012DC0FFB7F89480910A0490910B04EA
:102BB000A0910C04B0910D04E6B5A89B05C0EF3FB1
:102BC00019F00196A11DB11DFFBFBA2FA92F982F93
:102BD00088278E0F911DA11DB11DE2E0880F991F5E
:102BE000AA1FBB1FEA95D1F7861B970B885E9340FF
:102BF000C8F2215030404040504068517C4F211570
:102C000031054105510571F60895019739F0880F96
:102C1000991F880F991F02970197F1F708957894EB
:102C200084B5826084BD84B5816084BD85B58260D1
:102C300085BD85B5816085BDEEE6F0E0808181606F
:102C40008083E1E8F0E0108280818260808380816F
:102C500081608083E0E8F0E0808181608083E1EB47
:102C6000F0E0808184608083E0EBF0E0808181602F
:102C70008083EAE7F0E080818460808380818260E5
:102C800080838081816080838081806880831092CE
:102C9000C1000895982F8E3008F09E509770809153
:102CA000B2028295880F880F807C892B80937C00EC
:102CB00080917A00806480937A0080917A0086FD0A
:102CC000FCCF2091780040917900942F80E030E093
:102CD000282B392BC9010895CF93DF93482F50E05B
:102CE000CA018E529F4FFC01349142545F4FFA014A
:102CF0008491882369F190E0880F991FFC01E056C8
:102D0000FF4FA591B491FC01E655FF4FC591D491B9
:102D1000662351F42FB7F8948C91932F90958923C3
:102D20008C93888189230BC0623061F42FB7F894AB
:102D30008C91932F909589238C938881832B888302
:102D40002FBF06C09FB7F8948C91832B8C939FBFA5
:102D5000DF91CF910895482F50E0CA018A519F4FCB
:102D6000FC012491CA018E529F4FFC019491425460
:102D70005F4FFA013491332309F440C0222351F10B
:102D8000233071F0243028F42130A1F0223011F5E5
:102D900014C02630B1F02730C1F02430D9F404C07B
:102DA000809180008F7703C0809180008F7D809319
:102DB000800010C084B58F7702C084B58F7D84BD3C
:102DC00009C08091B0008F7703C08091B0008F7DE3
:102DD0008093B000E32FF0E0EE0FFF1FE655FF4FAA
:102DE000A591B4912FB7F894662321F48C91909516
:102DF000892302C08C91892B8C932FBF0895682F53
:102E000070E0CB018A519F4FFC012491CB018E527F
:102E10009F4FFC01449162547F4FFB019491992391
:102E200019F420E030E03CC0222351F1233071F04E
:102E3000243028F42130A1F0223011F514C02630BE
:102E4000B1F02730C1F02430D9F404C08091800063
:102E50008F7703C0809180008F7D8093800010C0A9
:102E600084B58F7702C084B58F7D84BD09C0809101
:102E7000B0008F7703C08091B0008F7D8093B00049
:102E8000892F90E0880F991F8C549F4FFC01A591CA
:102E9000B4918C9120E030E0842311F021E030E007
:102EA000C901089508951F920F920FB60F92112431
:102EB0002F933F934F938F939F93EF93FF93809123
:102EC000C00082FD1DC04091C60020915304309186
:102ED00054042F5F3F4F2F733070809155049091B1
:102EE00056042817390771F0E0915304F091540407
:102EF000ED5EFB4F4083309354042093530402C093
:102F00008091C600FF91EF919F918F914F913F91DA
:102F10002F910F900FBE0F901F901895E091A7046E
:102F2000F091A804E05CFF4F819191912081318163
:102F3000821B930B8F739070892B11F00E94521794
:102F400008951F920F920FB60F9211242F933F9363
:102F50008F939F93EF93FF93209197043091980460
:102F60008091990490919A042817390731F480913F
:102F7000C1008F7D8093C10014C0E0919904F0914D
:102F80009A04E95AFB4F20818091990490919A0408
:102F900001968F73907090939A0480939904209374
:102FA000C600FF91EF919F918F913F912F910F90CC
:102FB0000FBE0F901F901895AF92BF92DF92EF92C5
:102FC000FF920F931F93CF93DF93EC017A018B0154
:102FD000DD24403081EE580780E0680780E0780704
:102FE00011F0DD24D39491E0A92EB12CEC89FD8958
:102FF000DD2069F0C50108A002C0880F991F0A945E
:10300000E2F7808360E079E08DE390E005C0108214
:1030100060E874E88EE190E0A80197010E946D1BC2
:103020002150304040405040569547953795279560
:1030300080E12030380720F0DD2011F0DD24D6CFEC
:10304000E889F9893083EA89FB89208319A2EE890E
:10305000FF89408121E030E0C9010C8C02C0880F5B
:10306000991F0A94E2F7482B4083EE89FF8940813B
:10307000C9010D8C02C0880F991F0A94E2F7482BF2
:103080004083EE89FF894081C9010E8C02C0880F00
:10309000991F0A94E2F7482B4083EE89FF898081CB
:1030A0000F8C02C0220F331F0A94E2F720952823C9
:1030B0002083DF91CF911F910F91FF90EF90DF90D0
:1030C000BF90AF900895DC011C96ED91FC911D9787
:1030D000E05CFF4F2191319180819181281B390B58
:1030E0002F733070C9010895DC011C96ED91FC919D
:1030F0001D97E05CFF4F20813181E054F040DF01FB
:10310000AE5BBF4F8D919C9111972817390719F429
:103110002FEF3FEF07C08D919C91E80FF91F808141
:10312000282F30E0C9010895DC011C96ED91FC9137
:103130001D97E05CFF4F20813181E054F040DF01BA
:10314000AE5BBF4F8D919C9111972817390719F4E9
:103150002FEF3FEF10C08D919C911197E80FF91F51
:1031600020818D919C91119701968F73907011968B
:103170009C938E9330E0C9010895DC0191968C9167
:103180009197882339F05496ED91FC915597808161
:1031900086FFF9CF91961C920895CF93DF93EC01AF
:1031A000EE85FF85E05CFF4F20813181E054F040E7
:1031B0002F5F3F4F2F733070DF01AE5BBF4F8D919C
:1031C0009C91119728173907D1F3E05CFF4F80815C
:1031D0009181E054F040E80FF91F6083EE85FF8590
:1031E000E05CFF4F31832083EE89FF89208181E0FD
:1031F00090E00F8C02C0880F991F0A94E2F7282BE9
:10320000208381E089A3EC89FD89808180648083AB
:1032100081E090E0DF91CF91089510929E0410928A
:103220009D0488EE93E0A0E0B0E080939F0490932B
:10323000A004A093A104B093A20483EF92E0909322
:103240009C0480939B0483E194E09093A804809372
:10325000A70487E594E09093AA048093A90485ECE1
:1032600090E09093AC048093AB0484EC90E0909356
:10327000AE048093AD0480EC90E09093B004809312
:10328000AF0481EC90E09093B2048093B10482EC9F
:1032900090E09093B4048093B30486EC90E0909314
:1032A000B6048093B50484E08093B70483E08093F0
:1032B000B80487E08093B90485E08093BA0481E084
:1032C0008093BB040895CF93DF930E940F160E9452
:1032D000A713CEE8D7E10E943C0D2097E1F30E94AE
:1032E0008E17F9CFCF92DF92EF92FF920F931F9339
:1032F000CF93DF937C016B018A01C0E0D0E00FC067
:10330000D6016D916D01D701ED91FC910190F08195
:10331000E02DC7010995C80FD91F015010400115B4
:10332000110571F7CE01DF91CF911F910F91FF90A1
:10333000EF90DF90CF900895EF92FF920F931F933D
:10334000CF93DF937C018B01C0E0D0E0F8010F5FE9
:103350001F4F6491662359F0D701ED91FC910190C4
:10336000F081E02DC7010995C80FD91FEFCFCE011D
:10337000DF91CF911F910F91FF90EF900895DC01A5
:10338000ED91FC910190F081E02D09950895EF9267
:10339000FF920F931F938C01DC01ED91FC91019042
:1033A000F081E02D6DE009957C01D801ED91FC9153
:1033B0000190F081E02DC8016AE009959C012E0D75
:1033C0003F1DC9011F910F91FF90EF900895EF925B
:1033D000FF920F931F937C010E949C198C01C701DF
:1033E0000E94C7199C01200F311FC9011F910F9125
:1033F000FF90EF900895EF92FF920F931F937C013F
:10340000DC01ED91FC910190F081E02D09958C019A
:10341000C7010E94C719080F191FC8011F910F91FA
:10342000FF90EF900895CF93DF93EC016115710544
:1034300019F420E030E00FC0DB010D900020E9F727
:103440001197A61BB70BE881F9810280F381E02D6B
:10345000AD0109959C01C901DF91CF9108954F926B
:103460005F927F928F929F92AF92BF92CF92DF92A4
:10347000EF92FF920F931F93DF93CF93CDB7DEB7F9
:10348000A1970FB6F894DEBF0FBECDBF2C01742EEE
:10349000CB01223008F42AE019A231E2C32ED12C4C
:1034A000CC0EDD1E822E9924AA24BB24672D752FF5
:1034B000A50194010E946D1B79018A01C801B70121
:1034C000A50194010E943A1B472D461B0894C10890
:1034D000D1084A3014F4405D01C0495CF6014083D4
:1034E000E114F1040105110521F07E2C5F2DC801C6
:1034F000DDCFC201B6010E94131AA1960FB6F8944F
:10350000DEBF0FBECDBFCF91DF911F910F91FF9016
:10351000EF90DF90CF90BF90AF909F908F907F9073
:103520005F904F900895DC012115310541F4ED9134
:10353000FC910190F081E02D642F099508950E947F
:103540002F1A0895EF92FF920F931F939A017B0118
:1035500000E010E0B801A7010E94931A1F910F919B
:10356000FF90EF900895EF92FF920F931F939A01AF
:10357000E62EFF2400E010E0B801A7010E94931A94
:103580001F910F91FF90EF900895CF92DF92EF92ED
:10359000FF920F931F93CF93DF93EC016A017B019E
:1035A0002115310541F4E881F9810190F081E02D88
:1035B000642F09951FC02A303105D1F477FF17C059
:1035C000E881F9810190F081E02D6DE209958C018F
:1035D00044275527BA014C195D096E097F09CE01B0
:1035E0002AE00E942F1A9801280F391F04C02AE0F0
:1035F0000E942F1A9C01C901DF91CF911F910F9159
:10360000FF90EF90DF90CF900895CF92DF92EF92EE
:10361000FF920F931F936C017B019A010027F7FC27
:103620000095102FB801A7010E94C51A8C01C60190
:103630000E94C719080F191FC8011F910F91FF9011
:10364000EF90DF90CF9008950E94131A0895EF92A3
:10365000FF920F931F937C010E94131A8C01C701E4
:103660000E94C719080F191FC8011F910F91FF90E1
:10367000EF900895629FD001739FF001829FE00D4B
:10368000F11D649FE00DF11D929FF00D839FF00DE1
:10369000749FF00D659FF00D9927729FB00DE11D8D
:1036A000F91F639FB00DE11DF91FBD01CF0111246A
:1036B0000895AA1BBB1B51E107C0AA1FBB1FA61779
:1036C000B70710F0A61BB70B881F991F5A95A9F7CB
:1036D00080959095BC01CD010895A1E21A2EAA1BF8
:1036E000BB1BFD010DC0AA1FBB1FEE1FFF1FA217B2
:1036F000B307E407F50720F0A21BB30BE40BF50BAF
:10370000661F771F881F991F1A9469F76095709537
:10371000809590959B01AC01BD01CF01089597FB69
:10372000092E05260ED057FD04D0D7DF0AD0001C85
:1037300038F450954095309521953F4F4F4F5F4F4E
:103740000895F6F790958095709561957F4F8F4F0E
:103750009F4F0895EE0FFF1F0590F491E02D0994FF
:04376000F894FFCF0B
:1037640054582074696D656F757421007363616EBC
:103774006E6572206D6F64650052582068616E67D3
:10378400005258636F6E66206C6F61646564005705
:10379400616974696E672062696E640A00476F74B8
:1037A40020706B740A006461746120676F6F640A2F
:1037B400004F70656E4C52536E67205258207374DC
:1037C400617274696E672000206F6E204857200074
:1037D400454550524F4D2064617461206E6F7420D2
:1037E40076616C6964206F722062696E64206A7508
:1037F4006D70706572207365742C20666F726369D6
:103804006E672062696E640A0053617665642062A3
:10381400696E64206461746120746F204545505260
:103824004F4D0A004920616D20736C617665004C30
:103834006F6F6B696E6720666F7220736C6176655B
:103844002C206E6F7420696D706C656D656E746587
:10385400642079657400456E746572696E67206EC4
:103864006F726D616C206D6F646500002100270527
:1038740020092209260A230A260B240C25C012003B
:10388400001A400AA1204EA5001B1E27522C2330EB
:103894008025000005400AA1204EA50020244EA545
:1038A4002C2330004B000006400AD0009D49007BC9
:1038B400289D492C233000E1000005400A4501D72A
:1038C400DC03B81E0EBF00232E48E801008A400A1C
:1038D4006001555502AD1E20000023C8802500005C
:1038E40005400AA1204EA50020244EA52C2330001B
:1038F40002000200020002000200020002000200B4
:103904000200020002000200020002000200024063
:103914009C08010305060708090A0B0C1213000191
:1039240000000800002000004000008001000002A8
:103934000000040000080000100000001000002037
:103944000000000100000200070B0C10111500001C
:10395400000000CD187219631894187418BD18006B
:00000001FF
