:100000000C94E3050C94E7270C9414280C940B062D
:100010000C940B060C94CB0B0C940B060C940B0657
:100020000C940B060C940B060C940B060C940B060C
:100030000C940B060C940B060C940B060C940B06FC
:100040000C9441280C940B060C94382A0C94862AA4
:100050000C940B060C940B060C940B060C940B06DC
:100060000C940B060C940B06571A5E1A5E1A571A5C
:100070005E1A5E1A5E1A5E1A5E1A5E1A5E1A5E1AC0
:100080005E1A5E1A5E1A5E1A5E1AC6195E1A5E1A49
:100090005E1A5E1A5E1A27195E1A5E1A5E1A5E1AD8
:1000A0005E1A5E1A5E1A5E1A5E1A5E1A5E1A5E1A90
:1000B0005E1A5E1A5E1AD219D219D219D219D21941
:1000C000D219D219D219D2195E1A5E1A5E1A5E1AA4
:1000D0005E1A5E1A2E19D119D119D119D1195E1AC9
:1000E000E819F019F819001A081A101A181A201A23
:1000F0002A1A341A3E1A481A751935195E1A5E1AE8
:100100005E1A5E1AC6195E1A5E1A5E1A5E1A5E1AC8
:100110005E1A5E1A5E1AD019D019D019D0195E1A5B
:10012000E819F019F819001A081A101A181A201AE2
:100130002A1A341A3E1A481A751935195E1A5E1AA7
:100140005E1A5E1AC619456E746572206D656E750D
:100150002E2E2E00546F67676C6564206D69637284
:100160006F50504D00546F67676C656420696E7600
:1001700065727465642050504D2100546F67676C40
:100180006564205458206D7574696E672100546F42
:1001900067676C65642074656C656D657472792140
:1001A0000050726F746F636F6C206572726F722093
:1001B000776974682052580054696D656F757420B2
:1001C0007768656E20636F6E6E656374696E672015
:1001D000746F20525800507265737320616E7920DD
:1001E0006B657920746F2063616E63656C00436F8B
:1001F0006E6E656374696E6720746F2052582C2090
:10020000706F776572207570207468652052582071
:1002100028776974682062696E6420706C75672045
:100220006966206E6F74207573696E6720616C77E4
:100230006179732062696E642900546F67676C6529
:10024000642027696D6D656469617465206F7574DC
:100250007075742700546F67676C65642027736C32
:10026000617665206D6F64652700546F67676C6504
:10027000642027616C776179732062696E6427005E
:10028000546F67676C65642050504D206368616EE1
:100290006E656C206C696D697400536574205253EF
:1002A000534920696E6A656374696F6E2063686183
:1002B0006E6E656C2028303D3D64697361626C65CB
:1002C00029005365742050504D206D696E696D751D
:1002D0006D2073796E630053657420626561636F8E
:1002E0006E20696E74657276616C0053657420626D
:1002F0006561636F6E2064656C617900536574207D
:10030000626561636F6E206672657175656E637993
:1003100020696E20487A3A20303D64697361626CCE
:10032000652C2050783D504D52206368616E6E659B
:100330006C20782C2046783D465253206368616ECD
:100340006E656C2078005365742050574D2073748F
:100350006F702064656C6179202830206469736156
:10036000626C65642C20312D323535203D3D2030C6
:100370002E3173202D2035306D696E290053657440
:100380002050504D2073746F702064656C6179202B
:1003900028302064697361626C65642C20312D32D1
:1003A0003535203D3D20302E3173202D2035306DE8
:1003B000696E2900536574206661696C73616665B6
:1003C0002064656C61792028302064697361626CF7
:1003D00065642C20312D323535203D3D20302E31C5
:1003E00073202D2035306D696E29002A2A2A2A2A89
:1003F0002A2A2A2A2A2A2A2A2A2A2A2A2A2A2A2A5D
:100400002A2A2A2A2A2A2A2A0052582041636B655E
:1004100064202D2072657665727420737563636540
:10042000737366756C21002A2A2A2A2A2A2A2A2A04
:100430002A2A2A2A2A2A2A2A2A2A2A2A2A2A2A2A1C
:100440002A2A2A2A002A2A2A2A2A2A2A2A2A2A2A36
:100450002A2A2A2A2A2A2A2A2A2A2A2A2A2A2A2AFC
:100460002A2A0052582041636B6564202D20757044
:1004700064617465207375636365737366756C215D
:10048000002A2A2A2A2A2A2A2A2A2A2A2A2A2A2AF6
:100490002A2A2A2A2A2A2A2A2A2A2A2A2A2A0056BA
:1004A000616C69642063686F69636573206172655C
:1004B0003A205B315D2D5B31365D20286368616ECB
:1004C0006E656C20312D31362900536574206F75AF
:1004D0007470757420666F7220706F727420005B88
:1004E000585D2061626F7274206368616E67657326
:1004F00020616E64206578697420525820636F6EA5
:10050000666967005B535D2073617665207365746F
:1005100074696E677320746F205258005B525D20BF
:100520007265766572742052582073657474696EB2
:10053000677320746F2064656661756C7473005511
:100540007365206E756D62657273205B312D445D3D
:1005500020746F206564697420706F727473205BFF
:10056000452D515D20666F722073657474696E67E6
:100570007300202D20726563656976657220636F54
:100580006E666967757261746F722C207278207361
:100590007720000A0A6F70656E4C52536E67200018
:1005A0005365742073657269616C20626175647251
:1005B0006174653A200056616C69642063686F69F4
:1005C0006365733A2031202D20342B34202F2032C4
:1005D000202D2038202F2033202D20382B34202F81
:1005E0002034202D203132202F2035202D20313273
:1005F0002B34202F2036202D2031360053657420D7
:100600004368616E6E656C20636F6E6669673A2041
:1006100000536574204461746172617465202830F0
:100620002D32293A200053657420486F702063688A
:10063000616E6E656C7320286D61782032342C20D9
:1006400073657061726174656420627920636F6D97
:100650006D6173292076616C69642076616C7565C3
:100660007320312D3235353A20005365742063688C
:10067000616E6E656C2073706163696E67202878A7
:1006800031306B487A293A20005365742052462055
:10069000706F7765722028302D37293A2000536516
:1006A00074205246206D6167696320286865782947
:1006B00020652E672E203078444541444630304432
:1006C0003A2000536574206261736520667265711B
:1006D00075656E63792028696E20487A293A200072
:1006E0005B5A5D20656E746572207265636569761C
:1006F000657220636F6E66696775726174696F6E8B
:10070000207574696C79005B465D20646973706C58
:1007100061792061637475616C20667265717565BD
:100720006E636965732075736564005B525D206359
:10073000616C63756C6174652072616E646F6D20AD
:100740006B657920616E6420686F70206C697374CA
:10075000005B495D207265696E697469616C697AD4
:10076000652073657474696E677320746F20736B92
:10077000657463682064656661756C7473005B58AA
:100780005D20726576657274206368616E6765735B
:1007900020616E642065786974206D656E75005BFC
:1007A000535D20736176652073657474696E677339
:1007B00020746F20454550524F4D20616E64206576
:1007C000786974206D656E7500557365206E756D62
:1007D00062657273205B302D395D20746F20656413
:1007E000697420706172616D657465727300202D8B
:1007F0002053797374656D20636F6E6669677572D7
:100800006174696F6E000A0A6F70656E4C52536EA8
:100810006720005129204F757470757420626566D9
:100820006F7265206C696E6B20283D465329203A13
:100830002000502920536C617665206D6F6465201F
:10084000286578706572696D656E74616C293A20EF
:10085000004F292054696D65642042494E4420614F
:1008600074207374617274757020203A20004E29D0
:100870002050504D206F7574707574206C696D69CF
:1008800074656420202020203A20004449534142CE
:100890004C4544004D292050504D2052535349207F
:1008A000746F206368616E6E656C202020203A2092
:1008B000004C292050504D206D696E696D756D207A
:1008C00073796E63202875732920203A20004449EB
:1008D0005341424C4544004B29204661696C736189
:1008E000666520626561636F6E20696E74762E2086
:1008F00028312D32353573293A20004A29204661A6
:10090000696C7361666520626561636F6E20646502
:100910006C61792028302D323535203D3E20313034
:1009200073202D203135306D696E293A2000492918
:10093000204661696C7361666520626561636F6EF4
:10094000206672712E203A200048292050574D20F1
:1009500073746F702064656C6179202020202020E2
:10096000203A200047292050504D2073746F70208A
:1009700064656C6179202020202020203A200046E8
:1009800029204661696C736166652064656C6179D4
:10099000202020202020203A200050574D2063683E
:1009A000616E6E656C200066756E6374696F6E3A79
:1009B00020002920706F727420004454462055484E
:1009C000462033322D6269742031306368004F70E5
:1009D000656E4C52536E675258206D696E692034B3
:1009E0002F36636800466C7974726F6E2F4F726198
:1009F0006E67655258205548462038636800525843
:100A000020747970653A200044697361626C656492
:100A100000487A00203D3D200043616C63756C61A5
:100A2000746564207061636B657420696E746572AF
:100A300076616C3A20004229204D6963726F20284C
:100A400068616C66292050504D202020203A0041DA
:100A50002920496E7665727465642050504D206976
:100A60006E20202020203A003029204D757465200A
:100A700062757A7A657220286D6F73746C79293A81
:100A80000039292053657269616C20626175647256
:100A90006174653A00736D617274506F72740046D0
:100AA00072536B79005472616E73706172656E740B
:100AB0000044697361626C65640038292054656C78
:100AC000656D657472793A2020202020202000373F
:100AD00029204368616E6E656C20636F6E6669677E
:100AE0003A202000362920446174617261746520C7
:100AF00028302D32293A20202000352920486F70D7
:100B0000206368616E6E656C733A2020202020009F
:100B10003429204368616E6E656C2073706163696F
:100B20006E673A202000332920524620706F776587
:100B3000722028302D37293A2020200032292052D7
:100B400046206D616769633A202020202020202004
:100B500020003129204261736520667265717565D8
:100B60006E63793A20202000000000002400270056
:100B70002A0000000000250028002B0000000000D3
:100B800023002600290004040404040404040202CF
:100B900002020202030303030303010204081020FC
:100BA0004080010204081020010204081020000007
:100BB000000700020100000304060000000000001E
:100BC0000000390CF22B11241FBECFEFD8E0DEBF9E
:100BD000CDBF14E0A0E0B1E0E0EFFEE502C005907B
:100BE0000D92A231B107D9F716E0A2E1B4E001C03D
:100BF0001D92A039B107E1F71BE0C6ECDBE004C0B1
:100C00002297FE010E94302FC23CD107C9F70E94F3
:100C1000482C0C94762F0C940000A0E0B0E0E3E1A7
:100C2000F6E00C94472FEC01A880B980CA80DB80E5
:100C3000A114B104C104D10441F484E2A82E89EDC9
:100C4000B82E8BE5C82E87E0D82EC601B5012DE160
:100C500033EF41E050E00E94FF2E27EA31E440E00C
:100C600050E00E94AB2E7B018C01C601B5012DE145
:100C700033EF41E050E00E94FF2ECA01B9012CEE93
:100C800034EF4FEF5FEF0E94AB2E6E0D7F1D801F84
:100C9000911F97FF04C06150704080409048688366
:100CA00079838A839B839B01AC015F77B901CA0179
:100CB000CDB7DEB7EAE00C94632F0E940D060895CD
:100CC0008DE293E00E940D06089560932D037093CA
:100CD0002E0380932F03909330030895A0E0B0E09B
:100CE000E4E7F6E00C94402FEC012B016A0161155A
:100CF000710519F0FB0191838083C114D10449F07F
:100D0000C6010297839728F020E030E040E050E0F1
:100D1000DCC0A9908A2D90E00E94342F892BC9F75E
:100D2000FDE2AF1621F4A9903324339405C08BE281
:100D3000A81609F4A9903324C114D10421F0E0E1EC
:100D4000CE16D10411F5F0E3AF1669F48881883727
:100D500011F0883541F4A980229682E0382A20E1FA
:100D6000C22ED12C12C0C114D10479F4E0E3AE1626
:100D700059F199E9E92E99E9F92E99E9092F99E1B3
:100D8000192F8AE0C82ED12C3AC0FAE0CF16D10430
:100D900091F080E1C816D10429F0E8E0CE16D10424
:100DA000F9F415C0BFEFEB2EBFEFFB2EBFEF0B2FFB
:100DB000BFE01B2F24C0A9E9EA2EA9E9FA2EA9E970
:100DC0000A2FA9E11A2F1BC0F8E0CF2ED12CEFEF8C
:100DD000EE2EEFEFFE2EEFEF0E2FEFE11E2F0FC0E6
:100DE0009601442737FD4095542F6FEF7FEF8FEF2B
:100DF0009FEF0E94DD2EC901DA017C018D0120E008
:100E000030E040E050E060E03601882477FC8094D8
:100E1000982C70EDB72EBA0CF9E0FB1570F48A2D02
:100E200081548A3118F499ECB92E06C08A2D815666
:100E30008A3148F589EAB82EBA0C8B2D90E08C15D2
:100E40009D050CF56F3FE9F0E216F3060407150760
:100E5000B8F0CA01B901A40193010E94AB2E9B0115
:100E6000AC018B2D90E0A0E0B0E0280F391F4A1FA5
:100E70005B1F281739074A075B0710F061E001C0C4
:100E80006FEFA990C6CF4114510451F0662311F0C1
:100E9000219703C031FE04C02297F201D183C083A1
:100EA00030FE07C050954095309521953F4F4F4FEC
:100EB0005F4F67FF0AC082E290E090938F068093B5
:100EC0008E062FEF3FEF4FEF5FEFB901CA01CDB7AD
:100ED000DEB7E1E10C945C2FFC0188279927E894A8
:100EE00021912032E9F3293010F02E30C8F32B3253
:100EF00041F02D3239F4689404C00E94CA07820F71
:100F0000911D219120532A30C0F31EF490958195B4
:100F10009F4F089542E154E00E9498070895FB0115
:100F2000DC0102C001900D9241505040D8F7089565
:100F3000009731F4DA018D919C91009709F40EC06D
:100F4000DC01FB013D912191222319F03217C9F3F5
:100F5000FACF332331F4DA011D921C9288279927A6
:100F600008951197AF93BF93FB013D9121913217E3
:100F700071F4332321F488279927119702C01E9218
:100F80001196FA01A193B0839F918F910895222326
:100F900069F7EACF7AE0979F902D879F802D910D7A
:100FA0001124089580911404813019F482E0809313
:100FB000140480911404833019F484E080931404A1
:100FC000089589E08093150480E092ECA1E0B0E000
:100FD0008093160490931704A0931804B0931904F7
:100FE00087E08093220480EC92E9ADEEB9E1809332
:100FF0001A0490931B04A0931C04B0931D0485E075
:10100000809323048DEE9EEFADEABEED80931E0427
:1010100090931F04A0932004B0932104A4E2B4E0B1
:1010200080E090E0863010F0E0E004C0FC01E45085
:10103000FC4FE081ED9301968831910599F782E0AC
:1010400080933C048AE080933D040895682F70E00B
:10105000CB018C599F4F8E3B910548F4665F7F4FC3
:1010600080E090E02AE030E040E050E014C0823DB3
:10107000910548F46055704080E090E024E630E04F
:1010800040E050E008C06956704080E090E028E5FC
:1010900032E040E050E00E94AB2E24E630E040E039
:1010A00050E00E94AB2E08958F929F92AF92BF9214
:1010B000CF92DF92EF92FF920F931F93FC0100A556
:1010C00010E087A190E023E130E0829FF001839F50
:1010D000F00D929FF00D1124EF5CFC4F8080918009
:1010E000A280B380F801E770F070EC50FC4F608193
:1010F00070E0615F7F4F882777FD8095982F20E40F
:101100003FE14DE750E00E94AB2EA50194010E9403
:10111000DD2E69017A0180ED97E0A0E0B0E0C80E15
:10112000D91EEA1EFB1E08711070012B81F060E0D1
:101130007EEE8AEB9BE0A50194010E94DD2E2851F2
:101140003C4F4F4F5F4FC20ED31EE41EF51E87EE7D
:1011500093E0A0E0B0E0C80ED91EEA1EFB1EC70156
:10116000B60128EE33E040E050E00E94DD2ECA01D7
:10117000B90128EE33E040E050E00E94AB2E1F9111
:101180000F91FF90EF90DF90CF90BF90AF909F9026
:101190008F900895FF920F931F93082FFB01DA01A0
:1011A000F82EF69410E0808191818C938281938156
:1011B00011968C9311978481958112968C93129736
:1011C0008681978113968C93139720813181428178
:1011D000538164817581868197819295990F990FCA
:1011E000907C832F8370982B852F8370880F880FB6
:1011F000982B872F83708295807F982B14969C93D1
:101200001497159638961F5FF11668F600FF5CC0BC
:10121000808191818F3F910509F010F440E00CC06E
:1012200022E08030920710F441E006C080509340E5
:1012300010F043E001C042E0828193818F3F91052D
:1012400009F010F450E00CC022E08030920710F456
:1012500051E006C08050934010F053E001C052E0CE
:10126000848195818F3F910509F010F480E00CC0D6
:1012700022E08030920710F481E006C08050934055
:1012800010F083E001C082E0268137812F3F3105D5
:1012900009F010F490E00CC092E02030390710F40F
:1012A00091E006C02050334010F093E001C092E07E
:1012B0005295507F4295440F440F407C452B880F38
:1012C000880F842B892B8C931F910F91FF90089589
:1012D00023E08032920718F420E030E026C023E0BB
:1012E000883E920748F49C012F513340E4E0369544
:1012F0002795EA95E1F719C027E0803D920720F491
:101300009C012C5D334011C028E08839920718F009
:101310002FEF33E00AC09C01285C374074E036951B
:1013200027957A95E1F72D503C4FC9010895882300
:1013300039F05F980000289A00005F9A0000089535
:101340005F980000289800005F9A000008950F93AE
:101350001F93082F5C9A5F985C9810E0802F80782C
:101360000E949709000F1F5F1830C1F75F981F9107
:101370000F9108958F770E94A70908950F931F93E7
:10138000082F10E0802F80780E949709000F1F5FC0
:101390001830C1F75F981F910F9108955F9820E072
:1013A00030E0220F5F9A000083B15F98000090E068
:1013B000969587958170280F3F5F383091F7822F7F
:1013C00008950E94BA090E94CE095C9A08951F935D
:1013D000162F80680E94A709812F0E94BE095C9A7F
:1013E0001F9108951F9310911E041827E5E1F4E062
:1013F000E80FF11D89E767850E94E7098DE3612FFA
:101400000E94E70982E4612F0E94E7091F91089575
:1014100086E20E94E10908950F931F938C018CE1ED
:10142000F80164810E94E7098DE1F80165810E945D
:10143000E7098EE1F80166810E94E70980E2F80180
:1014400067810E94E70981E2F80160850E94E7094F
:1014500082E2F80161850E94E70983E2F801628572
:101460000E94E70984E2F80163850E94E70985E2AA
:10147000F80164850E94E7098AE2F80165850E9407
:10148000E7098EE6F80166850E94E7098FE6F80114
:1014900067850E94E70980E7F80160890E94E709F3
:1014A00081E7F80161890E94E70982E7F801628912
:1014B0000E94E7091F910F910895EF92FF920F93F9
:1014C0001F93CF93DF937B018C01603028E3720779
:1014D0002CE982072CE1920728F520E836E948E953
:1014E00050E00E94DD2EE9016897B90180E090E0AC
:1014F00020E839E647E65FEF0E94AB2E6E0D7F1DB8
:10150000801F911FB2E0660F771F881F991FBA9541
:10151000D1F721E732E040E050E00E94DD2E890162
:1015200080E421C020E03DE241E351E00E94DD2E55
:10153000E9016897B90180E090E020E033ED4EECDE
:101540005EEF0E94AB2E6E0D7F1D801F911F660FF8
:10155000771F881F991F21E732E040E050E00E948A
:10156000DD2E890180E69E012F71622F680F85E7CD
:101570000E94E70986E7612F0E94E70987E7602F4D
:101580000E94E709DF91CF911F910F91FF90EF909B
:1015900008959F92AF92BF92CF92DF920F93DF9305
:1015A000CF9300D000D0CDB7DEB7982E83E00E9455
:1015B000E10980935A0484E00E94E10980935B046E
:1015C00086E060E00E94E70987E061E00E94E709A9
:1015D00089E06FE70E94E7098AE065E00E94E70979
:1015E0008BE062E10E94E7098CE065E10E94E70977
:1015F0008DE06DEF0E94E7098EE060E00E94E70950
:10160000992019F080E993E008C080913C0423E11F
:10161000829FC00111248F5C9C4F0E940C0A80E3C2
:101620006CE80E94E70982E36FE00E94E70983E328
:1016300062E40E94E70984E36AE00E94E70985E327
:101640006AE20E94E70986E36DE20E94E70987E308
:1016500064ED0E94E70988E360E00E94E70989E3FE
:1016600060E00E94E709992049F02EE1A22E2EEBBE
:10167000B22E21ECC22E2EEDD22E08C0A0901E0458
:10168000B0901F04C0902004D09021040AE38D2D57
:101690009927AA27BB2789839A83AB83BC83802F92
:1016A00069810E94E709802F8B5F69810E94E709A9
:1016B000DC2CCB2CBA2CAA240F5F0E3341F783E429
:1016C0006FEF0E94E70984E46FEF0E94E70985E469
:1016D0006FEF0E94E70986E46FEF0E94E709992007
:1016E00019F08DE666E003C08DE6609122040E9449
:1016F000E70989E760E00E94E7098AE7609123042F
:101700000E94E70983E760E00E94E70984E760E060
:101710000E94E709992029F060EC72E98DEE99E1C9
:1017200008C060911A0470911B0480911C04909170
:101730001D040E945D0A0F900F900F900F90CF91A3
:10174000DF910F91DF90CF90BF90AF909F90089561
:1017500087E061E00E94E7098EE764E20E94E70902
:1017600088E063E00E94E70988E060E00E94E70902
:1017700087E065E00E94E70985E062E00E94E709F2
:1017800083E00E94E10980935A0484E00E94E10909
:1017900080935B0408951F920F920FB60F9211244D
:1017A000EF92FF921F932F933F934F935F936F930B
:1017B0007F938F939F93AF93BF93EF93FF9340914A
:1017C0003D0489B1242F30E02074307090E0F3E0C4
:1017D00096958795FA95E1F78170907028173907EB
:1017E000A1F1209184003091850010928500109223
:1017F000840047FD02C03695279589E0253C3807CF
:1018000028F01092C30310928B051FC0E2E02D3B1D
:101810003E07C0F08091C3038031A0F41091C30350
:10182000E12EFF24C9010E946809EE0CFF1C23EA87
:1018300033E0E20EF31EF701918380831F5F109364
:10184000C30303C080E18093C303FF91EF91BF9175
:10185000AF919F918F917F916F915F914F913F9148
:101860002F911F91FF90EF900F900FBE0F901F9040
:1018700018951092620410926704109266041092F8
:101880006904109268040895FF920F931F93CF93F9
:10189000DF93182F092FF62E8EE30E94E709212FE0
:1018A000302FC901EC0110E005C08FE769910E945B
:1018B000E7091F5F1F15C8F385E064E00E94E70990
:1018C00083E00E94E10980935A0484E00E94E109C8
:1018D00080935B040E94972860935C0470935D047E
:1018E00080935E0490935F0487E069E00E94E709BB
:1018F00081E080931404DF91CF911F910F91FF90AD
:1019000008950E94440C809114048130D9F40E94FF
:10191000972820915C0430915D0440915E045091C1
:101920005F04621B730B840B950B605A76488140F1
:10193000904040F4E8CF8CE696E060E071E00E94D1
:101940006E2E0895809114048130A9F308958CE6D9
:1019500096E06EE70E94B22B0895BF92CF92DF927D
:10196000EF92FF920F931F93CF93DF936C018CE65E
:1019700096E06EE70E94B22B760100E010E0C0E036
:10198000D0E0B0E2BB2E0AC00830110521F49E0160
:101990002095F60120870894E11CF11CF701608175
:1019A000862F8D57823040F48CE696E06DE70E94DA
:1019B000B22BF70160816B258CE696E00E94B22B7A
:1019C0000115110551F0F70180819E01280F311D8D
:1019D000C32FDD27C20FD31FD0700F5F1F4F0930F9
:1019E000110591F6DF91CF911F910F91FF90EF902C
:1019F000DF90CF90BF900895DF93CF93CDB7DEB740
:101A000029970FB6F894DEBF0FBECDBF382FE62F53
:101A10008091700590E0019664E270E00E94CA2E09
:101A2000982F8093700588E9898380E18A839130BB
:101A300071F0913028F0923099F09330E1F416C0B3
:101A400085E08B8381EF8C832F5F2D8317C09B8371
:101A500081EF8C8384E6489FC00111249D830EC0D2
:101A600084E08B8381EF8C833D8308C09B8381EF6F
:101A70008C83ED8303C00E94A70C04C0CE010196A5
:101A80000E94AD0C29960FB6F894DEBF0FBECDBFF5
:101A9000CF91DF9108950F931F93CF93DF93182F6A
:101AA000092F8CE696E06EE70E94B22B212F302F93
:101AB000C901EC0110E000E288818D57823040F4CA
:101AC0008CE696E06DE70E94B22B888180278883A0
:101AD0008CE696E069910E94B22B1F5F193061F786
:101AE0008CE696E06EE70E94B22BDF91CF911F91BA
:101AF0000F910895DF93CF93CDB7DEB729970FB637
:101B0000F894DEBF0FBECDBF382F809170058823BB
:101B100079F48EEF89833A836B83842F90E09595D7
:101B200087958C832D83198618861F821E822FC06D
:101B300040916B05842F90E09C012F70307054E031
:101B4000959587955A95E1F78217930721F18DEFC7
:101B500089831A821B82DE01149620E008C0E55AB0
:101B6000FA4F80818D93405F2F5F263069F0842F7C
:101B700090E0FC0134E0F595E7953A95E1F78F7038
:101B80009070E817F90759F740936B052A83CE0147
:101B900001960E944B0D8091700590E0019666E0E1
:101BA00070E00E94CA2E8093700529960FB6F894B3
:101BB000DEBF0FBECDBFCF91DF9108959F92AF9250
:101BC000BF92CF92DF92EF92FF920F931F93B82EA6
:101BD000A62ED42EC22E902E0E9497287B018C0117
:101BE00080915A0520916C0530916D0540916E05EC
:101BF00050916F058823B1F0D801C701821B930B68
:101C0000A40BB50B815E9E42A040B04020F12C2D6C
:101C1000DC1408F42D2D8B2D6A2D422F292D0E94C6
:101C2000FC0C11C0D801C701821B930BA40BB50B90
:101C300081539547A040B04070F08B2D6A2D4D2DFB
:101C40002C2D0E947A0DE0926C05F0926D050093A8
:101C50006E0510936F051F910F91FF90EF90DF902D
:101C6000CF90BF90AF909F900895FF920F931F93D6
:101C70008C01F62E8CE696E00E94B22BF80184814E
:101C80008F2584831F910F91FF900895FF920F93EA
:101C90001F938C01F72E0E94350EC8016F2D0E94F4
:101CA000350E1F910F91FF900895BF92CF92DF9252
:101CB000EF92FF920F931F937C01B62E6A010CE600
:101CC00016E0C80165EB0E94B22BC80162E60E94D3
:101CD000B22BF7011482C7016B2D0E94350EC7018C
:101CE000B6010E94460E1F910F91FF90EF90DF907A
:101CF000CF90BF90089589E060E00E94512988E06C
:101D000061E00E94512987E061E00E94512982E050
:101D100060E00E94512984E061E00E945129089509
:101D2000892B19F08AE061E002C08AE060E00E943D
:101D3000902908958AE061E00E9451298AE060E0DC
:101D40000E94902908951F93182F0E94972860934E
:101D50006C0570936D0580936E0590936F051093DD
:101D60005A05112329F440E855E260E070E004C010
:101D700040E051EE60E070E08CE696E00E94C12AFF
:101D80001F910895AF92BF92CF92DF92EF92FF9290
:101D90000F931F93DF93CF93CDB7DEB76C970FB63A
:101DA000F894DEBF0FBECDBF0E9497287B018C0147
:101DB00081E00E94C90AF4E7AF2E6E010894C11CAD
:101DC000D11CE3E0BE2EA982C60161E00E94810C15
:101DD000B09214040E94A80B6AEF70E080E090E0DB
:101DE0000E94BD2880911404833009F08AC08CE6DB
:101DF00096E00E94482B892B09F083C00E94972807
:101E00006E197F09800B910B6058734C894C91407F
:101E100008F077C0D8CF8FE70E94BA090E94CE0998
:101E2000843509F05CC089830E94CE09182F00E038
:101E300010935905009358050E94CE09080F111DF3
:101E400010935905009358050E94CE0980935705B9
:101E50000E94CE0980935605813108F040C0FF24CE
:101E600007C00E94CE090A5C1A4FF8018083F394E0
:101E70000F2D10E08091560590E0880F991F0817EC
:101E8000190778F380E78983CE01019661E00E940B
:101E9000810C83E0809314040E94A80B62E370E03D
:101EA00080E090E00E94BD28809114048330A9F066
:101EB0008FE70E94BA090E94CE09803581F4898398
:101EC0000FE314E00E94CE09F80181938F01F4E042
:101ED0000A351F07B9F781E003C082E001C083E043
:101EE0006C960FB6F894DEBF0FBECDBFCF91DF91D9
:101EF0001F910F91FF90EF90DF90CF90BF90AF9028
:101F0000089580911404833009F085CFE6CF83E0F3
:101F10000E94E10980935A0484E00E94E1098093C1
:101F20005B0487E061E00E94E7096AE070E080E01E
:101F300090E00E94BD280E94A80B000008950F9316
:101F40001F93082F17C02D9A64E670E080E090E0A0
:101F50000E94BD282D9864E670E080E090E00E9429
:101F6000BD281F5F101778F36CE271E080E090E00D
:101F70000E94BD2810E0F6CF809172058130D1F02B
:101F8000813020F0823009F043C037C08BE00E94DE
:101F9000E429892B09F03CC081E0809372050E94FE
:101FA00089286093730570937405809375059093E9
:101FB000760508958BE00E94E429892BD9F40E94CC
:101FC00089282091730530917405409175055091D1
:101FD0007605621B730B840B950B695E7340804022
:101FE0009040B0F082E08093720580ED97E00E940F
:101FF000900E08951092720508958BE00E94E429D6
:10200000892B31F080E090E00E94900E10927205D2
:102010000895AF92BF92CF92DF92EF92FF920F930B
:102020001F93CF93DF938CE00E94E109882369F42A
:102030008CE696E06CE071E00E946E2E2D9A80E0B6
:102040000E94C90A0E94A80B2D988CE696E00E9477
:10205000482B892B09F485C28091D405C82FD0E084
:102060009E012F5F3F4F2F7130708091D30590E01C
:102070002817390709F475C28CE696E00E94792B7F
:10208000C655DA4F88838091D40590E001968F7110
:1020900090708093D405D9CF0E94972860937B05D8
:1020A00070937C0580937D0590937E056115710585
:1020B0008105910561F481E090E0A0E0B0E08093BB
:1020C0007B0590937C05A0937D05B0937E05809160
:1020D0008705909188058160909388058093870596
:1020E00083E0809314048FE70E94BA09C1EAD5E027
:1020F0000E94CE09899305E0CA3AD007C9F74091FA
:102100008C058091A105282F30E0842F90E0822754
:10211000932786FF5AC080E4482740938C05C90165
:1021200088739070C897D9F510E02EC01F5F80911A
:102130003D04E12FF0E084FF20C0EF55FA4F6081AD
:1021400040916B05842F90E0FC01EF70F0709F01CF
:102150002F5F3F4F54E0959587955A95E1F72817E3
:10216000390791F0E55AFA4F6083842F8F5F8F70A3
:10217000407F842B80936B0507C0EF55FA4F8CE6A8
:1021800096E060810E94B22B212F30E08091A10562
:1021900090E0877090708217930744F616C02F73F3
:1021A0003070232B91F48091A20580937F0580915C
:1021B000A305809381058091A40580938205809179
:1021C000A7058093890510928A058091D5058130F5
:1021D00019F482E08093D5058091D505833011F400
:1021E0001092D5050E9497285B016C0180918305B0
:1021F00090918405A0918505B09186050097A10571
:10220000B105C9F0A6019501281B390B4A0B5B0BE0
:10221000DA01C901885B9B40A040B04060F00E9499
:10222000080A80938005109283051092840510920D
:1022300085051092860585E194E00E94540820915E
:102240007705309178054091790550917A0586019E
:102250007501E21AF30A040B150BE616F7060807D8
:10226000190708F41EC1A0927705B0927805C092B4
:102270007905D0927A0580918B05883008F009C1E4
:1022800080918B058F5F80938B05E0907B05F090AC
:102290007C0500917D0510917E05E114F104010596
:1022A000110511F185E194E00E945408AE18BF08B1
:1022B000C00AD10A6A157B058C059D0588F48091BA
:1022C0003D0485FD04C080ED97E00E94900E1092C1
:1022D0007B0510927C0510927D0510927E0504C04E
:1022E00080E090E00E94900E20918C05207C20934D
:1022F0008C055091D4059091D3055917D1F1809157
:10230000D5058230B1F5205820938C05E0913D042D
:10231000F0E0E770F070EC50FC4FE081E93010F035
:1023200048E002C04E2F415030E013C03F5FA32F62
:10233000B0E0892F90E0FC01E655FA4F2081FD01C5
:10234000E457FA4F2083A653BA4F2C930196982F47
:102350009F71341710F4951749F79093D305832F85
:10236000895C90918C05892B80938C053093CA05EC
:102370001AC09091D5059430D1F49091CA05EBEC38
:10238000F5E0ADE8B5E0292F30E02E0F3F1F02C089
:1023900081918D93E217F307D9F7995C80918C05B1
:1023A000982B90938C0583E08093D50523C0809172
:1023B0007205823029F4216020938C052D9A0FC07C
:1023C00020938C052D98992319F481E08093D505ED
:1023D0008091D505833019F484E08093D505F89475
:1023E00080913D04877063EA73E04DE855E00E94F8
:1023F000CA0878942C9A809171050E94F209E091A4
:102400003D04F0E0E770F070EC50FC4F8CE895E094
:1024100060810E94810CE0917105EF5FE09371058E
:10242000E83131F0F0E0EB5EFB4F8785882311F453
:102430001092710580913D04887199F18091870512
:1024400090918805880F991F909388058093870540
:1024500083E0809314040E94A80B0E949728609345
:102460008305709384058093850590938605611597
:10247000710581059105A9F481E090E0A0E0B0E04C
:102480008093830590938405A0938505B09386057A
:1024900008C080918B05883009F42D9A89E08093DB
:1024A0008B0580913D0484FF4EC0209187053091BB
:1024B00088052E7FC9019695879585759575281B8A
:1024C000390BA90156954795569547954373537314
:1024D00023733373420F531FCA01A4E09695879567
:1024E000AA95E1F7840F951F8F709F7021E031E06E
:1024F0008C01029FC001039F900D129F900D11242B
:1025000080917F05409189054F3028F0482F4695EE
:102510004695405404C08DE0489F402D11242091E1
:1025200080059F3020F026952695205404C08DE02C
:10253000989F202D11248091810560918205009142
:102540003E040E94DE0D2C980E94BC0FDF91CF91BB
:102550001F910F91FF90EF90DF90CF90BF90AF90C1
:10256000089580911404843009F03CCE95CD1092EA
:10257000340585E6EFECF4E0DF011D928A95E9F77A
:1025800008951F93182F8F3719F0883009F042C033
:10259000E0913405EE2309F45EC0E150E093340588
:1025A000F0E0E153FB4F10828CE696E06DE00E9474
:1025B000B22B10E00DC0E12FF0E0E153FB4F608142
:1025C000772767FD70958CE696E00E94B22B1F5F1F
:1025D00080913405181778F38CE696E060E20E944B
:1025E000B22B8CE696E06DE00E94B22B10E00DC09D
:1025F000E12FF0E0E153FB4F6081772767FD709595
:102600008CE696E00E94B22B1F5F8091340518176C
:1026100078F31FC08B3119F40E94B71222C08D309D
:1026200001F18A30F1F0809134058436A0F4612FF5
:10263000772767FD70958CE696E00E94B22B80911B
:102640003405E82FF0E0E153FB4F10838F5F809358
:10265000340580E007C08CE696E067E00E94A42C79
:10266000F8CF81E01F9108951F93CF93DF93C4E2C9
:10267000D4E010E03BC08CE696E06BE171E00E9494
:102680006B2E8CE696E0612F4AE050E00E94C92D47
:102690008CE696E068E271E00E946B2E699170E032
:1026A00080E090E02091230430E040E050E00E9480
:1026B000AB2E20E137E240E050E00E94AB2EDC017F
:1026C000CB0140911A0450911B0460911C0470913D
:1026D0001D04480F591F6A1F7B1F8CE696E02AE0F5
:1026E00030E00E94872D1F5F183119F08881882300
:1026F00011F6DF91CF911F910895EF92FF920F9302
:102700001F93882339F48CE696E068E07AE00E9413
:10271000CC2C64C0682F70E06436710518F480E03A
:1027200090E022C06E3B710548F46A55704080E02D
:1027300090E02AE030E040E050E014C0623D7105D6
:1027400048F4645B704080E090E024E630E040E0D4
:1027500050E008C06D5C704080E090E028E532E019
:1027600040E050E00E94AB2E24E630E040E050E034
:102770000E94AB2E0E94DD2E122F032FF42EE52E89
:10278000622F732F842F952F2AE030E040E050E035
:102790000E94DD2E8CE696E0BA01A9012AE030E025
:1027A0000E94782D8CE696E06EE20E94A42C612FA8
:1027B000702F8F2D9E2D2AE030E040E050E00E94E7
:1027C000DD2EAB01BC018CE696E02AE030E00E94F1
:1027D000782D8CE696E063E70E94E02C1F910F9124
:1027E000FF90EF9008951F93CF93DF938CE696E0D0
:1027F0006EEF79E00E94812C80913F04813041F49A
:102800008CE696E065EE79E00E94CC2C10E055C095
:10281000823029F48CE696E06EEC79E0F5CF8430D6
:10282000A9F78CE696E06AEB79E0EECFC12FD0E015
:10283000C930D1051CF0612F685C02C0612F6F5C4C
:102840008CE696E00E94A42C8CE696E062EB79E0A0
:102850000E94812CBE016F5F7F4F8CE696E04AE0BC
:1028600050E00E94392E8CE696E067EA79E00E94FB
:10287000812CC15CDB4FE981E03188F48CE696E085
:102880006AE979E00E94812C698170E06F5F7F4F77
:102890008CE696E04AE050E00E944C2E0DC0F0E03D
:1028A000E770F070EE0FFF1FEC53FC4F60817181F9
:1028B0008CE696E00E946E2E1F5F809157051817D8
:1028C00008F4B4CF8CE696E06FE779E00E94812CA3
:1028D000809157040E947D138CE696E064E679E0CF
:1028E0000E94812C809158040E947D138CE696E012
:1028F00069E479E00E94812C809159040E947D1343
:102900008CE696E06EE279E00E94812C40914F04C3
:102910005091500460915104709152044115510539
:102920006105710539F18CE696E02AE030E00E94FD
:10293000872D8CE696E06BEF78E00E94812C8091E9
:1029400053040E942608AB01BC018CE696E02AE005
:1029500030E00E94872D8CE696E067ED78E00E94DB
:10296000812C8CE696E0609154044AE050E00E948D
:10297000DB2D06C08CE696E06EEC78E00E94CC2C55
:102980008CE696E061EB78E00E94812C6091550422
:10299000709156048CE696E04AE050E00E94AC2D1F
:1029A0008CE696E064E978E00E94812C60914E0408
:1029B000603150F470E06F5F7F4F8CE696E04AE044
:1029C00050E00E944C2E06C08CE696E06BE878E062
:1029D0000E94CC2C8CE696E06EE678E00E94812C7A
:1029E00080914D0480FD03C06CE271E002C060E3A1
:1029F00071E08CE696E00E946E2E8CE696E061E532
:102A000078E00E94812C80914D0481FD03C064E335
:102A100071E002C06DE371E08CE696E00E946E2EDC
:102A20008CE696E062E378E00E94812C80914D0470
:102A300082FD03C064E371E002C06DE371E08CE6E7
:102A400096E00E946E2E8CE696E063E178E00E94AC
:102A5000812C80914D0483FD03C064E371E002C0CA
:102A60006DE371E08CE696E00E946E2EDF91CF91CF
:102A70001F9108951F93CF93DF938CE696E062E554
:102A80007BE00E94812C40911A0450911B046091BC
:102A90001C0470911D048CE696E02AE030E00E9450
:102AA000872D8CE696E06CE37BE00E94812C4091C0
:102AB0001E0450911F0460912004709121048CE643
:102AC00096E020E130E00E94872D8CE696E066E2F9
:102AD0007BE00E94812C8CE696E0609122044AE023
:102AE00050E00E94DB2D8CE696E060E17BE00E94E6
:102AF000812C8CE696E0609123044AE050E00E942D
:102B0000DB2D8CE696E06AEF7AE00E94812CC4E22D
:102B1000D4E010E012C0112331F08CE696E065E4B9
:102B200071E00E946B2E8CE696E069914AE050E0DD
:102B30000E94C92D1F5F183119F08881882359F729
:102B40008CE696E00E94AC2C8CE696E064EE7AE08F
:102B50000E94812C8CE696E060913C044AE050E0B3
:102B60000E94DB2D8CE696E06FEC7AE00E94812CCF
:102B7000E0913D04F0E0E770F070EE0FFF1FEC52C3
:102B8000FC4F608171818CE696E00E946E2E8CE68F
:102B900096E06AEB7AE00E94812C80913D0490E0FF
:102BA000887190708830910589F0893091051CF406
:102BB000892B39F01BC08031910569F04897B1F439
:102BC0000FC08CE696E061EB7AE00EC08CE696E0F2
:102BD00065EA7AE009C08CE696E06FE97AE004C025
:102BE0008CE696E065E97AE00E94CC2C8CE696E0D3
:102BF00061E87AE00E94812C4091160450911704FC
:102C000060911804709119048CE696E02AE030E097
:102C10000E94872D8CE696E068E67AE00E94812C7F
:102C200080913D0485FD03C067E471E002C06AE461
:102C300071E08CE696E00E946E2E8CE696E06FE4E2
:102C40007AE00E94812C80913D0486FD03C067E4F8
:102C500071E002C06AE471E08CE696E00E946E2E9C
:102C60008CE696E066E37AE00E94812C80913D0438
:102C700087FD03C067E471E002C06AE471E08CE69E
:102C800096E00E946E2E8CE696E069E17AE00E9462
:102C9000812C85E194E00E945408AB01BC018CE6D4
:102CA00096E02AE030E00E94782D8CE696E064E120
:102CB0007AE00E94812C85E194E00E9454089B01F7
:102CC000AC0160E472E48FE090E00E94DD2E8CE6BF
:102CD00096E0BA01A9012AE030E00E94782D8CE646
:102CE00096E061E17AE00E94CC2CDF91CF911F91B8
:102CF00008952F923F924F925F926F927F928F92A0
:102D00009F92AF92BF92CF92DF92EF92FF920F937A
:102D10001F93DF93CF9300D000D00F92CDB7DEB7D3
:102D20008C839D834B018DB79EB79A838983ADB603
:102D30009EB79B830E9489281B012C018DB79EB7EB
:102D4000881999090FB6F8949EBF0FBE8DBF6DB656
:102D50007EB60894611C711CEE24FF24BB2454C071
:102D60008CE696E00E94482B892B09F4B1C08CE6D2
:102D700096E00E94792B282F93E0B916E1F09B157D
:102D800030F081E0B816B9F08B15D0F00EC095E0A8
:102D9000B91609F463C0B916E0F186E0B81659F027
:102DA00097E0B91609F094C05FC0233509F09CC0C4
:102DB000BB24B3948DC02A3309F096C0B39488C065
:102DC000822F80538A30A8F4C70163E0880F991FCF
:102DD0006A95E1F7EE0CFF1CE80EF91E80ED9FEFFF
:102DE000E80EF91E822F992787FD9095E80EF91EAF
:102DF0006FC0283409F078C0E814F90409F074C0F1
:102E0000EE24FF2443E0B42E00E010E0CC24DD24C7
:102E10005FC0822F80538A3058F1822F81548630D0
:102E200098F12C3209F060C0F301EE0DFF1D008314
:102E30000894E11CF11C8D2D992787FD909588271A
:102E4000990F881F9927CC0CDD1CC80ED91E107055
:102E5000C026D126E814F904C9F536C0243509F096
:102E600043C0B6E0BB2E32C0822F80538A3040F47C
:102E7000A4E0000F111FAA95E1F7005310400BC00A
:102E8000822F8154863070F4F4E0000F111FFA9500
:102E9000E1F707531040822F992787FD9095080F7F
:102EA000191F16C02A33A1F4C016D106E9F48CE626
:102EB00096E06EE471E00E946E2E8C819D81B301DC
:102EC000A4010E948F0727C0E5E0BE2E00E010E0BD
:102ED0000E9489286219730984099509605D774009
:102EE0008040904008F43CCF8CE696E06DE571E0C0
:102EF0000E946E2E6AE070E080E090E00E94BD28A3
:102F000004C08CE696E00E94792B8CE696E00E9445
:102F1000482B892BB1F78A2D9B819C010FB6F89421
:102F20003EBF0FBE2DBF89819A810FB6F8949EBF18
:102F30000FBE8DBF0F900F900F900F900F90CF91FD
:102F4000DF911F910F91FF90EF90DF90CF90BF9096
:102F5000AF909F908F907F906F905F904F903F9039
:102F60002F900895EF92FF920F931F93CF93DF93CB
:102F7000182F092F7B018CE696E060E771E00E9434
:102F80006B2E8CE696E0B7014AE050E00E949B2D44
:102F9000E114F10419F4C0E0D0E044C0812F902F77
:102FA0009C0189018CE696E064E771E00E946B2E3B
:102FB000C0E0D0E0D801EC91F0E0A4E0F595E79511
:102FC000AA95E1F7EC51FC4F8CE696E060810E94F7
:102FD000A42CD801EC91F0E0EF70F070EC51FC4FB4
:102FE0008CE696E060810E94A42C8CE696E06CE270
:102FF0000E94A42C8D2F992787FD90958827990FE3
:10300000881F9927CC0FDD1FC80FD91FF8018191A8
:103010008F0190E0C827D9270894E108F108E1144E
:10302000F10441F68CE696E067E771E00E946B2EB2
:103030008CE696E0BE0140E150E00E949B2D8CE6BC
:1030400096E06AE771E00E946E2EDF91CF911F91AA
:103050000F91FF90EF900895EF92FF920F931F93BF
:103060008C018CE6E82E86E0F82EC701612F70E017
:103070004AE050E00E949B2DC7016EE20E94A42C02
:10308000B4E016950795BA95E1F70F701070C70177
:10309000B8014AE050E00E949B2D1F910F91FF90D4
:1030A000EF9008950F931F93CF93DF932091CE0459
:1030B0002F3FA9F58CE696E063E975E00E94812C2C
:1030C00080E593E00E942C188CE696E062E775E0BC
:1030D0000E94812C80915805909159050E942C18CE
:1030E0008CE696E06FE375E00E94CC2C8CE696E0CF
:1030F0006CE175E00E94CC2C8CE696E064E075E013
:103100000E94CC2C8CE696E06FED74E00E94CC2CF3
:103110008CE696E00E94AC2C0E94F31369C0121654
:103120000CF066C0332727FD30958091570590E05D
:10313000821793070CF45CC08CE696E06AEC74E0AE
:103140000E94812C6091CE04772767FD70958CE6F4
:1031500096E04AE050E00E944C2E8CE696E06FE943
:1031600074E00E94812C10E004E13AC0C12FD0E04D
:10317000CC0FDD1FCA5CDA4F288130E08091CE048D
:10318000992787FD909501972817390741F58CE617
:1031900096E06CE771E00E946B2E8CE696E0602F63
:1031A0004AE050E00E94C92D8CE696E060E871E0AC
:1031B0000E946B2EE981F0E0E770F070EE0FFF1FC8
:1031C000EC53FC4F608171818CE696E00E946B2E7F
:1031D0008CE696E064E871E00E946B2E0F5F1F5F43
:1031E00080915605181710F28CE696E00E94AC2CE0
:1031F000DF91CF911F910F910895CF92DF92EF92BF
:10320000FF920F931F93DF93CF93CDB7DEB76C97E9
:103210000FB6F894DEBF0FBECDBF282F8091CE042D
:103220008F3F09F052C1822F992787FD9095A92FD2
:10323000B92FFC013A97EF36F10508F03FC1EC5C7D
:10324000FF4FEE0FFF1F0590F491E02D09948FE3DF
:1032500094E06BE170E00E94B21730C18FE394E01C
:103260006BE170E00E94791622C18CE696E066E878
:1032700071E00E946E2E85E78983DE011296EFE3EE
:10328000F4E08BE101900D928150E1F7CE010196BF
:103290006CE10E94810C0E94A80B83E080931404CF
:1032A00068EC70E080E090E00E94BD2880911404FA
:1032B000843009F003C18FE70E94BA090E94CE0949
:1032C0008983853509F0FAC08CE696E061E874E000
:1032D0000E94CC2C8CE696E063E674E00E94CC2C35
:1032E0008CE696E065E474E0B2C08CE696E06EE9A8
:1032F00071E00E946E2E89E68983CE01019661E01D
:103300000E94810C0E94A80B83E08093140468EC57
:1033100070E080E090E00E94BD2880911404843029
:1033200009F0CCC08FE70E94BA090E94CE098983B8
:103330008E010E5F1F4FFDE1EF2EF12CEC0EFD1EF6
:103340000E94CE09D8018D938D01AE15BF05C1F73E
:10335000AFE3B4E0FE0132968BE101900D92815013
:10336000E1F78981893409F0A9C08CE696E067E22B
:1033700074E00E94CC2C8CE696E069E074E00E9438
:10338000CC2C8CE696E06BEE73E061C08CE696E0A8
:1033900068EB71E00E946E2E8EEF8093CE048EC09B
:1033A00020522750422F4053242F332727FD30959A
:1033B0008091570590E0821793073CF48CE696E0E5
:1033C00067EC71E00E946E2E79C04093CE046FC00E
:1033D00084E18093CE048CE696E064EB73E037C022
:1033E00085E18093CE048CE696E06DE773E02FC014
:1033F00086E18093CE048CE696E066E473E027C015
:1034000087E18093CE048CE696E06CEF72E01FC0FB
:1034100088E18093CE048CE696E06BEE72E017C0F4
:1034200089E18093CE048CE696E067ED72E00FC0F0
:103430008AE18093CE048CE696E062EC72E007C0ED
:103440008BE18093CE048CE696E06AE972E00E94FC
:10345000CC2C34C08CE696E060E872E00E94CC2C64
:1034600080914D0491E01DC08CE696E06AE672E022
:103470000E94CC2C80914D0492E013C08CE696E023
:1034800065E572E00E94CC2C80914D0494E009C067
:103490008CE696E06AE372E00E94CC2C80914D04A9
:1034A00098E0892780934D048FEF8093CE040E948B
:1034B000521804C08CE696E00E94792B8CE696E0C8
:1034C0000E94482B892BB1F777C1822F0E94C1122D
:1034D000882309F471C180913405882321F48FEF8A
:1034E0008093CE0461C18FEC94E060E070E040E036
:1034F00050E00E946E069B01AC019091CE04963183
:1035000009F47CC0973164F4943109F463C09531B7
:103510000CF06AC0892F81508D3008F035C113C07E
:10352000993109F4E5C09A313CF4973109F470C03F
:10353000983109F029C1D2C09A3109F4E7C09B3112
:1035400009F022C1F5C0E92FFF27E7FDF095809132
:10355000570590E08E179F070CF416C1DA01C901D8
:103560000197A109B1094097A105B10540F0FF24D9
:1035700010E004E16F010894C108D10826C0E15CA5
:10358000FB4F822F81508083E7C0612F70E0660F70
:10359000771F6A5C7A4FFB01808190E08C159D0556
:1035A00099F4802F90E0A0E0B0E082179307A40781
:1035B000B50749F4F601E15CFB4FDB0111968C91F4
:1035C0008183FF24F3940F5F1F5F809156051817C6
:1035D000E0F2C0C02F3F31054105510511F008F060
:1035E000D3C020935704B8C02F3F31054105510582
:1035F00011F008F0C9C020935804AEC02F3F310528
:103600004105510511F008F0BFC020935904A4C032
:103610008091CF048062803719F580ED94E060E0FE
:1036200070E040E050E00E946E069B01AC01DC01BE
:10363000CB010197A109B1090897A105B10508F0CF
:10364000B6C0CA01B90124ED30E340E050E00E9469
:10365000AB2E9B01AC012A5E3C4A4A46554E24C023
:10366000863611F580ED94E060E070E040E050E0D7
:103670000E946E069B01AC01DC01CB010197A10900
:10368000B1090797A105B10508F091C0CA01B901B8
:1036900028EA31E640E050E00E94AB2E9B01AC01ED
:1036A000245E3C434E46544E2115310541055105DB
:1036B00061F0DA01C9018054914EAD49B841815899
:1036C000904FAA4FB24008F05FC020934F04309350
:1036D000500440935104509352043EC02F3F310593
:1036E0004105510511F008F04FC02093530434C038
:1036F000DA01C9010197A109B1098F3F9105A1051F
:10370000B10508F041C02093540426C0DA01C90174
:10371000845C9940A040B0408D549D41A040B04091
:1037200038F43093560420935504FF24F39401C0D9
:10373000FF24211531054105510511F48FEF07C014
:10374000213131054105510528F4822F81508093A4
:103750004E0402C0FF20C1F0809135058823D1F4CA
:1037600080911E0490911F04A0912004B091210427
:103770000196A11DB11D80931E0490931F04A09378
:103780002004B093210406C08CE696E069ED71E058
:103790000E946E2E0E94B7128FEF8093CE048CE6AB
:1037A00096E06AE00E94E02C0E94521805C021E0D9
:1037B00030E040E050E07DCF6C960FB6F894DEBF6D
:1037C0000FBECDBFCF91DF911F910F91FF90EF9072
:1037D000DF90CF9008958CE696E06EEE71E00E9447
:1037E000CC2C8CE696E066ED71E00E94CC2C8CE649
:1037F00096E00E94482B892B31F08CE696E00E94DF
:10380000792B0E94FD180E94C20E823019F083307D
:1038100069F405C08CE696E068EB71E004C08CE6C4
:1038200096E061EA71E00E94CC2C08958FEF8093BE
:10383000CE04109235050E9452180CC08CE696E01A
:103840000E94482B892B31F08CE696E00E94792B60
:103850000E94FD188091CE048E3F81F708958091DB
:10386000CE04843009F46FC0853084F4813009F4CB
:103870005BC0823024F48F3F09F085C014C08230D1
:1038800009F457C0833009F07EC058C0863009F46F
:1038900064C086300CF45CC0873009F463C08930A2
:1038A00009F071C06AC08CE696E066E078E00E949C
:1038B000CC2C80E593E00E942C188CE696E06EEE0E
:1038C00077E00E94CC2C8CE696E069EC77E00E94D1
:1038D000CC2C8CE696E06FE977E00E94CC2C8CE64D
:1038E00096E06EE777E00E94CC2C8CE696E061E5EE
:1038F00077E00E94CC2C8CE696E06BE277E00E94A9
:10390000CC2C8CE696E067E077E00E94CC2C8CE62D
:1039100096E060EE76E00E94CC2C8CE696E00E9469
:10392000AC2C0E943A152FC08CE696E063EC76E052
:1039300028C08CE696E06EE976E023C08CE696E03F
:1039400069E876E01EC08CE696E06AE676E019C08B
:103950008CE696E066E276E014C08CE696E061E1E3
:1039600076E00FC08CE696E06CEF75E00E94CC2C00
:103970008CE696E066EB75E004C08CE696E060EAC3
:1039800075E00E94CC2C6AE070E080E090E00E943C
:10399000BD2804C08CE696E00E94792B8CE696E068
:1039A0000E94482B892BB1F708952F923F924F9296
:1039B0005F926F927F928F929F92AF92BF92CF92BF
:1039C000DF92EF92FF920F93DF93CF93CDB7DEB7E5
:1039D000A8970FB6F894DEBF0FBECDBF7E01089446
:1039E000E11CF11C80E1D7011D928A95E9F72D9821
:1039F0002C988CE696E067EF71E00E946E2E0E9494
:103A0000870F20E431EE4DE958E129A33AA34BA3F7
:103A10005CA380EC91EDA8E9BBE18D8F9E8FAF8F09
:103A2000B8A324EF31E040E050E0298F3A8F4B8F6C
:103A30005C8F80E593ECA0E0B0E08D8B9E8BAF8B2C
:103A4000B88FB0E44B2EB1EE5B2EBDE96B2EB8E122
:103A50007B2E88249924540100E022243324198ADF
:103A60001A8A1B8A1C8A02C18CE696E00E94792B76
:103A70008C32D9F1843421F0833209F0C5C024C0DE
:103A80008CE696E064E40E94A42C8CE696E040E488
:103A900051EE6DE978E12AE030E00E94F92D8CE6E4
:103AA00096E06CE20E94A42C8CE696E040EC51ED8E
:103AB00068E97BE12AE030E00E94F92D8CE696E08F
:103AC0006CE20E94E02CD2C019821A821B821C82F6
:103AD0001D821E821F82188619861A861B861C86E6
:103AE0001D861E861F86188A42C00F5F043009F0AB
:103AF000BDC069817A818B819C8128EE33E040E0F2
:103B000050E00E94AB2E69A37AA38BA39CA36D8186
:103B10007E818F8198850E94AB2E6D8F7E8F8F8FD7
:103B200098A329853A854B855C85298F3A8F4B8FE1
:103B30005C8F6D857E858F85988928EE33E040E027
:103B400050E00E94AB2E6D8B7E8B8F8B988F6052D6
:103B50007E448040904068F48CE162E30E94E70973
:103B600049A05AA06BA07CA088249924540100E0AD
:103B70007DC08D899E89AF89B88D80539547A040BF
:103B8000B04018F48CE162E2E9CF2D893E894F897B
:103B9000588D20543C494040504018F48CE166E276
:103BA000DDCF2D893E894F89588D2055334C4040BB
:103BB000504018F48CE162E1D1CF2D893E894F89C4
:103BC000588D20563A4E4040504018F48CE165E143
:103BD000C5CF2D893E894F89588D205731414140AD
:103BE000504018F48CE161E0B9CF2D893E894F89AE
:103BF000588D205A36484140504018F48CE163E01B
:103C0000ADCF8CE165E0AACF80538A3078F5C02E25
:103C1000DD24CC0CDD1CCC0CDD1CA1E0B0E0AC0F35
:103C2000BD1FCA0EDB1E282F332727FD3095432FDB
:103C3000532F2DA33EA34FA358A7D6016D917D917D
:103C40008D919C912AE030E040E050E00E94AB2E44
:103C50002DA13EA14FA158A5260F371F481F591F60
:103C6000D6012D933D934D935C9313978CE696E08C
:103C70000E94482B892B09F0F7CE81149104A104EE
:103C8000B10489F4C301B2010E945D0A61E070E0F1
:103C900080E090E00E94BD2822242A943324198ACF
:103CA0001A8A1B8A1C8A298D3A8D4B8D5C8D82164F
:103CB0009306A406B506D0F40E94080A29893A8919
:103CC0004B895C89280F311D411D511D298B3A8B71
:103CD0004B8B5C8B381608F4382E821508F4282E8E
:103CE0000894811C911CA11CB11C5AC0C301B201D3
:103CF00028EE33E040E050E00E94DD2E8CE696E0B6
:103D0000BA01A9012AE030E00E94782D8CE696E005
:103D10006CE20E94A42C8CE696E0632D4AE050E011
:103D20000E94C92D8CE696E06CE20E94A42C698961
:103D30007A898B899C89A50194010E94DD2E8CE6ED
:103D400096E0BA01A9012AE030E00E94782D8CE6C5
:103D500096E06CE20E94A42C8CE696E0622D4AE08C
:103D600050E00E94C92D8CE696E06CE20E94E02CA7
:103D70008D899E89AF89B88D480E591E6A1E7B1E9B
:103D80002D8D3E8D4F8D58A12415350546055705BF
:103D900020F449A05AA06BA07CA088249924540147
:103DA00089A19AA1ABA1BCA1885E9340A040B0407C
:103DB00009F05CCFA8960FB6F894DEBF0FBECDBF5A
:103DC000CF91DF910F91FF90EF90DF90CF90BF9058
:103DD000AF909F908F907F906F905F904F903F90AB
:103DE0002F900895DF92EF92FF920F931F93CF933E
:103DF000DF930E949728DC01CB010E94A32E109232
:103E00001E0410921F041092200410922104DD243D
:103E1000E0901E04F0901F040091200410912104F2
:103E2000102F0F2DFE2CEE246FEF70E080E090E05D
:103E30000E94812EE60EF71E081F191FE0921E0435
:103E4000F0921F040093200410932104D39484E083
:103E5000D816F1F6C4E2D4E010E015C062E370E0D9
:103E600080E090E00E94812E6F5FE4E2F4E090E059
:103E700004C08191861791F39F5F9117D0F36993E6
:103E80001F5F183119F08881882341F7DF91CF91A6
:103E90001F910F91FF90EF90DF900895EF92FF92A6
:103EA0000F931F93CF93DF9380E090E0A0E0B0E00A
:103EB000C0E0D0E0EE24F82E092F1A2F60913E04C6
:103EC00070E06C5F7F4F26E0660F771F2A95E1F761
:103ED0006C0F7D1F86ED95E00E94B127A801970128
:103EE000280F311D411D511DDA01C9012196C43031
:103EF000D10501F78E519E4BA14CBE4D19F020E02B
:103F000030E022C0C0E0D0E060913E0470E096E076
:103F1000660F771F9A95E1F76C5F7E4F6C0F7D1FE0
:103F200086ED95E00E94B127FE01EB5EFB4F80839A
:103F30002196C932D10541F720E030E08091150487
:103F4000893011F421E030E0C901DF91CF911F9158
:103F50000F91FF90EF9008950F931F93CF93DF93EE
:103F6000EC01062F15E0115071F086ED95E0BE01D1
:103F70000E94B127081751F086ED95E0BE01402F51
:103F80000E94B827F0CF82E00E949F0FDF91CF916F
:103F90001F910F910895CF92DF92EF92FF920F93AE
:103FA0001F93CF93DF93C0E0D0E008E110E06EE113
:103FB000C62E6EEBD62E61ECE62E6EEDF62E8091BF
:103FC0003E0490E0049656E0880F991F5A95E1F759
:103FD000A7019601002E04C0569547953795279561
:103FE0000A94D2F78C0F9D1F622F0E94AC1F21965E
:103FF00008501040C430D10511F7C0E0D0E08091E6
:104000003E0490E046E0880F991F4A95E1F78C5FE7
:104010009E4FFE01EB5EFB4F8C0F9D1F60810E9447
:10402000AC1F2196C932D10551F7DF91CF911F9175
:104030000F91FF90EF90DF90CF9008951F93109114
:10404000CE041F3F09F0CCC0863409F48BC08734FE
:104050005CF58833B4F481330CF087C08B3109F4FC
:1040600065C08C313CF48A3009F49AC18D3009F076
:104070009FC196C1813209F444C0803309F098C1D0
:1040800086C0803409F444C081343CF4883309F498
:104090006EC0893309F08CC178C0813409F486C0C0
:1040A000823409F085C18DC0823609F48AC0833616
:1040B000ACF48335A1F184353CF4893409F442C071
:1040C000823509F075C145C08A3509F486C081364C
:1040D00009F46CC0883509F06BC128C08237C9F17A
:1040E000833734F48636F1F1893609F061C12AC08C
:1040F0008837E1F08A3709F470C0833709F058C176
:104100000EC085E194E069E270E00E94B21750C1F0
:1041100085E194E069E270E00E94791641C10E9455
:10412000CB1F8CE696E064E072E006C00E944E1F52
:104130008CE696E06EE172E00E946E2E8EEF809328
:10414000CE0436C10E94E1078CE696E06DE372E092
:1041500006C00E94F21E8CE696E066E572E00E94C0
:104160006E2E1EC10E94341323C1805343C08CE6BF
:1041700096E06EE871E00E94CC2C90913D04892F6E
:10418000885F8871977E892B0CC089E033C08CE6EC
:1041900096E06BE771E00E94CC2C80913D0490E2A8
:1041A000892780933D041093CE04FAC08CE696E0F4
:1041B00065E671E00E94CC2C80913D0490E4892753
:1041C00009C08CE696E064E571E00E94CC2C8091F9
:1041D0003D04805880933D040CC00E94EB1B09C035
:1041E0000E94C112882309F4E3C08091340588231A
:1041F00021F48FEF8093CE04D3C08FEC94E060E085
:1042000070E040E050E00E946E069B01AC0180919E
:10421000CE04843009F441C0853044F4823041F149
:10422000833094F5813009F097C00DC0863009F4D1
:1042300067C086300CF43EC0873009F469C089300D
:1042400009F08AC075C0DA01C9018154914EAD49A7
:10425000B8418F57904FAA4FB24008F07DC02093CD
:104260001A0430931B0440931C0450931D049BC0FC
:1042700020931E0430931F04409320045093210484
:1042800081E0809335058FC0283031054105510507
:1042900008F062C02093220486C0DA01C9010197A8
:1042A000A109B1090A97A105B10508F055C02093ED
:1042B000230479C08FEC94E065E471E00E948A07E2
:1042C00010E00EC0183130F4E12FF0E0EB5EFB4F50
:1042D00087871F5F80E090E065E471E00E948A07B5
:1042E000009759F00E946C07009761F706C0E12F14
:1042F000F0E0EB5EFB4F17861F5F1831C0F353C031
:10430000253031054105510538F520933C044BC05B
:10431000DA01C9010197A109B1090697A105B10503
:10432000D8F480913D04887F822B80933D043BC06C
:10433000DA01C901805B9440A040B04081559D4B9B
:10434000A140B04048F420931604309317044093E2
:1043500018045093190427C08CE696E069ED71E0CB
:104360000E946E2E13C080911E0490911F04A09194
:104370002004B09121040196A11DB11D80931E045B
:1043800090931F04A0932004B09321040E94B712BD
:104390008FEF8093CE048CE696E06AE00E94E02CDA
:1043A0000E942F1C05C0809135058823E1F2EECFD5
:1043B0001F9108958FEF8093CE04109235050E94CF
:1043C0002F1C0CC08CE696E00E94482B892B31F004
:1043D0008CE696E00E94792B0E941E208091CE04EC
:1043E0008E3F81F76AE070E080E090E00E94BD2897
:1043F00004C08CE696E00E94792B8CE696E00E9441
:10440000482B892BB1F7089580E490E060913E0439
:104410000E94AC1F089586ED95E060E470E00E9474
:10442000B12780933E04843020F010923E040E9415
:10443000042208951F93182F0E940B2280913E049E
:10444000811731F0143020F410933E040E940422AE
:104450001F910895CF92DF92EF92FF920F931F93D7
:10446000DF93CF93CDB7DEB7E8970FB6F894DEBFF2
:104470000FBECDBF7C01FC018281883009F4ABC046
:104480008930A8F4843009F45FC0853048F4823064
:10449000E9F1833008F04DC0813009F080C123C0BC
:1044A000863009F482C0873008F08BC060C088363F
:1044B00009F4D4C0893650F4863609F4AFC0873683
:1044C00008F0C5C0853609F06AC18FC08A3609F484
:1044D000FEC08A3608F4F2C08B3609F438C1873C36
:1044E00009F05DC149C1C70161E049E250E00E94A5
:1044F000550E05E114E0C701F80161918F010E949A
:10450000350EF4E00E331F07B1F753C1C70162E067
:104510004BE150E00E94550E0FE314E0C701F80193
:1045200061918F010E94350EF4E00A351F07B1F743
:1045300040C1C70163E041E050E00E94550E0E9477
:10454000C20E682FC70133C1C70164E041E050E0EB
:104550000E94550EC70161E00E94350E8CE696E080
:10456000F70164810E94B22B0E94D51C28C14091A2
:10457000560550E0440F551FC70165E00E94550ED7
:1045800000E010E009C0F801EA5CFA4FC701608161
:104590000E94350E0F5F1F4F8091560590E0880FE7
:1045A000991F0817190778F304C1C70166E042E0B4
:1045B00050E00E94550EC70160E573E00E94460E70
:1045C000F8C0C70167E041E050E00E94550EC70106
:1045D00060915705ECC0C70168E041E050E00E94DF
:1045E000550EC70160913E04E2C0C70165E641E097
:1045F00050E00E94550EF70187819085899709F058
:10460000D4C0D701E5E1F4E019968C911997819314
:10461000119684E0EE33F807B9F7ABC0C70166E640
:1046200041E050E00E94550EF701878190854B973D
:1046300009F0BBC0D701EFE3F4E019968C9119970C
:104640008193119684E0EA35F807B9F792C0C70163
:1046500067E641E050E00E94550E89C0C70168E658
:1046600041E050E00E94550E85E78983DE011296F5
:10467000EFE3F4E08BE101900D928150E1F7CE0180
:1046800001966CE10E94810C0E94A80B83E080934C
:10469000140468EC70E080E090E00E94BD288091F6
:1046A0001404843009F081C08FE70E94BA090E9487
:1046B000CE098983853509F078C05BC0C70169E6FA
:1046C00041E050E00E94550E0E94E10752C0C70130
:1046D0006AE641E050E00E94550E89E68D8FCE01DA
:1046E0004D9661E00E94810C0E94A80B83E08093AC
:1046F000140468EC70E080E090E00E94BD28809196
:104700001404843009F051C08FE70E94BA090E9456
:10471000CE098D8F8E01025E1F4F79E3C72ED12CFB
:10472000CC0EDD1E0E94CE09F80181938F01EC159D
:10473000FD05C1F7AFE3B4E0FE017E968BE1019089
:104740000D928150E1F78D8D893479F512C0C70142
:104750006BE641E050E00E94550EF70181850E9412
:104760001A220E944E1F892B21F40E94E1070E9409
:10477000CB1FC70161E01BC0C70167EC41E050E0FF
:104780000E94550EC70161E00E94350E8CE696E04E
:10479000F70164810E94B22B1092600410C0C7011F
:1047A0006AEC41E050E00E94550EC70160E00E94B3
:1047B000350E8CE696E0F70164810E94B22BE896F4
:1047C0000FB6F894DEBF0FBECDBFCF91DF911F9122
:1047D0000F91FF90EF90DF90CF9008956F927F92AE
:1047E0008F929F92AF92BF92CF92DF92EF92FF9201
:1047F0000F931F93CF93DF9381E08093600436E69D
:10480000E32E34E0F32E24E0C22ED12CCE0CDF1C9C
:1048100094E6692E84E0782E06E0902E15E0812E35
:10482000B2E0AB2EA3E0BA2EB8C08CE696E00E94B0
:10483000482B892B09F4B1C0A9C08CE696E00E94F0
:10484000792B982F8093610480916204833021F149
:10485000843028F4813099F08230B8F409C0853072
:1048600009F450C0853020F1863009F08FC067C050
:10487000953B09F08BC081E08093620487C092363B
:1048800009F082C0A092620481C090936304909367
:104890006404B09262047AC090936604F7011182B6
:1048A00080916404892780936404709262046EC0CE
:1048B000D92FC0E020916604309167042C2B3D2B4A
:1048C0003093670420936604809164048927809361
:1048D0006404809262042536310508F457C081E6ED
:1048E00094E06CEC41E050E00E94550E81E694E0CB
:1048F00061E00E94350E8CE696E0609165040E94AE
:10490000B22B42C02091680430916904F901EF593B
:10491000FB4F9187809164048927809364042F5F03
:104920003F4F30936904209368048091660490910E
:1049300067042817390750F19092620427C000914C
:104940006404091729F481E694E00E942A2213C026
:104950001091630481E694E06BEC42E050E00E9429
:10496000550E81E694E0612F0E94350E81E694E0B9
:10497000602F0E94350EF601862D11928A95E9F777
:104980001092690410926804109262048CE696E01A
:104990000E94482B892B09F050CF80916004813010
:1049A00009F443CFDF91CF911F910F91FF90EF90CA
:1049B000DF90CF90BF90AF909F908F907F906F903F
:1049C00008957F928F929F92AF92BF92CF92DF9283
:1049D000EF92FF920F931F93DF93CF93CDB7DEB784
:1049E000AA970FB6F894DEBF0FBECDBF0E948928EC
:1049F0006B017C0181E00E94C90A04C08CE696E04C
:104A00000E94792B8CE696E00E94482B892BB1F707
:104A100011E052E6752E42E0842E912C8C0E9D1EE4
:104A20005E010894A11CB11C03E00E94892820E0CB
:104A300030E06C197D098E099F09693C710581057B
:104A4000910510F021E030E0812F90E028233923F8
:104A5000232BA9F10E9489286B017C012C9A80EDFF
:104A600097E00E94900E7982D401E5E1F4E089E2BA
:104A700001900D928150E1F7C5016AE20E94810C1C
:104A80002C9880E090E00E94900E009314040E9405
:104A9000A80B62E370E080E090E00E94BD28809166
:104AA0001404843059F4009314048FE70E94BA0967
:104AB0000E94CE09823411F410E001C011E08BE0B5
:104AC0000E94E429892B21F511E022C08CE696E0B2
:104AD0000E94792B8D30910569F08E3091051CF480
:104AE0000A97B1F407C08332910569F082349105C9
:104AF00079F40CC08CE696E066E471E00E94CC2C60
:104B00000E94DA2105C00E94D51C02C00E94EE233B
:104B10008CE696E00E94482B892B09F486CFD6CFED
:104B20008CE696E00E94482B04970CF18CE696E008
:104B30000E94792B82349105D1F48CE696E00E9494
:104B4000792B8E34910599F48CE696E00E94792BAE
:104B50008434910561F48CE696E00E94792B81976C
:104B600031F480E090E00E94900E0E94E1240895CC
:104B70008F929F92AF92BF92CF92DF92EF92FF926D
:104B80000F931F938BE00E94E429892B09F0B2C098
:104B900068EC70E080E090E00E94BD2880E090E04A
:104BA0000E94900E0E9489285B016C0160ECE62E49
:104BB00062E1F62E012D112DEA0CFB1C0C1D1D1DB2
:104BC00006C08BE00E94E429892B09F08BC00E946B
:104BD00089286E157F058007910798F38BE00E9466
:104BE000E429892B09F07EC080ED97E00E94900EA9
:104BF0000E9489287B018C0199249394882488E45D
:104C000096E2A0E0B0E0A80EB91ECA1EDB1E29C0C5
:104C1000AE14BF04C006D10638F480ED97E00E94C0
:104C2000900E882483941DC00E9489286E197F09E4
:104C3000800B910B693C71058105910590F00E94F4
:104C400089287B018C0180E0992009F481E0982E6D
:104C5000882319F480E090E002C080ED97E00E9484
:104C6000900E8BE00E94E429892B91F280E090E085
:104C70000E94900E882051F180913E048F5F8370D6
:104C80000E941A228CE696E063E772E00E946B2E87
:104C90008CE696E060913E044AE050E00E94DB2DF5
:104CA0000E944E1F892B39F08CE696E060E872E096
:104CB0000E946E2E1FC08CE696E06DE972E00E94A5
:104CC0006B2E0E94E1070E94CB1F14C00E94972800
:104CD000DC01CB010E94A32E0E94F21E0E94CB1F7A
:104CE0000E943A158CE696E06FEB72E00E946E2E01
:104CF0000E94E1241F910F91FF90EF90DF90CF90E1
:104D0000BF90AF909F908F90089580E062ED77E024
:104D100042E050E00E94C4270895EF92FF920F9363
:104D20001F930E947B0E8DE061E00E9451298CE070
:104D300061E00E9451298BE060E00E94512983E0EC
:104D400060E00E94512983E061E00E9490298EE09A
:104D500061E00E9451298EE060E00E9490290E944B
:104D60009A0E8CE696E040E052EC61E070E00E9422
:104D7000C12A0E940B220E944E1F892B39F08CE61B
:104D800096E060E872E00E946E2E0AC08CE696E023
:104D90006DE972E00E946B2E0E94E1070E94CB1F1A
:104DA00083E0809380008AE1809381008FEF9FEF02
:104DB000909389008093880010926F0088E0809320
:104DC0006D00809168008460809368008FEF80930D
:104DD0008B050E94852678940E9489287B018C018E
:104DE00080918B058F3F09F0ADC00E9489286E1914
:104DF0007F09800B910B605D77408040904008F008
:104E0000A1C0EECF8CE696E00E94792B8CE696E06E
:104E10000E94482B892BB1F78CE696E066ED72E094
:104E20000E946B2E80E593E00E942C188CE696E0A1
:104E30006DEE72E00E946B2E8CE696E062E070E010
:104E40004AE050E00E944C2E68EC70E080E090E078
:104E50000E94BD280E94902540911604509117048D
:104E600060911804709119048CE696E00E94C12AA2
:104E70000E94B8252D9880E090E00E94900E83E07B
:104E8000809380008AE1809381008FEF9FEF909361
:104E900089008093880010926F0088E080936D00F5
:104EA0008091680084608093680080E00E94C90A55
:104EB000809171050E94F2090E94A80B1092D305FF
:104EC0001092D4051092D5056CE271E080E090E07C
:104ED0000E94BD2880ED97E00E94900E64E670E08D
:104EE00080E090E00E94BD2880E090E00E94900E5B
:104EF00010E015C064E670E080E090E00E94BD28FC
:104F000080ED97E00E94900E64E670E080E090E013
:104F10000E94BD2880E090E00E94900E1F5F80916B
:104F20003E04181738F380913D0490E084FF14C0CC
:104F300020E088719070489709F421E0822F0E9448
:104F4000A30E0AC080ED97E00E94900E8BE061E016
:104F50000E9490292D9A5ACF1F910F91FF90EF90A8
:104F60000895F999FECF72BD61BDF89A80B5089594
:104F7000F999FECF1FBA72BD61BD40BD0FB6F8945E
:104F8000FA9AF99A0FBE0895823000F5E82FF0E002
:104F9000EE0FFF1FE952FA4F71836083882319F0E7
:104FA0008130A1F408C0809169008C7F842B8093AC
:104FB0006900E89A089580916900440F551F440FD5
:104FC000551F837F842B80936900E99A08951F926F
:104FD0000F920FB60F9211242F933F934F935F932D
:104FE0006F937F938F939F93AF93BF93EF93FF93B1
:104FF0008091D7059091D805892B29F0E091D705AC
:10500000F091D8050995FF91EF91BF91AF919F91D4
:105010008F917F916F915F914F913F912F910F9061
:105020000FBE0F901F9018951F920F920FB60F9200
:1050300011242F933F934F935F936F937F938F939D
:105040009F93AF93BF93EF93FF938091D905909176
:10505000DA05892B29F0E091D905F091DA05099557
:10506000FF91EF91BF91AF919F918F917F916F9140
:105070005F914F913F912F910F900FBE0F901F9016
:1050800018951F920F920FB60F9211242F933F93F2
:105090008F939F93AF93BF938091DF059091E0052D
:1050A000A091E105B091E2053091E3050196A11DC3
:1050B000B11D232F2D5F2D3720F02D570196A11DF7
:1050C000B11D2093E3058093DF059093E005A09345
:1050D000E105B093E2058091DB059091DC05A0919C
:1050E000DD05B091DE050196A11DB11D8093DB05A4
:1050F0009093DC05A093DD05B093DE05BF91AF91E1
:105100009F918F913F912F910F900FBE0F901F9005
:1051100018958FB7F8942091DF053091E005409104
:10512000E1055091E2058FBFB901CA0108959FB70B
:10513000F8942091DB053091DC054091DD0550911C
:10514000DE0586B5A89B06C08F3F21F02F5F3F4F3D
:105150004F4F5F4F9FBF542F432F322F2227280FCF
:10516000311D411D511D82E0220F331F441F551F69
:105170008A95D1F7B901CA0108959B01AC017FB7A7
:10518000F8948091DB059091DC05A091DD05B0914C
:10519000DE0566B5A89B05C06F3F19F00196A11DFD
:1051A000B11D7FBFBA2FA92F982F8827860F911D79
:1051B000A11DB11D62E0880F991FAA1FBB1F6A9530
:1051C000D1F7BC012DC0FFB7F8948091DB05909119
:1051D000DC05A091DD05B091DE05E6B5A89B05C014
:1051E000EF3F19F00196A11DB11DFFBFBA2FA92FE6
:1051F000982F88278E0F911DA11DB11DE2E0880F09
:10520000991FAA1FBB1FEA95D1F7861B970B885ED3
:105210009340C8F2215030404040504068517C4F8C
:10522000211531054105510571F60895789484B52D
:10523000826084BD84B5816084BD85B5826085BD92
:1052400085B5816085BDEEE6F0E080818160808378
:10525000E1E8F0E01082808182608083808181605B
:105260008083E0E8F0E0808181608083E1EBF0E022
:10527000808184608083E0EBF0E0808181608083C6
:10528000EAE7F0E0808184608083808182608083AF
:105290008081816080838081806880831092C100DA
:1052A0000895CF93DF93482F50E0CA018656944F5C
:1052B000FC0134914A57544FFA018491882369F1D3
:1052C00090E0880F991FFC01E859F44FA591B49123
:1052D000FC01EE58F44FC591D491662351F42FB7D9
:1052E000F8948C91932F909589238C9388818923AE
:1052F0000BC0623061F42FB7F8948C91932F909586
:1053000089238C938881832B88832FBF06C09FB706
:10531000F8948C91832B8C939FBFDF91CF9108954C
:10532000482F50E0CA018255944FFC012491CA01D4
:105330008656944FFC0194914A57544FFA01349188
:10534000332309F440C0222351F1233071F024307B
:1053500028F42130A1F0223011F514C02630B1F02C
:105360002730C1F02430D9F404C0809180008F77B9
:1053700003C0809180008F7D8093800010C084B531
:105380008F7702C084B58F7D84BD09C08091B00045
:105390008F7703C08091B0008F7D8093B000E32FA2
:1053A000F0E0EE0FFF1FEE58F44FA591B4912FB728
:1053B000F894662321F48C919095892302C08C91F6
:1053C000892B8C932FBF0895682F70E0CB018255F5
:1053D000944FFC012491CB018656944FFC014491DB
:1053E0006A57744FFB019491992319F420E030E03F
:1053F0003CC0222351F1233071F0243028F42130B5
:10540000A1F0223011F514C02630B1F02730C1F0E0
:105410002430D9F404C0809180008F7703C080913C
:1054200080008F7D8093800010C084B58F7702C08C
:1054300084B58F7D84BD09C08091B0008F7703C093
:105440008091B0008F7D8093B000892F90E0880F0D
:10545000991F8458944FFC01A591B4918C9120E040
:1054600030E0842311F021E030E0C901089508956F
:105470001F920F920FB60F9211242F933F934F93C9
:105480008F939F93EF93FF938091C00082FD1DC087
:105490004091C60020912406309125062F5F3F4F92
:1054A0002F733070809126069091270628173907B0
:1054B00071F0E0912406F0912506EC51FA4F4083FB
:1054C000309325062093240602C08091C600FF91E8
:1054D000EF919F918F914F913F912F910F900FBE20
:1054E0000F901F901895E0917806F0917906E05C96
:1054F000FF4F8191919120813181821B930B8F739A
:105500009070892B11F00E94372A08951F920F92F4
:105510000FB60F9211242F933F938F939F93EF9386
:10552000FF93209168063091690680916A069091F8
:105530006B062817390731F48091C1008F7D809365
:10554000C10014C0E0916A06F0916B06E85DF94F66
:10555000208180916A0690916B0601968F739070FE
:1055600090936B0680936A062093C600FF91EF919B
:105570009F918F913F912F910F900FBE0F901F9091
:105580001895AF92BF92DF92EF92FF920F931F9305
:10559000CF93DF93EC017A018B01DD24403081EE63
:1055A000580780E0680780E0780711F0DD24D39485
:1055B00091E0A92EB12CEC89FD89DD2069F0C501AF
:1055C00008A002C0880F991F0A94E2F7808360E068
:1055D00079E08DE390E005C0108260E874E88EE128
:1055E00090E0A80197010E94DD2E215030404040FC
:1055F0005040569547953795279580E120303807DC
:1056000020F0DD2011F0DD24D6CFE889F989308340
:10561000EA89FB89208319A2EE89FF89408121E074
:1056200030E0C9010C8C02C0880F991F0A94E2F780
:10563000482B4083EE89FF894081C9010D8C02C04F
:10564000880F991F0A94E2F7482B4083EE89FF895F
:105650004081C9010E8C02C0880F991F0A94E2F79D
:10566000482B4083EE89FF8980810F8C02C0220F76
:10567000331F0A94E2F7209528232083DF91CF91EE
:105680001F910F91FF90EF90DF90BF90AF90089522
:10569000DC011C96ED91FC911D97E05CFF4F219180
:1056A000319180819181281B390B2F733070C90192
:1056B0000895DC011C96ED91FC911D97E05CFF4F75
:1056C00020813181E054F040DF01AE5BBF4F8D910E
:1056D0009C9111972817390719F42FEF3FEF07C056
:1056E0008D919C91E80FF91F8081282F30E0C9012E
:1056F0000895DC011C96ED91FC911D97E05CFF4F35
:1057000020813181E054F040DF01AE5BBF4F8D91CD
:105710009C9111972817390719F42FEF3FEF10C00C
:105720008D919C911197E80FF91F20818D919C918B
:10573000119701968F73907011969C938E9330E021
:10574000C9010895DC0191968C919197882339F0D5
:105750005496ED91FC915597808186FFF9CF9196F3
:105760001C920895CF93DF93EC01EE85FF85E05CFA
:10577000FF4F20813181E054F0402F5F3F4F2F7366
:105780003070DF01AE5BBF4F8D919C911197281750
:105790003907D1F3E05CFF4F80819181E054F04004
:1057A000E80FF91F6083EE85FF85E05CFF4F3183D2
:1057B0002083EE89FF89208181E090E00F8C02C078
:1057C000880F991F0A94E2F7282B208381E089A390
:1057D000EC89FD8980818064808381E090E0DF91A5
:1057E000CF91089510926F0610926E0688EE93E0A6
:1057F000A0E0B0E08093700690937106A0937206CB
:10580000B093730686E094E090936D0680936C06E7
:1058100084EE95E0909379068093780688E296E08E
:1058200090937B0680937A0685EC90E090937D06BA
:1058300080937C0684EC90E090937F0680937E06B4
:1058400080EC90E0909381068093800681EC90E05C
:10585000909383068093820682EC90E09093850675
:105860008093840686EC90E090938706809386066A
:1058700084E08093880683E08093890687E08093A4
:105880008A0685E080938B0681E080938C060895DC
:10589000CF93DF930E9416290E948D26C3E7DAE298
:1058A0000E9409102097E1F30E94732AF9CFCF924A
:1058B000DF92EF92FF920F931F93CF93DF937C01C0
:1058C0006B018A01C0E0D0E00FC0D6016D916D017F
:1058D000D701ED91FC910190F081E02DC701099570
:1058E000C80FD91F015010400115110571F7CE01E5
:1058F000DF91CF911F910F91FF90EF90DF90CF90AC
:105900000895EF92FF920F931F93CF93DF937C0143
:105910008B01C0E0D0E0F8010F5F1F4F6491662358
:1059200059F0D701ED91FC910190F081E02DC70174
:105930000995C80FD91FEFCFCE01DF91CF911F91ED
:105940000F91FF90EF900895DC01ED91FC91019093
:10595000F081E02D09950895EF92FF920F931F9328
:105960008C01DC01ED91FC910190F081E02D6DE066
:1059700009957C01D801ED91FC910190F081E02D19
:10598000C8016AE009959C012E0D3F1DC9011F91B8
:105990000F91FF90EF900895EF92FF920F931F9356
:1059A0007C010E94812C8C01C7010E94AC2C9C01BF
:1059B000200F311FC9011F910F91FF90EF900895A3
:1059C000EF92FF920F931F937C01DC01ED91FC910C
:1059D0000190F081E02D09958C01C7010E94AC2C4B
:1059E000080F191FC8011F910F91FF90EF900895A4
:1059F000CF93DF93EC016115710519F420E030E0DD
:105A00000FC0DB010D900020E9F71197A61BB70B23
:105A1000E881F9810280F381E02DAD0109959C01B7
:105A2000C901DF91CF9108954F925F927F928F923B
:105A30009F92AF92BF92CF92DF92EF92FF920F931D
:105A40001F93DF93CF93CDB7DEB7A1970FB6F8942E
:105A5000DEBF0FBECDBF2C01742ECB01223008F467
:105A60002AE019A231E2C32ED12CCC0EDD1E822EEB
:105A70009924AA24BB24672D752FA50194010E94A7
:105A8000DD2E79018A01C801B701A50194010E94A8
:105A9000AB2E472D461B0894C108D1084A3014F498
:105AA000405D01C0495CF6014083E114F104010549
:105AB000110521F07E2C5F2DC801DDCFC201B6019A
:105AC0000E94F82CA1960FB6F894DEBF0FBECDBF92
:105AD000CF91DF911F910F91FF90EF90DF90CF90CA
