:100000000C94E3050C9442280C946F280C940B0676
:100010000C940B060C940B060C940B060C940B061C
:100020000C940B060C940B060C94CE0B0C940B0644
:100030000C940B060C940B060C940B060C940B06FC
:100040000C949C280C940B060C94932A0C94E12A93
:100050000C940B060C940B060C940B060C940B06DC
:100060000C940B060C940B06A41AAB1AAB1AA41A28
:10007000AB1AAB1AAB1AAB1AAB1AAB1AAB1AAB1A58
:10008000AB1AAB1AAB1AAB1AAB1A131AAB1AAB1AE0
:10009000AB1AAB1AAB1A7419AB1AAB1AAB1AAB1A70
:1000A000AB1AAB1AAB1AAB1AAB1AAB1AAB1AAB1A28
:1000B000AB1AAB1AAB1A1F1A1F1A1F1A1F1A1F1AD4
:1000C0001F1A1F1A1F1A1F1AAB1AAB1AAB1AAB1A38
:1000D000AB1AAB1A7B191E1A1E1A1E1A1E1AAB1A5D
:1000E000351A3D1A451A4D1A551A5D1A651A6D1AB8
:1000F000771A811A8B1A951AC2198219AB1AAB1A80
:10010000AB1AAB1A131AAB1AAB1AAB1AAB1AAB1A5F
:10011000AB1AAB1AAB1A1D1A1D1A1D1A1D1AAB1AEF
:10012000351A3D1A451A4D1A551A5D1A651A6D1A77
:10013000771A811A8B1A951AC2198219AB1AAB1A3F
:10014000AB1AAB1A131A456E746572206D656E7525
:100150002E2E2E00546F67676C6564206D69637284
:100160006F50504D00546F67676C656420696E7600
:1001700065727465642050504D2100546F67676C40
:100180006564205458206D7574696E672100546F42
:1001900067676C65642074656C656D657472792140
:1001A0000050726F746F636F6C206572726F722093
:1001B000776974682052580054696D656F757420B2
:1001C0007768656E20636F6E6E656374696E672015
:1001D000746F20525800507265737320616E7920DD
:1001E0006B657920746F2063616E63656C00436F8B
:1001F0006E6E656374696E6720746F2052582C2090
:10020000706F776572207570207468652052582071
:1002100028776974682062696E6420706C75672045
:100220006966206E6F74207573696E6720616C77E4
:100230006179732062696E642900546F67676C6529
:10024000642027696D6D656469617465206F7574DC
:100250007075742700546F67676C65642027736C32
:10026000617665206D6F64652700546F67676C6504
:10027000642027616C776179732062696E6427005E
:10028000546F67676C65642050504D206368616EE1
:100290006E656C206C696D697400536574205253EF
:1002A000534920696E6A656374696F6E2063686183
:1002B0006E6E656C2028303D3D64697361626C65CB
:1002C00029005365742050504D206D696E696D751D
:1002D0006D2073796E630053657420626561636F8E
:1002E0006E20696E74657276616C0053657420626D
:1002F0006561636F6E2064656C617900536574207D
:10030000626561636F6E206672657175656E637993
:1003100020696E20487A3A20303D64697361626CCE
:10032000652C2050783D504D52206368616E6E659B
:100330006C20782C2046783D465253206368616ECD
:100340006E656C2078005365742050574D2073748F
:100350006F702064656C6179202830206469736156
:10036000626C65642C20312D323535203D3D2030C6
:100370002E3173202D2035306D696E290053657440
:100380002050504D2073746F702064656C6179202B
:1003900028302064697361626C65642C20312D32D1
:1003A0003535203D3D20302E3173202D2035306DE8
:1003B000696E2900536574206661696C73616665B6
:1003C0002064656C61792028302064697361626CF7
:1003D00065642C20312D323535203D3D20302E31C5
:1003E00073202D2035306D696E29002A2A2A2A2A89
:1003F0002A2A2A2A2A2A2A2A2A2A2A2A2A2A2A2A5D
:100400002A2A2A2A2A2A2A2A0052582041636B655E
:1004100064202D2072657665727420737563636540
:10042000737366756C21002A2A2A2A2A2A2A2A2A04
:100430002A2A2A2A2A2A2A2A2A2A2A2A2A2A2A2A1C
:100440002A2A2A2A002A2A2A2A2A2A2A2A2A2A2A36
:100450002A2A2A2A2A2A2A2A2A2A2A2A2A2A2A2AFC
:100460002A2A0052582041636B6564202D20757044
:1004700064617465207375636365737366756C215D
:10048000002A2A2A2A2A2A2A2A2A2A2A2A2A2A2AF6
:100490002A2A2A2A2A2A2A2A2A2A2A2A2A2A0056BA
:1004A000616C69642063686F69636573206172655C
:1004B0003A205B315D2D5B31365D20286368616ECB
:1004C0006E656C20312D31362900536574206F75AF
:1004D0007470757420666F7220706F727420005B88
:1004E000585D2061626F7274206368616E67657326
:1004F00020616E64206578697420525820636F6EA5
:10050000666967005B535D2073617665207365746F
:1005100074696E677320746F205258005B525D20BF
:100520007265766572742052582073657474696EB2
:10053000677320746F2064656661756C7473005511
:100540007365206E756D62657273205B312D445D3D
:1005500020746F206564697420706F727473205BFF
:10056000452D515D20666F722073657474696E67E6
:100570007300202D20726563656976657220636F54
:100580006E666967757261746F722C207278207361
:100590007720000A0A6F70656E4C52536E67200018
:1005A0005365742073657269616C20626175647251
:1005B0006174653A200056616C69642063686F69F4
:1005C0006365733A2031202D20342B34202F2032C4
:1005D000202D2038202F2033202D20382B34202F81
:1005E0002034202D203132202F2035202D20313273
:1005F0002B34202F2036202D2031360053657420D7
:100600004368616E6E656C20636F6E6669673A2041
:1006100000536574204461746172617465202830F0
:100620002D32293A200053657420486F702063688A
:10063000616E6E656C7320286D61782032342C20D9
:1006400073657061726174656420627920636F6D97
:100650006D6173292076616C69642076616C7565C3
:100660007320312D3235353A20005365742063688C
:10067000616E6E656C2073706163696E67202878A7
:1006800031306B487A293A20005365742052462055
:10069000706F7765722028302D37293A2000536516
:1006A00074205246206D6167696320286865782947
:1006B00020652E672E203078444541444630304432
:1006C0003A2000536574206261736520667265711B
:1006D00075656E63792028696E20487A293A200072
:1006E0005B5A5D20656E746572207265636569761C
:1006F000657220636F6E66696775726174696F6E8B
:10070000207574696C79005B465D20646973706C58
:1007100061792061637475616C20667265717565BD
:100720006E636965732075736564005B525D206359
:10073000616C63756C6174652072616E646F6D20AD
:100740006B657920616E6420686F70206C697374CA
:10075000005B495D207265696E697469616C697AD4
:10076000652073657474696E677320746F20736B92
:10077000657463682064656661756C7473005B58AA
:100780005D20726576657274206368616E6765735B
:1007900020616E642065786974206D656E75005BFC
:1007A000535D20736176652073657474696E677339
:1007B00020746F20454550524F4D20616E64206576
:1007C000786974206D656E7500557365206E756D62
:1007D00062657273205B302D395D20746F20656413
:1007E000697420706172616D657465727300202D8B
:1007F0002053797374656D20636F6E6669677572D7
:100800006174696F6E000A0A6F70656E4C52536EA8
:100810006720005129204F757470757420626566D9
:100820006F7265206C696E6B20283D465329203A13
:100830002000502920536C617665206D6F6465201F
:10084000286578706572696D656E74616C293A20EF
:10085000004F292054696D65642042494E4420614F
:1008600074207374617274757020203A20004E29D0
:100870002050504D206F7574707574206C696D69CF
:1008800074656420202020203A20004449534142CE
:100890004C4544004D292050504D2052535349207F
:1008A000746F206368616E6E656C202020203A2092
:1008B000004C292050504D206D696E696D756D207A
:1008C00073796E63202875732920203A20004449EB
:1008D0005341424C4544004B29204661696C736189
:1008E000666520626561636F6E20696E74762E2086
:1008F00028312D32353573293A20004A29204661A6
:10090000696C7361666520626561636F6E20646502
:100910006C61792028302D323535203D3E20313034
:1009200073202D203135306D696E293A2000492918
:10093000204661696C7361666520626561636F6EF4
:10094000206672712E203A200048292050574D20F1
:1009500073746F702064656C6179202020202020E2
:10096000203A200047292050504D2073746F70208A
:1009700064656C6179202020202020203A200046E8
:1009800029204661696C736166652064656C6179D4
:10099000202020202020203A200050574D2063683E
:1009A000616E6E656C200066756E6374696F6E3A79
:1009B00020002920706F727420004454462055484E
:1009C000462033322D6269742031306368004F70E5
:1009D000656E4C52536E675258206D696E692034B3
:1009E0002F36636800466C7974726F6E2F4F726198
:1009F0006E67655258205548462038636800525843
:100A000020747970653A200044697361626C656492
:100A100000487A00203D3D200043616C63756C61A5
:100A2000746564207061636B657420696E746572AF
:100A300076616C3A20004229204D6963726F20284C
:100A400068616C66292050504D202020203A0041DA
:100A50002920496E7665727465642050504D206976
:100A60006E20202020203A003029204D757465200A
:100A700062757A7A657220286D6F73746C79293A81
:100A80000039292053657269616C20626175647256
:100A90006174653A00736D617274506F72740046D0
:100AA00072536B79005472616E73706172656E740B
:100AB0000044697361626C65640038292054656C78
:100AC000656D657472793A2020202020202000373F
:100AD00029204368616E6E656C20636F6E6669677E
:100AE0003A202000362920446174617261746520C7
:100AF00028302D32293A20202000352920486F70D7
:100B0000206368616E6E656C733A2020202020009F
:100B10003429204368616E6E656C2073706163696F
:100B20006E673A202000332920524620706F776587
:100B3000722028302D37293A2020200032292052D7
:100B400046206D616769633A202020202020202004
:100B500020003129204261736520667265717565D8
:100B60006E63793A20202000000000002400270056
:100B70002A0000000000250028002B0000000000D3
:100B800023002600290004040404040404040202CF
:100B900002020202030303030303010204081020FC
:100BA0004080010204081020010204081020000007
:100BB000000700020100000304060000000000001E
:100BC0000000370C4D2C11241FBECFEFD8E0DEBF44
:100BD000CDBF14E0A0E0B1E0E6EAFFE502C0059079
:100BE0000D92A231B107D9F716E0A2E1B4E001C03D
:100BF0001D92A239B107E1F71BE0C6ECDBE004C0AF
:100C00002297FE010E948B2FC23CD107C9F70E9498
:100C1000A32C0C94D12F0C940000A0E0B0E0E3E1F1
:100C2000F6E00C94A22FEC01A880B980CA80DB808A
:100C3000A114B104C104D10441F484E2A82E89EDC9
:100C4000B82E8BE5C82E87E0D82EC601B5012DE160
:100C500033EF41E050E00E945A2F27EA31E440E0B0
:100C600050E00E94062F7B018C01C601B5012DE1E9
:100C700033EF41E050E00E945A2FCA01B9012CEE37
:100C800034EF4FEF5FEF0E94062F6E0D7F1D801F28
:100C9000911F97FF04C06150704080409048688366
:100CA00079838A839B839B01AC015F77B901CA0179
:100CB000CDB7DEB7EAE00C94BE2F0E940D06089572
:100CC0008DE293E00E940D06089560932D037093CA
:100CD0002E0380932F03909330030895A0E0B0E09B
:100CE000E4E7F6E00C949B2FEC012B016A016115FF
:100CF000710519F0FB0191838083C114D10449F07F
:100D0000C6010297839728F020E030E040E050E0F1
:100D1000DCC0A9908A2D90E00E948F2F892BC9F703
:100D2000FDE2AF1621F4A9903324339405C08BE281
:100D3000A81609F4A9903324C114D10421F0E0E1EC
:100D4000CE16D10411F5F0E3AF1669F48881883727
:100D500011F0883541F4A980229682E0382A20E1FA
:100D6000C22ED12C12C0C114D10479F4E0E3AE1626
:100D700059F199E9E92E99E9F92E99E9092F99E1B3
:100D8000192F8AE0C82ED12C3AC0FAE0CF16D10430
:100D900091F080E1C816D10429F0E8E0CE16D10424
:100DA000F9F415C0BFEFEB2EBFEFFB2EBFEF0B2FFB
:100DB000BFE01B2F24C0A9E9EA2EA9E9FA2EA9E970
:100DC0000A2FA9E11A2F1BC0F8E0CF2ED12CEFEF8C
:100DD000EE2EEFEFFE2EEFEF0E2FEFE11E2F0FC0E6
:100DE0009601442737FD4095542F6FEF7FEF8FEF2B
:100DF0009FEF0E94382FC901DA017C018D0120E0AC
:100E000030E040E050E060E03601882477FC8094D8
:100E1000982C70EDB72EBA0CF9E0FB1570F48A2D02
:100E200081548A3118F499ECB92E06C08A2D815666
:100E30008A3148F589EAB82EBA0C8B2D90E08C15D2
:100E40009D050CF56F3FE9F0E216F3060407150760
:100E5000B8F0CA01B901A40193010E94062F9B01B9
:100E6000AC018B2D90E0A0E0B0E0280F391F4A1FA5
:100E70005B1F281739074A075B0710F061E001C0C4
:100E80006FEFA990C6CF4114510451F0662311F0C1
:100E9000219703C031FE04C02297F201D183C083A1
:100EA00030FE07C050954095309521953F4F4F4FEC
:100EB0005F4F67FF0AC082E290E0909391068093B3
:100EC00090062FEF3FEF4FEF5FEFB901CA01CDB7AB
:100ED000DEB7E1E10C94B72FFC0188279927E8944D
:100EE00021912032E9F3293010F02E30C8F32B3253
:100EF00041F02D3239F4689404C00E94CA07820F71
:100F0000911D219120532A30C0F31EF490958195B4
:100F10009F4F089542E154E00E9498070895FB0115
:100F2000DC0102C001900D9241505040D8F7089565
:100F3000009731F4DA018D919C91009709F40EC06D
:100F4000DC01FB013D912191222319F03217C9F3F5
:100F5000FACF332331F4DA011D921C9288279927A6
:100F600008951197AF93BF93FB013D9121913217E3
:100F700071F4332321F488279927119702C01E9218
:100F80001196FA01A193B0839F918F910895222326
:100F900069F7EACF7AE0979F902D879F802D910D7A
:100FA0001124089580911404813019F482E0809313
:100FB000140480911404833019F484E080931404A1
:100FC000089589E08093150480E092ECA1E0B0E000
:100FD0008093160490931704A0931804B0931904F7
:100FE00087E08093220480EC92E9ADEEB9E1809332
:100FF0001A0490931B04A0931C04B0931D0485E075
:10100000809323048DEE9EEFADEABEED80931E0427
:1010100090931F04A0932004B0932104A4E2B4E0B1
:1010200080E090E0863010F0E0E004C0FC01E45085
:10103000FC4FE081ED9301968831910599F782E0AC
:1010400080933C048AE080933D040895682F70E00B
:10105000CB018C599F4F8E3B910548F4665F7F4FC3
:1010600080E090E02AE030E040E050E014C0823DB3
:10107000910548F46055704080E090E024E630E04F
:1010800040E050E008C06956704080E090E028E5FC
:1010900032E040E050E00E94062F24E630E040E0DD
:1010A00050E00E94062F08958F929F92AF92BF92B8
:1010B000CF92DF92EF92FF920F931F93FC0100A556
:1010C00010E087A190E023E130E0829FF001839F50
:1010D000F00D929FF00D1124EF5CFC4F8080918009
:1010E000A280B380F801E770F070EC50FC4F608193
:1010F00070E0615F7F4F882777FD8095982F20E40F
:101100003FE14DE750E00E94062FA50194010E94A7
:10111000382F69017A0180ED97E0A0E0B0E0C80EB9
:10112000D91EEA1EFB1E08711070012B81F060E0D1
:101130007EEE8AEB9BE0A50194010E94382F285196
:101140003C4F4F4F5F4FC20ED31EE41EF51E87EE7D
:1011500093E0A0E0B0E0C80ED91EEA1EFB1EC70156
:10116000B60128EE33E040E050E00E94382FCA017B
:10117000B90128EE33E040E050E00E94062F1F91B5
:101180000F91FF90EF90DF90CF90BF90AF909F9026
:101190008F900895FF920F931F93082FFB01DA01A0
:1011A000F82EF69410E0808191818C938281938156
:1011B00011968C9311978481958112968C93129736
:1011C0008681978113968C93139720813181428178
:1011D000538164817581868197819295990F990FCA
:1011E000907C832F8370982B852F8370880F880FB6
:1011F000982B872F83708295807F982B14969C93D1
:101200001497159638961F5FF11668F600FF5CC0BC
:10121000808191818F3F910509F010F440E00CC06E
:1012200022E08030920710F441E006C080509340E5
:1012300010F043E001C042E0828193818F3F91052D
:1012400009F010F450E00CC022E08030920710F456
:1012500051E006C08050934010F053E001C052E0CE
:10126000848195818F3F910509F010F480E00CC0D6
:1012700022E08030920710F481E006C08050934055
:1012800010F083E001C082E0268137812F3F3105D5
:1012900009F010F490E00CC092E02030390710F40F
:1012A00091E006C02050334010F093E001C092E07E
:1012B0005295507F4295440F440F407C452B880F38
:1012C000880F842B892B8C931F910F91FF90089589
:1012D00023E08032920718F420E030E026C023E0BB
:1012E000883E920748F49C012F513340E4E0369544
:1012F0002795EA95E1F719C027E0803D920720F491
:101300009C012C5D334011C028E08839920718F009
:101310002FEF33E00AC09C01285C374074E036951B
:1013200027957A95E1F72D503C4FC9010895882300
:1013300039F02D9800002B9A00002D9A0000089596
:101340002D9800002B9800002D9A000008950F930F
:101350001F93082F5C9A2D985C9810E0802F80785E
:101360000E949709000F1F5F1830C1F72D981F9139
:101370000F9108958F770E94A70908950F931F93E7
:10138000082F10E0802F80780E949709000F1F5FC0
:101390001830C1F72D981F910F9108952D9820E0D6
:1013A00030E0220F2D9A000083B12D98000090E0CC
:1013B00074E0969587957A95E1F78170280F3F5FE5
:1013C000383079F7822F08950E94BA090E94CE0919
:1013D0005C9A08951F93162F80680E94A709812F99
:1013E0000E94BE095C9A1F9108951F9310911E04DC
:1013F0001827E5E1F4E0E80FF11D89E767850E9411
:10140000EA098DE3612F0E94EA0982E4612F0E94BC
:10141000EA091F91089586E20E94E40908950F9356
:101420001F938C018CE1F80164810E94EA098DE12F
:10143000F80165810E94EA098EE1F80166810E9447
:10144000EA0980E2F80167810E94EA0981E2F80175
:1014500060850E94EA0982E2F80161850E94EA093A
:1014600083E2F80162850E94EA0984E2F80163855B
:101470000E94EA0985E2F80164850E94EA098AE28D
:10148000F80165850E94EA098EE6F80166850E94EA
:10149000EA098FE6F80167850E94EA0980E7F8010A
:1014A00060890E94EA0981E7F80161890E94EA09DE
:1014B00082E7F80162890E94EA091F910F9108955D
:1014C000EF92FF920F931F93CF93DF937B018C01D9
:1014D000603028E372072CE982072CE1920728F597
:1014E00020E836E948E950E00E94382FE901689782
:1014F000B90180E090E020E839E647E65FEF0E941E
:10150000062F6E0D7F1D801F911FB2E0660F771FA3
:10151000881F991FBA95D1F721E732E040E050E0EB
:101520000E94382F890180E421C020E03DE241E3A0
:1015300051E00E94382FE9016897B90180E090E0FE
:1015400020E033ED4EEC5EEF0E94062F6E0D7F1D06
:10155000801F911F660F771F881F991F21E732E0B8
:1015600040E050E00E94382F890180E69E012F71F3
:10157000622F680F85E70E94EA0986E7612F0E94C3
:10158000EA0987E7602F0E94EA09DF91CF911F9156
:101590000F91FF90EF9008959F92AF92BF92CF92DC
:1015A000DF920F93DF93CF9300D000D0CDB7DEB79B
:1015B000982E83E00E94E40980935A0484E00E94FC
:1015C000E40980935B0486E060E00E94EA0987E01A
:1015D00061E00E94EA0989E06FE70E94EA098AE077
:1015E00065E00E94EA098BE062E10E94EA098CE072
:1015F00065E10E94EA098DE06DEF0E94EA098EE044
:1016000060E00E94EA09992019F080E993E008C09F
:1016100080913C0423E1829FC00111248F5C9C4F88
:101620000E940F0A80E36CE80E94EA0982E36FE0FF
:101630000E94EA0983E362E40E94EA0984E36AE023
:101640000E94EA0985E36AE20E94EA0986E36DE204
:101650000E94EA0987E364ED0E94EA0988E360E0FA
:101660000E94EA0989E360E00E94EA09992049F0B2
:101670002EE1A22E2EEBB22E21ECC22E2EEDD22E7A
:1016800008C0A0901E04B0901F04C0902004D09009
:1016900021040AE38D2D9927AA27BB2789839A83E2
:1016A000AB83BC83802F69810E94EA09802F8B5F06
:1016B00069810E94EA09DC2CCB2CBA2CAA240F5F8A
:1016C0000E3341F783E46FEF0E94EA0984E46FEF81
:1016D0000E94EA0985E46FEF0E94EA0986E46FEF51
:1016E0000E94EA09992019F08DE666E003C08DE6B4
:1016F000609122040E94EA0989E760E00E94EA09F9
:101700008AE7609123040E94EA0983E760E00E946F
:10171000EA0984E760E00E94EA09992029F060EC78
:1017200072E98DEE99E108C060911A0470911B0472
:1017300080911C0490911D040E94600A0F900F90EC
:101740000F900F90CF91DF910F91DF90CF90BF90CE
:10175000AF909F90089587E061E00E94EA098EE7CC
:1017600064E20E94EA0988E063E00E94EA0988E0F6
:1017700060E00E94EA0987E065E00E94EA0985E0EE
:1017800062E00E94EA0983E00E94E40980935A041F
:1017900084E00E94E40980935B0408951F920F92F5
:1017A0000FB60F921124EF92FF921F932F933F9346
:1017B0004F935F936F937F938F939F93AF93BF9359
:1017C000CF93DF93EF93FF93C0918600D091870072
:1017D00080918C0590918D059E01281B390B80917D
:1017E0003D0487FD02C03695279589E0253C3807E2
:1017F00028F01092C30310928B051BC0E2E02D3B32
:101800003E0788F18091C303803168F51091C303CE
:10181000E12EFF24C9010E946809EE0CFF1C23EA97
:1018200033E0E20EF31EF701918380831F5F109374
:10183000C303D0938D05C0938C05FF91EF91DF9189
:10184000CF91BF91AF919F918F917F916F915F9158
:101850004F913F912F911F91FF90EF900F900FBEEE
:101860000F901F90189580E18093C303E2CF1092F0
:101870006204109267041092660410926904109238
:1018800068040895FF920F931F93CF93DF93182F4F
:10189000092FF62E8EE30E94EA09212F302FC9016D
:1018A000EC0110E005C08FE769910E94EA091F5F13
:1018B0001F15C8F385E064E00E94EA0983E00E94F6
:1018C000E40980935A0484E00E94E40980935B0455
:1018D0000E94F22860935C0470935D0480935E0420
:1018E00090935F0487E069E00E94EA0981E08093B9
:1018F0001404DF91CF911F910F91FF9008950E94E2
:10190000420C809114048130D9F40E94F228209175
:101910005C0430915D0440915E0450915F04621B51
:10192000730B840B950B605A76488140904040F4CD
:10193000E8CF8EE696E060E071E00E94C92E08953F
:10194000809114048130A9F308958EE696E06EE745
:101950000E940D2C0895BF92CF92DF92EF92FF92DA
:101960000F931F93CF93DF936C018EE696E06EE7A3
:101970000E940D2C760100E010E0C0E0D0E0A0E273
:10198000BA2E0AC00830110521F49E012095F601F7
:1019900020870894E11CF11CF7016081862F8D5788
:1019A000823040F48EE696E06DE70E940D2CF70140
:1019B00060816B258EE696E00E940D2C01151105C5
:1019C00051F0F70180819E01280F311DC32FDD27C3
:1019D000C20FD31FD0700F5F1F4F0930110591F652
:1019E000DF91CF911F910F91FF90EF90DF90CF90FB
:1019F000BF900895DF93CF93CDB7DEB729970FB689
:101A0000F894DEBF0FBECDBF382FE62F8091700552
:101A100090E0019664E270E00E94252F982F809359
:101A2000700588E9898380E18A83913071F0913073
:101A300028F0923099F09330E1F416C085E08B8362
:101A400081EF8C832F5F2D8317C09B8381EF8C8365
:101A500084E6489FC00111249D830EC084E08B83DF
:101A600081EF8C833D8308C09B8381EF8C83ED8362
:101A700003C00E94A50C04C0CE0101960E94AB0CCD
:101A800029960FB6F894DEBF0FBECDBFCF91DF9180
:101A900008950F931F93CF93DF93182F092F8EE68E
:101AA00096E06EE70E940D2C212F302FC901EC012A
:101AB00010E000E288818D57823040F48EE696E097
:101AC0006DE70E940D2C8881802788838EE696E042
:101AD00069910E940D2C1F5F193061F78EE696E028
:101AE0006EE70E940D2CDF91CF911F910F91089509
:101AF000DF93CF93CDB7DEB729970FB6F894DEBF4B
:101B00000FBECDBF382F80917005882379F48EEFFA
:101B100089833A836B83842F90E0959587958C8396
:101B20002D83198618861F821E822FC040916B0557
:101B3000842F90E09C012F70307054E0959587952C
:101B40005A95E1F78217930721F18DEF89831A8265
:101B50001B82DE01149620E008C0E55AFA4F80810E
:101B60008D93405F2F5F263069F0842F90E0FC0159
:101B700034E0F595E7953A95E1F78F709070E817A6
:101B8000F90759F740936B052A83CE0101960E940D
:101B9000490D8091700590E0019666E070E00E942A
:101BA000252F8093700529960FB6F894DEBF0FBEDF
:101BB000CDBFCF91DF9108959F92AF92BF92CF9208
:101BC000DF92EF92FF920F931F93B82EA62ED42E82
:101BD000C22E902E0E94F2287B018C0180915A0522
:101BE00020916C0530916D0540916E0550916F0507
:101BF0008823B1F0D801C701821B930BA40BB50B4E
:101C0000815E9E42A040B04020F12C2DDC1408F4EF
:101C10002D2D8B2D6A2D422F292D0E94FA0C11C0DB
:101C2000D801C701821B930BA40BB50B81539547B9
:101C3000A040B04070F08B2D6A2D4D2D2C2D0E94B0
:101C4000780DE0926C05F0926D0500936E0510938F
:101C50006F051F910F91FF90EF90DF90CF90BF9095
:101C6000AF909F900895FF920F931F938C01F62ED3
:101C70008EE696E00E940D2CF80184818F258483E6
:101C80001F910F91FF900895FF920F931F938C0166
:101C9000F72E0E94330EC8016F2D0E94330E1F9144
:101CA0000F91FF900895BF92CF92DF92EF92FF9233
:101CB0000F931F937C01B62E6A010EE616E0C80151
:101CC00065EB0E940D2CC80162E60E940D2CF70105
:101CD0001482C7016B2D0E94330EC701B6010E940A
:101CE000440E1F910F91FF90EF90DF90CF90BF9027
:101CF00008958CE060E00E94AC298BE061E00E94D6
:101D0000AC298DE061E00E94AC2982E060E00E9495
:101D1000AC2984E061E00E94AC290895EF92FF9223
:101D20000F931F93009771F19C0140E050E068E42D
:101D300078EE81E090E00E945A2FC901DA017C011F
:101D40008D0183E161E00E94EB298FEFE816F10439
:101D50000105110539F030F0EFEFEE2EF12C012DD9
:101D6000112D0AC0E114F1040105110529F471E0F7
:101D7000E72EF12C012D112DE092B3008091B000DF
:101D8000806107C083E160E00E94EB298091B00090
:101D90008F7E8093B0001F910F91FF90EF90089578
:101DA00083E161E00E94AC2983E160E00E94EB29BD
:101DB00082E08093B00085E08093B10083E061E031
:101DC0000E94AC2983E060E00E94EB2908951F93F4
:101DD000182F0E94F22860936C0570936D05809314
:101DE0006E0590936F0510935A05112329F440E86E
:101DF00055E260E070E004C040E051EE60E070E069
:101E00008EE696E00E941C2B1F910895AF92BF9220
:101E1000CF92DF92EF92FF920F931F93DF93CF93B6
:101E2000CDB7DEB76C970FB6F894DEBF0FBECDBF4F
:101E30000E94F2287B018C0181E00E94CC0AB4E769
:101E4000AB2E6E010894C11CD11CA3E0BA2EA9824E
:101E5000C60161E00E947F0CB09214040E94AB0B9B
:101E60006AEF70E080E090E00E94182980911404ED
:101E7000833009F08AC08EE696E00E94A32B892B5E
:101E800009F083C00E94F2286E197F09800B910B24
:101E90006058734C894C914008F077C0D8CF8FE7D9
:101EA0000E94BA090E94CE09843509F05CC089837A
:101EB0000E94CE09182F00E0109359050093580591
:101EC0000E94CE09080F111D109359050093580563
:101ED0000E94CE09809357050E94CE098093560533
:101EE000813108F040C0FF2407C00E94CE090A5C7F
:101EF0001A4FF8018083F3940F2D10E0809156055E
:101F000090E0880F991F0817190778F380E78983F5
:101F1000CE01019661E00E947F0C83E0809314045F
:101F20000E94AB0B62E370E080E090E00E94182911
:101F3000809114048330A9F08FE70E94BA090E94AF
:101F4000CE09803581F489830FE314E00E94CE0925
:101F5000F80181938F01F4E00A351F07B9F781E09A
:101F600003C082E001C083E06C960FB6F894DEBF38
:101F70000FBECDBFCF91DF911F910F91FF90EF90DA
:101F8000DF90CF90BF90AF9008958091140483307C
:101F900009F085CFE6CF83E00E94E40980935A04DC
:101FA00084E00E94E40980935B0487E061E00E9482
:101FB000EA096AE070E080E090E00E9418290E943F
:101FC000AB0B000008950F931F93082F19C05E9A62
:101FD000409A64E670E080E090E00E9418295E98E4
:101FE000409864E670E080E090E00E9418291F5F4E
:101FF000101768F36CE271E080E090E00E9418290D
:1020000010E0F6CF809172058130D1F0813020F060
:10201000823009F043C037C082E10E943F2A892BF9
:1020200009F03CC081E0809372050E94E42860932F
:1020300073057093740580937505909376050895E4
:1020400082E10E943F2A892BD9F40E94E428209142
:102050007305309174054091750550917605621BAA
:10206000730B840B950B695E734080409040B0F019
:1020700082E08093720580ED97E00E948E0E0895B5
:1020800010927205089582E10E943F2A892B31F057
:1020900080E090E00E948E0E109272050895AF923B
:1020A000BF92CF92DF92EF92FF920F931F93CF9345
:1020B000DF938CE00E94E409882379F48EE696E0B1
:1020C0006CE071E00E94C92E5E9A409A80E00E9406
:1020D000CC0A0E94AB0B5E9840988EE696E00E9478
:1020E000A32B892B09F48AC28091D605C82FD0E092
:1020F0009E012F5F3F4F2F7130708091D50590E08A
:102100002817390709F47AC28EE696E00E94D42B8C
:10211000C455DA4F88838091D60590E001968F717F
:1021200090708093D605D9CF0E94F22860937B05EA
:1021300070937C0580937D0590937E0561157105F4
:102140008105910561F481E090E0A0E0B0E080932A
:102150007B0590937C05A0937D05B0937E058091CF
:102160008705909188058160909388058093870505
:1021700083E0809314048FE70E94BA09C3EAD5E094
:102180000E94CE09899305E0CC3AD007C9F7409167
:102190008E058091A305282F30E0842F90E08227C0
:1021A000932786FF5AC080E4482740938E05C901D3
:1021B00088739070C897D9F510E02EC01F5F80918A
:1021C0003D04E12FF0E084FF20C0ED55FA4F60811F
:1021D00040916B05842F90E0FC01EF70F0709F013F
:1021E0002F5F3F4F74E0959587957A95E1F7281713
:1021F000390791F0E55AFA4F6083842F8F5F8F7013
:10220000407F842B80936B0507C0ED55FA4F8EE617
:1022100096E060810E940D2C212F30E08091A30573
:1022200090E0877090708217930744F616C02F7362
:102230003070232B91F48091A40580937F058091C9
:10224000A505809381058091A605809382058091E4
:10225000A9058093890510928A058091D705813060
:1022600019F482E08093D7058091D705833011F46B
:102270001092D7050E94F2285B016C0180918305C2
:1022800090918405A0918505B09186050097A105E0
:10229000B105C9F0A6019501281B390B4A0B5B0B50
:1022A000DA01C901885B9B40A040B04060F00E9409
:1022B0000B0A80938005109283051092840510927A
:1022C00085051092860585E194E00E9454082091CE
:1022D0007705309178054091790550917A0586010E
:1022E0007501E21AF30A040B150BE616F706080748
:1022F000190708F422C1A0927705B0927805C09220
:102300007905D0927A0580918B05883008F00CC150
:1023100080918B058F5F80938B05E0907B05F0901B
:102320007C0500917D0510917E05E114F104010505
:10233000110511F185E194E00E945408AE18BF0820
:10234000C00AD10A6A157B058C059D0588F4809129
:102350003D0485FD04C080ED97E00E948E0E109232
:102360007B0510927C0510927D0510927E0504C0BD
:1023700080E090E00E948E0E20918E05207C2093BC
:102380008E055091D6059091D5055917D1F18091C0
:10239000D7058230B1F5205820938E05E0913D0499
:1023A000F0E0E770F070EC50FC4FE081E93010F0A5
:1023B00048E002C04E2F415030E013C03F5FA32FD2
:1023C000B0E0892F90E0FC01E455FA4F2081FD0137
:1023D000E257FA4F2083A453BA4F2C930196982FBB
:1023E0009F71341710F4951749F79093D505832FF3
:1023F000895C90918E05892B80938E053093CC0556
:102400001AC09091D7059430D1F49091CC05EDECA1
:10241000F5E0AFE8B5E0292F30E02E0F3F1F02C0F6
:1024200081918D93E217F307D9F7995C80918E051E
:10243000982B90938E0583E08093D70525C08091DB
:102440007205823031F4216020938E055E9A409AA5
:1024500010C020938E055E984098992319F481E06E
:102460008093D7058091D705833019F484E0809359
:10247000D705F89480913D04877063EA73E04FE8D4
:1024800055E00E94CA0878945D9A419A809171053E
:102490000E94F509E0913D04F0E0E770F070EC5027
:1024A000FC4F8EE895E060810E947F0CE091710501
:1024B000EF5FE0937105E83131F0F0E0EB5EFB4F48
:1024C0008785882311F41092710580913D048871ED
:1024D000A1F18091870590918805880F991F9093AD
:1024E00088058093870583E0809314040E94AB0BDA
:1024F0000E94F2286093830570938405809385057C
:10250000909386056115710581059105B1F481E00F
:1025100090E0A0E0B0E08093830590938405A093C1
:102520008505B093860509C080918B05883011F42C
:102530005E9A409A89E080938B0580913D0484FFE8
:102540004EC020918705309188052E7FC901969550
:10255000879585759575281B390BA9015695479563
:10256000569547954373537323733373420F531F29
:10257000CA0114E0969587951A95E1F7840F951F87
:102580008F709F7021E031E08C01029FC001039F9A
:10259000900D129F900D112480917F054091890527
:1025A0004F3028F0482F46954695405404C08DE0A2
:1025B000489F402D1124209180059F3020F02695C2
:1025C0002695205404C08DE0989F202D11248091E1
:1025D00081056091820500913E040E94DC0D5D98AA
:1025E00041980E940210DF91CF911F910F91FF90AF
:1025F000EF90DF90CF90BF90AF900895809114043A
:10260000843009F037CE90CD1092340585E6EFEC9A
:10261000F4E0DF011D928A95E9F708951F93182FC2
:102620008F3719F0883009F042C0E0913405EE236D
:1026300009F45EC0E150E0933405F0E0E153FB4F54
:1026400010828EE696E06DE00E940D2C10E00DC029
:10265000E12FF0E0E153FB4F6081772767FD709534
:102660008EE696E00E940D2C1F5F809134051817AE
:1026700078F38EE696E060E20E940D2C8EE696E0FE
:102680006DE00E940D2C10E00DC0E12FF0E0E15351
:10269000FB4F6081772767FD70958EE696E00E947C
:1026A0000D2C1F5F80913405181778F31FC08B31F4
:1026B00019F40E94041322C08D3001F18A30F1F028
:1026C000809134058436A0F4612F772767FD7095DB
:1026D0008EE696E00E940D2C80913405E82FF0E004
:1026E000E153FB4F10838F5F8093340580E007C078
:1026F0008EE696E067E00E94FF2CF8CF81E01F9104
:1027000008951F93CF93DF93C4E2D4E010E03BC061
:102710008EE696E06BE171E00E94C62E8EE696E0B2
:10272000612F4AE050E00E94242E8EE696E068E297
:1027300071E00E94C62E699170E080E090E02091E7
:10274000230430E040E050E00E94062F20E137E211
:1027500040E050E00E94062FDC01CB0140911A04BA
:1027600050911B0460911C0470911D04480F591F67
:102770006A1F7B1F8EE696E02AE030E00E94E22D81
:102780001F5F183119F08881882311F6DF91CF91EE
:102790001F910895EF92FF920F931F93882339F4AE
:1027A0008EE696E068E07AE00E94272D64C0682FEC
:1027B00070E06436710518F480E090E022C06E3B52
:1027C000710548F46A55704080E090E02AE030E0FE
:1027D00040E050E014C0623D710548F4645B704015
:1027E00080E090E024E630E040E050E008C06D5C1E
:1027F000704080E090E028E532E040E050E00E9448
:10280000062F24E630E040E050E00E94062F0E94B0
:10281000382F122F032FF42EE52E622F732F842FC3
:10282000952F2AE030E040E050E00E94382F8EE6FD
:1028300096E0BA01A9012AE030E00E94D32D8EE68D
:1028400096E06EE20E94FF2C612F702F8F2D9E2D3F
:102850002AE030E040E050E00E94382FAB01BC019C
:102860008EE696E02AE030E00E94D32D8EE696E0D8
:1028700063E70E943B2D1F910F91FF90EF90089509
:102880001F93CF93DF938EE696E06EEF79E00E9480
:10289000DC2C80913F04813041F48EE696E065EEB9
:1028A00079E00E94272D10E055C0823029F48EE691
:1028B00096E06EEC79E0F5CF8430A9F78EE696E0ED
:1028C0006AEB79E0EECFC12FD0E0C930D1051CF022
:1028D000612F685C02C0612F6F5C8EE696E00E94FB
:1028E000FF2C8EE696E062EB79E00E94DC2CBE01C4
:1028F0006F5F7F4F8EE696E04AE050E00E94942E94
:102900008EE696E067EA79E00E94DC2CC15CDB4F42
:10291000E981E03188F48EE696E06AE979E00E9488
:10292000DC2C698170E06F5F7F4F8EE696E04AE0B5
:1029300050E00E94A72E0DC0F0E0E770F070EE0F9F
:10294000FF1FEC53FC4F608171818EE696E00E9480
:10295000C92E1F5F80915705181708F4B4CF8EE673
:1029600096E06FE779E00E94DC2C809157040E948A
:10297000CA138EE696E064E679E00E94DC2C809132
:1029800058040E94CA138EE696E069E479E00E943A
:10299000DC2C809159040E94CA138EE696E06EE208
:1029A00079E00E94DC2C40914F04509150046091DA
:1029B000510470915204411551056105710539F1B9
:1029C0008EE696E02AE030E00E94E22D8EE696E068
:1029D0006BEF78E00E94DC2C809153040E94260863
:1029E000AB01BC018EE696E02AE030E00E94E22DC9
:1029F0008EE696E067ED78E00E94DC2C8EE696E0AD
:102A0000609154044AE050E00E94362E06C08EE6E3
:102A100096E06EEC78E00E94272D8EE696E061EB62
:102A200078E00E94DC2C60915504709156048EE68B
:102A300096E04AE050E00E94072E8EE696E064E9B8
:102A400078E00E94DC2C60914E04603150F470E01C
:102A50006F5F7F4F8EE696E04AE050E00E94A72E1F
:102A600006C08EE696E06BE878E00E94272D8EE6A1
:102A700096E06EE678E00E94DC2C80914D0480FDAB
:102A800003C06CE271E002C060E371E08EE696E0A4
:102A90000E94C92E8EE696E061E578E00E94DC2C6B
:102AA00080914D0481FD03C064E371E002C06DE3D9
:102AB00071E08EE696E00E94C92E8EE696E062E313
:102AC00078E00E94DC2C80914D0482FD03C064E319
:102AD00071E002C06DE371E08EE696E00E94C92EBF
:102AE0008EE696E063E178E00E94DC2C80914D0454
:102AF00083FD03C064E371E002C06DE371E08EE624
:102B000096E00E94C92EDF91CF911F9108951F93E7
:102B1000CF93DF938EE696E062E57BE00E94DC2CAB
:102B200040911A0450911B0460911C0470911D0483
:102B30008EE696E02AE030E00E94E22D8EE696E0F6
:102B40006CE37BE00E94DC2C40911E0450911F043A
:102B500060912004709121048EE696E020E130E03F
:102B60000E94E22D8EE696E066E27BE00E94DC2C7D
:102B70008EE696E0609122044AE050E00E94362EF4
:102B80008EE696E060E17BE00E94DC2C8EE696E02B
:102B9000609123044AE050E00E94362E8EE696E0D3
:102BA0006AEF7AE00E94DC2CC4E2D4E010E012C0AC
:102BB000112331F08EE696E065E471E00E94C62EA6
:102BC0008EE696E069914AE050E00E94242E1F5F55
:102BD000183119F08881882359F78EE696E00E9413
:102BE000072D8EE696E064EE7AE00E94DC2C8EE6FD
:102BF00096E060913C044AE050E00E94362E8EE65A
:102C000096E06FEC7AE00E94DC2CE0913D04F0E06D
:102C1000E770F070EE0FFF1FEC52FC4F6081718186
:102C20008EE696E00E94C92E8EE696E06AEB7AE088
:102C30000E94DC2C80913D0490E088719070883077
:102C4000910589F0893091051CF4892B39F01BC05E
:102C50008031910569F04897B1F40FC08EE696E097
:102C600061EB7AE00EC08EE696E065EA7AE009C094
:102C70008EE696E06FE97AE004C08EE696E065E9BC
:102C80007AE00E94272D8EE696E061E87AE00E94C5
:102C9000DC2C409116045091170460911804709137
:102CA00019048EE696E02AE030E00E94E22D8EE6DE
:102CB00096E068E67AE00E94DC2C80913D0485FD78
:102CC00003C067E471E002C06AE471E08EE696E05A
:102CD0000E94C92E8EE696E06FE47AE00E94DC2C1A
:102CE00080913D0486FD03C067E471E002C06AE4A0
:102CF00071E08EE696E00E94C92E8EE696E066E3CD
:102D00007AE00E94DC2C80913D0487FD03C067E4DB
:102D100071E002C06AE471E08EE696E00E94C92E7E
:102D20008EE696E069E17AE00E94DC2C85E194E091
:102D30000E945408AB01BC018EE696E02AE030E028
:102D40000E94D32D8EE696E064E17AE00E94DC2CAE
:102D500085E194E00E9454089B01AC0160E472E4B8
:102D60008FE090E00E94382F8EE696E0BA01A9012C
:102D70002AE030E00E94D32D8EE696E061E17AE011
:102D80000E94272DDF91CF911F9108952F923F929E
:102D90004F925F926F927F928F929F92AF92BF926B
:102DA000CF92DF92EF92FF920F931F93DF93CF9317
:102DB00000D000D00F92CDB7DEB78C839D834B013E
:102DC0008DB79EB79A838983ADB69EB79B830E94C9
:102DD000E4281B012C018DB79EB7881999090FB6FD
:102DE000F8949EBF0FBE8DBF6DB67EB60894611C71
:102DF000711CEE24FF24BB2454C08EE696E00E9492
:102E0000A32B892B09F4B1C08EE696E00E94D42B47
:102E1000282F93E0B916E1F09B1530F081E0B81649
:102E2000B9F08B15D0F00EC095E0B91609F463C067
:102E3000B916E0F186E0B81659F097E0B91609F036
:102E400094C05FC0233509F09CC0BB24B3948DC0EF
:102E50002A3309F096C0B39488C0822F80538A30F9
:102E6000A8F4C70173E0880F991F7A95E1F7EE0C7B
:102E7000FF1CE80EF91E80ED9FEFE80EF91E822F71
:102E8000992787FD9095E80EF91E6FC0283409F048
:102E900078C0E814F90409F074C0EE24FF2453E06C
:102EA000B52E00E010E0CC24DD245FC0822F8053DB
:102EB0008A3058F1822F8154863098F12C3209F0F3
:102EC00060C0F301EE0DFF1D00830894E11CF11CAE
:102ED0008D2D992787FD90958827990F881F992711
:102EE000CC0CDD1CC80ED91E1070C026D126E814EB
:102EF000F904C9F536C0243509F043C026E0B22EE6
:102F000032C0822F80538A3040F494E0000F111FAA
:102F10009A95E1F7005310400BC0822F8154863000
:102F200070F484E0000F111F8A95E1F707531040F9
:102F3000822F992787FD9095080F191F16C02A33F5
:102F4000A1F4C016D106E9F48EE696E06EE471E0D5
:102F50000E94C92E8C819D81B301A4010E948F071C
:102F600027C015E0B12E00E010E00E94E4286219AD
:102F7000730984099509605D77408040904008F4AA
:102F80003CCF8EE696E06DE571E00E94C92E6AE0C6
:102F900070E080E090E00E94182904C08EE696E080
:102FA0000E94D42B8EE696E00E94A32B892BB1F7CA
:102FB0008A2D9B819C010FB6F8943EBF0FBE2DBF9A
:102FC00089819A810FB6F8949EBF0FBE8DBF0F9076
:102FD0000F900F900F900F90CF91DF911F910F9155
:102FE000FF90EF90DF90CF90BF90AF909F908F9029
:102FF0007F906F905F904F903F902F900895EF9249
:10300000FF920F931F93CF93DF93182F092F7B010C
:103010008EE696E060E771E00E94C62E8EE696E0AE
:10302000B7014AE050E00E94F62DE114F10419F4D2
:10303000C0E0D0E044C0812F902F9C0189018EE632
:1030400096E064E771E00E94C62EC0E0D0E0D801AF
:10305000EC91F0E0A4E0F595E795AA95E1F7EC5145
:10306000FC4F8EE696E060810E94FF2CD801EC9127
:10307000F0E0EF70F070EC51FC4F8EE696E060816E
:103080000E94FF2C8EE696E06CE20E94FF2C8D2FB2
:10309000992787FD90958827990F881F9927CC0F2E
:1030A000DD1FC80FD91FF80181918F0190E0C8275B
:1030B000D9270894E108F108E114F10441F68EE6FD
:1030C00096E067E771E00E94C62E8EE696E0BE01AC
:1030D00040E150E00E94F62D8EE696E06AE771E04E
:1030E0000E94C92EDF91CF911F910F91FF90EF9019
:1030F0000895EF92FF920F931F938C018EE6E82EB6
:1031000086E0F82EC701612F70E04AE050E00E948F
:10311000F62DC7016EE20E94FF2CB4E016950795CC
:10312000BA95E1F70F701070C701B8014AE050E09E
:103130000E94F62D1F910F91FF90EF9008950F932D
:103140001F93CF93DF932091CE042F3FA9F58EE6F6
:1031500096E063E975E00E94DC2C80E593E00E9434
:1031600079188EE696E062E775E00E94DC2C80918B
:103170005805909159050E9479188EE696E06FE304
:1031800075E00E94272D8EE696E06CE175E00E94C6
:10319000272D8EE696E064E075E00E94272D8EE6EE
:1031A00096E06FED74E00E94272D8EE696E00E9477
:1031B000072D0E94401469C012160CF066C0332718
:1031C00027FD30958091570590E0821793070CF406
:1031D0005CC08EE696E06AEC74E00E94DC2C6091A4
:1031E000CE04772767FD70958EE696E04AE050E0C2
:1031F0000E94A72E8EE696E06FE974E00E94DC2C18
:1032000004E110E03AC0C12FD0E0CC0FDD1FCA5C52
:10321000DA4F288130E08091CE04992787FD909580
:1032200001972817390741F58EE696E06CE771E0C3
:103230000E94C62E8EE696E0602F4AE050E00E9483
:10324000242E8EE696E060E871E00E94C62EE981A9
:10325000F0E0E770F070EE0FFF1FEC53FC4F608161
:1032600071818EE696E00E94C62E8EE696E064E8B6
:1032700071E00E94C62E0F5F1F5F809156051817E0
:1032800010F28EE696E00E94072DDF91CF911F91FC
:103290000F910895CF92DF92EF92FF920F931F93B9
:1032A000DF93CF93CDB7DEB76C970FB6F894DEBF40
:1032B0000FBECDBF282F8091CE048F3F09F052C1A1
:1032C000822F992787FD9095A92FB92FFC013A9756
:1032D000EF36F10508F03FC1EC5CFF4FEE0FFF1F2A
:1032E0000590F491E02D09948FE394E06BE170E098
:1032F0000E94FF1730C18FE394E06BE170E00E9401
:10330000C61622C18EE696E066E871E00E94C92EDC
:1033100085E78983DE011296EFE3F4E08BE101900B
:103320000D928150E1F7CE0101966CE10E947F0C75
:103330000E94AB0B83E08093140468EC70E080E0A3
:1033400090E00E94182980911404843009F003C190
:103350008FE70E94BA090E94CE098983853509F05A
:10336000FAC08EE696E061E874E00E94272D8EE6B2
:1033700096E063E674E00E94272D8EE696E065E411
:1033800074E0B2C08EE696E06EE971E00E94C92E4C
:1033900089E68983CE01019661E00E947F0C0E943C
:1033A000AB0B83E08093140468EC70E080E090E065
:1033B0000E94182980911404843009F0CCC08FE752
:1033C0000E94BA090E94CE0989838E010E5F1F4FA9
:1033D000FDE1EF2EF12CEC0EFD1E0E94CE09D8016E
:1033E0008D938D01AE15BF05C1F7AFE3B4E0FE01CB
:1033F00032968BE101900D928150E1F789818934F9
:1034000009F0A9C08EE696E067E274E00E94272DDD
:103410008EE696E069E074E00E94272D8EE696E045
:103420006BEE73E061C08EE696E068EB71E00E949F
:10343000C92E8EEF8093CE048EC020522750422F8B
:103440004053242F332727FD30958091570590E076
:10345000821793073CF48EE696E067EC71E00E94D9
:10346000C92E79C04093CE046FC084E18093CE040E
:103470008EE696E064EB73E037C085E18093CE047E
:103480008EE696E06DE773E02FC086E18093CE0470
:103490008EE696E066E473E027C087E18093CE0471
:1034A0008EE696E06CEF72E01FC088E18093CE0458
:1034B0008EE696E06BEE72E017C089E18093CE0451
:1034C0008EE696E067ED72E00FC08AE18093CE044D
:1034D0008EE696E062EC72E007C08BE18093CE044A
:1034E0008EE696E06AE972E00E94272D34C08EE6EF
:1034F00096E060E872E00E94272D80914D0491E0F3
:103500001DC08EE696E06AE672E00E94272D80914B
:103510004D0492E013C08EE696E065E572E00E94ED
:10352000272D80914D0494E009C08EE696E06AE371
:1035300072E00E94272D80914D0498E089278093A6
:103540004D048FEF8093CE040E949F1804C08EE636
:1035500096E00E94D42B8EE696E00E94A32B892B46
:10356000B1F777C1822F0E940E13882309F471C12D
:1035700080913405882321F48FEF8093CE0461C1BC
:103580008FEC94E060E070E040E050E00E946E0656
:103590009B01AC019091CE04963109F47CC0973127
:1035A00064F4943109F463C095310CF06AC0892F3A
:1035B00081508D3008F035C113C0993109F4E5C050
:1035C0009A313CF4973109F470C0983109F029C15F
:1035D000D2C09A3109F4E7C09B3109F022C1F5C08D
:1035E000E92FFF27E7FDF0958091570590E08E17B2
:1035F0009F070CF416C1DA01C9010197A109B109AD
:103600004097A105B10540F0FF2410E004E16F01EF
:103610000894C108D10826C0E15CFB4F822F81507D
:103620008083E7C0612F70E0660F771F6A5C7A4F76
:10363000FB01808190E08C159D0599F4802F90E02E
:10364000A0E0B0E082179307A407B50749F4F6019C
:10365000E15CFB4FDB0111968C918183FF24F39495
:103660000F5F1F5F809156051817E0F2C0C02F3F13
:1036700031054105510511F008F0D3C020935704DE
:10368000B8C02F3F31054105510511F008F0C9C000
:1036900020935804AEC02F3F31054105510511F06C
:1036A00008F0BFC020935904A4C08091CF04806269
:1036B000803719F580ED94E060E070E040E050E084
:1036C0000E946E069B01AC01DC01CB010197A109B0
:1036D000B1090897A105B10508F0B6C0CA01B90142
:1036E00024ED30E340E050E00E94062F9B01AC0146
:1036F0002A5E3C4A4A46554E24C0863611F580ED76
:1037000094E060E070E040E050E00E946E069B01B3
:10371000AC01DC01CB010197A109B1090797A10513
:10372000B10508F091C0CA01B90128EA31E640E0CC
:1037300050E00E94062F9B01AC01245E3C434E46A4
:10374000544E211531054105510561F0DA01C901D9
:103750008054914EAD49B8418158904FAA4FB24024
:1037600008F05FC020934F043093500440935104FD
:10377000509352043EC02F3F31054105510511F0D1
:1037800008F04FC02093530434C0DA01C9010197F7
:10379000A109B1098F3F9105A105B10508F041C00C
:1037A0002093540426C0DA01C901845C9940A040EA
:1037B000B0408D549D41A040B04038F43093560441
:1037C00020935504FF24F39401C0FF2421153105F3
:1037D0004105510511F48FEF07C021313105410535
:1037E000510528F4822F815080934E0402C0FF209F
:1037F000C1F0809135058823D1F480911E04909109
:103800001F04A0912004B09121040196A11DB11DB7
:1038100080931E0490931F04A0932004B09321046E
:1038200006C08EE696E069ED71E00E94C92E0E9406
:1038300004138FEF8093CE048EE696E06AE00E9438
:103840003B2D0E949F1805C021E030E040E050E091
:103850007DCF6C960FB6F894DEBF0FBECDBFCF9173
:10386000DF911F910F91FF90EF90DF90CF9008951F
:103870008EE696E06EEE71E00E94272D8EE696E0D1
:1038800066ED71E00E94272D8EE696E00E94A32B44
:10389000892B31F08EE696E00E94D42B0E944A19C3
:1038A0000E94060F823019F0833069F405C08EE65D
:1038B00096E068EB71E004C08EE696E061EA71E0A4
:1038C0000E94272D08958FEF8093CE041092350526
:1038D0000E949F180CC08EE696E00E94A32B892BB5
:1038E00031F08EE696E00E94D42B0E944A19809116
:1038F000CE048E3F81F708958091CE04843009F480
:103900006FC0853084F4813009F45BC0823024F4C8
:103910008F3F09F085C014C0823009F457C083304E
:1039200009F07EC058C0863009F464C086300CF4BB
:103930005CC0873009F463C0893009F071C06AC087
:103940008EE696E066E078E00E94272D80E593E021
:103950000E9479188EE696E06EEE77E00E94272DA1
:103960008EE696E069EC77E00E94272D8EE696E0E1
:103970006FE977E00E94272D8EE696E06EE777E00C
:103980000E94272D8EE696E061E577E00E94272DC4
:103990008EE696E06BE277E00E94272D8EE696E0B9
:1039A00067E077E00E94272D8EE696E060EE76E0F5
:1039B0000E94272D8EE696E00E94072D0E94871513
:1039C0002FC08EE696E063EC76E028C08EE696E0A7
:1039D0006EE976E023C08EE696E069E876E01EC0E8
:1039E0008EE696E06AE676E019C08EE696E066E23C
:1039F00076E014C08EE696E061E176E00FC08EE6D8
:103A000096E06CEF75E00E94272D8EE696E066EB5F
:103A100075E004C08EE696E060EA75E00E94272D0E
:103A20006AE070E080E090E00E94182904C08EE611
:103A300096E00E94D42B8EE696E00E94A32B892B61
:103A4000B1F708952F923F924F925F926F927F92BB
:103A50008F929F92AF92BF92CF92DF92EF92FF929E
:103A60000F93DF93CF93CDB7DEB7A8970FB6F89437
:103A7000DEBF0FBECDBF7E010894E11CF11C80E1CA
:103A8000D7011D928A95E9F75E9840985D98419814
:103A90008EE696E067EF71E00E94C92E0E94CB0F80
:103AA00020E431EE4DE958E129A33AA34BA35CA3EE
:103AB00080EC91EDA8E9BBE18D8F9E8FAF8FB8A30D
:103AC00024EF31E040E050E0298F3A8F4B8F5C8F3C
:103AD00080E593ECA0E0B0E08D8B9E8BAF8BB88F30
:103AE000B0E44B2EB1EE5B2EBDE96B2EB8E17B2E20
:103AF00088249924540100E022243324198A1A8A44
:103B00001B8A1C8A02C18EE696E00E94D42B8C325E
:103B1000D9F1843421F0833209F0C5C024C08EE687
:103B200096E064E40E94FF2C8EE696E040E451EEBD
:103B30006DE978E12AE030E00E94542E8EE696E0AE
:103B40006CE20E94FF2C8EE696E040EC51ED68E9B5
:103B50007BE12AE030E00E94542E8EE696E06CE293
:103B60000E943B2DD2C019821A821B821C821D82A8
:103B70001E821F82188619861A861B861C861D8641
:103B80001E861F86188A42C00F5F043009F0BDC030
:103B900069817A818B819C8128EE33E040E050E09E
:103BA0000E94062F69A37AA38BA39CA36D817E81BB
:103BB0008F8198850E94062F6D8F7E8F8F8F98A39F
:103BC00029853A854B855C85298F3A8F4B8F5C8F91
:103BD0006D857E858F85988928EE33E040E050E042
:103BE0000E94062F6D8B7E8B8F8B988F60527E4448
:103BF0008040904068F48CE162E30E94EA0949A0A9
:103C00005AA06BA07CA088249924540100E07DC0B8
:103C10008D899E89AF89B88D80539547A040B0406B
:103C200018F48CE162E2E9CF2D893E894F89588DE5
:103C300020543C494040504018F48CE166E2DDCF0E
:103C40002D893E894F89588D2055334C4040504036
:103C500018F48CE162E1D1CF2D893E894F89588DCE
:103C600020563A4E4040504018F48CE165E1C5CFF3
:103C70002D893E894F89588D205731414140504010
:103C800018F48CE161E0B9CF2D893E894F89588DB8
:103C9000205A36484140504018F48CE163E0ADCFE3
:103CA0008CE165E0AACF80538A3078F5C02EDD2400
:103CB000CC0CDD1CCC0CDD1CA1E0B0E0AC0FBD1FBA
:103CC000CA0EDB1E282F332727FD3095432F532F95
:103CD0002DA33EA34FA358A7D6016D917D918D9141
:103CE0009C912AE030E040E050E00E94062F2DA198
:103CF0003EA14FA158A5260F371F481F591FD601B7
:103D00002D933D934D935C9313978EE696E00E941E
:103D1000A32B892B09F0F7CE81149104A104B104DF
:103D200089F4C301B2010E94600A61E070E080E0A2
:103D300090E00E94182922242A943324198A1A8A8E
:103D40001B8A1C8A298D3A8D4B8D5C8D82169306B9
:103D5000A406B506D0F40E940B0A29893A894B893A
:103D60005C89280F311D411D511D298B3A8B4B8BCE
:103D70005C8B381608F4382E821508F4282E089427
:103D8000811C911CA11CB11C5AC0C301B20128EEB8
:103D900033E040E050E00E94382F8EE696E0BA0112
:103DA000A9012AE030E00E94D32D8EE696E06CE275
:103DB0000E94FF2C8EE696E0632D4AE050E00E94C0
:103DC000242E8EE696E06CE20E94FF2C69897A89A7
:103DD0008B899C89A50194010E94382F8EE696E07C
:103DE000BA01A9012AE030E00E94D32D8EE696E0C8
:103DF0006CE20E94FF2C8EE696E0622D4AE050E0D5
:103E00000E94242E8EE696E06CE20E943B2D8D8966
:103E10009E89AF89B88D480E591E6A1E7B1E2D8D56
:103E20003E8D4F8D58A1241535054605570520F4C4
:103E300049A05AA06BA07CA088249924540189A190
:103E40009AA1ABA1BCA1885E9340A040B04009F00C
:103E50005CCFA8960FB6F894DEBF0FBECDBFCF9152
:103E6000DF910F91FF90EF90DF90CF90BF90AF90D8
:103E70009F908F907F906F905F904F903F902F908A
:103E80000895DF92EF92FF920F931F93CF93DF93EA
:103E90000E94F228DC01CB010E94FE2E10921E042B
:103EA00010921F041092200410922104DD24E0904F
:103EB0001E04F0901F040091200410912104102F83
:103EC0000F2DFE2CEE246FEF70E080E090E00E945A
:103ED000DC2EE60EF71E081F191FE0921E04F0925A
:103EE0001F040093200410932104D39484E0D81677
:103EF000F1F6C4E2D4E010E015C062E370E080E0C7
:103F000090E00E94DC2E6F5FE4E2F4E090E004C0F9
:103F10008191861791F39F5F9117D0F369931F5F8B
:103F2000183119F08881882341F7DF91CF911F91D3
:103F30000F91FF90EF90DF900895EF92FF920F9313
:103F40001F93CF93DF9380E090E0A0E0B0E0C0E06B
:103F5000D0E0EE24F82E092F1A2F60913E0470E075
:103F60006C5F7F4F26E0660F771F2A95E1F76C0F95
:103F70007D1F88ED95E00E940C28A8019701280F6D
:103F8000311D411D511DDA01C9012196C430D105F1
:103F900001F78E519E4BA14CBE4D19F020E030E050
:103FA00022C0C0E0D0E060913E0470E096E0660F71
:103FB000771F9A95E1F76C5F7E4F6C0F7D1F88ED40
:103FC00095E00E940C28FE01EB5EFB4F808321965A
:103FD000C932D10541F720E030E0809115048930E5
:103FE00011F421E030E0C901DF91CF911F910F91D1
:103FF000FF90EF9008950F931F93CF93DF93EC0101
:10400000062F15E0115071F088ED95E0BE010E9479
:104010000C28081751F088ED95E0BE01402F0E9452
:104020001328F0CF82E00E94E30FDF91CF911F9120
:104030000F910895CF92DF92EF92FF920F931F930B
:10404000CF93DF93C0E0D0E008E110E06EE1C62E30
:104050006EEBD62E61ECE62E6EEDF62E80913E04D0
:1040600090E0049656E0880F991F5A95E1F7A70152
:104070009601002E04C056954795379527950A94CA
:10408000D2F78C0F9D1F622F0E94FB1F21960850B4
:104090001040C430D10511F7C0E0D0E080913E045B
:1040A00090E046E0880F991F4A95E1F78C5F9E4F9C
:1040B000FE01EB5EFB4F8C0F9D1F60810E94FB1F7A
:1040C0002196C932D10551F7DF91CF911F910F9100
:1040D000FF90EF90DF90CF9008951F931091CE0442
:1040E0001F3F09F0CCC0863409F48BC087345CF5DF
:1040F0008833B4F481330CF087C08B3109F465C088
:104100008C313CF48A3009F49AC18D3009F09FC19A
:1041100096C1813209F444C0803309F098C186C049
:10412000803409F444C081343CF4883309F46EC00F
:10413000893309F08CC178C0813409F486C0823497
:1041400009F085C18DC0823609F48AC08336ACF48B
:104150008335A1F184353CF4893409F442C08235B9
:1041600009F075C145C08A3509F486C0813609F465
:104170006CC0883509F06BC128C08237C9F183371C
:1041800034F48636F1F1893609F061C12AC08837E6
:10419000E1F08A3709F470C0833709F058C10EC0C6
:1041A00085E194E069E270E00E94FF1750C185E16B
:1041B00094E069E270E00E94C61641C10E941A2094
:1041C0008EE696E064E072E006C00E949D1F8EE6D7
:1041D00096E06EE172E00E94C92E8EEF8093CE04CD
:1041E00036C10E94E1078EE696E06DE372E006C0FC
:1041F0000E94411F8EE696E066E572E00E94C92E9D
:104200001EC10E94811323C1805343C08EE696E0F5
:104210006EE871E00E94272D90913D04892F885F00
:104220008871977E892B0CC089E033C08EE696E0BA
:104230006BE771E00E94272D80913D0490E2892771
:1042400080933D041093CE04FAC08EE696E065E6B6
:1042500071E00E94272D80913D0490E4892709C0D8
:104260008EE696E064E571E00E94272D80913D0482
:10427000805880933D040CC00E94381C09C00E94E5
:104280000E13882309F4E3C080913405882321F4B8
:104290008FEF8093CE04D3C08FEC94E060E070E0A9
:1042A00040E050E00E946E069B01AC018091CE047C
:1042B000843009F441C0853044F4823041F18330C8
:1042C00094F5813009F097C00DC0863009F467C0BD
:1042D00086300CF43EC0873009F469C0893009F09B
:1042E0008AC075C0DA01C9018154914EAD49B84107
:1042F0008F57904FAA4FB24008F07DC020931A0408
:1043000030931B0440931C0450931D049BC02093C6
:104310001E0430931F04409320045093210481E035
:10432000809335058FC0283031054105510508F0CF
:1043300062C02093220486C0DA01C9010197A10955
:10434000B1090A97A105B10508F055C020932304CF
:1043500079C08FEC94E065E471E00E948A0710E078
:104360000EC0183130F4E12FF0E0EB5EFB4F878791
:104370001F5F80E090E065E471E00E948A0700978B
:1043800059F00E946C07009761F706C0E12FF0E03A
:10439000EB5EFB4F17861F5F1831C0F353C025300B
:1043A00031054105510538F520933C044BC0DA0135
:1043B000C9010197A109B1090697A105B105D8F472
:1043C00080913D04887F822B80933D043BC0DA01BD
:1043D000C901805B9440A040B04081559D4BA140F5
:1043E000B04048F420931604309317044093180407
:1043F0005093190427C08EE696E069ED71E00E94A3
:10440000C92E13C080911E0490911F04A091200416
:10441000B09121040196A11DB11D80931E049093BB
:104420001F04A0932004B09321040E9404138FEF73
:104430008093CE048EE696E06AE00E943B2D0E94B7
:104440007C1C05C0809135058823E1F2EECF1F91D9
:1044500008958FEF8093CE04109235050E947C1C46
:104460000CC08EE696E00E94A32B892B31F08EE6DD
:1044700096E00E94D42B0E946D208091CE048E3F46
:1044800081F76AE070E080E090E00E94182904C0A3
:104490008EE696E00E94D42B8EE696E00E94A32B37
:1044A000892BB1F7089580E490E060913E040E946A
:1044B000FB1F089588ED95E060E470E00E940C28F1
:1044C00080933E04843020F010923E040E945322D8
:1044D00008951F93182F0E945A2280913E0481173D
:1044E00031F0143020F410933E040E9453221F91A7
:1044F0000895CF92DF92EF92FF920F931F93DF9375
:10450000CF93CDB7DEB7E8970FB6F894DEBF0FBEF6
:10451000CDBF7C01FC018281883009F4ABC08930B9
:10452000A8F4843009F45FC0853048F48230E9F1A2
:10453000833008F04DC0813009F080C123C086303F
:1045400009F482C0873008F08BC060C0883609F457
:10455000D4C0893650F4863609F4AFC0873608F0E7
:10456000C5C0853609F06AC18FC08A3609F4FEC01D
:104570008A3608F4F2C08B3609F438C1873C09F05A
:104580005DC149C1C70161E049E250E00E94530E9C
:1045900005E114E0C701F80161918F010E94330E1B
:1045A000F4E00E331F07B1F753C1C70162E04BE1DE
:1045B00050E00E94530E0FE314E0C701F80161912F
:1045C0008F010E94330EF4E00A351F07B1F740C196
:1045D000C70163E041E050E00E94530E0E94060FC5
:1045E000682FC70133C1C70164E041E050E00E9479
:1045F000530EC70161E00E94330E8EE696E0F7018C
:1046000064810E940D2C0E94221D28C140915605F4
:1046100050E0440F551FC70165E00E94530E00E0B3
:1046200010E009C0F801EA5CFA4FC70160810E94FE
:10463000330E0F5F1F4F8091560590E0880F991F32
:104640000817190778F304C1C70166E042E050E09B
:104650000E94530EC70160E573E00E94440EF8C04B
:10466000C70167E041E050E00E94530EC70160912E
:104670005705ECC0C70168E041E050E00E94530ECE
:10468000C70160913E04E2C0C70165E641E050E029
:104690000E94530EF70187819085899709F0D4C055
:1046A000D701E5E1F4E019968C9119978193119661
:1046B00084E0EE33F807B9F7ABC0C70166E641E026
:1046C00050E00E94530EF701878190854B9709F0C7
:1046D000BBC0D701EFE3F4E019968C911997819351
:1046E000119684E0EA35F807B9F792C0C70167E68A
:1046F00041E050E00E94530E89C0C70168E641E0E6
:1047000050E00E94530E85E78983DE011296EFE3A5
:10471000F4E08BE101900D928150E1F7CE0101961A
:104720006CE10E947F0C0E94AB0B83E08093140429
:1047300068EC70E080E090E00E94182980911404F9
:10474000843009F081C08FE70E94BA090E94CE0927
:104750008983853509F078C05BC0C70169E641E00F
:1047600050E00E94530E0E94E10752C0C7016AE662
:1047700041E050E00E94530E89E68D8FCE014D96A8
:1047800061E00E947F0C0E94AB0B83E080931404D5
:1047900068EC70E080E090E00E9418298091140499
:1047A000843009F051C08FE70E94BA090E94CE09F7
:1047B0008D8F8E01025E1F4F79E3C72ED12CCC0E58
:1047C000DD1E0E94CE09F80181938F01EC15FD05D5
:1047D000C1F7AFE3B4E0FE017E968BE101900D924C
:1047E0008150E1F78D8D893479F512C0C7016BE6F0
:1047F00041E050E00E94530EF70181850E9469223A
:104800000E949D1F892B21F40E94E1070E941A201B
:10481000C70161E01BC0C70167EC41E050E00E94A6
:10482000530EC70161E00E94330E8EE696E0F70159
:1048300064810E940D2C1092600410C0C7016AECC4
:1048400041E050E00E94530EC70160E00E94330E29
:104850008EE696E0F70164810E940D2CE8960FB673
:10486000F894DEBF0FBECDBFCF91DF911F910F91A6
:10487000FF90EF90DF90CF9008956F927F928F928C
:104880009F92AF92BF92CF92DF92EF92FF920F93DF
:104890001F93CF93DF9381E08093600436E6E32E8D
:1048A00034E0F32E24E0C22ED12CCE0CDF1C94E693
:1048B000692E84E0782E06E0902E15E0812EB2E07D
:1048C000AB2EA3E0BA2EB8C08EE696E00E94A32BD2
:1048D000892B09F4B1C0A9C08EE696E00E94D42BC2
:1048E000982F8093610480916204833021F1843099
:1048F00028F4813099F08230B8F409C0853009F489
:1049000050C0853020F1863009F08FC067C0953BDC
:1049100009F08BC081E08093620487C0923609F071
:1049200082C0A092620481C0909363049093640457
:10493000B09262047AC090936604F701118280916C
:104940006404892780936404709262046EC0D92F36
:10495000C0E020916604309167042C2B3D2B3093EE
:10496000670420936604809164048927809364041B
:10497000809262042536310508F457C081E694E040
:104980006CEC41E050E00E94530E81E694E061E05F
:104990000E94330E8EE696E0609165040E940D2C15
:1049A00042C02091680430916904F901EF59FB4F2E
:1049B0009187809164048927809364042F5F3F4F1F
:1049C0003093690420936804809166049091670491
:1049D0002817390750F19092620427C000916404AF
:1049E000091729F481E694E00E94792213C01091FE
:1049F000630481E694E06BEC42E050E00E94530EC9
:104A000081E694E0612F0E94330E81E694E0602FEE
:104A10000E94330EF601862D11928A95E9F71092C5
:104A2000690410926804109262048EE696E00E9477
:104A3000A32B892B09F050CF80916004813009F4B9
:104A400043CFDF91CF911F910F91FF90EF90DF90B7
:104A5000CF90BF90AF909F908F907F906F90089570
:104A60007F928F929F92AF92BF92CF92DF92EF92FE
:104A7000FF920F931F93DF93CF93CDB7DEB7AA9723
:104A80000FB6F894DEBF0FBECDBF0E94E4286B01C5
:104A90007C0181E00E94CC0A04C08EE696E00E9470
:104AA000D42B8EE696E00E94A32B892BB1F711E060
:104AB00052E6752E42E0842E912C8C0E9D1E5E01D6
:104AC0000894A11CB11C03E00E94E42820E030E01F
:104AD0006C197D098E099F09693C71058105910555
:104AE00010F021E030E0812F90E028233923232BA0
:104AF000B9F10E94E4286B017C015D9A419A80ED36
:104B000097E00E948E0E7982D401E5E1F4E089E21B
:104B100001900D928150E1F7C5016AE20E947F0C7D
:104B20005D98419880E090E00E948E0E00931404FE
:104B30000E94AB0B62E370E080E090E00E941829D5
:104B400080911404843059F4009314048FE70E9478
:104B5000BA090E94CE09823411F410E001C011E0BC
:104B600082E10E943F2A892B21F511E022C08EE6C6
:104B700096E00E94D42B8D30910569F08E3091051E
:104B80001CF40A97B1F407C08332910569F08234AE
:104B9000910579F40CC08EE696E066E471E00E941F
:104BA000272D0E94292205C00E94221D02C00E94BA
:104BB0003D248EE696E00E94A32B892B09F484CF36
:104BC000D6CF8EE696E00E94A32B04970CF18EE6DA
:104BD00096E00E94D42B82349105D1F48EE696E0C3
:104BE0000E94D42B8E34910599F48EE696E00E94B3
:104BF000D42B8434910561F48EE696E00E94D42B88
:104C0000819731F480E090E00E948E0E0E94302562
:104C100008958F929F92AF92BF92CF92DF92EF92C0
:104C2000FF920F931F9382E10E943F2A892B09F084
:104C3000B2C068EC70E080E090E00E94182980E04B
:104C400090E00E948E0E0E94E4285B016C0160ECF3
:104C5000E62E62E1F62E012D112DEA0CFB1C0C1D37
:104C60001D1D06C082E10E943F2A892B09F08BC0DE
:104C70000E94E4286E157F058007910798F382E172
:104C80000E943F2A892B09F07EC080ED97E00E94A8
:104C90008E0E0E94E4287B018C0199249394882431
:104CA00088E496E2A0E0B0E0A80EB91ECA1EDB1EA2
:104CB00029C0AE14BF04C006D10638F480ED97E0D9
:104CC0000E948E0E882483941DC00E94E4286E19D1
:104CD0007F09800B910B693C71058105910590F06E
:104CE0000E94E4287B018C0180E0992009F481E096
:104CF000982E882319F480E090E002C080ED97E0C0
:104D00000E948E0E82E10E943F2A892B91F280E060
:104D100090E00E948E0E882051F180913E048F5FBA
:104D200083700E9469228EE696E063E772E00E943B
:104D3000C62E8EE696E060913E044AE050E00E9466
:104D4000362E0E949D1F892B39F08EE696E060E892
:104D500072E00E94C92E1FC08EE696E06DE972E0F7
:104D60000E94C62E0E94E1070E941A2014C00E94D1
:104D7000F228DC01CB010E94FE2E0E94411F0E94FE
:104D80001A200E9487158EE696E06FEB72E00E9473
:104D9000C92E0E9430251F910F91FF90EF90DF9058
:104DA000CF90BF90AF909F908F90089580E062ED7C
:104DB00077E042E050E00E941F280895EF92FF92B2
:104DC0000F931F930E94790E86E061E00E94AC2948
:104DD00085E061E00E94AC298EE061E00E94AC2990
:104DE0008FE061E00E94AC2982E160E00E94AC2982
:104DF00088E060E00E94AC2988E061E00E94EB2935
:104E00000E94D00E8EE696E040E052EC61E070E049
:104E10000E941C2B0E945A220E949D1F892B39F050
:104E20008EE696E060E872E00E94C92E0AC08EE627
:104E300096E06DE972E00E94C62E0E94E1070E9492
:104E40001A2083E0809380008AE98093810080911A
:104E50003D0486FD05C080918100806480938100BF
:104E60008FEF9FEF909389008093880080916F006F
:104E7000806280936F008FEF80938B050E94D6260F
:104E800078940E94E4287B018C0180918B058F3FF0
:104E900009F0B2C00E94E4286E197F09800B910BC3
:104EA000605D77408040904008F0A6C0EECF8EE66F
:104EB00096E00E94D42B8EE696E00E94A32B892BCD
:104EC000B1F78EE696E066ED72E00E94C62E80E5B0
:104ED00093E00E9479188EE696E06DEE72E00E94F3
:104EE000C62E8EE696E065E070E04AE050E00E9453
:104EF000A72E68EC70E080E090E00E9418290E94E4
:104F0000E1254091160450911704609118047091A6
:104F100019048EE696E00E941C2B0E9409265E98DA
:104F2000409880E090E00E948E0E83E080938000A5
:104F30008AE98093810080913D0486FD05C08091BF
:104F400081008064809381008FEF9FEF90938900B0
:104F50008093880080916F00806280936F0080E072
:104F60000E94CC0A809171050E94F5090E94AB0B4A
:104F70001092D5051092D6051092D7056CE271E01B
:104F800080E090E00E94182980ED97E00E948E0E4C
:104F900064E670E080E090E00E94182980E090E0F4
:104FA0000E948E0E10E015C064E670E080E090E094
:104FB0000E94182980ED97E00E948E0E64E670E052
:104FC00080E090E00E94182980E090E00E948E0E20
:104FD0001F5F80913E04181738F380913D0490E0E4
:104FE00084FF15C020E088719070489709F421E093
:104FF000822F0E94E70E0BC080ED97E00E948E0E7C
:1050000082E161E00E94EB295E9A409A54CF1F91A1
:105010000F91FF90EF900895F999FECF72BD61BD99
:10502000F89A80B50895F999FECF1FBA72BD61BD97
:1050300040BD0FB6F894FA9AF99A0FBE08958230DF
:1050400000F5E82FF0E0EE0FFF1FE752FA4F7183F3
:105050006083882319F08130A1F408C08091690031
:105060008C7F842B80936900E89A08958091690071
:10507000440F551F440F551F837F842B8093690075
:10508000E99A08951F920F920FB60F9211242F9351
:105090003F934F935F936F937F938F939F93AF93C0
:1050A000BF93EF93FF938091D9059091DA05892BF7
:1050B00029F0E091D905F091DA050995FF91EF917A
:1050C000BF91AF919F918F917F916F915F914F9120
:1050D0003F912F910F900FBE0F901F9018951F9228
:1050E0000F920FB60F9211242F933F934F935F931C
:1050F0006F937F938F939F93AF93BF93EF93FF93A0
:105100008091DB059091DC05892B29F0E091DB058E
:10511000F091DC050995FF91EF91BF91AF919F91BF
:105120008F917F916F915F914F913F912F910F9050
:105130000FBE0F901F9018951F920F920FB60F92EF
:1051400011242F933F938F939F93AF93BF9380919D
:10515000E1059091E205A091E305B091E40530915D
:10516000E5050196A11DB11D232F2D5F2D3720F0E0
:105170002D570196A11DB11D2093E5058093E105F2
:105180009093E205A093E305B093E4058091DD05DB
:105190009091DE05A091DF05B091E0050196A11D7B
:1051A000B11D8093DD059093DE05A093DF05B093DC
:1051B000E005BF91AF919F918F913F912F910F90FB
:1051C0000FBE0F901F9018958FB7F8942091E105AE
:1051D0003091E2054091E3055091E4058FBFB9019C
:1051E000CA0108959FB7F8942091DD053091DE053E
:1051F0004091DF055091E00586B5A89B06C08F3F22
:1052000021F02F5F3F4F4F4F5F4F9FBF542F432FD2
:10521000322F2227280F311D411D511D82E0220F00
:10522000331F441F551F8A95D1F7B901CA0108954C
:105230009B01AC017FB7F8948091DD059091DE056C
:10524000A091DF05B091E00566B5A89B05C06F3F52
:1052500019F00196A11DB11D7FBFBA2FA92F982F5C
:105260008827860F911DA11DB11D62E0880F991F2F
:10527000AA1FBB1F6A95D1F7BC012DC0FFB7F894D8
:105280008091DD059091DE05A091DF05B091E005EC
:10529000E6B5A89B05C0EF3F19F00196A11DB11D11
:1052A000FFBFBA2FA92F982F88278E0F911DA11D00
:1052B000B11DE2E0880F991FAA1FBB1FEA95D1F725
:1052C000861B970B885E9340C8F2215030404040C7
:1052D000504068517C4F211531054105510571F64B
:1052E0000895789484B5826084BD84B5816084BD5E
:1052F00085B5826085BD85B5816085BDEEE6F0E04F
:10530000808181608083E1E8F0E0108280818260AA
:105310008083808181608083E0E8F0E0808181602B
:105320008083E1EBF0E0808184608083E0EBF0E05B
:10533000808181608083EAE7F0E0808184608083FF
:1053400080818260808380818160808380818068A9
:1053500080831092C1000895CF93DF93482F50E0CF
:10536000CA018656944FFC0134914A57544FFA01B2
:105370008491882369F190E0880F991FFC01E85916
:10538000F44FA591B491FC01EE58F44FC591D4911E
:10539000662351F42FB7F8948C91932F909589231D
:1053A0008C93888189230BC0623061F42FB7F89405
:1053B0008C91932F909589238C938881832B88835C
:1053C0002FBF06C09FB7F8948C91832B8C939FBFFF
:1053D000DF91CF910895482F50E0CA018255944F34
:1053E000FC012491CA018656944FFC0194914A57BE
:1053F000544FFA013491332309F440C0222351F170
:10540000233071F0243028F42130A1F0223011F53E
:1054100014C02630B1F02730C1F02430D9F404C0D4
:10542000809180008F7703C0809180008F7D809372
:10543000800010C084B58F7702C084B58F7D84BD95
:1054400009C08091B0008F7703C08091B0008F7D3C
:105450008093B000E32FF0E0EE0FFF1FEE58F44F03
:10546000A591B4912FB7F894662321F48C9190956F
:10547000892302C08C91892B8C932FBF0895682FAC
:1054800070E0CB018255944FFC012491CB018656EC
:10549000944FFC0144916A57744FFB0194919923F6
:1054A00019F420E030E03CC0222351F1233071F0A8
:1054B000243028F42130A1F0223011F514C0263018
:1054C000B1F02730C1F02430D9F404C080918000BD
:1054D0008F7703C0809180008F7D8093800010C003
:1054E00084B58F7702C084B58F7D84BD09C080915B
:1054F000B0008F7703C08091B0008F7D8093B000A3
:10550000892F90E0880F991F8458944FFC01A59132
:10551000B4918C9120E030E0842311F021E030E060
:10552000C901089508951F920F920FB60F9211248A
:105530002F933F934F938F939F93EF93FF9380917C
:10554000C00082FD1DC04091C6002091260630910A
:1055500027062F5F3F4F2F73307080912806909160
:1055600029062817390771F0E0912606F0912706E1
:10557000EA51FA4F4083309327062093260602C053
:105580008091C600FF91EF919F918F914F913F9134
:105590002F910F900FBE0F901F901895E0917A06F3
:1055A000F0917B06E05CFF4F8191919120813181E8
:1055B000821B930B8F739070892B11F00E94922A9B
:1055C00008951F920F920FB60F9211242F933F93BD
:1055D0008F939F93EF93FF9320916A0630916B0610
:1055E00080916C0690916D062817390731F48091EF
:1055F000C1008F7D8093C10014C0E0916C06F091D2
:105600006D06E65DF94F208180916C0690916D06E4
:1056100001968F73907090936D0680936C06209323
:10562000C600FF91EF919F918F913F912F910F9025
:105630000FBE0F901F901895AF92BF92DF92EF921E
:10564000FF920F931F93CF93DF93EC017A018B01AD
:10565000DD24403081EE580780E0680780E078075D
:1056600011F0DD24D39491E0A92EB12CEC89FD89B1
:10567000DD2069F0C50108A002C0880F991F0A94B7
:10568000E2F7808360E079E08DE390E005C010826E
:1056900060E874E88EE190E0A80197010E94382F3D
:1056A00021503040404050405695479537952795BA
:1056B00080E12030380720F0DD2011F0DD24D6CF46
:1056C000E889F9893083EA89FB89208319A2EE8968
:1056D000FF89408121E030E0C9010C8C02C0880FB5
:1056E000991F0A94E2F7482B4083EE89FF89408195
:1056F000C9010D8C02C0880F991F0A94E2F7482B4C
:105700004083EE89FF894081C9010E8C02C0880F59
:10571000991F0A94E2F7482B4083EE89FF89808124
:105720000F8C02C0220F331F0A94E2F72095282322
:105730002083DF91CF911F910F91FF90EF90DF9029
:10574000BF90AF900895DC011C96ED91FC911D97E0
:10575000E05CFF4F2191319180819181281B390BB1
:105760002F733070C9010895DC011C96ED91FC91F6
:105770001D97E05CFF4F20813181E054F040DF0154
:10578000AE5BBF4F8D919C9111972817390719F483
:105790002FEF3FEF07C08D919C91E80FF91F80819B
:1057A000282F30E0C9010895DC011C96ED91FC9191
:1057B0001D97E05CFF4F20813181E054F040DF0114
:1057C000AE5BBF4F8D919C9111972817390719F443
:1057D0002FEF3FEF10C08D919C911197E80FF91FAB
:1057E00020818D919C91119701968F7390701196E5
:1057F0009C938E9330E0C9010895DC0191968C91C1
:105800009197882339F05496ED91FC9155978081BA
:1058100086FFF9CF91961C920895CF93DF93EC0108
:10582000EE85FF85E05CFF4F20813181E054F04040
:105830002F5F3F4F2F733070DF01AE5BBF4F8D91F5
:105840009C91119728173907D1F3E05CFF4F8081B5
:105850009181E054F040E80FF91F6083EE85FF85E9
:10586000E05CFF4F31832083EE89FF89208181E056
:1058700090E00F8C02C0880F991F0A94E2F7282B42
:10588000208381E089A3EC89FD8980818064808305
:1058900081E090E0DF91CF9108951092710610920F
:1058A000700688EE93E0A0E0B0E0809372069093DB
:1058B0007306A0937406B093750686E094E0909307
:1058C0006F0680936E0686EE95E090937B0680933C
:1058D0007A068AE296E090937D0680937C0685ECBA
:1058E00090E090937F0680937E0684EC90E0909306
:1058F00081068093800680EC90E0909383068093ED
:10590000820681EC90E0909385068093840682EC79
:1059100090E0909387068093860686EC90E09093C3
:1059200089068093880684E080938A0683E08093CA
:105930008B0687E080938C0685E080938D0681E05E
:1059400080938E060895CF93DF930E9471290E9461
:10595000DE26CEECDAE20E944F102097E1F30E949F
:10596000CE2AF9CFCF92DF92EF92FF920F931F933F
:10597000CF93DF937C016B018A01C0E0D0E00FC0C0
:10598000D6016D916D01D701ED91FC910190F081EF
:10599000E02DC7010995C80FD91F0150104001150E
:1059A000110571F7CE01DF91CF911F910F91FF90FB
:1059B000EF90DF90CF900895EF92FF920F931F9397
:1059C000CF93DF937C018B01C0E0D0E0F8010F5F43
:1059D0001F4F6491662359F0D701ED91FC9101901E
:1059E000F081E02DC7010995C80FD91FEFCFCE0177
:1059F000DF91CF911F910F91FF90EF900895DC01FF
:105A0000ED91FC910190F081E02D09950895EF92C0
:105A1000FF920F931F938C01DC01ED91FC9101909B
:105A2000F081E02D6DE009957C01D801ED91FC91AC
:105A30000190F081E02DC8016AE009959C012E0DCE
:105A40003F1DC9011F910F91FF90EF900895EF92B4
:105A5000FF920F931F937C010E94DC2C8C01C701E5
:105A60000E94072D9C01200F311FC9011F910F912A
:105A7000FF90EF900895EF92FF920F931F937C0198
:105A8000DC01ED91FC910190F081E02D09958C01F4
:105A9000C7010E94072D080F191FC8011F910F9100
:105AA000FF90EF900895CF93DF93EC01611571059E
:105AB00019F420E030E00FC0DB010D900020E9F781
:105AC0001197A61BB70BE881F9810280F381E02DC5
:105AD000AD0109959C01C901DF91CF9108954F92C5
