:100000000C94F7060C941F070C941F070C941F0701
:100010000C941F070C941F070C941F070C941F07C8
:100020000C941F070C9412090C94E0310C94673265
:100030000C941F070C941F070C941F070C941F07A8
:100040000C941B0D0C941F070C941F070C941F0796
:100050000C941F070C941F070C941F070C94EA289C
:100060000C941F070C941C2C0C946A2C0C941F07E6
:100070000C941F070C941F070C941F070C941F0768
:100080000C941F070C941F070C941F070C941F0758
:100090000C941F070C941F070C941F070C941F0748
:1000A0000C941F070C941F070C941F07881B8F1BB1
:1000B0008F1B881B8F1B8F1B8F1B8F1B8F1B8F1BF7
:1000C0008F1B8F1B8F1B8F1B8F1B8F1B8F1BF71A79
:1000D0008F1B8F1B8F1B8F1B8F1B581A8F1B8F1B08
:1000E0008F1B8F1B8F1B8F1B8F1B8F1B8F1B8F1BC0
:1000F0008F1B8F1B8F1B8F1B8F1B031B031B031B54
:10010000031B031B031B031B031B031B8F1B8F1BE7
:100110008F1B8F1B8F1B8F1B5F1A021B021B021B67
:10012000021B8F1B191B211B291B311B391B411B58
:10013000491B511B5B1B651B6F1B791BA61A661A9B
:100140008F1B8F1B8F1B8F1BF71A8F1B8F1B8F1BF8
:100150008F1B8F1B8F1B8F1B8F1B011B011B011BF9
:10016000011B8F1B191B211B291B311B391B411B19
:10017000491B511B5B1B651B6F1B791BA61A661A5B
:100180008F1B8F1B8F1B8F1BF71A456E7465722098
:100190006D656E752E2E2E00546F67676C6564203A
:1001A0006D6963726F50504D00546F67676C656482
:1001B00020696E7665727465642050504D2100543C
:1001C0006F67676C6564205458206D7574696E673D
:1001D0002100546F67676C65642074656C656D659C
:1001E000747279210050726F746F636F6C20657246
:1001F000726F7220776974682052580054696D6577
:100200006F7574207768656E20636F6E6E656374BA
:10021000696E6720746F20525800507265737320A6
:10022000616E79206B657920746F2063616E636500
:100230006C00436F6E6E656374696E6720746F2027
:1002400052582C20706F7765722075702074686525
:100250002052582028776974682062696E64207083
:100260006C7567206966206E6F74207573696E67A0
:1002700020616C776179732062696E642900546F24
:1002800067676C65642027696D6D65646961746575
:10029000206F75747075742700546F67676C6564A0
:1002A0002027736C617665206D6F64652700546F3D
:1002B00067676C65642027616C7761797320626978
:1002C0006E642700546F67676C65642050504D2042
:1002D0006368616E6E656C206C696D69740053654E
:1002E00074205253534920696E6A656374696F6E56
:1002F000206368616E6E656C2028303D3D646973D3
:1003000061626C6529005365742050504D206D6901
:100310006E696D756D2073796E630053657420622C
:100320006561636F6E20696E74657276616C0053EF
:10033000657420626561636F6E2064656C6179002D
:1003400053657420626561636F6E206672657175B6
:10035000656E637920696E20487A3A20303D646981
:100360007361626C652C2050783D504D522063685B
:10037000616E6E656C20782C2046783D4652532085
:100380006368616E6E656C20780053657420505709
:100390004D2073746F702064656C61792028302063
:1003A00064697361626C65642C20312D32353520AF
:1003B0003D3D20302E3173202D2035306D696E2962
:1003C000005365742050504D2073746F7020646525
:1003D0006C61792028302064697361626C65642CDB
:1003E00020312D323535203D3D20302E3173202DEA
:1003F0002035306D696E2900536574206661696C23
:10040000736166652064656C6179202830206469B9
:100410007361626C65642C20312D323535203D3D91
:1004200020302E3173202D2035306D696E29002A41
:100430002A2A2A2A2A2A2A2A2A2A2A2A2A2A2A2A1C
:100440002A2A2A2A2A2A2A2A2A2A2A2A00525820EA
:1004500041636B6564202D2072657665727420732C
:1004600075636365737366756C21002A2A2A2A2ACC
:100470002A2A2A2A2A2A2A2A2A2A2A2A2A2A2A2ADC
:100480002A2A2A2A2A2A2A2A002A2A2A2A2A2A2AF6
:100490002A2A2A2A2A2A2A2A2A2A2A2A2A2A2A2ABC
:1004A0002A2A2A2A2A2A0052582041636B6564208E
:1004B0002D20757064617465207375636365737353
:1004C00066756C21002A2A2A2A2A2A2A2A2A2A2AF6
:1004D0002A2A2A2A2A2A2A2A2A2A2A2A2A2A2A2A7C
:1004E0002A2A0056616C69642063686F69636573CA
:1004F000206172653A205B315D2D5B31365D2028CD
:100500006368616E6E656C20312D3136290053654C
:1005100074206F757470757420666F7220706F72BE
:100520007420005B585D2061626F727420636861A3
:100530006E67657320616E64206578697420525817
:1005400020636F6E666967005B535D20736176653B
:100550002073657474696E677320746F205258003D
:100560005B525D2072657665727420525820736507
:100570007474696E677320746F2064656661756C4E
:10058000747300557365206E756D62657273205BC0
:10059000312D445D20746F206564697420706F7222
:1005A0007473205B452D515D20666F7220736574F6
:1005B00074696E677300202D2072656365697665C6
:1005C0007220636F6E666967757261746F722C203A
:1005D000727820737720000A0A6F70656E4C525350
:1005E0006E6720005365742073657269616C2062C8
:1005F000617564726174653A200056616C696420AB
:1006000063686F696365733A2031202D20342B3481
:10061000202F2032202D2038202F2033202D20384D
:100620002B34202F2034202D203132202F20352034
:100630002D2031322B34202F2036202D2031360032
:10064000536574204368616E6E656C20636F6E66DF
:1006500069673A2000536574204461746172617463
:10066000652028302D32293A200053657420486FC8
:1006700070206368616E6E656C7320286D617820F0
:1006800032342C2073657061726174656420627904
:1006900020636F6D6D6173292076616C69642076CB
:1006A000616C75657320312D3235353A2000536504
:1006B00074206368616E6E656C2073706163696E2F
:1006C0006720287831306B487A293A2000536574C6
:1006D00020524620706F7765722028302D37293AD6
:1006E0002000536574205246206D6167696320289D
:1006F0006865782920652E672E203078444541446E
:10070000463030443A20005365742062617365209E
:100710006672657175656E63792028696E20487A06
:10072000293A20005B5A5D20656E746572207265FF
:1007300063656976657220636F6E6669677572615D
:1007400074696F6E207574696C79005B465D206416
:100750006973706C61792061637475616C20667275
:10076000657175656E636965732075736564005B9B
:10077000525D2063616C63756C6174652072616E9B
:10078000646F6D206B657920616E6420686F7020E6
:100790006C697374005B495D207265696E69746988
:1007A000616C697A652073657474696E677320740F
:1007B0006F20736B657463682064656661756C7423
:1007C00073005B585D2072657665727420636861A2
:1007D0006E67657320616E642065786974206D654D
:1007E0006E75005B535D207361766520736574746C
:1007F000696E677320746F20454550524F4D2061DC
:100800006E642065786974206D656E75005573653A
:10081000206E756D62657273205B302D395D2074BA
:100820006F206564697420706172616D65746572B2
:100830007300202D2053797374656D20636F6E668D
:10084000696775726174696F6E000A0A6F70656E10
:100850004C52536E6720005129204F757470757487
:10086000206265666F7265206C696E6B20283D465C
:100870005329203A2000502920536C617665206D61
:100880006F646520286578706572696D656E746146
:100890006C293A20004F292054696D656420424933
:1008A0004E44206174207374617274757020203A14
:1008B00020004E292050504D206F757470757420A3
:1008C0006C696D6974656420202020203A20004402
:1008D000495341424C4544004D292050504D20522F
:1008E00053534920746F206368616E6E656C2020DD
:1008F00020203A20004C292050504D206D696E690F
:100900006D756D2073796E63202875732920203AE8
:10091000200044495341424C4544004B2920466144
:10092000696C7361666520626561636F6E20696ED4
:1009300074762E2028312D32353573293A20004A1D
:1009400029204661696C7361666520626561636F29
:100950006E2064656C61792028302D323535203D5C
:100960003E20313073202D203135306D696E293AAB
:1009700020004929204661696C73616665206265C3
:1009800061636F6E206672712E203A200048292024
:1009900050574D2073746F702064656C617920200E
:1009A00020202020203A200047292050504D20733D
:1009B000746F702064656C617920202020202020D5
:1009C0003A20004629204661696C7361666520649F
:1009D000656C6179202020202020203A200050578B
:1009E0004D206368616E6E656C200066756E637481
:1009F000696F6E3A20002920706F72742000445491
:100A000046205548462033322D62697420313063C8
:100A100068004F70656E4C52536E675258206D6976
:100A20006E6920342F36636800466C7974726F6E7D
:100A30002F4F72616E6765525820554846203863C3
:100A40006800525820747970653A200044697361D7
:100A5000626C656400487A00203D3D200043616C73
:100A600063756C61746564207061636B6574206983
:100A70006E74657276616C3A20004229204D69637C
:100A8000726F202868616C66292050504D2020200C
:100A9000203A00412920496E7665727465642050C1
:100AA000504D20696E20202020203A003029204D12
:100AB0007574652062757A7A657220286D6F73741B
:100AC0006C79293A0039292053657269616C20627A
:100AD000617564726174653A00736D617274506F10
:100AE0007274004672536B79005472616E73706158
:100AF00072656E740044697361626C6564003829C4
:100B00002054656C656D657472793A202020202030
:100B10002020003729204368616E6E656C20636F6A
:100B20006E6669673A20200036292044617461723C
:100B30006174652028302D32293A20202000352983
:100B400020486F70206368616E6E656C733A202078
:100B5000202020003429204368616E6E656C20736C
:100B6000706163696E673A20200033292052462065
:100B7000706F7765722028302D37293A20202000A9
:100B80003229205246206D616769633A2020202077
:100B900020202020200031292042617365206672C8
:100BA000657175656E63793A2020200000000000B1
:100BB000240027002A002D0030000000000025003E
:100BC00028002B002E00310000000000230026002A
:100BD00029002C002F00040404040403040502026D
:100BE00002020403020202020606060606060404C6
:100BF00002020204040802011040804010204080DC
:100C00004080080204018040201002011080102062
:100C100040400000000200080E0000030401000B29
:100C200000000000000000000000000000000000C4
:100C3000070605040100080A0B0C0D09080B000249
:100C40000202010009040000010202000005240064
:100C500010010524010101042402060524060001F7
:100C60000705810310004009040100020A0000008A
:100C7000070502024000000705830240000004034C
:100C800009042203410072006400750069006E00CF
:100C90006F0020004C0065006F006E006100720064
:100CA00064006F0018034100720064007500690061
:100CB0006E006F0020004C004C0043001201000247
:100CC00000000040412336800001010200011201B2
:100CD00000020200004041233680000101020001B1
:100CE00000C18081C105010902A1010901A100859E
:100CF00001050919012903150025019503750181D5
:100D0000029501750581030501093009310938157E
:100D100081257F750895038106C0C005010906A1DC
:100D2000018502050719E029E715002501750195E0
:100D3000088102950175088103950675081500253F
:100D4000650507190029658100C009040200010337
:100D5000000000092101010001226500070584034C
:100D600040000100000000000000002A2B280000C5
:100D70000000000000000000000000000000000073
:100D80000000002C9EB4A0A1A2A434A6A7A5AE3654
:100D90002D3738271E1F20212223242526B333B6C2
:100DA0002EB7B89F8485868788898A8B8C8D8E8F95
:100DB000909192939495969798999A9B9C9D2F3198
:100DC00030A3AD350405060708090A0B0C0D0E0FFC
:100DD000101112131415161718191A1B1C1DAFB178
:100DE000B0B50000840D502BD62D1C3114341124C5
:100DF0001FBECFEFDAE0DEBFCDBF14E0A0E0B1E070
:100E0000E4EDFBE602C005900D92AC33B107D9F7D3
:100E100017E0ACE3B4E001C01D92A032B107E1F7E6
:100E20001DE0CEEEDDE004C02297FE010E94A23557
:100E3000C43ED107C9F70E942C2E0C94E8350C94BF
:100E40000000A0E0B0E0E7E2F7E00C94B935EC0177
:100E5000A880B980CA80DB80A114B104C104D10488
:100E600041F484E2A82E89EDB82E8BE5C82E87E0E8
:100E7000D82EC601B5012DE133EF41E050E00E94CC
:100E8000713527EA31E440E050E00E941D357B01D6
:100E90008C01C601B5012DE133EF41E050E00E9425
:100EA0007135CA01B9012CEE34EF4FEF5FEF0E94AC
:100EB0001D356E0D7F1D801F911F97FF04C061506F
:100EC000704080409048688379838A839B839B012C
:100ED000AC015F77B901CA01CDB7DEB7EAE00C9487
:100EE000D5350E94210708958DE293E00E942107E5
:100EF000089560932D0370932E0380932F03909396
:100F000030030895A0E0B0E0E8E8F7E00C94B235D3
:100F1000EC012B016A016115710519F0FB01918348
:100F20008083C114D10449F0C6010297839728F049
:100F300020E030E040E050E0DCC0A9908A2D90E055
:100F40000E94A635892BC9F7FDE2AF1621F4A990BE
:100F50003324339405C08BE2A81609F4A9903324F6
:100F6000C114D10421F0E0E1CE16D10411F5F0E373
:100F7000AF1669F48881883711F0883541F4A9806B
:100F8000229682E0382A20E1C22ED12C12C0C11450
:100F9000D10479F4E0E3AE1659F199E9E92E99E923
:100FA000F92E99E9092F99E1192F8AE0C82ED12C41
:100FB0003AC0FAE0CF16D10491F080E1C816D1040E
:100FC00029F0E8E0CE16D104F9F415C0BFEFEB2EFE
:100FD000BFEFFB2EBFEF0B2FBFE01B2F24C0A9E9F3
:100FE000EA2EA9E9FA2EA9E90A2FA9E11A2F1BC0B6
:100FF000F8E0CF2ED12CEFEFEE2EEFEFFE2EEFEF3D
:101000000E2FEFE11E2F0FC09601442737FD4095AC
:10101000542F6FEF7FEF8FEF9FEF0E944F35C90185
:10102000DA017C018D0120E030E040E050E060E03A
:101030003601882477FC8094982C70EDB72EBA0C7A
:10104000F9E0FB1570F48A2D81548A3118F499EC7B
:10105000B92E06C08A2D81568A3148F589EAB82E04
:10106000BA0C8B2D90E08C159D050CF56F3FE9F0C7
:10107000E216F30604071507B8F0CA01B901A40186
:1010800093010E941D359B01AC018B2D90E0A0E0E7
:10109000B0E0280F391F4A1F5B1F281739074A077E
:1010A0005B0710F061E001C06FEFA990C6CF41145B
:1010B000510451F0662311F0219703C031FE04C0A2
:1010C0002297F201D183C08330FE07C0509540952E
:1010D000309521953F4F4F4F5F4F67FF0AC082E227
:1010E00090E090931F0780931E072FEF3FEF4FEF85
:1010F0005FEFB901CA01CDB7DEB7E1E10C94CE359F
:10110000FC0188279927E89421912032E9F32930BE
:1011100010F02E30C8F32B3241F02D3239F46894A0
:1011200004C00E94DE08820F911D219120532A30B5
:10113000C0F31EF4909581959F4F08954CE354E0C1
:101140000E94AC080895FB01DC0102C001900D92E1
:1011500041505040D8F70895009731F4DA018D914D
:101160009C91009709F40EC0DC01FB013D91219197
:10117000222319F03217C9F3FACF332331F4DA01FD
:101180001D921C928827992708951197AF93BF93BA
:10119000FB013D912191321771F4332321F488270B
:1011A0009927119702C01E921196FA01A193B0835C
:1011B0009F918F910895222369F7EACF7AE0979F54
:1011C000902D879F802D910D11240895009721F176
:1011D0009C0140E050E068E478EE81E090E00E94FD
:1011E0007135C901DA018F3F9105A105B10531F0D3
:1011F00028F08FEF90E0A0E0B0E008C00097A105D4
:10120000B10521F481E090E0A0E0B0E08093D1004E
:101210008091C000806103C08091C0008F7E809368
:10122000C00008951F920F920FB60F9211248F9352
:101230001F990EC080913E04813019F482E08093A2
:101240003E0480913E04833019F484E080933E0490
:101250008F910F900FBE0F901F90189589E080938B
:101260003F0480E092ECA1E0B0E0809340049093D2
:101270004104A0934204B093430487E080934C045C
:1012800080EC92E9ADEEB9E180934404909345047B
:10129000A0934604B093470485E080934D048DEEFF
:1012A0009EEFADEABEED8093480490934904A0936D
:1012B0004A04B0934B04AEE4B4E080E090E08630A2
:1012C00010F0E0E004C0FC01EA5FFB4FE081ED9329
:1012D00001968831910599F782E0809366048AE04F
:1012E000809367040895682F70E0CB018C599F4F5D
:1012F0008E3B910548F4665F7F4F80E090E02AE0E6
:1013000030E040E050E014C0823D910548F4605563
:10131000704080E090E024E630E040E050E008C01B
:101320006956704080E090E028E532E040E050E00F
:101330000E941D3524E630E040E050E00E941D355B
:1013400008958F929F92AF92BF92CF92DF92EF92C9
:10135000FF920F931F93FC0100A510E087A190E07E
:1013600023E130E0829FF001839FF00D929FF00D0A
:101370001124EF5CFC4F80809180A280B380F80143
:10138000E770F070E250FC4F608170E0615F7F4F6A
:10139000882777FD8095982F20E43FE14DE750E0C6
:1013A0000E941D35A50194010E944F3569017A0103
:1013B00080ED97E0A0E0B0E0C80ED91EEA1EFB1E4B
:1013C00008711070012B81F060E07EEE8AEB9BE0EB
:1013D000A50194010E944F3528513C4F4F4F5F4F5C
:1013E000C20ED31EE41EF51E87EE93E0A0E0B0E02F
:1013F000C80ED91EEA1EFB1EC701B60128EE33E057
:1014000040E050E00E944F35CA01B90128EE33E0B8
:1014100040E050E00E941D351F910F91FF90EF902A
:10142000DF90CF90BF90AF909F908F900895FF92E4
:101430000F931F93082FFB01DA01F82EF69410E0AA
:10144000808191818C938281938111968C931197E5
:101450008481958112968C93129786819781139639
:101460008C931397208131814281538164817581EE
:10147000868197819295990F990F907C832F837025
:10148000982B852F8370880F880F982B872F837058
:101490008295807F982B14969C9314971596389676
:1014A0001F5FF11668F600FF5CC0808191818F3F5D
:1014B000910509F010F440E00CC022E08030920762
:1014C00010F441E006C08050934010F043E001C0AA
:1014D00042E0828193818F3F910509F010F450E042
:1014E0000CC022E08030920710F451E006C080501A
:1014F000934010F053E001C052E0848195818F3F0A
:10150000910509F010F480E00CC022E080309207D1
:1015100010F481E006C08050934010F083E001C0D9
:1015200082E0268137812F3F310509F010F490E0E9
:101530000CC092E02030390710F491E006C0205032
:10154000334010F093E001C092E05295507F4295F5
:10155000440F440F407C452B880F880F842B892B28
:101560008C931F910F91FF90089523E08032920792
:1015700018F420E030E026C023E0883E920748F4CB
:101580009C012F513340E4E036952795EA95E1F729
:1015900019C027E0803D920720F49C012C5D334068
:1015A00011C028E08839920718F02FEF33E00AC005
:1015B0009C01285C374074E0369527957A95E1F7D1
:1015C0002D503C4FC9010895882339F02998000017
:1015D0002A9A0000299A00000895299800002A9864
:1015E0000000299A000008950F931F93082F5E9A18
:1015F00029985E9810E0802F80780E94E40A000FFE
:101600001F5F1830C1F729981F910F9108958F77A8
:101610000E94F40A08950F931F93082F10E0802F63
:1016200080780E94E40A000F1F5F1830C1F72998E4
:101630001F910F910895299820E030E0220F299AF8
:10164000000083B12998000090E073E0969587959B
:101650007A95E1F78170280F3F5F383079F7822F54
:1016600008950E94070B0E941B0B5E9A08951F931A
:10167000162F80680E94F40A812F0E940B0B5E9A3D
:101680001F9108951F93109148041827EFE3F4E089
:10169000E80FF11D89E767850E94370B8DE3612F05
:1016A0000E94370B82E4612F0E94370B1F9108952F
:1016B00086E20E94310B08950F931F938C018CE1F9
:1016C000F80164810E94370B8DE1F80165810E9469
:1016D000370B8EE1F80166810E94370B80E2F8013A
:1016E00067810E94370B81E2F80160850E94370B09
:1016F00082E2F80161850E94370B83E2F80162857E
:101700000E94370B84E2F80163850E94370B85E263
:10171000F80164850E94370B8AE2F80165850E9412
:10172000370B8EE6F80166850E94370B8FE6F801CD
:1017300067850E94370B80E7F80160890E94370BAC
:1017400081E7F80161890E94370B82E7F80162891D
:101750000E94370B1F910F910895EF92FF920F9304
:101760001F93CF93DF937B018C01603028E37207D6
:101770002CE982072CE1920728F520E836E948E9B0
:1017800050E00E944F35E9016897B90180E090E090
:1017900020E839E647E65FEF0E941D356E0D7F1D9C
:1017A000801F911FB2E0660F771F881F991FBA959F
:1017B000D1F721E732E040E050E00E944F35890147
:1017C00080E421C020E03DE241E351E00E944F353A
:1017D000E9016897B90180E090E020E033ED4EEC3C
:1017E0005EEF0E941D356E0D7F1D801F911F660FDD
:1017F000771F881F991F21E732E040E050E00E94E8
:101800004F35890180E69E012F71622F680F85E7B1
:101810000E94370B86E7612F0E94370B87E7602F06
:101820000E94370BDF91CF911F910F91FF90EF90A6
:1018300008959F92AF92BF92CF92DF920F93DF9362
:10184000CF9300D000D0CDB7DEB7982E83E00E94B2
:10185000310B8093840484E00E94310B80938504D3
:1018600086E060E00E94370B87E061E00E94370B62
:1018700089E06FE70E94370B8AE065E00E94370B32
:101880008BE065E10E94370B8CE062E10E94370B30
:101890008DE06DEF0E94370B8EE060E00E94370B09
:1018A000992019F080E993E008C08091660423E153
:1018B000829FC00111248F5C9C4F0E945C0B80E3CF
:1018C0006CE80E94370B82E36FE00E94370B83E3E2
:1018D00062E40E94370B84E36AE00E94370B85E3E1
:1018E0006AE20E94370B86E36DE20E94370B87E3C2
:1018F00064ED0E94370B88E360E00E94370B89E3B8
:1019000060E00E94370B992049F02EE1A22E2EEBC9
:10191000B22E21ECC22E2EEDD22E08C0A09048048B
:10192000B0904904C0904A04D0904B040AE38D2D36
:101930009927AA27BB2789839A83AB83BC83802FEF
:1019400069810E94370B802F8B5F69810E94370B62
:10195000DC2CCB2CBA2CAA240F5F0E3341F783E486
:101960006FEF0E94370B84E46FEF0E94370B85E422
:101970006FEF0E94370B86E46FEF0E94370B9920C0
:1019800019F08DE666E003C08DE660914C040E947C
:10199000370B89E760E00E94370B8AE760914D04BE
:1019A0000E94370B83E760E00E94370B84E760E01A
:1019B0000E94370B992029F060EC72E98DEE99E1D5
:1019C00008C0609144047091450480914604909150
:1019D00047040E94AD0B0F900F900F900F90CF9186
:1019E000DF910F91DF90CF90BF90AF909F900895BF
:1019F00087E061E00E94370B8EE764E20E94370BBC
:101A000088E063E00E94370B88E060E00E94370BBB
:101A100087E065E00E94370B85E062E00E94370BAB
:101A200083E00E94310B8093840484E00E94310B98
:101A30008093850408951F920F920FB60F92112480
:101A4000EF92FF921F932F933F934F935F936F9368
:101A50007F938F939F93AF93BF93CF93DF93EF9336
:101A6000FF93C0918600D09187008091B605909138
:101A7000B7059E01281B390B8091670487FD02C0C2
:101A80003695279589E0253C380728F01092C30346
:101A90001092B5051BC0E2E02D3B3E0788F1809116
:101AA000C303803168F51091C303E12EFF24C901FF
:101AB0000E94B50AEE0CFF1C23EA33E0E20EF31E8F
:101AC000F701918380831F5F1093C303D093B70501
:101AD000C093B605FF91EF91DF91CF91BF91AF9188
:101AE0009F918F917F916F915F914F913F912F9136
:101AF0001F91FF90EF900F900FBE0F901F901895C1
:101B000080E18093C303E2CF10928C041092910481
:101B10001092900410929304109292040895FF92F0
:101B20000F931F93CF93DF93182F092FF62E8EE379
:101B30000E94370B212F302FC901EC0110E005C0A6
:101B40008FE769910E94370B1F5F1F15C8F385E06F
:101B500064E00E94370B83E00E94310B8093840481
:101B600084E00E94310B809385040E944029609399
:101B7000860470938704809388049093890487E097
:101B800069E00E94370B81E080933E04DF91CF91A2
:101B90001F910F91FF9008950E948F0D80913E0438
:101BA0008130D9F40E944029209186043091870425
:101BB0004091880450918904621B730B840B950B30
:101BC000605A76488140904040F4E8CF80E596E046
:101BD00060E071E00E945630089580913E048130AB
:101BE000A9F3089586EE96E06EE70E94962D08957B
:101BF000BF92CF92DF92EF92FF920F931F93CF93FA
:101C0000DF936C0186EE96E06EE70E94962D7601DA
:101C100000E010E0C0E0D0E0A0E2BA2E0AC0083038
:101C2000110521F49E012095F60120870894E11CFE
:101C3000F11CF7016081862F8D57823040F486EECB
:101C400096E06DE70E94962DF70160816B2586EE88
:101C500096E00E94962D0115110551F0F701808143
:101C60009E01280F311DC32FDD27C20FD31FD07057
:101C70000F5F1F4F0930110591F6DF91CF911F9132
:101C80000F91FF90EF90DF90CF90BF900895DF937A
:101C9000CF93CDB7DEB729970FB6F894DEBF0FBE4E
:101CA000CDBF382FE62F80919A0590E0019664E22F
:101CB00070E00E943C35982F80939A0588E98983CB
:101CC00080E18A83913071F0913028F0923099F060
:101CD0009330E1F416C085E08B8381EF8C832F5F16
:101CE0002D8317C09B8381EF8C8384E6489FC001BE
:101CF00011249D830EC084E08B8381EF8C833D8310
:101D000008C09B8381EF8C83ED8303C00E94F20D9A
:101D100004C0CE0101960E94F80D29960FB6F894E2
:101D2000DEBF0FBECDBFCF91DF9108950F931F93FC
:101D3000CF93DF93182F092F86EE96E06EE70E946F
:101D4000962D212F302FC901EC0110E000E288818F
:101D50008D57823040F486EE96E06DE70E94962D16
:101D600088818027888386EE96E069910E94962D6F
:101D70001F5F193061F786EE96E06EE70E94962DA0
:101D8000DF91CF911F910F910895DF93CF93CDB73E
:101D9000DEB729970FB6F894DEBF0FBECDBF382F40
:101DA00080919A05882379F48EEF89833A836B8337
:101DB000842F90E0959587958C832D8319861886BE
:101DC0001F821E822FC040919505842F90E09C01B8
:101DD0002F70307054E0959587955A95E1F78217EA
:101DE000930721F18DEF89831A821B82DE011496FD
:101DF00020E008C0EB57FA4F80818D93405F2F5F42
:101E0000263069F0842F90E0FC0134E0F595E795E9
:101E10003A95E1F78F709070E817F90759F74093FA
:101E200095052A83CE0101960E94960E80919A050F
:101E300090E0019666E070E00E943C3580939A0540
:101E400029960FB6F894DEBF0FBECDBFCF91DF91BC
:101E500008959F92AF92BF92CF92DF92EF92FF923E
:101E60000F931F93B82EA62ED42EC22E902E0E9412
:101E700040297B018C018091840520919605309149
:101E8000970540919805509199058823B1F0D801A4
:101E9000C701821B930BA40BB50B815E9E42A04031
:101EA000B04020F12C2DDC1408F42D2D8B2D6A2D43
:101EB000422F292D0E94470E11C0D801C701821B55
:101EC000930BA40BB50B81539547A040B04070F025
:101ED0008B2D6A2D4D2D2C2D0E94C50EE09296055E
:101EE000F092970500939805109399051F910F9113
:101EF000FF90EF90DF90CF90BF90AF909F900895AC
:101F0000219A229A23988BE060E00E94152A8CE0A7
:101F100061E00E94152A089588E08093C1008AE05C
:101F200061E00E94152A8AE060E00E94A22A0895DA
:101F3000AF92BF92CF92DF92EF92FF920F931F93D7
:101F4000DF93CF93CDB7DEB76C970FB6F894DEBFB3
:101F50000FBECDBF0E9440297B018C0181E00E9411
:101F6000190CF4E7AF2E6E010894C11CD11CE3E0FC
:101F7000BE2EA982C60161E00E94CC0DB0923E0443
:101F80000E94F80C6AEF70E080E090E00E94662901
:101F900080913E04833009F08AC080E596E00E947B
:101FA000062B892B09F083C00E9440296E197F09F6
:101FB000800B910B6058734C894C914008F077C0AE
:101FC000D8CF8FE70E94070B0E941B0B843509F0C6
:101FD0005CC089830E941B0B182F00E010938305BF
:101FE000009382050E941B0B080F111D109383059F
:101FF000009382050E941B0B809381050E941B0B9E
:1020000080938005813108F040C0FF2407C00E9402
:102010001B0B005A1A4FF8018083F3940F2D10E028
:102020008091800590E0880F991F0817190778F3B1
:1020300080E78983CE01019661E00E94CC0D83E0A8
:1020400080933E040E94F80C62E370E080E090E030
:102050000E94662980913E048330A9F08FE70E9498
:10206000070B0E941B0B803581F4898309E614E07D
:102070000E941B0BF80181938F01F4E004381F07C5
:10208000B9F781E003C082E001C083E06C960FB62F
:10209000F894DEBF0FBECDBFCF91DF911F910F919E
:1020A000FF90EF90DF90CF90BF90AF900895809118
:1020B0003E04833009F085CFE6CF83E00E94310BE8
:1020C0008093840484E00E94310B8093850487E030
:1020D00061E00E94370B6AE070E080E090E00E94CF
:1020E00066290E94F80C000008950F931F93082F93
:1020F00017C05F9A64E670E080E090E00E94662975
:102100005F9864E670E080E090E00E9466291F5FBF
:10211000101778F36CE271E080E090E00E9466298D
:1021200010E0F6CF1F93182F0E9440296093960568
:102130007093970580939805909399051093840563
:10214000112329F440E855E260E070E004C040E06B
:1021500051EE60E070E086EE96E00E94A52C1F91A3
:10216000089580919C058130D1F0813020F082303B
:1021700009F043C037C082E10E94D52A892B09F0BB
:102180003CC081E080939C050E94322960939D05AC
:1021900070939E0580939F059093A005089582E11A
:1021A0000E94D52A892BD9F40E94322920919D05BD
:1021B00030919E0540919F055091A005621B730BC5
:1021C000840B950B695E734080409040B0F082E0D4
:1021D00080939C0580ED97E00E94E6080895109298
:1021E0009C05089582E10E94D52A892B31F080E078
:1021F00090E00E94E60810929C050895AF92BF926D
:10220000CF92DF92EF92FF920F931F93CF93DF93C2
:102210008CE00E94310B882369F480E596E06CE045
:1022200071E00E9456305F9A80E00E94190C0E9473
:10223000F80C5F9886EE96E00E942C2D892B09F40D
:1022400085C280910006C82FD0E09E012F5F3F4FCE
:102250002F7130708091FF0590E02817390709F43D
:1022600075C286EE96E00E945D2DCA52DA4F8883D1
:102270008091000690E001968F7190708093000627
:10228000D9CF0E9440296093A5057093A60580933D
:10229000A7059093A805611571058105910561F465
:1022A00081E090E0A0E0B0E08093A5059093A605C2
:1022B000A093A705B093A8058091B1059091B205B0
:1022C00081609093B2058093B10583E080933E04D2
:1022D0008FE70E94070BCDECD5E00E941B0B899382
:1022E00005E0C63DD007C9F74091B8058091CD05FE
:1022F000282F30E0842F90E08227932786FF5AC052
:1023000080E448274093B805C90188739070C89746
:10231000D9F510E02EC01F5F80916704E12FF0E037
:1023200084FF20C0E353FA4F608140919505842FCC
:1023300090E0FC01EF70F0709F012F5F3F4F54E081
:10234000959587955A95E1F72817390791F0EB573E
:10235000FA4F6083842F8F5F8F70407F842B809330
:10236000950507C0E353FA4F86EE96E060810E9420
:10237000962D212F30E08091CD0590E087709070F0
:102380008217930744F616C02F733070232B91F4F5
:102390008091CE058093A9058091CF058093AB05F0
:1023A0008091D0058093AC058091D3058093B305CF
:1023B0001092B40580910106813019F482E0809377
:1023C000010680910106833011F4109201060E94EB
:1023D00040295B016C018091AD059091AE05A09103
:1023E000AF05B091B0050097A105B105C9F0A601F0
:1023F0009501281B390B4A0B5B0BDA01C901885B7D
:102400009B40A040B04060F00E94580B8093AA050A
:102410001092AD051092AE051092AF051092B00566
:102420008FE394E00E94A1092091A1053091A205BB
:102430004091A3055091A40586017501E21AF30AA3
:10244000040B150BE616F7060807190708F41EC15A
:10245000A092A105B092A205C092A305D092A405B6
:102460008091B505883008F009C18091B5058F5F6E
:102470008093B505E090A505F090A6050091A7050D
:102480001091A805E114F1040105110511F18FE384
:1024900094E00E94A109AE18BF08C00AD10A6A15CB
:1024A0007B058C059D0588F48091670485FD04C03B
:1024B00080ED97E00E94E6081092A5051092A6050F
:1024C0001092A7051092A80504C080E090E00E9439
:1024D000E6082091B805207C2093B80550910006AD
:1024E0009091FF055917D1F1809101068230B1F525
:1024F00020582093B805E0916704F0E0E770F07091
:10250000E250FC4FE081E93010F048E002C04E2F6D
:10251000415030E013C03F5FA32FB0E0892F90E01F
:10252000FC01EA52FA4F2081FD01E854FA4F208362
:10253000AA50BA4F2C930196982F9F71341710F41C
:10254000951749F79093FF05832F895C9091B80503
:10255000892B8093B8053093F6051AC09091010637
:102560009430D1F49091F605E7EFF5E0A9EBB5E0F2
:10257000292F30E02E0F3F1F02C081918D93E2176B
:10258000F307D9F7995C8091B805982B9093B8051B
:1025900083E08093010623C080919C05823029F45A
:1025A00021602093B8055F9A0FC02093B8055F980B
:1025B000992319F481E0809301068091010683300C
:1025C00019F484E080930106F89480916704877081
:1025D00063EA73E049EB55E00E94170A7894469A43
:1025E00080919B050E94420BE0916704F0E0E77048
:1025F000F070E250FC4F88EB95E060810E94CC0DBA
:10260000E0919B05EF5FE0939B05E83131F0F0E04E
:10261000E15CFB4F8785882311F410929B05809124
:102620006704887199F18091B1059091B205880F86
:10263000991F9093B2058093B10583E080933E0487
:102640000E94F80C0E9440296093AD057093AE057E
:102650008093AF059093B0056115710581059105D3
:10266000A9F481E090E0A0E0B0E08093AD05909304
:10267000AE05A093AF05B093B00508C08091B50535
:10268000883009F45F9A89E08093B50580916704EA
:1026900084FF4EC02091B1053091B2052E7FC90153
:1026A0009695879585759575281B390BA9015695C3
:1026B0004795569547954373537323733373420F6E
:1026C000531FCA01A4E096958795AA95E1F7840F58
:1026D000951F8F709F7021E031E08C01029FC00137
:1026E000039F900D129F900D11248091A905409198
:1026F000B3054F3028F0482F46954695405404C006
:102700008DE0489F402D11242091AA059F3020F094
:1027100026952695205404C08DE0989F202D1124E5
:102720008091AB056091AC05009168040E94290F6F
:1027300046980E94B110DF91CF911F910F91FF90A9
:10274000EF90DF90CF90BF90AF90089580913E04BE
:10275000843009F03CCE95CD10925E0585E6E9EF18
:10276000F4E0DF011D928A95E9F70895FF920F9337
:102770001F938C01F62E80E596E00E94672BF801EE
:1027800084818F2584831F910F91FF900895FF927C
:102790000F931F938C01F72E0E94B613C8016F2D63
:1027A0000E94B6131F910F91FF900895BF92CF9290
:1027B000DF92EF92FF920F931F937C01B62E6A0176
:1027C00000E516E0C80165EB0E94672BC80162E6D0
:1027D0000E94672BF7011482C7016B2D0E94B6136C
:1027E000C701B6010E94C7131F910F91FF90EF9090
:1027F000DF90CF90BF9008951F93182F8F3711F05F
:102800008830E1F5E0915E05EE2309F455C0E15012
:10281000E0935E05F0E0E750FB4F108280E596E024
:102820006DE00E94672B10E00AC0E12FF0E0E75056
:10283000FB4F80E596E060810E94672B1F5F8091CF
:102840005E05181790F380E596E060E20E94672B22
:1028500080E596E06DE00E94672B10E00AC0E12F52
:10286000F0E0E750FB4F80E596E060810E94672B27
:102870001F5F80915E05181790F31CC08B3119F40F
:102880000E94AC131FC08D30E9F08A30D9F08091DE
:102890005E05843688F480E596E0612F0E94672B00
:1028A00080915E05E82FF0E0E750FB4F10838F5FCB
:1028B00080935E0580E007C080E596E067E00E94B7
:1028C0008C2EF8CF81E01F9108951F93CF93DF9353
:1028D000CEE4D4E010E03BC080E596E06BE171E02F
:1028E0000E94533080E596E0612F4AE050E00E945C
:1028F000B12F80E596E068E271E00E945330699163
:1029000070E080E090E020914D0430E040E050E045
:102910000E941D3520E137E240E050E00E941D3565
:10292000DC01CB0140914404509145046091460480
:1029300070914704480F591F6A1F7B1F80E596E07E
:102940002AE030E00E946F2F1F5F183119F0888154
:10295000882311F6DF91CF911F910895EF92FF9296
:102960000F931F93882339F480E596E06CE47AE0B6
:102970000E94B42E64C0682F70E06436710518F4AC
:1029800080E090E022C06E3B710548F46A557040CB
:1029900080E090E02AE030E040E050E014C0623D8A
:1029A000710548F4645B704080E090E024E630E01C
:1029B00040E050E008C06D5C704080E090E028E5A9
:1029C00032E040E050E00E941D3524E630E040E077
:1029D00050E00E941D350E944F35122F032FF42E18
:1029E000E52E622F732F842F952F2AE030E040E0F0
:1029F00050E00E944F3580E596E0BA01A9012AE037
:102A000030E00E94602F80E596E06EE20E948C2EFE
:102A1000612F702F8F2D9E2D2AE030E040E050E096
:102A20000E944F35AB01BC0180E596E02AE030E022
:102A30000E94602F80E596E063E70E94C82E1F91F8
:102A40000F91FF90EF9008951F93CF93DF9380E550
:102A500096E062E47AE00E94692E809169048130F8
:102A600041F480E596E069E27AE00E94B42E10E03D
:102A700055C0823029F480E596E062E17AE0F5CF36
:102A80008430A9F780E596E06EEF79E0EECFC12FB4
:102A9000D0E0C930D1051CF0612F685C02C0612F05
:102AA0006F5C80E596E00E948C2E80E596E066EFF4
:102AB00079E00E94692EBE016F5F7F4F80E596E04E
:102AC0004AE050E00E94213080E596E06BEE79E02C
:102AD0000E94692EC759DB4FE981E03188F480E517
:102AE00096E06EED79E00E94692E698170E06F5F7B
:102AF0007F4F80E596E04AE050E00E9434300DC000
:102B0000F0E0E770F070EE0FFF1FE253FC4F6081C2
:102B1000718180E596E00E9456301F5F80918105AB
:102B2000181708F4B4CF80E596E063EC79E00E94D2
:102B3000692E809181040E94AE1480E596E068EAD7
:102B400079E00E94692E809182040E94AE1480E593
:102B500096E06DE879E00E94692E809183040E94DE
:102B6000AE1480E596E062E779E00E94692E40911C
:102B7000790450917A0460917B0470917C04411532
:102B800051056105710539F180E596E02AE030E0F4
:102B90000E946F2F80E596E06FE379E00E94692E36
:102BA00080917D040E947309AB01BC0180E596E031
:102BB0002AE030E00E946F2F80E596E06BE179E03B
:102BC0000E94692E80E596E060917E044AE050E024
:102BD0000E94C32F06C080E596E062E179E00E9482
:102BE000B42E80E596E065EF78E00E94692E609152
:102BF0007F047091800480E596E04AE050E00E94F6
:102C0000942F80E596E068ED78E00E94692E60914F
:102C10007804603150F470E06F5F7F4F80E596E09C
:102C20004AE050E00E94343006C080E596E06FEC48
:102C300078E00E94B42E80E596E062EB78E00E9496
:102C4000692E8091770480FD03C06CE271E002C0C0
:102C500060E371E080E596E00E94563080E596E002
:102C600065E978E00E94692E8091770481FD03C0B8
:102C700064E371E002C06DE371E080E596E00E94DC
:102C8000563080E596E066E778E00E94692E8091F4
:102C9000770482FD03C064E371E002C06DE371E07C
:102CA00080E596E00E94563080E596E067E578E0A2
:102CB0000E94692E8091770483FD03C064E371E074
:102CC00002C06DE371E080E596E00E945630DF912E
:102CD000CF911F9108951F93CF93DF9380E596E0E6
:102CE00066E97BE00E94692E4091440450914504BE
:102CF000609146047091470480E596E02AE030E058
:102D00000E946F2F80E596E060E87BE00E94692ECC
:102D1000409148045091490460914A0470914B04D9
:102D200080E596E020E130E00E946F2F80E596E09C
:102D30006AE67BE00E94692E80E596E060914C0493
:102D40004AE050E00E94C32F80E596E064E57BE016
:102D50000E94692E80E596E060914D044AE050E0C3
:102D60000E94C32F80E596E06EE37BE00E94692E0F
:102D7000CEE4D4E010E012C0112331F080E596E0FB
:102D800065E471E00E94533080E596E069914AE085
:102D900050E00E94B12F1F5F183119F088818823FD
:102DA00059F780E596E00E94942E80E596E068E26F
:102DB0007BE00E94692E80E596E0609166044AE01F
:102DC00050E00E94C32F80E596E063E17BE00E9423
:102DD000692EE0916704F0E0E770F070EE0FFF1FDE
:102DE000E252FC4F6081718180E596E00E9456308E
:102DF00080E596E06EEF7AE00E94692E809167048C
:102E000090E0887190708830910589F08930910543
:102E10001CF4892B39F01BC08031910569F048976B
:102E2000B1F40FC080E596E065EF7AE00EC080E572
:102E300096E069EE7AE009C080E596E063EE7AE01C
:102E400004C080E596E069ED7AE00E94B42E80E54A
:102E500096E065EC7AE00E94692E40914004509122
:102E60004104609142047091430480E596E02AE0B9
:102E700030E00E946F2F80E596E06CEA7AE00E94D5
:102E8000692E8091670485FD03C067E471E002C08C
:102E90006AE471E080E596E00E94563080E596E0B5
:102EA00063E97AE00E94692E8091670486FD03C081
:102EB00067E471E002C06AE471E080E596E00E9498
:102EC000563080E596E06AE77AE00E94692E8091AC
:102ED000670487FD03C067E471E002C06AE471E043
:102EE00080E596E00E94563080E596E06DE57AE058
:102EF0000E94692E8FE394E00E94A109AB01BC01FE
:102F000080E596E02AE030E00E94602F80E596E0C0
:102F100068E57AE00E94692E8FE394E00E94A1099F
:102F20009B01AC0160E472E48FE090E00E944F35B9
:102F300080E596E0BA01A9012AE030E00E94602F06
:102F400080E596E065E57AE00E94B42EDF91CF91AE
:102F50001F9108952F923F924F925F926F927F92AE
:102F60008F929F92AF92BF92CF92DF92EF92FF9299
:102F70000F931F93DF93CF9300D000D00F92CDB764
:102F8000DEB78C839D834B018DB79EB79A8389836F
:102F9000ADB69EB79B830E9432291B012C018DB7D1
:102FA0009EB7881999090FB6F8949EBF0FBE8DBFC2
:102FB0006DB67EB60894611C711CEE24FF24BB2400
:102FC00054C080E596E00E94062B892B09F4B1C01D
:102FD00080E596E00E942D2B282F93E0B916E1F0B2
:102FE0009B1530F081E0B816B9F08B15D0F00EC00B
:102FF00095E0B91609F463C0B916E0F186E0B81699
:1030000059F097E0B91609F094C05FC0233509F074
:103010009CC0BB24B3948DC02A3309F096C0B394EE
:1030200088C0822F80538A30A8F4C70163E0880FDC
:10303000991F6A95E1F7EE0CFF1CE80EF91E80ED72
:103040009FEFE80EF91E822F992787FD9095E80ED5
:10305000F91E6FC0283409F078C0E814F90409F0AB
:1030600074C0EE24FF2443E0B42E00E010E0CC2432
:10307000DD245FC0822F80538A3058F1822F815423
:10308000863098F12C3209F060C0F301EE0DFF1D7F
:1030900000830894E11CF11C8D2D992787FD9095E4
:1030A0008827990F881F9927CC0CDD1CC80ED91EC4
:1030B0001070C026D126E814F904C9F536C02435AD
:1030C00009F043C0B6E0BB2E32C0822F80538A3055
:1030D00040F4A4E0000F111FAA95E1F7005310403F
:1030E0000BC0822F8154863070F4F4E0000F111F62
:1030F000FA95E1F707531040822F992787FD9095A5
:10310000080F191F16C02A33A1F4C016D106E9F41E
:1031100080E596E06EE471E00E9456308C819D81DE
:10312000B301A4010E94A30827C0E5E0BE2E00E081
:1031300010E00E9432296219730984099509605DC3
:1031400077408040904008F43CCF80E596E06DE504
:1031500071E00E9456306AE070E080E090E00E94EA
:10316000662904C080E596E00E942D2B80E596E05C
:103170000E94062B892BB1F78A2D9B819C010FB6EB
:10318000F8943EBF0FBE2DBF89819A810FB6F89487
:103190009EBF0FBE8DBF0F900F900F900F900F909E
:1031A000CF91DF911F910F91FF90EF90DF90CF9023
:1031B000BF90AF909F908F907F906F905F904F9057
:1031C0003F902F900895EF92FF920F931F93CF930C
:1031D000DF93182F092F7B0180E596E060E771E00F
:1031E0000E94533080E596E0B7014AE050E00E942B
:1031F000832FE114F10419F4C0E0D0E044C0812F22
:10320000902F9C01890180E596E064E771E00E94BF
:103210005330C0E0D0E0D801EC91F0E0A4E0F595A7
:10322000E795AA95E1F7E251FC4F80E596E06081D1
:103230000E948C2ED801EC91F0E0EF70F070E2511A
:10324000FC4F80E596E060810E948C2E80E596E040
:103250006CE20E948C2E8D2F992787FD90958827F0
:10326000990F881F9927CC0FDD1FC80FD91FF801B0
:1032700081918F0190E0C827D9270894E108F108CF
:10328000E114F10441F680E596E067E771E00E9401
:10329000533080E596E0BE0140E150E00E94832F6C
:1032A00080E596E06AE771E00E945630DF91CF91A9
:1032B0001F910F91FF90EF900895EF92FF920F935F
:1032C0001F938C0180E5E82E86E0F82EC701612F60
:1032D00070E04AE050E00E94832FC7016EE20E9436
:1032E0008C2EB4E016950795BA95E1F70F70107023
:1032F000C701B8014AE050E00E94832F1F910F914F
:10330000FF90EF9008950F931F93CF93DF93209139
:10331000F8042F3FA9F580E596E067ED75E00E947F
:10332000692E80E593E00E945D1980E596E066EBEA
:1033300075E00E94692E80918205909183050E941C
:103340005D1980E596E063E875E00E94B42E80E5A3
:1033500096E060E675E00E94B42E80E596E068E4B1
:1033600075E00E94B42E80E596E063E275E00E946D
:10337000B42E80E596E00E94942E0E94241569C028
:1033800012160CF066C0332727FD30958091810519
:1033900090E0821793070CF45CC080E596E06EE045
:1033A00075E00E94692E6091F804772767FD70959B
:1033B00080E596E04AE050E00E94343080E596E0F7
:1033C00063EE74E00E94692E04E110E03AC0C12F60
:1033D000D0E0CC0FDD1FC05ADA4F288130E0809159
:1033E000F804992787FD909501972817390741F52B
:1033F00080E596E06CE771E00E94533080E596E04E
:10340000602F4AE050E00E94B12F80E596E060E82E
:1034100071E00E945330E981F0E0E770F070EE0F48
:10342000FF1FE253FC4F6081718180E596E00E94AE
:10343000533080E596E064E871E00E9453300F5FFE
:103440001F5F80918005181710F280E596E00E94BA
:10345000942EDF91CF911F910F910895CF92DF921B
:10346000EF92FF920F931F93DF93CF93CDB7DEB709
:103470006C970FB6F894DEBF0FBECDBF282F80919A
:10348000F8048F3F09F052C1822F992787FD90954C
:10349000A92FB92FFC013A97EF36F10508F03FC18B
:1034A000EA5AFF4FEE0FFF1F0590F491E02D0994AB
:1034B00089E694E06BE170E00E94E31830C189E690
:1034C00094E06BE170E00E94AA1722C180E596E0CB
:1034D00066E871E00E94563085E78983DE01129626
:1034E000E9E6F4E08BE101900D928150E1F7CE0125
:1034F00001966CE10E94CC0D0E94F80C83E0809351
:103500003E0468EC70E080E090E00E9466298091C3
:103510003E04843009F003C18FE70E94070B0E942C
:103520001B0B8983853509F0FAC080E596E065ECD0
:1035300074E00E94B42E80E596E067EA74E00E9491
:10354000B42E80E596E069E874E0B2C080E596E0CC
:103550006EE971E00E94563089E68983CE010196BA
:1035600061E00E94CC0D0E94F80C83E080933E0441
:1035700068EC70E080E090E00E94662980913E0453
:10358000843009F0CCC08FE70E94070B0E941B0B10
:1035900089838E010E5F1F4FBDE1EB2EF12CEC0EE7
:1035A000FD1E0E941B0BD8018D938D01AE15BF052A
:1035B000C1F7A9E6B4E0FE0132968BE101900D92CD
:1035C0008150E1F78981893409F0A9C080E596E04E
:1035D0006BE674E00E94B42E80E596E06DE474E042
:1035E0000E94B42E80E596E06FE274E061C080E551
:1035F00096E068EB71E00E9456308EEF8093F804FD
:103600008EC020522750422F4053242F332727FDAE
:1036100030958091810590E0821793073CF480E516
:1036200096E067EC71E00E94563079C04093F80450
:103630006FC084E18093F80480E596E068EF73E062
:1036400037C085E18093F80480E596E061EC73E093
:103650002FC086E18093F80480E596E06AE873E085
:1036600027C087E18093F80480E596E060E473E08A
:103670001FC088E18093F80480E596E06FE273E074
:1036800017C089E18093F80480E596E06BE173E070
:103690000FC08AE18093F80480E596E066E073E06D
:1036A00007C08BE18093F80480E596E06EED72E050
:1036B0000E94B42E34C080E596E064EC72E00E9473
:1036C000B42E8091770491E01DC080E596E06EEA0B
:1036D00072E00E94B42E8091770492E013C080E5DE
:1036E00096E069E972E00E94B42E8091770494E03C
:1036F00009C080E596E06EE772E00E94B42E8091EA
:10370000770498E08927809377048FEF8093F804FB
:103710000E94831904C080E596E00E942D2B80E56D
:1037200096E00E94062B892BB1F776C1822F0E946A
:10373000FC13882309F470C180915E05882321F46D
:103740008FEF8093F80460C189EF94E060E070E04F
:1037500040E050E00E9482079B01AC019091F80488
:10376000963109F47CC0973164F4943109F463C054
:1037700095310CF06AC0892F81508D3008F034C12A
:1037800013C0993109F4E5C09A313CF4973109F43A
:1037900070C0983109F028C1D2C09A3109F4E7C04D
:1037A0009B3109F021C1F4C0E92FFF27E7FDF09517
:1037B0008091810590E08E179F070CF415C1DA0106
:1037C000C9010197A109B1094097A105B10548F0C8
:1037D000A4E1FA2E00E010E06F010894C108D108BE
:1037E00025C0E759FB4F822F81508083E5C0612FB0
:1037F00070E0660F771F605A7A4FFB01808190E07E
:103800008C159D0591F48F2D90E0A0E0B0E082171B
:103810009307A407B50741F4F601E759FB4FDB0115
:1038200011968C91818301E0F3941F5F8091800554
:103830001817E8F2BFC02F3F31054105510511F0BF
:1038400008F0D2C020938104B7C02F3F3105410555
:10385000510511F008F0C8C020938204ADC02F3F7D
:1038600031054105510511F008F0BEC020938304D5
:10387000A3C08091F9048062803719F58AEF94E043
:1038800060E070E040E050E00E9482079B01AC01E4
:10389000DC01CB010197A109B1090897A105B10588
:1038A00008F0B5C0CA01B90124ED30E340E050E0B2
:1038B0000E941D359B01AC012A5E3C4A4A46554E8A
:1038C00024C0863611F58AEF94E060E070E040E0B5
:1038D00050E00E9482079B01AC01DC01CB01019703
:1038E000A109B1090797A105B10508F090C0CA0167
:1038F000B90128EA31E640E050E00E941D359B0105
:10390000AC01245E3C434E46544E21153105410521
:10391000510561F0DA01C9018054914EAD49B841B9
:103920008158904FAA4FB24008F05EC020937904AE
:1039300030937A0440937B0450937C043DC02F3F26
:1039400031054105510511F008F04EC020937D046A
:1039500033C0DA01C9010197A109B1098F3F91056F
:10396000A105B10508F040C020937E0425C0DA010E
:10397000C901845C9940A040B0408D549D41A04055
:10398000B04030F43093800420937F0401E001C004
:1039900000E0211531054105510511F48FEF07C0F5
:1039A000213131054105510528F4822F8150809342
:1039B000780402C00023C1F080915F058823D1F410
:1039C0008091480490914904A0914A04B0914B041D
:1039D0000196A11DB11D8093480490934904A093C2
:1039E0004A04B0934B0406C080E596E069ED71E0AF
:1039F0000E9456300E94AC138FEF8093F80480E54C
:103A000096E06AE00E94C82E0E94831905C021E05A
:103A100030E040E050E07ECF6C960FB6F894DEBF09
:103A20000FBECDBFCF91DF911F910F91FF90EF900F
:103A3000DF90CF90089580E596E062E372E00E9407
:103A4000B42E80E596E06AE172E00E94B42E80E533
:103A500096E00E94062B892B31F080E596E00E94CB
:103A60002D2B0E942E1A0E94980F823019F083305D
:103A700069F405C080E596E06CEF71E004C080E574
:103A800096E065EE71E00E94B42E08958FEF80936A
:103A9000F80410925F050E9483190CC080E596E03F
:103AA0000E94062B892B31F080E596E00E942D2B99
:103AB0000E942E1A8091F8048E3F81F7089580911C
:103AC000F804843009F46FC0853084F4813009F43F
:103AD0005BC0823024F48F3F09F085C014C082306F
:103AE00009F457C0833009F07EC058C0863009F40D
:103AF00064C086300CF45CC0873009F463C0893040
:103B000009F071C06AC080E596E06AE478E00E943E
:103B1000B42E80E593E00E945D1980E596E062E3B3
:103B200078E00E94B42E80E596E06DE078E00E9497
:103B3000B42E80E596E063EE77E00E94B42E80E537
:103B400096E062EC77E00E94B42E80E596E065E9AD
:103B500077E00E94B42E80E596E06FE677E00E9461
:103B6000B42E80E596E06BE477E00E94B42E80E509
:103B700096E064E277E00E94B42E80E596E00E9431
:103B8000942E0E946B162FC080E596E067E077E0E8
:103B900028C080E596E062EE76E023C080E596E0FE
:103BA0006DEC76E01EC080E596E06EEA76E019C026
:103BB00080E596E06AE676E014C080E596E065E58B
:103BC00076E00FC080E596E060E476E00E94B42ED7
:103BD00080E596E06AEF75E004C080E596E064EE6B
:103BE00075E00E94B42E6AE070E080E090E00E94F0
:103BF000662904C080E596E00E942D2B80E596E0C2
:103C00000E94062B892BB1F708952F923F924F9275
:103C10005F926F927F928F929F92AF92BF92CF925C
:103C2000DF92EF92FF920F93DF93CF93CDB7DEB782
:103C3000A8970FB6F894DEBF0FBECDBF7E010894E3
:103C4000E11CF11C80E1D7011D928A95E9F75F988C
:103C5000469880E596E067EF71E00E9456300E943A
:103C60005D1024EF31E040E050E0298F3A8F4B8F18
:103C70005C8F80E593ECA0E0B0E08D8B9E8BAF8BEA
:103C8000B88F20E4422E21EE522E2DE9622E28E13B
:103C9000722E88249924540100E049A25AA26BA2F2
:103CA0007CA220EC31ED48E95BE12D8F3E8F4F8FF8
:103CB00058A322243324198A1A8A1B8A1C8AFEC01C
:103CC00080E596E00E942D2B8C32D9F1843421F0CE
:103CD000833209F0C1C024C080E596E064E40E940C
:103CE0008C2E80E596E040E451EE6DE978E12AE023
:103CF00030E00E94E12F80E596E06CE20E948C2E7D
:103D000080E596E040EC51ED68E97BE12AE030E0A7
:103D10000E94E12F80E596E06CE20E94C82ECEC0A2
:103D200019821A821B821C821D821E821F821886A3
:103D300019861A861B861C861D861E861F86188A73
:103D40003EC00F5F043009F0B9C069817A818B8170
:103D50009C8128EE33E040E050E00E941D3569A3CD
:103D60007AA38BA39CA36D817E818F8198850E940D
:103D70001D356D8F7E8F8F8F98A389859A85AB8532
:103D8000BC85898F9A8FAB8FBC8F6D857E858F8523
:103D900098890E941D356D8B7E8B8F8B988F60521A
:103DA0007E448040904068F48CE162E30E94370BCF
:103DB00049A05AA06BA07CA088249924540100E05B
:103DC0007DC02D893E894F89588D2053354740400D
:103DD000504018F48CE162E2E9CF2D893E894F8989
:103DE000588D20543C494040504018F48CE166E224
:103DF000DDCF2D893E894F89588D2055334C404069
:103E0000504018F48CE162E1D1CF2D893E894F8971
:103E1000588D20563A4E4040504018F48CE165E1F0
:103E2000C5CF2D893E894F89588D2057314141405A
:103E3000504018F48CE161E0B9CF2D893E894F895B
:103E4000588D205A36484140504018F48CE163E0C8
:103E5000ADCF8CE165E0AACF80538A3078F5C02ED3
:103E6000DD24CC0CDD1CCC0CDD1CA1E0B0E0AC0FE3
:103E7000BD1FCA0EDB1E282F332727FD3095432F89
:103E8000532F2DA33EA34FA358A7D6016D917D912B
:103E90008D919C912AE030E040E050E00E941D3579
:103EA0002DA13EA14FA158A5260F371F481F591F0E
:103EB000D6012D933D934D935C93139780E596E047
:103EC0000E94062B892B09F0FBCE81149104A104DA
:103ED000B10489F4C301B2010E94AD0B61E070E04E
:103EE00080E090E00E94662922242A943324198AD3
:103EF0001A8A1B8A1C8A298D3A8D4B8D5C8D8216FD
:103F00009306A406B506D0F40E94580B29893A8975
:103F10004B895C89280F311D411D511D298B3A8B1E
:103F20004B8B5C8B381608F4382E821508F4282E3B
:103F30000894811C911CA11CB11C5AC0C301B20180
:103F400028EE33E040E050E00E944F3580E596E0F7
:103F5000BA01A9012AE030E00E94602F80E596E0D6
:103F60006CE20E948C2E80E596E0632D4AE050E0E2
:103F70000E94B12F80E596E06CE20E948C2E698948
:103F80007A898B899C89A50194010E944F3580E52F
:103F900096E0BA01A9012AE030E00E94602F80E596
:103FA00096E06CE20E948C2E80E596E0622D4AE05D
:103FB00050E00E94B12F80E596E06CE20E94C82E8E
:103FC0008D899E89AF89B88D480E591E6A1E7B1E49
:103FD0002D8D3E8D4F8D58A124153505460557056D
:103FE00020F449A05AA06BA07CA0882499245401F5
:103FF00089A19AA1ABA1BCA1885E9340A040B0402A
:1040000009F05CCFA8960FB6F894DEBF0FBECDBF07
:10401000CF91DF910F91FF90EF90DF90CF90BF9005
:10402000AF909F908F907F906F905F904F903F9058
:104030002F900895DF92EF92FF920F931F93CF93EB
:10404000DF930E944029DC01CB010E94D233109201
:1040500048041092490410924A0410924B04DD2443
:10406000E0904804F090490400914A0410914B04F8
:10407000102F0F2DFE2CEE246FEF70E080E090E00B
:104080000E94B033E60EF71E081F191FE092480485
:10409000F092490400934A0410934B04D39484E0B3
:1040A000D816F1F6CEE4D4E010E015C062E370E07B
:1040B00080E090E00E94B0336F5FEEE4F4E090E0C7
:1040C00004C08191861791F39F5F9117D0F3699394
:1040D0001F5F183119F08881882341F7DF91CF9154
:1040E0001F910F91FF90EF90DF900895EF92FF9254
:1040F0000F931F93CF93DF9380E090E0A0E0B0E0B8
:10410000C0E0D0E0EE24F82E092F1A2F6091680449
:1041100070E06C5F7F4F56E0660F771F5A95E1F7AE
:104120006C0F7D1F82E096E00E94D728A8019701BE
:10413000280F311D411D511DDA01C9012196C430DE
:10414000D10501F78E519E4BA14CBE4D19F020E0D8
:1041500030E022C0C0E0D0E06091680470E046E04A
:10416000660F771F4A95E1F76C5F7E4F6C0F7D1FDE
:1041700082E096E00E94D728FE01E15CFB4F80833D
:104180002196C932D10541F720E030E080913F040B
:10419000893011F421E030E0C901DF91CF911F9106
:1041A0000F91FF90EF9008950F931F93CF93DF939C
:1041B000EC01062F15E0115071F082E096E0BE018F
:1041C0000E94D728081751F082E096E0BE01402FE8
:1041D0000E94DE28F0CF82E00E947510DF91CF911F
:1041E0001F910F910895CF92DF92EF92FF920F935C
:1041F0001F93CF93DF93C0E0D0E008E110E0FEE131
:10420000CF2EFEEBDF2EF1ECEF2EFEEDFF2E809198
:10421000680490E00496E6E0880F991FEA95E1F7BC
:10422000A7019601002E04C056954795379527950E
:104230000A94D2F78C0F9D1F622F0E94D4202196E2
:1042400008501040C430D10511F7C0E0D0E0809193
:10425000680490E076E0880F991F7A95E1F78C5F0B
:104260009E4FFE01E15CFB4F8C0F9D1F60810E9401
:10427000D4202196C932D10551F7DF91CF911F91FA
:104280000F91FF90EF90DF90CF9008951F931091C2
:10429000F8041F3F09F0CCC0863409F48BC0873482
:1042A0005CF58833B4F481330CF087C08B3109F4AA
:1042B00065C08C313CF48A3009F49AC18D3009F024
:1042C0009FC196C1813209F444C0803309F098C17E
:1042D00086C0803409F444C081343CF4883309F446
:1042E0006EC0893309F08CC178C0813409F486C06E
:1042F000823409F085C18DC0823609F48AC08336C4
:10430000ACF48335A1F184353CF4893409F442C01E
:10431000823509F075C145C08A3509F486C08136F9
:1043200009F46CC0883509F06BC128C08237C9F127
:10433000833734F48636F1F1893609F061C12AC039
:104340008837E1F08A3709F470C0833709F058C123
:104350000EC08FE394E069E270E00E94E31850C160
:104360008FE394E069E270E00E94AA1741C10E94C5
:10437000F32080E596E064E072E006C00E947620BB
:1043800080E596E06EE172E00E9456308EEF8093F9
:10439000F80436C10E942E0980E596E06DE372E0D4
:1043A00006C00E941A2080E596E066E572E00E9451
:1043B00056301EC10E94651423C1805343C080E55E
:1043C00096E062ED71E00E94B42E90916704892F0F
:1043D000885F8871977E892B0CC089E033C080E5A7
:1043E00096E06FEB71E00E94B42E8091670490E23A
:1043F0008927809367041093F804FAC080E596E05B
:1044000069EA71E00E94B42E8091670490E48927E4
:1044100009C080E596E068E971E00E94B42E8091C1
:1044200067048058809367040CC00E941B1D09C05C
:104430000E94FC13882309F4E3C080915E05882361
:1044400021F48FEF8093F804D3C089EF94E060E00B
:1044500070E040E050E00E9482079B01AC01809137
:10446000F804843009F441C0853044F4823041F1CD
:10447000833094F5813009F097C00DC0863009F47F
:1044800067C086300CF43EC0873009F469C08930BB
:1044900009F08AC075C0DA01C9018154914EAD4955
:1044A000B8418F57904FAA4FB24008F07DC020937B
:1044B00044043093450440934604509347049BC002
:1044C000209348043093490440934A0450934B048A
:1044D00081E080935F058FC028303105410551058B
:1044E00008F062C020934C0486C0DA01C90101972C
:1044F000A109B1090A97A105B10508F055C020939B
:104500004D0479C089EF94E065E471E00E949E0853
:1045100010E00EC0183130F4E12FF0E0E15CFB4F09
:1045200087871F5F80E090E065E471E00E949E084D
:10453000009759F00E948008009761F706C0E12FAC
:10454000F0E0E15CFB4F17861F5F1831C0F353C0EA
:10455000253031054105510538F5209366044BC0DF
:10456000DA01C9010197A109B1090697A105B105B1
:10457000D8F480916704887F822B809367043BC0C6
:10458000DA01C901805B9440A040B04081559D4B49
:10459000A140B04048F4209340043093410440933C
:1045A00042045093430427C080E596E069ED71E032
:1045B0000E94563013C08091480490914904A09104
:1045C0004A04B0914B040196A11DB11D809348048B
:1045D00090934904A0934A04B0934B040E94AC13F7
:1045E0008FEF8093F80480E596E06AE00E94C82E81
:1045F0000E945F1D05C080915F058823E1F2EECF28
:104600001F9108958FEF8093F80410925F050E9428
:104610005F1D0CC080E596E00E94062B892B31F0CF
:1046200080E596E00E942D2B0E9446218091F8049F
:104630008E3F81F76AE070E080E090E00E9466299A
:1046400004C080E596E00E942D2B80E596E00E9454
:10465000062B892BB1F7089580E490E060916804FF
:104660000E94D420089582E096E060E470E00E9409
:10467000D72880936804843020F0109268040E9448
:104680002C2308951F93182F0E94332380916804D0
:10469000811731F0143020F4109368040E942C2309
:1046A0001F910895CF92DF92EF92FF920F931F9385
:1046B000DF93CF93CDB7DEB7E8970FB6F894DEBFA0
:1046C0000FBECDBF7C01FC018281883009F4ABC0F4
:1046D0008930A8F4843009F45FC0853048F4823012
:1046E000E9F1833008F04DC0813009F080C123C06A
:1046F000863009F482C0873008F08BC060C08836ED
:1047000009F4D4C0893650F4863609F4AFC0873630
:1047100008F0C5C0853609F06AC18FC08A3609F431
:10472000FEC08A3608F4F2C08B3609F438C1873CE3
:1047300009F05DC149C1C70161E049E250E00E9452
:10474000D6130FE314E0C701F80161918F010E94B5
:10475000B613F4E008361F07B1F753C1C70162E092
:104760004BE150E00E94D61309E614E0C701F801BE
:1047700061918F010E94B613F4E004381F07B1F76E
:1047800040C1C70163E041E050E00E94D6130E949F
:10479000980F682FC70133C1C70164E041E050E0C2
:1047A0000E94D613C70161E00E94B61380E596E02F
:1047B000F70164810E94672B0E94051E28C1409169
:1047C000800550E0440F551FC70165E00E94D613D5
:1047D00000E010E009C0F801E05AFA4FC70160811B
:1047E0000E94B6130F5F1F4F8091800590E0880FE5
:1047F000991F0817190778F304C1C70166E042E062
:1048000050E00E94D613C70160E573E00E94C71311
:10481000F8C0C70167E041E050E00E94D613C7012D
:1048200060918105ECC0C70168E041E050E00E9462
:10483000D613C70160916804E2C0C70165E641E094
:1048400050E00E94D613F70187819085899709F07F
:10485000D4C0D701EFE3F4E019968C9119978193B6
:10486000119684E0E836F807B9F7ABC0C70166E6F1
:1048700041E050E00E94D613F701878190854B9765
:1048800009F0BBC0D701E9E6F4E019968C911997BD
:104890008193119684E0E438F807B9F792C0C70114
:1048A00067E641E050E00E94D61389C0C70168E680
:1048B00041E050E00E94D61385E78983DE0112961D
:1048C000E9E6F4E08BE101900D928150E1F7CE0131
:1048D00001966CE10E94CC0D0E94F80C83E080935D
:1048E0003E0468EC70E080E090E00E9466298091D0
:1048F0003E04843009F081C08FE70E94070B0E94BC
:104900001B0B8983853509F078C05BC0C70169E658
:1049100041E050E00E94D6130E942E0952C0C70108
:104920006AE641E050E00E94D61389E68D8FCE0101
:104930004D9661E00E94CC0D0E94F80C83E08093BC
:104940003E0468EC70E080E090E00E94662980916F
:104950003E04843009F051C08FE70E94070B0E948B
:104960001B0B8D8F8E01025E1F4FA9E3CA2ED12C27
:10497000CC0EDD1E0E941B0BF80181938F01EC15FC
:10498000FD05C1F7A9E6B4E0FE017E968BE101903A
:104990000D928150E1F78D8D893479F512C0C701F0
:1049A0006BE641E050E00E94D613F70181850E943A
:1049B00042230E947620892B21F40E942E090E9416
:1049C000F320C70161E01BC0C70167EC41E050E084
:1049D0000E94D613C70161E00E94B61380E596E0FD
:1049E000F70164810E94672B10928A0410C0C701EE
:1049F0006AEC41E050E00E94D613C70160E00E94DB
:104A0000B61380E596E0F70164810E94672BE89673
:104A10000FB6F894DEBF0FBECDBFCF91DF911F91CF
:104A20000F91FF90EF90DF90CF9008956F927F925B
:104A30008F929F92AF92BF92CF92DF92EF92FF92AE
:104A40000F931F93CF93DF9381E080938A0460E9F3
:104A5000E62E64E0F62E54E0C52ED12CCE0CDF1CE1
:104A600044E6642E34E0732E26E0922E95E0892EE3
:104A700082E0A82E03E0B02EB8C080E596E00E9448
:104A8000062B892B09F4B1C0A9C080E596E00E94ED
:104A90002D2B982F80938B0480918C04833021F1EF
:104AA000843028F4813099F08230B8F409C0853020
:104AB00009F450C0853020F1863009F08FC067C0FE
:104AC000953B09F08BC081E080938C0487C09236BF
:104AD00009F082C0A0928C0481C090938D049093C1
:104AE0008E04B0928C047AC090939004F7011182E6
:104AF00080918E04892780938E0470928C046EC0FE
:104B0000D92FC0E020919004309191042C2B3D2BA3
:104B1000309391042093900480918E048927809390
:104B20008E0480928C042536310508F457C08BE83A
:104B300094E06CEC41E050E00E94D6138BE894E0E6
:104B400061E00E94B61380E596E060918F040E94B8
:104B5000672B42C02091920430919304F901E557EC
:104B6000FB4F918780918E04892780938E042F5F5D
:104B70003F4F30939304209392048091900490913E
:104B800091042817390750F190928C0427C00091A6
:104B90008E04091729F48BE894E00E94522313C075
:104BA00010918D048BE894E06BEC42E050E00E94A1
:104BB000D6138BE894E0612F0E94B6138BE894E043
:104BC000602F0E94B613F601862D11928A95E9F79F
:104BD000109293041092920410928C0480E596E057
:104BE0000E94062B892B09F050CF80918A048130D6
:104BF00009F443CFDF91CF911F910F91FF90EF9078
:104C0000DF90CF90BF90AF909F908F907F906F90EC
:104C100008957F928F929F92AF92BF92CF92DF9230
:104C2000EF92FF920F931F93DF93CF93CDB7DEB731
:104C3000AA970FB6F894DEBF0FBECDBF0E943229EF
:104C40006B017C0181E00E94190C04C080E596E0B4
:104C50000E942D2B80E596E00E94062B892BB1F750
:104C600011E0E2E67E2E72E0872E912C8C0E9D1EC6
:104C70005E010894A11CB11C03E00E94322920E0CF
:104C800030E06C197D098E099F09693C7105810529
:104C9000910510F021E030E0812F90E028233923A6
:104CA000232BA9F10E9432296B017C01469A80EDE9
:104CB00097E00E94E6087982D401EFE3F4E089E20C
:104CC00001900D928150E1F7C5016AE20E94CC0D7E
:104CD000469880E090E00E94E60800933E040E941F
:104CE000F80C62E370E080E090E00E946629809119
:104CF0003E04843059F400933E048FE70E94070B72
:104D00000E941B0B823411F410E001C011E082E11B
:104D10000E94D52A892B21F511E022C080E596E07A
:104D20000E942D2B8D30910569F08E3091051CF479
:104D30000A97B1F407C08332910569F08234910576
:104D400079F40CC080E596E06AE871E00E94B42E28
:104D50000E94022305C00E94051E02C00E94162563
:104D600080E596E00E94062B892B09F486CFD6CFEA
:104D700080E596E00E94062B04970CF180E596E012
:104D80000E942D2B82349105D1F480E596E00E949B
:104D90002D2B8E34910599F480E596E00E942D2B01
:104DA0008434910561F480E596E00E942D2B819773
:104DB00031F480E090E00E94E6080E940926089500
:104DC0008F929F92AF92BF92CF92DF92EF92FF921B
:104DD0000F931F9382E10E94D52A892B09F0B2C05C
:104DE00068EC70E080E090E00E94662980E090E04E
:104DF0000E94E6080E9432295B016C01F0ECEF2E64
:104E0000F2E1FF2E012D112DE60EF71E081F191FCE
:104E100006C082E10E94D52A892B09F08BC00E942E
:104E200032296E157F058007910798F382E10E9471
:104E3000D52A892B09F07EC080ED97E00E94E60814
:104E40000E9432297B018C0199249394882488E460
:104E500096E2A0E0B0E0A80EB91ECA1EDB1E29C073
:104E6000AE14BF04C006D10638F480ED97E00E946E
:104E7000E608882483941DC00E9432296E197F0998
:104E8000800B910B693C71058105910590F00E94A2
:104E900032297B018C0180E0992009F481E0982E71
:104EA000882319F480E090E002C080ED97E00E9432
:104EB000E60882E10E94D52A892B91F280E090E0F9
:104EC0000E94E608882051F1809168048F5F83700A
:104ED0000E94422380E596E063E772E00E9453302F
:104EE00080E596E0609168044AE050E00E94C32F9C
:104EF0000E947620892B39F080E596E060E872E028
:104F00000E9456301FC080E596E06DE972E00E9475
:104F100053300E942E090E94F32014C00E944029A1
:104F2000DC01CB010E94D2330E941A200E94F320A0
:104F30000E946B1680E596E06FEB72E00E9456309F
:104F40000E9409261F910F91FF90EF90DF90CF9064
:104F5000BF90AF909F908F900895EF92FF920F9324
:104F60001F930E94800F86E061E00E94152A85E071
:104F700061E00E94152A82E160E00E94152A84E027
:104F800060E00E94152A84E061E00E94A22A0E944B
:104F90008C0F80E596E060E072EC0E94052B0E9489
:104FA00033230E947620892B39F080E596E060E873
:104FB00072E00E9456300AC080E596E06DE972E02A
:104FC0000E9453300E942E090E94F32083E08093B8
:104FD00080008AE9809381008091670486FD05C086
:104FE000809181008064809381008FEF9FEF909388
:104FF00089008093880080916F00806280936F00A9
:105000008FEF8093B50580916B00806880936B0073
:105010008091680081608093680078940E943229B2
:105020007B018C018091B5058F3F09F0B1C00E94D2
:1050300032296E197F09800B910B605D77408040AB
:10504000904008F0A5C0EECF80E596E00E942D2BA1
:1050500080E596E00E94062B892BB1F780E596E06B
:1050600066ED72E00E94533080E593E00E945D1986
:1050700080E596E06DEE72E00E94533080E596E0A8
:1050800066E070E04AE050E00E94343068EC70E086
:1050900080E090E00E9466290E94B826409140047A
:1050A00050914104609142047091430486EE96E071
:1050B0000E94A52C0E94E0265F9880E090E00E946C
:1050C000E60883E0809380008AE9809381008091E4
:1050D000670486FD05C08091810080648093810013
:1050E0008FEF9FEF909389008093880080916F00ED
:1050F000806280936F0080E00E94190C80919B0574
:105100000E94420B0E94F80C1092FF0510920006BC
:10511000109201066CE271E080E090E00E94662946
:1051200080ED97E00E94E60864E670E080E090E0A1
:105130000E94662980E090E00E94E60810E015C019
:1051400064E670E080E090E00E94662980ED97E0E0
:105150000E94E60864E670E080E090E00E94662924
:1051600080E090E00E94E6081F5F809168041817B5
:1051700038F38091670490E084FF14C020E08871C8
:105180009070489709F421E0822F0E9492100AC083
:1051900080ED97E00E94E60882E161E00E94A22A89
:1051A0005F9A56CF1F910F91FF90EF900895F99954
:1051B000FECF72BD61BDF89A80B50895F999FECF12
:1051C0001FBA72BD61BD40BD0FB6F894FA9AF99A44
:1051D0000FBE08951F920F920FB60F9211242F93B6
:1051E0003F938F939F93AF93BF93809107069091C6
:1051F0000806A0910906B0910A0630910B060196A7
:10520000A11DB11D232F2D5F2D3720F02D570196A5
:10521000A11DB11D20930B068093070690930806ED
:10522000A0930906B0930A068091030690910406A4
:10523000A0910506B09106060196A11DB11D8093AF
:10524000030690930406A0930506B0930606BF914B
:10525000AF919F918F913F912F910F900FBE0F9023
:105260001F9018958FB7F894209107063091080683
:105270004091090650910A068FBFB901CA010895ED
:105280009FB7F894209103063091040640910506DB
:105290005091060686B5A89B06C08F3F21F02F5F70
:1052A0003F4F4F4F5F4F9FBF542F432F322F222727
:1052B000280F311D411D511D82E0220F331F441F55
:1052C000551F8A95D1F7B901CA0108959B01AC0118
:1052D0007FB7F8948091030690910406A09105068B
:1052E000B091060666B5A89B05C06F3F19F0019600
:1052F000A11DB11D7FBFBA2FA92F982F8827860F18
:10530000911DA11DB11D62E0880F991FAA1FBB1F2F
:105310006A95D1F7BC012DC0FFB7F89480910306C0
:1053200090910406A0910506B0910606E6B5A89BEB
:1053300005C0EF3F19F00196A11DB11DFFBFBA2FA7
:10534000A92F982F88278E0F911DA11DB11DE2E076
:10535000880F991FAA1FBB1FEA95D1F7861B970BD1
:10536000885E9340C8F22150304040405040685120
:105370007C4F211531054105510571F6089578944A
:1053800084B5826084BD84B5816084BD85B582604A
:1053900085BD85B5816085BDEEE6F0E080818160E8
:1053A0008083E1E8F0E010828081826080838081E8
:1053B00081608083E0E8F0E0808181608083E1E9C2
:1053C000F0E0808182608083808181608083E0E979
:1053D000F0E0808181608083E1ECF0E08081846096
:1053E0008083808182608083808181608083E3EC20
:1053F000F0E0808181608083E0ECF0E08081826079
:105400008083E2ECF0E0808181608083EAE7F0E075
:1054100080818460808380818260808380818160DC
:1054200080838081806880830895CF93DF93482FA5
:1054300050E0CA018C50944FFC0134914A52544FB1
:10544000FA018491882369F190E0880F991FFC018B
:10545000E455F44FA591B491FC01E654F44FC59185
:10546000D491662351F42FB7F8948C91932F909593
:1054700089238C93888189230BC0623061F42FB714
:10548000F8948C91932F909589238C938881832B0A
:1054900088832FBF06C09FB7F8948C91832B8C9381
:1054A0009FBFDF91CF910895883071F1893068F402
:1054B000823031F1833020F4813009F042C01DC0C8
:1054C000833089F08430E9F512C08B3059F18C308B
:1054D00028F48930E9F08A30A1F51EC08C3031F112
:1054E0008E3079F529C0809180008F7703C080913C
:1054F00080008F7D80938000089584B58F7702C0EF
:1055000084B58F7D84BD0895809190008F7707C00A
:10551000809190008F7D03C080919000877F809361
:10552000900008958091C0008F7703C08091C000E3
:105530008F7D8093C00008958091C200877F809303
:10554000C2000895FF920F931F93F62E482F50E04C
:10555000CA018E5E934FFC012491CA018C50944F76
:10556000FC0114914A52544FFA0104910023C9F0EE
:10557000222319F0822F0E94542AE02FF0E0EE0F30
:10558000FF1FE654F44FA591B4919FB7F894FF2004
:1055900021F48C911095812302C08C91812B8C93E6
:1055A0009FBF1F910F91FF9008950F931F93482F56
:1055B00050E0CA018E5E934FFC012491CA018C50C9
:1055C000944FFC0104914A52544FFA011491112353
:1055D00019F420E030E015C0222319F0822F0E9438
:1055E000542A812F90E0880F991F8853944FFC0113
:1055F000A591B4918C9120E030E0802311F021E05E
:1056000030E0C9011F910F910895089520914C0633
:1056100030914D0680914E0690914F06281B390B14
:105620002F733070C901089520914C0630914D06BA
:1056300080914E0690914F062817390719F42FEFE5
:105640003FEF09C0E0914E06F0914F06E45FF94F3D
:105650008081282F30E0C901089520914C063091B7
:105660004D0680914E0690914F062817390719F480
:105670002FEF3FEF13C0E0914E06F0914F06E45F2D
:10568000F94F208180914E0690914F0601968F73BD
:10569000907090934F0680934E0630E0C9010895B4
:1056A000109253061092520688EE93E0A0E0B0E00C
:1056B0008093540690935506A0935606B0935706D0
:1056C00080E194E0909351068093500608950F93E3
:1056D0001F93DF93CF930F92CDB7DEB78C01698311
:1056E0008091CB03882369F083E0BE016F5F7F4F19
:1056F00041E050E00E943B311816190614F49C0159
:1057000007C081E090E0F8019383828320E030E0DD
:10571000C9010F90CF91DF911F910F91089583E000
:105720000E9412310895CF93DF9312C082E00E944D
:105730009D302FEF8F3F9207C9F0E0914C06F0911A
:105740004D06E45FF94F8083D0934D06C0934C061D
:10575000C0914C06D0914D062196CF73D0708091A8
:105760004E0690914F06C817D90701F7DF91CF91E8
:105770000895FC0180818E5F808380E86CE37CE08B
:1057800042E450E00E94B6300895FC01818190818E
:10579000913A59F4813209F04CC080E064EC73E036
:1057A00047E050E00E94B63042C0913209F041C05B
:1057B000803239F484EC93E067E070E00E94FA30C4
:1057C00036C0823209F035C082818093CB0380914C
:1057D000C4039091C503A091C603B091C703805B39
:1057E0009440A040B04019F58091CB0380FD12C0D9
:1057F00087E797E790930108809300082BE088E102
:1058000090E00FB6F894A895809360000FBE2093A7
:1058100060000DC088E10FB6F8948093600010928C
:1058200060000FBEA895109201081092000881E058
:10583000089580E0089508951F920F920FB60F9279
:1058400011242F933F934F938F939F93EF93FF9345
:105850008091C80082FD1DC04091CE0020919E061F
:1058600030919F062F5F3F4F2F7330708091A006BD
:105870009091A1062817390771F0E0919E06F091EA
:105880009F06E25AF94F408330939F0620939E066D
:1058900002C08091CE00FF91EF919F918F914F9127
:1058A0003F912F910F900FBE0F901F901895E09190
:1058B000F206F091F306E05CFF4F81919191208117
:1058C0003181821B930B8F739070892B11F00E9492
:1058D0001B2C08951F920F920FB60F9211242F9335
:1058E0003F938F939F93EF93FF932091E206309124
:1058F000E3068091E4069091E5062817390731F414
:105900008091C9008F7D8093C90014C0E091E406A6
:10591000F091E506EE55F94F20818091E4069091D3
:10592000E50601968F7390709093E5068093E406E8
:105930002093CE00FF91EF919F918F913F912F91F6
:105940000F900FBE0F901F901895AF92BF92DF92ED
:10595000EF92FF920F931F93CF93DF93EC017A01A5
:105960008B01DD24403081EE580780E0680780E03D
:10597000780711F0DD24D39491E0A92EB12CEC89A5
:10598000FD89DD2069F0C50108A002C0880F991FBC
:105990000A94E2F7808360E079E08DE390E005C04F
:1059A000108260E874E88EE190E0A80197010E94FF
:1059B0004F352150304040405040569547953795DF
:1059C000279580E12030380720F0DD2011F0DD241C
:1059D000D6CFE889F9893083EA89FB89208319A227
:1059E000EE89FF89408121E030E0C9010C8C02C0C2
:1059F000880F991F0A94E2F7482B4083EE89FF89AC
:105A00004081C9010D8C02C0880F991F0A94E2F7EA
:105A1000482B4083EE89FF894081C9010E8C02C06A
:105A2000880F991F0A94E2F7482B4083EE89FF897B
:105A300080810F8C02C0220F331F0A94E2F7209559
:105A400028232083DF91CF911F910F91FF90EF903A
:105A5000DF90BF90AF900895DC011C96ED91FC9112
:105A60001D97E05CFF4F2191319180819181281B2E
:105A7000390B2F733070C9010895DC011C96ED912C
:105A8000FC911D97E05CFF4F20813181E054F04094
:105A9000DF01AE5BBF4F8D919C911197281739079D
:105AA00019F42FEF3FEF07C08D919C91E80FF91F7C
:105AB0008081282F30E0C9010895DC011C96ED910A
:105AC000FC911D97E05CFF4F20813181E054F04054
:105AD000DF01AE5BBF4F8D919C911197281739075D
