:100000000C9414060C943C060C943C060C943C0690
:100010000C943C060C943C060C943C060C943C0658
:100020000C943C060C942F080C94D32A0C945A2B55
:100030000C943C060C943C060C943C060C943C0638
:100040000C94F60B0C943C060C943C060C943C0669
:100050000C943C060C943C060C943C060C94EE2349
:100060000C943C060C943C060C943C060C943C0608
:100070000C943C060C943C060C943C060C943C06F8
:100080000C943C060C943C060C943C060C943C06E8
:100090000C943C060C943C060C943C060C943C06D8
:1000A0000C943C060C943C060C943C06B319BB190A
:1000B000BB19B319BB19BB19BB19BB19BB19BB19A8
:1000C000BB19BB19BB19BB19BB19BB19BB19D0177D
:1000D000BB19BB19BB19BB19BB193117BB19BB190C
:1000E000BB19BB19BB19BB19BB19BB19BB19BB1970
:1000F000BB19BB19BB19BB19BB19DC17DC17DC1703
:10010000DC17DC17DC17DC17DC17DC17BB19BB1995
:10011000BB19BB19BB19BB193817DB17DB17DB176A
:10012000DB17BB19F117FB1705180D1815181D184B
:1001300025182D1837184118BB19BB197F173F1701
:10014000BB19BB19BB19BB19D017BB19BB19BB19FC
:10015000BB19BB19BB19BB19BB19DA17DA17DA17A8
:10016000DA17BB19F117FB1705180D1815181D180C
:1001700025182D1837184118BB19BB197F173F17C1
:10018000BB19BB19BB19BB19D017456E746572201A
:100190006D656E752E2E2E00436F6E6E65637469ED
:1001A0006E6720746F2052582C20706F7765722014
:1001B000757020746865205258202877697468200B
:1001C00062696E6420706C7567206966206E6F745A
:1001D000207573696E6720616C776179732062693D
:1001E0006E642900546F67676C65642027616C77C3
:1001F0006179732062696E642700546F67676C656C
:10020000642050504D206368616E6E656C206C698F
:100210006D697400536574205253534920696E6AA6
:1002200065636374696F6E206368616E6E656C20D0
:1002300028303D3D64697361626C652900536574C3
:100240002050504D206D696E696D756D2073796E0B
:10025000630053657420626561636F6E20696E741C
:10026000657276616C0053657420626561636F6EC0
:100270002064656C61790053657420626561636F09
:100280006E206672657175656E637920696E2048AF
:100290007A3A20303D64697361626C652C20507835
:1002A0003D504D52206368616E6E656C20782C2045
:1002B00046783D465253206368616E6E656C2078C7
:1002C00000536574206661696C73616665206465BE
:1002D0006C617920287820302E31732900546F67A3
:1002E000676C6564202773746F702050574D27002A
:1002F000546F67676C6564202773746F702050506B
:100300004D27002A2A2A2A2A2A2A2A2A2A2A2A2A57
:100310002A2A2A2A2A2A2A2A2A2A2A2A2A2A2A2A3D
:100320000052582041636B6564202D20726576650C
:100330007274207375636365737366756C21002A2C
:100340002A2A2A2A2A2A2A2A2A2A2A2A2A2A2A2A0D
:100350002A2A2A2A2A2A2A2A2A2A2A2A002A2A2A27
:100360002A2A2A2A2A2A2A2A2A2A2A2A2A2A2A2AED
:100370002A2A2A2A2A2A2A2A2A2A0052582041636B
:100380006B6564202D2075706461746520737563DE
:100390006365737366756C21002A2A2A2A2A2A2A21
:1003A0002A2A2A2A2A2A2A2A2A2A2A2A2A2A2A2AAD
:1003B0002A2A2A2A2A2A0056616C69642063686FF7
:1003C00069636573206172653A205B315D2D5B3135
:1003D000365D20286368616E6E656C20312D313684
:1003E0002900536574206F757470757420666F7280
:1003F00020706F727420005B585D2061626F7274B0
:10040000206368616E67657320616E64206578693A
:100410007420525820636F6E666967005B535D20DD
:10042000736176652073657474696E677320746F89
:10043000205258005B525D207265766572742052BE
:10044000582073657474696E677320746F206465D7
:100450006661756C747300557365206E756D6265A9
:100460007273205B312D445D20746F206564697464
:1004700020706F727473205B452D4E5D20666F7225
:100480002073657474696E6773000A6F70656E4CD3
:1004900052536E672076332E31202D2072656365AE
:1004A0006976657220636F6E666967757261746FD5
:1004B00072005365742073657269616C20626175A6
:1004C00064726174653A2000546F67676C656420DC
:1004D0004672536B7920656D756C6174696F6E211E
:1004E00000546F67676C65642074656C656D657436
:1004F0007279210056616C69642063686F69636575
:10050000733A2031202D20342B34202F2032202DFF
:100510002038202F2033202D20382B34202F20343A
:10052000202D203132202F2035202D2031322B3428
:10053000202F2036202D203136005365742043684B
:10054000616E6E656C20636F6E6669673A2000535A
:1005500065742044617461726174652028302D32A5
:10056000293A200053657420486F70206368616EDB
:100570006E656C7320286D61782032342C20736591
:100580007061726174656420627920636F6D6D6162
:1005900073292076616C69642076616C75657320BF
:1005A000312D3235353A2000536574206368616E11
:1005B0006E656C2073706163696E672028783130D6
:1005C0006B487A293A200053657420524620706F98
:1005D0007765722028302D37293A20005365742022
:1005E0005246206D61676963202868657829206517
:1005F0002E672E20307844454144463030443A201E
:10060000005365742062617365206672657175655B
:100610006E63792028696E20487A293A20005B5A57
:100620005D20656E746572207265636569766572BA
:1006300020636F6E66696775726174696F6E20758D
:1006400074696C79005B465D20646973706C6179D4
:100650002061637475616C206672657175656E6387
:100660006965732075736564005B525D2063616C1E
:1006700063756C6174652072616E646F6D206B656B
:100680007920616E6420686F70206C697374005B00
:10069000495D207265696E697469616C697A65206B
:1006A00073657474696E677320746F20736B6574FF
:1006B00063682064656661756C7473005B585D20C7
:1006C000726576657274206368616E676573206118
:1006D0006E642065786974206D656E75005B535D8E
:1006E00020736176652073657474696E6773207416
:1006F0006F20454550524F4D20616E6420657869EA
:1007000074206D656E7500557365206E756D62653C
:100710007273205B302D395D20746F2065646974BD
:1007200020706172616D6574657273000A6F706527
:100730006E4C52536E672076332E31004F29205471
:10074000696D65642042494E442061742073746170
:100750007274757020203A20004E292050504D2090
:100760006F7574707574206C696D69746564202090
:100770002020203A200044495341424C4544004D3A
:10078000292050504D205253534920746F206368E4
:10079000616E6E656C202020203A20004C2920508C
:1007A000504D206D696E696D756D2073796E632093
:1007B0002875732920203A200044495341424C4572
:1007C00044004B29204661696C736166652062654F
:1007D00061636F6E20696E74762E2028352D323558
:1007E00035293A20004A29204661696C73616665A3
:1007F00020626561636F6E2064656C6179202831C9
:10080000302D3635353335293A20004929204661C7
:10081000696C7361666520626561636F6E206672E4
:10082000712E203A2000207820302E317300482984
:10083000204661696C73616665207370656564202C
:100840002020202020203A200047292053746F7058
:100850002050574D206F6E206661696C736166652C
:10086000203A204F0046292053746F702050504D7D
:10087000206F6E206661696C73616665203A204F57
:100880000050574D206368616E6E656C2000667580
:100890006E6374696F6E3A20002920706F72742045
:1008A00000445446205548462033322D6269742056
:1008B00031306368004F70656E4C52536E6752580A
:1008C000206D696E692034636800466C7974726FBC
:1008D0006E2F4F72616E676552582055484620381A
:1008E000636800525820747970653A2000487A0095
:1008F000203D3D200043616C63756C61746564202C
:100900007061636B657420696E74657276616C3AB0
:10091000200030292053657269616C206261756422
:10092000726174653A003929204672536B792065EB
:100930006D756C6174696F6E3A20003829205465BA
:100940006C656D657472793A20202020202020008B
:100950003729204368616E6E656C20636F6E66692F
:10096000673A202000362920446174617261746501
:100970002028302D32293A20202000352920486FA8
:1009800070206368616E6E656C733A2020202020B1
:10099000003429204368616E6E656C20737061635A
:1009A000696E673A202000332920524620706F7705
:1009B00065722028302D37293A2020200032292046
:1009C0005246206D616769633A2020202020202054
:1009D000202000312920426173652066726571759F
:1009E000656E63793A202020000000000024002773
:1009F000002A002D00300000000000250028002BF8
:100A0000002E003100000000002300260029002CE9
:100A1000002F00040404040403040502020202047B
:100A20000302020202060606060606040402020289
:100A300004040802011040804010204080408008DB
:100A4000020401804020100201108010204040006C
:100A500000000200080E0000030401000B0000006B
:100A60000000000000000000000000000007060574
:100A7000040100080A0B0C0D09080B000202020118
:100A80000009040000010202000005240010010515
:100A90002401010104240206052406000107058142
:100AA0000310004009040100020A000000070502CB
:100AB00002400000070583024000000403090422ED
:100AC00003410072006400750069006E006F002031
:100AD000004C0065006F006E006100720064006FE2
:100AE000001803410072006400750069006E006F19
:100AF0000020004C004C00430012010002000000E6
:100B0000404123368000010102000112010002026F
:100B10000000404123368000010102000100C18035
:100B200081C105010902A1010901A1008501050991
:100B3000190129031500250195037501810295010D
:100B40007505810305010930093109381581257FB3
:100B5000750895038106C0C005010906A10185023B
:100B6000050719E029E7150025017501950881029F
:100B7000950175088103950675081500256505071B
:100B8000190029658100C00904020001030000006A
:100B900009210101000122650007058403400001CD
:100BA00000000000000000002A2B280000000000C8
:100BB0000000000000000000000000000000000035
:100BC0002C9EB4A0A1A2A434A6A7A5AE362D37387A
:100BD000271E1F20212223242526B333B62EB7B883
:100BE0009F8485868788898A8B8C8D8E8F90919241
:100BF000939495969798999A9B9C9D2F3130A3AD8D
:100C0000350405060708090A0B0C0D0E0F1011120A
:100C1000131415161718191A1B1C1DAFB1B0B50007
:100C2000820C54260F2A072D11241FBECFEFDAE0C5
:100C3000DEBFCDBF14E0A0E0B1E0EAEBFDE502C00D
:100C400005900D92AE35B107D9F716E0AEE5B4E0E8
:100C500001C01D92AE36B107E1F71CE0C8E2DCE04E
:100C600004C02297FE010E94952EC032D107C9F719
:100C70000E941F270C94DB2E0C940000A0E0B0E033
:100C8000E4E4F6E00C94AC2EEC01A880B980CA80B4
:100C9000DB80A114B104C104D10441F484E2A82E84
:100CA00089EDB82E8BE5C82E87E0D82EC601B50198
:100CB0002DE133EF41E050E00E94642E27EA31E459
:100CC00040E050E00E94102E7B018C01C601B5016E
:100CD0002DE133EF41E050E00E94642ECA01B901DA
:100CE0002CEE34EF4FEF5FEF0E94102E6E0D7F1D44
:100CF000801F911F97FF04C0615070408040904852
:100D0000688379838A839B839B01AC015F77B901F8
:100D1000CA01CDB7DEB7EAE00C94C82E0E943E06A9
:100D200008958BE493E00E943E06089560934B0380
:100D300070934C0380934D0390934E030895A0E06D
:100D4000B0E0E5EAF6E00C94A52EEC012B016A0177
:100D50006115710519F0FB0191838083C114D104E1
:100D600049F0C6010297839728F020E030E040E088
:100D700050E0DCC0A9908A2D90E00E94992E892B2A
:100D8000C9F7FDE2AF1621F4A9903324339405C0CE
:100D90008BE2A81609F4A9903324C114D10421F0E0
:100DA000E0E1CE16D10411F5F0E3AF1669F48881C5
:100DB000883711F0883541F4A980229682E0382ADC
:100DC00020E1C22ED12C12C0C114D10479F4E0E389
:100DD000AE1659F199E9E92E99E9F92E99E9092F09
:100DE00099E1192F8AE0C82ED12C3AC0FAE0CF162B
:100DF000D10491F080E1C816D10429F0E8E0CE16C4
:100E0000D104F9F415C0BFEFEB2EBFEFFB2EBFEFFF
:100E10000B2FBFE01B2F24C0A9E9EA2EA9E9FA2E67
:100E2000A9E90A2FA9E11A2F1BC0F8E0CF2ED12C77
:100E3000EFEFEE2EEFEFFE2EEFEF0E2FEFE11E2F76
:100E40000FC09601442737FD4095542F6FEF7FEF79
:100E50008FEF9FEF0E94422EC901DA017C018D01C4
:100E600020E030E040E050E060E03601882477FC8C
:100E70008094982C70EDB72EBA0CF9E0FB1570F445
:100E80008A2D81548A3118F499ECB92E06C08A2D26
:100E900081568A3148F589EAB82EBA0C8B2D90E03C
:100EA0008C159D050CF56F3FE9F0E216F30604077B
:100EB0001507B8F0CA01B901A40193010E94102ED0
:100EC0009B01AC018B2D90E0A0E0B0E0280F391F12
:100ED0004A1F5B1F281739074A075B0710F061E0BC
:100EE00001C06FEFA990C6CF4114510451F06623A1
:100EF00011F0219703C031FE04C02297F201D18383
:100F0000C08330FE07C050954095309521953F4FE6
:100F10004F4F5F4F67FF0AC082E290E090936D06EB
:100F200080936C062FEF3FEF4FEF5FEFB901CA01DF
:100F3000CDB7DEB7E1E10C94C12EFC0188279927DB
:100F4000E89421912032E9F3293010F02E30C8F3D3
:100F50002B3241F02D3239F4689404C00E94FB0713
:100F6000820F911D219120532A30C0F31EF49095D9
:100F700081959F4F08954EE554E00E94C90708955A
:100F8000FB01DC0102C001900D9241505040D8F7A6
:100F90000895009731F4DA018D919C91009709F43E
:100FA0000EC0DC01FB013D912191222319F0321783
:100FB000C9F3FACF332331F4DA011D921C9288274A
:100FC000992708951197AF93BF93FB013D9121910C
:100FD000321771F4332321F488279927119702C01F
:100FE0001E921196FA01A193B0839F918F9108955B
:100FF000222369F7EACF7AE0979F902D879F802D73
:10100000910D11240895009721F19C0140E050E0DA
:1010100068E478EE81E090E00E94642EC901DA0174
:101020008F3F9105A105B10531F028F08FEF90E0D9
:10103000A0E0B0E008C00097A105B10521F481E06F
:1010400090E0A0E0B0E08093D1008091C00080618A
:1010500003C08091C0008F7E8093C00008951F92CE
:101060000F920FB60F9211248F931F990EC080918B
:101070006004813019F482E0809360048091600400
:10108000833019F484E0809360048F910F900FBE39
:101090000F901F90189527E02093610480E092EC58
:1010A000A1E0B0E08093620490936304A093640491
:1010B000B093650420936E0480EC92E9ADEEB9E143
:1010C0008093660490936704A0936804B0936904C6
:1010D00085E080936F048DEE9EEFADEABEED8093C8
:1010E0006A0490936B04A0936C04B0936D04A0E722
:1010F000B4E080E090E0863010F0E0E004C0FC0155
:10110000E85CFB4FE081ED9301968831910599F7FA
:1011100082E0809388048AE08093890408958F9206
:101120009F92AF92BF92CF92DF92EF92FF920F9376
:101130001F93FC0100A510E087A190E023E130E0BF
:10114000829FF001839FF00D929FF00D1124E857CC
:10115000FC4F80809180A280B380F801E770F0702E
:10116000E05DFB4F608170E0615F7F4F882777FD16
:101170008095982F20E43FE14DE750E00E94102E2B
:10118000A50194010E94422E69017A0180ED97E049
:10119000A0E0B0E0C80ED91EEA1EFB1E03FF10C07F
:1011A00060E07EEE8AEB9BE0A50194010E94422E56
:1011B00028513C4F4F4F5F4FC20ED31EE41EF51E09
:1011C00087EE93E0A0E0B0E0C80ED91EEA1EFB1E39
:1011D000C701B60128EE33E040E050E00E94422E05
:1011E000CA01B90128EE33E040E050E00E94102E21
:1011F0001F910F91FF90EF90DF90CF90BF90AF9035
:101200009F908F900895FF920F931F93082FFB01DB
:10121000DA01F82EF69410E0808191818C9382811E
:10122000938111968C9311978481958112968C935A
:1012300012978681978113968C9313972081318121
:101240004281538164817581868197819295990F3E
:10125000990F907C832F8370982B852F8370880F34
:10126000880F982B872F83708295807F982B1496F8
:101270009C931497159638961F5FF11668F600FF39
:101280005CC0808191818F3F910509F010F440E0AE
:101290000CC022E08030920710F441E006C080507C
:1012A000934010F043E001C042E0828193818F3F80
:1012B000910509F010F450E00CC022E08030920754
:1012C00010F451E006C08050934010F053E001C08C
:1012D00052E0848195818F3F910509F010F480E000
:1012E0000CC022E08030920710F481E006C08050EC
:1012F000934010F083E001C082E0268137812F3FC8
:10130000310509F010F490E00CC092E0203039076C
:1013100010F491E006C02050334010F093E001C07B
:1013200092E05295507F4295440F440F407C452BEC
:10133000880F880F842B892B8C931F910F91FF901E
:10134000089523E08032920718F420E030E026C0B0
:1013500023E0883E920748F49C012F513340E4E09B
:1013600036952795EA95E1F719C027E0803D920769
:1013700020F49C012C5D334011C028E0883992078D
:1013800018F02FEF33E00AC09C01285C374074E06E
:10139000369527957A95E1F72D503C4FC901089570
:1013A000882339F0299800002A9A0000299A000021
:1013B0000895299800002A980000299A00000895AD
:1013C0000F931F93082F5E9A29985E9810E0802F44
:1013D00080780E94D009000F1F5F1830C1F729984C
:1013E0001F910F9108958F770E94E00908950F9340
:1013F0001F93082F10E0802F80780E94D009000FE3
:101400001F5F1830C1F729981F910F9108952998EF
:1014100030E020E0220F299A000083B129980000D3
:1014200090E043E0969587954A95E1F78170280F03
:101430003F5F383079F7822F08950E94F3090E94A8
:10144000070A5E9A08951F93162F80680E94E0098C
:10145000812F0E94F7095E9A1F910895682F89E7EE
:101460000E94230A089586E20E941D0A08950F93A0
:101470001F938C018CE1F80164810E94230A8DE1A5
:10148000F80165810E94230A8EE1F80166810E94BD
:10149000230A80E2F80167810E94230A81E2F801B1
:1014A00060850E94230A82E2F80161850E94230A76
:1014B00083E2F80162850E94230A84E2F8016385D1
:1014C0000E94230A85E2F80164850E94230A8AE2C9
:1014D000F80165850E94230A8EE6F80166850E9460
:1014E000230A8FE6F80167850E94230A80E7F80146
:1014F00060890E94230A81E7F80161890E94230A1A
:1015000082E7F80162890E94230A1F910F910895D2
:10151000EF92FF920F931F93CF93DF937B018C0188
:10152000603028E372072CE982072CE1920728F546
:1015300020E836E948E950E00E94422EE901689728
:10154000B90180E090E020E839E647E65FEF0E94CD
:10155000102E6E0D7F1D801F911FF2E0660F771F0A
:10156000881F991FFA95D1F721E732E040E050E05B
:101570000E94422E890180E421C020E03DE241E347
:1015800051E00E94422EE9016897B90180E090E0A5
:1015900020E033ED4EEC5EEF0E94102E6E0D7F1DAD
:1015A000801F911F660F771F881F991F21E732E068
:1015B00040E050E00E94422E890180E69E012F719A
:1015C000622F680F85E70E94230A86E7612F0E9439
:1015D000230A87E7602F0E94230ADF91CF911F9192
:1015E0000F91FF90EF9008959F92AF92BF92CF928C
:1015F000DF920F93DF93CF9300D000D0CDB7DEB74B
:10160000982E83E00E941D0A8093A40484E00E9427
:101610001D0A8093A50486E060E00E94230A87E00B
:1016200061E00E94230A89E06FE70E94230A8AE0B2
:1016300065E00E94230A8BE065E10E94230A8CE0AA
:1016400062E10E94230A8DE06DEF0E94230A8EE082
:1016500060E00E94230A992019F081EC93E008C011
:101660008091880423E1829FC001112488579C4FF8
:101670000E94370A80E36CE80E94230A82E36FE04D
:101680000E94230A83E362E40E94230A84E36AE05F
:101690000E94230A85E36AE20E94230A86E36DE240
:1016A0000E94230A87E364ED0E94230A88E360E036
:1016B0000E94230A89E360E00E94230A992049F0EE
:1016C0000CE1A02E0EEBB02E01ECC02E0EEDD02EB4
:1016D00008C0A0906A04B0906B04C0906C04D090D5
:1016E0006D040AE38D2D9927AA27BB2789839A8346
:1016F000AB83BC83802F69810E94230A802F8B5F7C
:1017000069810E94230ADC2CCB2CBA2CAA240F5FFF
:101710000E3341F783E46FEF0E94230A84E46FEFF6
:101720000E94230A85E46FEF0E94230A86E46FEF8C
:101730000E94230A992019F08DE660E003C08DE62F
:1017400060916E040E94230A89E760E00E94230AE8
:101750008AE760916F040E94230A83E760E00E9499
:10176000230A84E760E00E94230A992029F060ECB4
:1017700072E98DEE99E108C060916604709167048A
:1017800080916804909169040E94880A0F900F90DC
:101790000F900F90CF91DF910F91DF90CF90BF907E
:1017A000AF909F90089587E061E00E94230A8EE742
:1017B00064E20E94230A88E063E00E94230A88E032
:1017C00060E00E94230A87E065E00E94230A85E02A
:1017D00062E00E94230A83E00E941D0A8093A40411
:1017E00084E00E941D0A8093A50408951F920F9221
:1017F0000FB60F921124EF92FF921F932F933F93F6
:101800004F935F936F937F938F939F93AF93BF9308
:10181000CF93DF93EF93FF93C0918600D091870021
:101820008091AE059091AF059E01281B390B8091E8
:10183000F5038823F9F08091F503833368F0109263
:10184000F5038091AD058B3020F081E08093AD05EC
:101850003BC01092AD0538C02C5D354028F4809116
:10186000AD058F5F8093AD058091F5038F5F809309
:10187000F5032AC08091AD05882311F4369527958C
:10188000E9E0253C3E0728F01092F4031092AC05E5
:101890001BC0F2E02D3B3F0788F18091F4038031BB
:1018A00068F51091F403E12EFF24C9010E94A109FB
:1018B000EE0CFF1C24ED33E0E20EF31EF7019183E2
:1018C00080831F5F1093F403D093AF05C093AE05E0
:1018D000FF91EF91DF91CF91BF91AF919F918F9148
:1018E0007F916F915F914F913F912F911F91FF9049
:1018F000EF900F900FBE0F901F90189580E180938E
:10190000F403E2CF1092AC041092B1041092B00430
:101910001092B3041092B2040895FF920F931F9394
:10192000CF93DF93182F092FF62E8EE30E94230A00
:10193000212F302FC901EC0110E005C08FE769911C
:101940000E94230A1F5F1F15C8F385E064E00E9410
:10195000230A83E00E941D0A8093A40484E00E946D
:101960001D0A8093A5040E9444246093A6047093EA
:10197000A7048093A8049093A90487E069E00E94DB
:10198000230A81E080936004DF91CF911F910F9132
:10199000FF9008950E948D0C809160048130D9F4ED
:1019A0000E9444242091A6043091A7044091A804E9
:1019B0005091A904621B730B840B950B605A7648F7
:1019C0008140904040F4E8CF88E496E060E071E028
:1019D0000E9449290895809160048130A9F30895F7
:1019E0000F931F93CF93DF93182F092F88E496E06E
:1019F0006EE70E946B26212F302FC901EC0110E009
:101A000000E288818D57823040F488E496E06DE7EB
:101A10000E946B2688818027888388E496E06991FC
:101A20000E946B261F5F193061F788E496E06EE72D
:101A30000E946B26DF91CF911F910F910895DF9344
:101A4000CF93CDB7DEB729970FB6F894DEBF0FBEA0
:101A5000CDBF382F80919105882379F48EEF89834B
:101A60003A836B83842F90E0959587958C832D83A3
:101A7000198618861F821E822FC040919005842FE0
:101A800090E09C012F70307054E0959587955A95A1
:101A9000E1F78217930721F18DEF89831A821B8268
:101AA000DE01149620E008C0E058FA4F80818D9343
:101AB000405F2F5F263069F0842F90E0FC0134E016
:101AC000F595E7953A95E1F78F709070E817F9076B
:101AD00059F7409390052A83CE0101960E94F00C9D
:101AE0008091910590E0019666E070E00E942F2EB3
:101AF0008093910529960FB6F894DEBF0FBECDBF37
:101B0000CF91DF910895FF920F931F938C01F62ED2
:101B100088E496E00E946B26F80184818F258483F7
:101B20001F910F91FF900895BF92CF92DF92EF9295
:101B3000FF920F931F937C01D62EC42EB52E08E47E
:101B400016E0C80165EB0E946B26C80162E60E94A0
:101B50006B26F7011482C7016D2D0E94830DC7010A
:101B60006C2D0E94830DC7016B2D0E94830D1F9168
:101B70000F91FF90EF90DF90CF90BF9008950F935B
:101B80001F938C016AEC41E050E00E94940DC80163
:101B900060E00E94830D1F910F910895219A229A6F
:101BA00023988BE060E00E9419258CE061E00E94A0
:101BB0001925089588E08093C1008AE061E00E94C1
:101BC00019258AE060E00E94A625089588E496E041
:101BD00060E875E20E940926089583E00E941D0ACC
:101BE0008093A40484E00E941D0A8093A50487E0EA
:101BF00061E00E94230A6AE070E080E090E00E94C9
:101C00006A240E94D30B000008950F931F93082F9E
:101C100017C05F9A64E670E080E090E00E946A245A
:101C20005F9864E670E080E090E00E946A241F5FA5
:101C3000101778F36CE271E080E090E00E946A2473
:101C400010E0F6CF809193058130D1F0813020F003
:101C5000823009F043C037C082E10E94D925892B28
:101C600009F03CC081E0809393050E943624609384
:101C70009405709395058093960590939705089524
:101C800082E10E94D925892BD9F40E943624209123
:101C90009405309195054091960550919705621BEA
:101CA000730B840B950B695E734080409040B0F0DD
:101CB00082E08093930580ED97E00E9403080895E9
:101CC00010929305089582E10E94D925892B31F065
:101CD00080E090E00E940308109293050895AF926F
:101CE000BF92CF92DF92EF92FF920F931F93CF9309
:101CF000DF938CE00E941D0A882369F488E496E053
:101D00006CE071E00E9449295F9A80E00E94F40A29
:101D10000E94D30B5F9888E496E00E940A26892BE4
:101D200009F455C28091F805C82FD0E09E012F5FBD
:101D30003F4F2F7130708091F70590E028173907D9
:101D400009F445C288E496E00E943126C253DA4F76
:101D500088838091F80590E001968F719070809350
:101D6000F805D9CF0E94442460939C0570939D058B
:101D700080939E0590939F056115710581059105DE
:101D800061F481E090E0A0E0B0E080939C05909346
:101D90009D05A0939E05B0939F0583E0809360040A
:101DA0008FE70E94F309C5ECD5E00E94070A8993EA
:101DB00005E0CE3CD007C9F74091B0058091C5053C
:101DC000282F30E0842F90E08227932786FF54C08D
:101DD00080E448274093B005C90188739070C89784
:101DE000D9F510E02EC01F5F80918904E12FF0E04B
:101DF00084FF20C0EB53FA4F608140919005842FFF
:101E000090E0FC01EF70F0709F012F5F3F4F74E096
:101E1000959587957A95E1F72817390791F0E0585D
:101E2000FA4F6083842F8F5F8F70407F842B809365
:101E3000900507C0EB53FA4F88E496E060810E945A
:101E40006B26212F30E08091C50590E0877090705F
:101E50008217930744F610C02F733070232B61F460
:101E60008091C6058093A4058091C7058093A6053F
:101E70008091C8058093A7058091F905813019F4F8
:101E800082E08093F9058091F905833011F4109276
:101E9000F9050E9444245B016C018091A805909192
:101EA000A905A091AA05B091AB050097A105B105C0
:101EB000C9F0A6019501281B390B4A0B5B0BDA010F
:101EC000C901885B9B40A040B04060F00E94330A8B
:101ED0008093A5051092A8051092A9051092AA0555
:101EE0001092AB0581E694E00E948F08209198053E
:101EF0003091990540919A0550919B058601750195
:101F0000E21AF30A040B150BE616F7060807190781
:101F100008F414C1A0929805B0929905C0929A0550
:101F2000D0929B058091AC05883008F0FFC080916D
:101F3000AC058F5F8093AC05E0909C05F0909D050B
:101F400000919E0510919F05E114F1040105110512
:101F5000F1F081E694E00E948F08AE18BF08C00A35
:101F6000D10A6A157B058C059D0568F480ED97E024
:101F70000E94030810929C0510929D0510929E05E8
:101F800010929F0504C080E090E00E940308209119
:101F9000B005207C2093B0055091F8059091F7058D
:101FA0005917D1F18091F9058230B1F5205820936D
:101FB000B005E0918904F0E0E770F070E05DFB4F60
:101FC000E081E93010F048E002C04E2F415030E08F
:101FD00013C03F5FA32FB0E0892F90E0FC01E253D4
:101FE000FA4F2081FD01E055FA4F2083A251BA4FEC
:101FF0002C930196982F9F71341710F4951749F779
:102000009093F705832F895C9091B005892B80937D
:10201000B0053093EE051AC09091F9059430D1F4D3
:102020009091EE05EFEEF5E0A1EBB5E0292F30E061
:102030002E0F3F1F02C081918D93E217F307D9F74E
:10204000995C8091B005982B9093B00583E08093C4
:10205000F90523C080919305823029F421602093F3
:10206000B0055F9A0FC02093B0055F98992319F4CB
:1020700081E08093F9058091F905833019F484E0BB
:102080008093F905F89480918904877064ED73E07A
:1020900041EB55E00E9403097894469AE09192053D
:1020A000F0E0EF59FB4F87850E942E0AE0918904EA
:1020B000F0E0E770F070E05DFB4F80EB95E0608151
:1020C0000E94CA0CE0919205EF5FE0939205E8311F
:1020D00031F0F0E0EF59FB4F8785882311F410921F
:1020E00092058091890483FF29C083E08093600476
:1020F0000E94D30B0E9444246093A8057093A90505
:102100008093AA059093AB05611571058105910532
:10211000A9F481E090E0A0E0B0E08093A80590935E
:10212000A905A093AA05B093AB0508C08091AC05A2
:10213000883009F45F9A89E08093AC058091890426
:1021400084FF37C00E9444242091A0053091A1054E
:102150004091A2055091A305621B730B840B950B54
:10216000615375478040904020F10E944424609361
:10217000A0057093A1058093A2059093A3053091CB
:10218000A6056091A70580919C0590919D05A09161
:102190009E05B0919F050097A105B10519F420E0B7
:1021A00040E004C04091A4052091A505832F0E9422
:1021B0001F0D46980E94220EDF91CF911F910F9123
:1021C000FF90EF90DF90CF90BF90AF9008958091F7
:1021D0006004843009F05DCEC5CD10927E0585E6A1
:1021E000E9E1F5E0DF011D928A95E9F708951F9373
:1021F000182F8F3711F08830E1F5E0917E05EE233E
:1022000009F454C0E150E0937E05F0E0E75EFA4F38
:10221000108288E496E06DE00E946B2610E00AC010
:10222000E12FF0E0E75EFA4F88E496E060810E94DB
:102230006B261F5F80917E05181790F388E496E067
:1022400060E20E946B2688E496E06DE00E946B26B7
:1022500010E00AC0E12FF0E0E75EFA4F88E496E074
:1022600060810E946B261F5F80917E05181790F396
:1022700022C08B3119F40E94ED1002C08D3011F490
:1022800081E01AC080917E05843680F488E496E06F
:10229000612F0E946B2680917E05E82FF0E0E75EBB
:1022A000FA4F10838F5F80937E0505C088E496E027
:1022B00067E00E947F2780E01F9108951F93CF93CE
:1022C000DF93C0E7D4E010E03BC088E496E06BE128
:1022D00071E00E94462988E496E0612F4AE050E0D0
:1022E0000E94A42888E496E068E271E00E944629F2
:1022F000699170E080E090E020916F0430E040E070
:1023000050E00E94102E20E137E240E050E00E94B1
:10231000102EDC01CB01409166045091670460915E
:10232000680470916904480F591F6A1F7B1F88E475
:1023300096E02AE030E00E9462281F5F183119F011
:102340008881882311F6DF91CF911F910895FF9224
:102350000F931F93CF93DF9388E496E063EE78E0CA
:102360000E945C2780918A04813049F488E496E0D9
:102370006AEC78E00E94A7270DE0F02E15C08230AD
:1023800049F488E496E065EB78E00E94A72716E020
:10239000F12E0AC0843041F488E496E061EA78E0E6
:1023A0000E94A727BAE0FB2E0BE814E0C0E0D0E0C3
:1023B00043C0C930D10514F0685C01C06F5C88E48B
:1023C00096E00E947F2788E496E069E978E00E9421
:1023D0005C27219688E496E0BE014AE050E00E9426
:1023E000142988E496E06EE878E00E945C27D80122
:1023F000EC91E03190F488E496E061E878E00E94A6
:102400005C27F801608170E06F5F7F4F88E496E0A1
:102410004AE050E00E9427290DC0F0E0E770F0701C
:10242000EE0FFF1FE050FC4F6081718188E496E061
:102430000E9449290F5F1F4F6C2FCF1508F4B9CFA9
:1024400088E496E065E678E00E945C278091980435
:1024500080FD03C06CE271E002C06FE271E088E4CD
:1024600096E00E94492988E496E069E478E00E94B9
:102470005C278091980481FD03C06CE271E002C08A
:102480006FE271E088E496E00E94492988E496E0D2
:102490006EE278E00E945C2788E496E06091A304F5
:1024A0004AE050E00E94A42888E496E066E278E0E2
:1024B0000E94A72788E496E06BE078E00E945C2702
:1024C00040919A0450919B0460919C0470919D04EA
:1024D000411551056105710529F188E496E02AE06E
:1024E00030E00E94622888E496E065EE77E00E9482
:1024F0005C2760919E0470919F0488E496E04AE016
:1025000050E00E94872888E496E062EC77E00E9421
:102510005C2788E496E06091A0044AE050E00E94C5
:10252000B62806C088E496E069EB77E00E94A7270A
:1025300088E496E06CE977E00E945C276091A10452
:102540007091A20488E496E04AE050E00E94872857
:1025500088E496E06FE777E00E945C276091990439
:10256000603150F470E06F5F7F4F88E496E04AE09E
:1025700050E00E94272906C088E496E066E777E0ED
:102580000E94A72788E496E069E577E00E945C272F
:102590008091980482FD03C061E371E002C065E3AD
:1025A00071E088E496E00E94492988E496E06CE3B3
:1025B00077E00E945C278091980483FD03C069E363
:1025C00071E002C062E471E088E496E00E9449296B
:1025D000DF91CF911F910F91FF9008951F93CF939B
:1025E000DF93809118058B3054F48730DCF58F3FF2
:1025F00051F08F3F0CF495C08130CCF592C08E30F5
:102600000CF08FC02AC088E496E06CE00E946B2634
:1026100088E496E06AE874E00E94A72788E496E0E0
:1026200067E574E00E94A72788E496E064E374E01D
:102630000E94A72788E496E06CE174E00E94A72737
:1026400088E496E067EF73E00E94A72788E496E0AD
:102650000E9487270E94A71164C080918A04843059
:1026600009F45FC080918A04823009F45AC088E47A
:1026700096E062EE73E00E945C2760911805772770
:1026800067FD709588E496E04AE050E00E942729B3
:1026900088E496E067EB73E00E945C2714E1CFE4E6
:1026A000D3E038C080918A04981799F5298130E0E9
:1026B00080911805992787FD90950197281739076C
:1026C00041F588E496E06AE471E00E94462988E4D6
:1026D00096E0612F4AE050E00E94A42888E496E04A
:1026E0006EE471E00E944629EA81F0E0E770F07044
:1026F000EE0FFF1FE050FC4F6081718188E496E08F
:102700000E94462988E496E062E571E00E9446292D
:102710001F5F23969881992329F688E496E00E940A
:1027200087276AE070E080E090E00E946A2404C09D
:1027300088E496E00E94312688E496E00E940A260A
:10274000892BB1F7DF91CF911F9108951F93CF93FC
:10275000DF9388E496E063ED79E00E945C27409186
:10276000660450916704609168047091690488E47C
:1027700096E02AE030E00E94622888E496E06DEB63
:1027800079E00E945C2740916A0450916B0460914B
:102790006C0470916D0488E496E020E130E00E94C2
:1027A000622888E496E067EA79E00E945C2788E482
:1027B00096E060916E044AE050E00E94B62888E4FA
:1027C00096E061E979E00E945C2788E496E06091F8
:1027D0006F044AE050E00E94B62888E496E06BE778
:1027E00079E00E945C27C0E7D4E010E012C011231A
:1027F00031F088E496E064E571E00E94462988E4BF
:1028000096E069914AE050E00E94A4281F5F1831C9
:1028100019F08881882359F788E496E00E94872779
:1028200088E496E065E679E00E945C2788E496E01B
:10283000609188044AE050E00E94B62888E496E05F
:1028400060E579E00E945C27E0918904F0E0E770A0
:10285000F070EE0FFF1FE05FFB4F6081718188E435
:1028600096E00E94492988E496E06BE379E00E94B3
:102870005C278091890483FD03C069E371E002C095
:1028800062E471E088E496E00E94492988E496E0D9
:1028900066E279E00E945C278091890484FD03C090
:1028A00069E371E002C062E471E088E496E00E94AE
:1028B000492988E496E062E179E00E945C27409132
:1028C000620450916304609164047091650488E42B
:1028D00096E02AE030E00E94622888E496E065EF06
:1028E00078E00E945C2781E694E00E948F08AB01AB
:1028F000BC0188E496E02AE030E00E94532888E496
:1029000096E060EF78E00E945C2781E694E00E9408
:102910008F089B01AC0160E472E48FE090E00E94BC
:10292000422E88E496E0BA01A9012AE030E00E9434
:10293000532888E496E06DEE78E00E94A727DF91A7
:10294000CF911F91089580911805853009F477C0C3
:10295000863094F4823009F463C0833034F48F3FBE
:10296000F1F0813009F090C056C0833009F45DC0A9
:10297000843009F089C05EC0883009F475C08930A0
:102980003CF4863009F460C0873009F07DC061C036
:10299000893009F46EC08A3009F076C06FC088E4CF
:1029A00096E06CE00E946B2688E496E06CE277E0AB
:1029B0000E94A72788E496E067E077E00E94A727B7
:1029C00088E496E06DED76E00E94A72788E496E023
:1029D0006CEB76E00E94A72788E496E06FE876E04B
:1029E0000E94A72788E496E069E676E00E94A72780
:1029F00088E496E065E476E00E94A72788E496E004
:102A00006EE176E00E94A72788E496E00E9487277F
:102A10000E94A61339C088E496E061E076E032C0F7
:102A200088E496E06CED75E02DC088E496E067ECF4
:102A300075E028C088E496E068EA75E023C088E481
:102A400096E064E675E01EC088E496E06FE475E009
:102A500019C088E496E06AE375E00E94A72788E43D
:102A600096E064EF74E00EC088E496E061EE74E0F6
:102A700009C088E496E068EC74E004C088E496E05D
:102A800062EB74E00E94A7276AE070E080E090E0CB
:102A90000E946A2404C088E496E00E94312688E4FB
:102AA00096E00E940A26892BB1F708952F923F9253
:102AB0004F925F926F927F928F929F92AF92BF924E
:102AC000CF92DF92EF92FF920F931F93DF93CF93FA
:102AD00000D000D00F92CDB7DEB78C839D834B0121
:102AE0008DB79EB79A838983ADB69EB79B830E94AC
:102AF00036241B012C018DB79EB7881999090FB692
:102B0000F8949EBF0FBE8DBF6DB67EB60894611C53
:102B1000711CEE24FF24BB24B8C088E496E00E9418
:102B20000A26892B09F4B1C088E496E00E94312678
:102B3000282F93E0B916E1F09B1530F081E0B8162C
:102B4000B9F08B15D0F00EC095E0B91609F471C03C
:102B5000B916E0F186E0B81659F097E0B91609F019
:102B600094C06CC0233509F09CC0BB24B3948DC0C5
:102B70002A3309F096C0B39488C0822F80538A30DC
:102B8000A8F4C701A3E0880F991FAA95E1F7EE0CFE
:102B9000FF1CE80EF91E80ED9FEFE80EF91E822F54
:102BA000992787FD9095E80EF91E6FC0283409F02B
:102BB00078C0E814F90409F074C0EE24FF24E3E0BF
:102BC000BE2E00E010E0CC24DD245FC0822F8053B5
:102BD0008A30C0F1822F8154863070F474E0000F87
:102BE000111F7A95E1F707531040822F992787FD2F
:102BF0009095080F191F49C02C3209F052C0F301FB
:102C0000EE0DFF1D00830894E11CF11C8D2D99270A
:102C100087FD90958827990F881F9927CC0CDD1C7C
:102C2000C80ED91E1070C026D126E814F90459F533
:102C300028C02435B1F546E0B42E25C0822F80533C
:102C40008A3040F434E0000F111F3A95E1F7005349
:102C50001040CBCF822F8154863008F4BFCF2A3367
:102C6000A1F4C016D106E9F488E496E066E571E0C7
:102C70000E9449298C819D81B301A4010E94C00753
:102C800027C025E0B22E00E010E00E943624621931
:102C9000730984099509605D77408040904008F48D
:102CA0003CCF88E496E065E671E00E9449296AE03D
:102CB00070E080E090E00E946A2404C088E496E01E
:102CC0000E94312688E496E00E940A26892BB1F7FB
:102CD0008A2D9B819C010FB6F8943EBF0FBE2DBF7D
:102CE00089819A810FB6F8949EBF0FBE8DBF0F9059
:102CF0000F900F900F900F90CF91DF911F910F9138
:102D0000FF90EF90DF90CF90BF90AF909F908F900B
:102D10007F906F905F904F903F902F900895EF922B
:102D2000FF920F931F93CF93DF93182F092F7B01EF
:102D300088E496E068E771E00E94462988E496E01E
:102D4000B7014AE050E00E947628E114F10419F43A
:102D5000C0E0D0E044C0812F902F9C01890188E41D
:102D600096E06CE771E00E944629C0E0D0E0D8010F
:102D7000EC91F0E034E0F595E7953A95E1F7E05E07
:102D8000FB4F88E496E060810E947F27D801EC9198
:102D9000F0E0EF70F070E05EFB4F88E496E0608159
:102DA0000E947F2788E496E06CE20E947F278D2FA7
:102DB000992787FD90958827990F881F9927CC0F11
:102DC000DD1FC80FD91FF80181918F0190E0C8273E
:102DD000D9270894E108F108E114F10441F688E4E8
:102DE00096E06FE771E00E94462988E496E0BE0114
:102DF00040E150E00E94762888E496E062E871E0C5
:102E00000E944929DF91CF911F910F91FF90EF9080
:102E10000895EF92FF920F931F93DF93CF93CDB757
:102E2000DEB76B970FB6F894DEBF0FBECDBF282F6D
:102E3000809118058F3F09F031C1822F992787FDB6
:102E40009095A92FB92FFC013A97EF36F10508F0BC
:102E500092C2EA5AFF4FEE0FFF1F0590F491E02D4A
:102E600009948AE894E06AE170E00E948F1683C2B8
:102E70008AE894E06AE170E00E94561574C288E422
:102E800096E064E871E00E94492985E78983DE01C4
:102E90001296EAE8F4E08AE101900D928150E1F7A0
:102EA000CE0101966BE10E94CA0C0E94D30B83E015
:102EB0008093600468EC70E080E090E00E946A24F7
:102EC00080916004843009F056C28FE70E94F309B4
:102ED0000E94070A8983853509F04DC288E496E08F
:102EE00069E973E00E94A72788E496E06BE773E046
:102EF0000E94A72788E496E06DE573E0B5C088E4FA
:102F000096E06CE971E00E94492989E68983CE0147
:102F1000019661E00E94CA0C0E94D30B83E080936B
:102F2000600468EC70E080E090E00E946A24809188
:102F30006004843009F01FC28FE70E94F3090E94E9
:102F4000070A89838E010E5F1F4F7CE1E72EF12C6B
:102F5000EC0EFD1E0E94070AD8018D938D01AE155F
:102F6000BF05C1F7AAE8B4E0FE0132968AE10190FC
:102F70000D928150E1F78981893409F0FCC188E420
:102F800096E06FE373E00E94A72788E496E061E291
:102F900073E00E94A72788E496E063E073E064C0D2
:102FA00088E496E066EB71E00E9449298EEF8093F9
:102FB0001805E1C120522750822F805390918A0436
:102FC000873014F0923031F08B300CF472C09430B2
:102FD00009F06FC088E496E065EC71E00E94492931
:102FE000CAC188E496E060EF72E00E94A727809152
:102FF000980491E04FC088E496E06DED72E00E9485
:10300000A7278091980492E045C086E18093180537
:1030100088E496E061EC72E027C087E180931805B0
:1030200088E496E067E772E01FC088E180931805A6
:1030300088E496E066E672E017C089E1809318059F
:1030400088E496E062E572E00FC08AE1809318059B
:1030500088E496E06DE372E007C08BE18093180589
:1030600088E496E064E172E00E94A72784C188E4C6
:1030700096E06AEF71E00E94A7278091980494E09F
:1030800009C088E496E064EE71E00E94A727809171
:10309000980498E08927809398040AC0822F0E94A0
:1030A000F710882309F467C180917E05882321F4F5
:1030B0008FEF8093180557C189E195E060E070E0DB
:1030C00040E050E00E949F069B01AC01E091180592
:1030D000EE3044F4EB30E4F4E1300CF434C1E7308A
:1030E0000CF11BC0E83109F4D3C0E9313CF4E631FE
:1030F00009F45AC0E73109F026C164C0EA3109F485
:10310000E5C0EA310CF4D4C0EB3109F01CC1EFC0CA
:1031100080918A04843009F416C180918A04823037
:1031200009F411C1DA01C9010197A109B109409758
:10313000A105B10570F0E0908A0464E1F62EF0E09C
:103140006FE473E00E2F112707FD1095015010401A
:1031500026C0FF27E7FDF095E657FB4F822F8150F1
:103160008083D9C08E15C9F4DB0111968C9190E053
:103170008017910791F48F2D90E0A0E0B0E08217C6
:103180009307A407B50741F4F801E657FB4FDB01AD
:1031900012968C918183F1E0F3946D5F7F4FDB0198
:1031A0008C918823F9F6B5C0DC01CB010197A10908
:1031B000B1098F3F9105A105B10508F0C4C0209366
:1031C000A304A9C0809119058062803719F58AE1AE
:1031D00095E060E070E040E050E00E949F069B01B7
:1031E000AC01DC01CB010197A109B1090897A10548
:1031F000B10508F0BBC0CA01B90124ED30E340E0DD
:1032000050E00E94102E9B01AC012A5E3C4A4A46C7
:10321000554E24C0863611F58AE195E060E070E0F5
:1032200040E050E00E949F069B01AC01DC01CB0115
:103230000197A109B1090797A105B10508F096C04A
:10324000CA01B90128EA31E640E050E00E94102EA0
:103250009B01AC01245E3C434E46544E2115310582
:103260004105510561F0DA01C9018054914EAD4923
:10327000B8418158904FAA4FB24008F064C02093E3
:103280009A0430939B0440939C0450939D0443C044
:10329000DC01CB010A97A109B109865F9F4FA040CD
:1032A000B04008F050C030939F0420939E0433C078
:1032B000DC01CB010597A109B1098B3F9105A1055F
:1032C000B10508F040C02093A00425C0DC01CB016B
:1032D000845C9940A040B0408D549D41A040B040D6
:1032E00030F43093A2042093A104F1E001C0F0E097
:1032F000211531054105510511F48FEF07C021312A
:1033000031054105510528F4822F8150809399049D
:1033100002C0FF23C1F080917F058823D1F4809102
:103320006A0490916B04A0916C04B0916D040196B5
:10333000A11DB11D80936A0490936B04A0936C044B
:10334000B0936D0406C088E496E067ED71E00E94DA
:1033500049290E94ED108FEF8093180588E496E0CC
:103360006AE00E94BB270E94EE1205C021E030E017
:1033700040E050E078CF6B960FB6F894DEBF0FBEFA
:10338000CDBFCF91DF911F910F91FF90EF900895E6
:10339000AF92BF92CF92DF92EF92FF920F931F9363
:1033A000DF93CF93CDB7DEB76B970FB6F894DEBF40
:1033B0000FBECDBF0E9444247B018C0188E496E0BF
:1033C00068E971E00E94A72781E00E94F40AF0E713
:1033D000AF2E6E010894C11CD11CE3E0BE2EA98261
:1033E000C60161E00E94CA0CB09260040E94D30B37
:1033F0006AEF70E080E090E00E946A2488E496E042
:1034000065EF71E00E94462980916004833009F0E5
:103410004BC00E9444246E197F09800B910B6050B1
:103420007D428143914008F03FC0D9CF88E496E0C7
:1034300067EF71E012C088E496E06FEF71E00E94E0
:1034400049298FE70E94F3090E94070A8983803582
:1034500039F088E496E06CE072E00E94492929C0C6
:103460000AE814E00E94070AF80181938F01F4E052
:10347000043A1F07B9F78FEF8093180510927F0564
:103480000E94EE120CC088E496E00E940A26892B66
:1034900031F088E496E00E9431260E94091780915D
:1034A00018058E3F81F705C080916004833019F6BE
:1034B000BDCF6B960FB6F894DEBF0FBECDBFCF91D8
:1034C000DF911F910F91FF90EF90DF90CF90BF9011
:1034D000AF9008952F923F924F925F926F927F929A
:1034E0008F929F92AF92BF92CF92DF92EF92FF9214
:1034F0000F93DF93CF93CDB7DEB7A8970FB6F894AD
:10350000DEBF0FBECDBF7E010894E11CF11C80E13F
:10351000D7011D928A95E9F75F98469888E496E06E
:103520006DE172E00E9449290E94ED0D20E431EE28
:103530004DE958E129A33AA34BA35CA380EC91ED9C
:10354000A8E9BBE18D8F9E8FAF8FB8A324EF31E048
:1035500040E050E0298F3A8F4B8F5C8F80E593ECF1
:10356000A0E0B0E08D8B9E8BAF8BB88FB0E44B2E7C
:10357000B1EE5B2EBDE96B2EB8E17B2E8824992439
:10358000540100E022243324198A1A8A1B8A1C8AD7
:1035900002C188E496E00E9431268C32D9F184344D
:1035A00021F0833209F0C5C024C088E496E064E4C9
:1035B0000E947F2788E496E040E451EE6DE978E1CF
:1035C0002AE030E00E94D42888E496E06CE20E9471
:1035D0007F2788E496E040EC51ED68E97BE12AE042
:1035E00030E00E94D42888E496E06CE20E94BB2779
:1035F000D2C019821A821B821C821D821E821F82E7
:10360000188619861A861B861C861D861E861F86AE
:10361000188A42C00F5F043009F0BDC069817A8109
:103620008B819C8128EE33E040E050E00E94102E18
:1036300069A37AA38BA39CA36D817E818F819885DA
:103640000E94102E6D8F7E8F8F8F98A329853A85CB
:103650004B855C85298F3A8F4B8F5C8F6D857E857E
:103660008F85988928EE33E040E050E00E94102ECC
:103670006D8B7E8B8F8B988F60527E448040904004
:1036800068F48CE162E30E94230A49A05AA06BA06F
:103690007CA088249924540100E07DC08D899E89F6
:1036A000AF89B88D80539547A040B04018F48CE1A5
:1036B00062E2E9CF2D893E894F89588D20543C49DB
:1036C0004040504018F48CE166E2DDCF2D893E8900
:1036D0004F89588D2055334C4040504018F48CE1B0
:1036E00062E1D1CF2D893E894F89588D20563A4EBF
:1036F0004040504018F48CE165E1C5CF2D893E89EA
:103700004F89588D205731414140504018F48CE189
:1037100061E0B9CF2D893E894F89588D205A3648AE
:103720004140504018F48CE163E0ADCF8CE165E09E
:10373000AACF80538A3078F5C02EDD24CC0CDD1C56
:10374000CC0CDD1CA1E0B0E0AC0FBD1FCA0EDB1E2F
:10375000282F332727FD3095432F532F2DA33EA32A
:103760004FA358A7D6016D917D918D919C912AE030
:1037700030E040E050E00E94102E2DA13EA14FA16C
:1037800058A5260F371F481F591FD6012D933D936B
:103790004D935C93139788E496E00E940A26892B48
:1037A00009F0F7CE81149104A104B10489F4C30196
:1037B000B2010E94880A61E070E080E090E00E941F
:1037C0006A2422242A943324198A1A8A1B8A1C8A7E
:1037D000298D3A8D4B8D5C8D82169306A406B50615
:1037E000D0F40E94330A29893A894B895C89280FD1
:1037F000311D411D511D298B3A8B4B8B5C8B38162B
:1038000008F4382E821508F4282E0894811C911C87
:10381000A11CB11CC0CFC301B20128EE33E040E0CF
:1038200050E00E94422E88E496E0BA01A9012AE005
:1038300030E00E94532888E496E06CE20E947F27E3
:1038400088E496E0632D4AE050E00E94A42888E4D2
:1038500096E06CE20E947F2769897A898B899C892E
:10386000A50194010E94422E88E496E0BA01A901C4
:103870002AE030E00E94532888E496E06CE20E943F
:103880007F2788E496E0622D4AE050E00E94A42859
:1038900088E496E06CE20E94BB278D899E89AF89FF
:1038A000B88D480E591E6A1E7B1E2D8D3E8D4F8D84
:1038B00058A1241535054605570520F449A05AA0FE
:1038C0006BA07CA088249924540165CFDF92EF92ED
:1038D000FF920F931F93CF93DF930E944424DC0148
:1038E000CB010E94C52C10926A0410926B041092B6
:1038F0006C0410926D04DD24E0906A04F0906B0477
:1039000000916C0410916D04102F0F2DFE2CEE24ED
:103910006FEF70E080E090E00E94A32CE60EF71EAF
:10392000081F191FE0926A04F0926B0400936C0464
:1039300010936D04D39484E0D816F1F6C0E7D4E078
:1039400010E015C062E370E080E090E00E94A32CDC
:103950006F5FE0E7F4E090E004C08191861791F397
:103960009F5F9117D0F369931F5F183119F0888119
:10397000882341F7DF91CF911F910F91FF90EF9036
:10398000DF900895EF92FF920F931F93CF93DF93F1
:1039900080E090E0A0E0B0E0C0E0D1E0EE24F82EBE
:1039A000092F1A2F8AEF95E0BE010E94DB23A801A0
:1039B0009701280F311D411D511DDA01C9012196C2
:1039C00031E0C430D30751F78C519E4BA14CBE4D12
:1039D00019F020E030E018C0C4E0D1E08AEF95E0B3
:1039E000BE010E94DB23FE01E35AFC4F8083219637
:1039F00051E0CD32D50791F720E030E080916104AD
:103A0000873011F421E030E0C901DF91CF911F919F
:103A10000F91FF90EF9008950F931F93CF93DF9333
:103A2000EC01062F15E0115071F08AEF95E0BE0110
:103A30000E94DB23081751F08AEF95E0BE01402F6A
:103A40000E94E223F0CF82E00E94050EDF91CF9129
:103A50001F910F910895CF92DF92EF92FF920F93F3
:103A60001F93CF93DF93C8E1D0E000E011E03CE189
:103A7000C32E3EEBD32E31ECE32E3EEDF32EA70109
:103A800096010C2E04C056954795379527950A94B4
:103A9000D2F7C801622F0E940C1D28970F5F1F4F9D
:103AA0008FEFC83FD80759F7C4E0D1E0FE01E35AD1
:103AB000FC4FCE0160810E940C1D219681E0CD3229
:103AC000D807A1F7DF91CF911F910F91FF90EF9051
:103AD000DF90CF9008958F929F92AF92BF92CF9236
:103AE000DF92EF92FF920F931F93DF93CF93CDB7A7
:103AF000DEB7E6970FB6F894DEBF0FBECDBF7C01F0
:103B0000FC018281863609F4B2C0873690F4833096
:103B100009F448C0843030F48130F1F0823009F08B
:103B200044C12DC0843009F48CC0853609F03DC1F4
:103B30008BC0893609F4E7C08A3638F4873609F431
:103B4000A9C0883609F031C1AEC08A3609F4E4C094
:103B5000873C09F02AC126C1C70161E049E250E073
:103B60000E94940D01E614E0C701F80161918F01F4
:103B70000E94830DF4E00A381F07B1F719C1C7018D
:103B800062E04AE150E00E94940D0AE814E0C701A7
:103B9000F80161918F010E94830DF4E0043A1F0740
:103BA000B1F706C1C70163E041E050E00E94940D07
:103BB0000E9444245B016C0181E00E94F40A60E7EA
:103BC000862E8E010F5F1F4F53E0952E8982C8010C
:103BD00061E00E94CA0C909260040E94D30B68ECD2
:103BE00070E080E090E00E946A248091600483305D
:103BF00009F0F7C00E9444246A197B098C099D09C9
:103C0000605876498849904008F0EBC0DFCFC70183
:103C100062E0C5C08FE70E94F3090E94070A89830A
:103C2000803519F0C70163E0BAC00AE814E00E94C9
:103C3000070AF80181938F01F4E0043A1F07B9F7EE
:103C4000A9C00E946A1AB4C0F7018781908589973C
:103C500009F0ABC0D701E1E6F4E019968C91199711
:103C60008193119624E0EA38F207B9F7A1C0F70171
:103C7000878190854A9709F098C0D701EAE8F4E077
:103C800019968C9119978193119624E0E43AF207E2
:103C9000B9F78EC0C70167E641E050E00E94940D7D
:103CA0000E942B1D77C0C70168E641E050E00E94EA
:103CB000940D85E78983DE011296EAE8F4E08AE153
:103CC00001900D928150E1F7CE0101966BE10E94C7
:103CD000CA0C0E94D30B83E08093600468EC70E010
:103CE00080E090E00E946A2480916004843009F0B2
:103CF0005FC08FE70E94F3090E94070A8983853518
:103D000009F04BC047C0C70169E641E050E00E949E
:103D1000940D0E944B083EC0C7016AE641E050E0A6
:103D20000E94940D89E68C8FCE014C9661E00E9432
:103D3000CA0C0E94D30B83E08093600468EC70E0AF
:103D400080E090E00E946A2480916004843081F5D4
:103D50008FE70E94F3090E94070A8C8F8E01035E91
:103D60001F4F47E3C42ED12CCC0EDD1E0E94070A44
:103D7000F80181938F01EC15FD05C1F7AAE8B4E0C5
:103D8000FE017D968AE101900D928150E1F78C8DC4
:103D9000893419F4C70161E002C0C70160E00E94E4
:103DA000830D06C01092AA0403C0C7010E94BF0D74
:103DB00088E496E0F70164810E946B26E6960FB6D0
:103DC000F894DEBF0FBECDBFCF91DF911F910F9151
:103DD000FF90EF90DF90CF90BF90AF909F908F902B
:103DE000089580916004833009F014CF10CF6F9252
:103DF0007F928F929F92AF92BF92CF92DF92EF927B
:103E0000FF920F931F93CF93DF9381E08093AA04D7
:103E100080EBE82E84E0F82E04E0C02ED12CCE0CEE
:103E2000DF1C14E6612EB4E07B2EA6E09A2EF5E0AE
:103E30008F2EE2E0AE2E73E0B72EB8C088E496E095
:103E40000E940A26892B09F4B1C0A9C088E496E033
:103E50000E943126982F8093AB048091AC0483306C
:103E600021F1843028F4813099F08230B8F409C00F
:103E7000853009F450C0853020F1863009F08FC0BC
:103E800067C0953B09F08BC081E08093AC0487C08C
:103E9000923609F082C0A092AC0481C09093AD0428
:103EA0009093AE04B092AC047AC09093B004F70142
:103EB00011828091AE0489278093AE047092AC0485
:103EC0006EC0D92FC0E02091B0043091B1042C2BEA
:103ED0003D2B3093B1042093B0048091AE04892728
:103EE0008093AE048092AC042536310508F457C0A7
:103EF0008BEA94E06CEC41E050E00E94940D8BEA78
:103F000094E061E00E94830D88E496E06091AF0444
:103F10000E946B2642C02091B2043091B304F90193
:103F2000E555FB4F91878091AE0489278093AE04BD
:103F30002F5F3F4F3093B3042093B2048091B004BD
:103F40009091B1042817390750F19092AC0427C022
:103F50000091AE04091729F48BEA94E00E946B1DCE
:103F600013C01091AD048BEA94E06BEC42E050E09A
:103F70000E94940D8BEA94E0612F0E94830D8BEADE
:103F800094E0602F0E94830DF601862D11928A9590
:103F9000E9F71092B3041092B2041092AC0488E4D2
:103FA00096E00E940A26892B09F050CF8091AA043E
:103FB000813009F443CFDF91CF911F910F91FF9092
:103FC000EF90DF90CF90BF90AF909F908F907F90B9
:103FD0006F9008950F931F93009118050F3F09F0FC
:103FE0009EC0863409F47AC0873414F5803309F40E
:103FF00091C0813384F48D3009F471C18E3024F482
:104000008A3009F074C16BC18B3109F44BC0813225
:1040100009F06DC132C0883309F465C088330CF4EF
:1040200060C0893309F468C0803409F060C12CC0D5
:10403000863609F453C0873684F4833561F18435BC
:1040400034F48934D9F1823509F051C13EC0883544
:1040500049F18A3509F04BC15FC08337E1F08437FD
:1040600034F4893659F1823709F041C12EC08837BE
:10407000C9F08A3709F03BC14FC081E694E069E29C
:1040800070E00E948F1633C181E694E069E270E02F
:104090000E94561524C10E942B1D88E496E06AE216
:1040A00072E006C00E94C21C88E496E064E472E0FC
:1040B0000E9449298EEF8093180519C10E944B0870
:1040C00088E496E063E672E006C00E94661C88E41D
:1040D00096E06CE772E00E94492901C10E945E11DE
:1040E00006C1805326C018E0109318050E94A3143F
:1040F00080918904812709C089E0809318050E9476
:10410000A3148091890490E1892780938904009306
:104110001805E5C08AE00DC00E94C81909C00E94B8
:10412000F710882309F4E3C080917E05882321F4E9
:104130008FEF80931805D3C089E195E060E070E0CF
:1041400040E050E00E949F069B01AC018091180561
:10415000843009F441C0853044F4823041F1833029
:1041600094F5813009F097C00DC0863009F467C01E
:1041700086300CF43EC0873009F469C08A3009F0FB
:104180008AC075C0DA01C9018154914EAD49B84168
:104190008F57904FAA4FB24008F07DC0209366041D
:1041A0003093670440936804509369049BC0209344
:1041B0006A0430936B0440936C0450936D0481E067
:1041C00080937F058FC0283031054105510508F0E7
:1041D00062C020936E0486C0DA01C9010197A1096B
:1041E000B1090A97A105B10508F055C020936F04E5
:1041F00079C089E195E064E571E00E94BB0710E0B9
:104200000EC0183130F4E12FF0E0EF59FB4F8787F3
:104210001F5F80E090E064E571E00E94BB070097BB
:1042200059F00E949D07009761F706C0E12FF0E06A
:10423000EF59FB4F17861F5F1831C0F353C023306F
:1042400031054105510538F5209388044BC0DA014A
:10425000C9010197A109B1090697A105B105D8F4D3
:1042600080918904887F822B809389043BC0DA0186
:10427000C901805B9440A040B04081559D4BA14056
:10428000B04048F420936204309363044093640484
:104290005093650427C088E496E067ED71E00E94C2
:1042A000492913C080916A0490916B04A0916C0419
:1042B000B0916D040196A11DB11D80936A04909385
:1042C0006B04A0936C04B0936D040E94ED108FEF0B
:1042D0008093180588E496E06AE00E94BB270E945C
:1042E000A31405C080917F058823E1F2EECF1F91D2
:1042F0000F9108958FEF8093180510927F050E940B
:10430000A3140CC088E496E00E940A26892B31F0A1
:1043100088E496E00E9431260E94EA1F80911805E9
:104320008E3F81F76AE070E080E090E00E946A24AE
:1043300004C088E496E00E94312688E496E00E945A
:104340000A26892BB1F708957F928F929F92AF92A0
:10435000BF92CF92DF92EF92FF920F931F93DF9362
:10436000CF93CDB7DEB7AA970FB6F894DEBF0FBED6
:10437000CDBF0E9436246B017C0181E00E94F40ACB
:1043800004C088E496E00E94312688E496E00E940A
:104390000A26892BB1F711E022E6722E92E0892ECF
:1043A000912C8C0E9D1E5E010894A11CB11C03E093
:1043B0000E94362420E030E06C197D098E099F09A7
:1043C000693C71058105910510F021E030E0812FF5
:1043D00090E028233923232BA9F10E9436246B0176
:1043E0007C01469A80ED97E00E9403087982D4010F
:1043F000E1E6F4E089E201900D928150E1F7C50118
:104400006AE20E94CA0C469880E090E00E9403088D
:10441000009360040E94D30B62E370E080E090E0C0
:104420000E946A2480916004843059F400936004EF
:104430008FE70E94F3090E94070A823411F410E00A
:1044400001C011E082E10E94D925892B21F511E0FC
:1044500022C088E496E00E9431268D30910569F0F3
:104460008E3091051CF40A97B1F407C08332910590
:1044700069F08234910579F40CC088E496E06AE82A
:1044800071E00E94A7270E947A2105C00E946A1A43
:1044900002C00E94F71E88E496E00E940A26892B3B
:1044A00009F486CFD6CF88E496E00E940A260497C6
:1044B0000CF188E496E00E94312682349105D1F413
:1044C00088E496E00E9431268E34910599F488E4C0
:1044D00096E00E9431268434910561F488E496E0E8
:1044E0000E943126819731F480E090E00E94030819
:1044F0000E94A42108958F929F92AF92BF92CF9273
:10450000DF92EF92FF920F931F9382E10E94D925D1
:10451000892B09F08AC068EC70E080E090E00E948E
:104520006A2480E090E00E9403080E9436245B0128
:104530006C0130ECE32E32E1F32E012D112DE60E4D
:10454000F71E081F191F06C082E10E94D925892B7A
:1045500009F063C00E9436246E157F05800791071D
:1045600098F382E10E94D925892B09F056C080ED8D
:1045700097E00E9403080E9436247B018C01992455
:104580009394882488E496E2A0E0B0E0A80EB91ED7
:10459000CA1EDB1E29C0AE14BF04C006D10638F403
:1045A00080ED97E00E940308882483941DC00E9438
:1045B00036246E197F09800B910B693C71058105CA
:1045C000910590F00E9436247B018C0180E09920B7
:1045D00009F481E0982E882319F480E090E002C06D
:1045E00080ED97E00E94030882E10E94D925892B83
:1045F00091F280E090E00E9403080E944424DC01D4
:10460000CB010E94C52C882011F00E944B080E940B
:10461000661C0E942B1D0E94A61388E496E069E99F
:1046200072E00E9449290E94A4211F910F91FF90DE
:10463000EF90DF90CF90BF90AF909F908F900895B4
:104640000E94CE0D86E061E00E94192585E061E0C0
:104650000E94192582E160E00E94192584E060E053
:104660000E94192584E061E00E94A6250E94DA0DCF
:1046700088E496E060E072EC0E9409260E94C21C69
:10468000892B39F088E496E060EB72E00E944929BA
:1046900010C088E496E06DEC72E00E9446290E940A
:1046A0004B080E942B1D88E496E06FEE72E00E949A
:1046B000462981E08093F5031092AD0583E0809355
:1046C00080008AE1809381008FEF9FEF90938900B3
:1046D0008093880080916F00806280936F0080914A
:1046E0006B00806880936B0080916800816080938C
:1046F000680080E00E94F40AE0919205F0E0EF5932
:10470000FB4F87850E942E0A789480ED97E00E94E7
:10471000030882E161E00E94A6255F9A04C088E454
:1047200096E00E94312688E496E00E940A26892BB2
:10473000B1F788E496E062E073E00E94492968ECF2
:1047400070E080E090E00E946A240E9453220E9460
:104750007B225F9880E090E00E9403088FEF8093B7
:10476000AC050E94D30B1092F7051092F805109239
:10477000F9058091890484FF13C00E94E60D0E9410
:1047800044246093A0057093A1058093A2059093A3
:10479000A30588E496E060E875E20E940926089582
:1047A00083FF08C0609162047091630488E496E01E
:1047B0000E9409260895F999FECF72BD61BDF89A4D
:1047C00080B50895F999FECF1FBA72BD61BD40BD95
:1047D0000FB6F894FA9AF99A0FBE08951F920F92A5
:1047E0000FB60F9211242F933F938F939F93AF9304
:1047F000BF938091FF0590910006A0910106B091B2
:104800000206309103060196A11DB11D232F2D5FD5
:104810002D3720F02D570196A11DB11D20930306C1
:104820008093FF0590930006A0930106B0930206C3
:104830008091FB059091FC05A091FD05B091FE05CE
:104840000196A11DB11D8093FB059093FC05A093DB
:10485000FD05B093FE05BF91AF919F918F913F9160
:104860002F910F900FBE0F901F9018958FB7F8944F
:104870002091FF05309100064091010650910206FB
:104880008FBFB901CA0108959FB7F8942091FB0525
:104890003091FC054091FD055091FE0586B5A89B21
:1048A00006C08F3F21F02F5F3F4F4F4F5F4F9FBF9D
:1048B000542F432F322F2227280F311D411D511D08
:1048C00082E0220F331F441F551F8A95D1F7B9018B
:1048D000CA0108959B01AC017FB7F8948091FB0554
:1048E0009091FC05A091FD05B091FE0566B5A89BD1
:1048F00005C06F3F19F00196A11DB11D7FBFBA2FF2
:10490000A92F982F8827860F911DA11DB11D62E048
:10491000880F991FAA1FBB1F6A95D1F7BC012DC034
:10492000FFB7F8948091FB059091FC05A091FD05DF
:10493000B091FE05E6B5A89B05C0EF3F19F00196C2
:10494000A11DB11DFFBFBA2FA92F982F88278E0F49
:10495000911DA11DB11DE2E0880F991FAA1FBB1F69
:10496000EA95D1F7861B970B885E9340C8F22150D9
:1049700030404040504068517C4F21153105410581
:10498000510571F60895789484B5826084BD84B52C
:10499000816084BD85B5826085BD85B5816085BD3A
:1049A000EEE6F0E0808181608083E1E8F0E0108253
:1049B000808182608083808181608083E0E8F0E094
:1049C000808181608083E1E9F0E080818260808382
:1049D000808181608083E0E9F0E080818160808374
:1049E000E1ECF0E08081846080838081826080835C
:1049F000808181608083E3ECF0E08081816080834E
:104A0000E0ECF0E0808182608083E2ECF0E0808185
:104A100081608083EAE7F0E0808184608083808128
:104A200082608083808181608083808180688083D0
:104A30000895CF93DF93482F50E0CA018F5C954FC4
:104A4000FC0134914D5E554FFA018491882369F140
:104A500090E0880F991FFC01E751F64FA591B491A2
:104A6000FC01E950F64FC591D491662351F42FB75C
:104A7000F8948C91932F909589238C938881892326
:104A80000BC0623061F42FB7F8948C91932F9095FE
:104A900089238C938881832B88832FBF06C09FB77F
:104AA000F8948C91832B8C939FBFDF91CF910895C5
:104AB000883071F1893068F4823031F1833020F42C
:104AC000813009F042C01DC0833089F08430E9F59F
:104AD00012C08B3059F18C3028F48930E9F08A30DB
:104AE000A1F51EC08C3031F18E3079F529C080914E
:104AF00080008F7703C0809180008F7D809380003D
:104B0000089584B58F7702C084B58F7D84BD0895E4
:104B1000809190008F7707C0809190008F7D03C0B7
:104B200080919000877F8093900008958091C000CD
:104B30008F7703C08091C0008F7D8093C00008955F
:104B40008091C200877F8093C2000895FF920F93E7
:104B50001F93F62E482F50E0CA01815B954FFC0150
:104B60002491CA018F5C954FFC0114914D5E554F05
:104B7000FA0104910023C9F0222319F0822F0E9428
:104B80005825E02FF0E0EE0FFF1FE950F64FA591FA
:104B9000B4919FB7F894FF2021F48C911095812354
:104BA00002C08C91812B8C939FBF1F910F91FF901E
:104BB00008950F931F93482F50E0CA01815B954FD2
:104BC000FC012491CA018F5C954FFC0104914D5E5C
:104BD000554FFA011491112319F420E030E015C06B
:104BE000222319F0822F0E945825812F90E0880FF0
:104BF000991F8B5F954FFC01A591B4918C9120E09A
:104C000030E0802311F021E030E0C9011F910F91C5
:104C100008950895209144063091450680914606F6
:104C200090914706281B390B2F733070C9010895E6
:104C300020914406309145068091460690914706A2
:104C40002817390719F42FEF3FEF09C0E091460606
:104C5000F0914706EC5FF94F8081282F30E0C901C1
:104C60000895209144063091450680914606909122
:104C700047062817390719F42FEF3FEF13C0E091CB
:104C80004606F0914706EC5FF94F20818091460679
:104C90009091470601968F7390709093470680938A
:104CA000460630E0C901089510924B0610924A065C
:104CB00088EE93E0A0E0B0E080934C0690934D0620
:104CC000A0934E06B0934F0682E494E09093490679
:104CD0008093480608950F931F93DF93CF930F920D
:104CE000CDB7DEB78C0169838091FD03882369F01D
:104CF00083E0BE016F5F7F4F41E050E00E942E2AAB
:104D00001816190614F49C0107C081E090E0F80120
:104D10009383828320E030E0C9010F90CF91DF912F
:104D20001F910F91089583E00E94052A0895CF9363
:104D3000DF9312C082E00E9490292FEF8F3F9207ED
:104D4000C9F0E0914406F0914506EC5FF94F80838D
:104D5000D0934506C0934406C0914406D0914506C1
:104D60002196CF73D0708091460690914706C81760
:104D7000D90701F7DF91CF910895FC0180818E5F03
:104D8000808380E869E77AE042E450E00E94A92944
:104D90000895FC0181819081913A59F4813209F0A2
:104DA0004CC080E066EF73E047E050E00E94A92924
:104DB00042C0913209F041C0803239F486EF93E06D
:104DC00067E070E00E94ED2936C0823209F035C0FC
:104DD00082818093FD038091F6039091F703A09167
:104DE000F803B091F903805B9440A040B04019F5FE
:104DF0008091FD0380FD12C087E797E7909301083B
:104E0000809300082BE088E190E00FB6F894A89515
:104E1000809360000FBE209360000DC088E10FB644
:104E2000F89480936000109260000FBEA8951092D5
:104E300001081092000881E0089580E00895CF9362
:104E4000DF930E94C3248EE596E00E94102A0E9400
:104E50002023C0E0D0E00E946F0E2097E1F30E9473
:104E60000000F9CFCF92DF92EF92FF920F931F9342
:104E7000CF93DF937C016B018A01C0E0D0E00FC0CB
:104E8000D6016D916D01D701ED91FC910190F081FA
:104E9000E02DC7010995C80FD91F01501040011519
:104EA000110571F7CE01DF91CF911F910F91FF9006
:104EB000EF90DF90CF900895EF92FF920F931F93A2
:104EC000CF93DF937C018B01C0E0D0E0F8010F5F4E
:104ED0001F4F6491662359F0D701ED91FC91019029
:104EE000F081E02DC7010995C80FD91FEFCFCE0182
:104EF000DF91CF911F910F91FF90EF900895DC010A
:104F0000ED91FC910190F081E02D09950895EF92CB
:104F1000FF920F931F938C01DC01ED91FC910190A6
:104F2000F081E02D6DE009957C01D801ED91FC91B7
:104F30000190F081E02DC8016AE009959C012E0DD9
:104F40003F1DC9011F910F91FF90EF900895EF92BF
:104F5000FF920F931F937C010E945C278C01C70175
:104F60000E9487279C01200F311FC9011F910F91BB
:104F7000FF90EF900895EF92FF920F931F937C01A3
:104F8000DC01ED91FC910190F081E02D09958C01FF
:104F9000C7010E948727080F191FC8011F910F9191
:104FA000FF90EF900895CF93DF93EC0161157105A9
:104FB00019F420E030E00FC0DB010D900020E9F78C
:104FC0001197A61BB70BE881F9810280F381E02DD0
:104FD000AD0109959C01C901DF91CF9108954F92D0
:104FE0005F927F928F929F92AF92BF92CF92DF9209
:104FF000EF92FF920F931F93DF93CF93CDB7DEB75E
:10500000A1970FB6F894DEBF0FBECDBF2C01742E52
:10501000CB01223008F42AE019A231E2C32ED12CB0
:10502000CC0EDD1E822E9924AA24BB24672D752F59
:10503000A50194010E94422E79018A01C801B7019D
:10504000A50194010E94102E472D461B0894C1080B
:10505000D1084A3014F4405D01C0495CF601408338
:10506000E114F1040105110521F07E2C5F2DC8012A
:10507000DDCFC201B6010E94D327A1960FB6F894E6
:10508000DEBF0FBECDBFCF91DF911F910F91FF907B
:10509000EF90DF90CF90BF90AF909F908F907F90D8
:1050A0005F904F900895DC012115310541F4ED9199
:1050B000FC910190F081E02D642F099508950E94E4
:1050C000EF270895EF92FF920F931F937C010E94A8
:1050D00053288C01C7010E9487279C01200F311F94
:1050E000C9011F910F91FF90EF900895EF92FF92E9
:1050F0000F931F939A017B0100E010E0B801A70114
:105100000E9453281F910F91FF90EF900895CF9226
:10511000DF92EF92FF920F931F936C017B019A0134
:1051200000E010E0B801A7010E9453288C01C601DD
:105130000E948727080F191FC8011F910F91FF9028
:10514000EF90DF90CF900895EF92FF920F931F930F
:105150009A01E62EFF2400E010E0B801A7010E94AA
:1051600053281F910F91FF90EF900895CF92DF92F7
:10517000EF92FF920F931F936C01E62E9A01FF248A
:1051800000E010E0B801A7010E9453288C01C6017D
:105190000E948727080F191FC8011F910F91FF90C8
:1051A000EF90DF90CF900895CF92DF92EF92FF9231
:1051B0000F931F93CF93DF93EC016A017B012115BD
:1051C000310541F4E881F9810190F081E02D642FEF
:1051D00009951FC02A303105D1F477FF17C0E88147
:1051E000F9810190F081E02D6DE209958C01442751
:1051F0005527BA014C195D096E097F09CE012AE0D5
:105200000E94EF279801280F391F04C02AE00E944E
:10521000EF279C01C901DF91CF911F910F91FF9062
:10522000EF90DF90CF900895EF92FF920F931F932E
:105230007B019A010027F7FC0095102FB801A70108
:105240000E94D4281F910F91FF90EF900895CF9264
:10525000DF92EF92FF920F931F936C017B019A01F3
:105260000027F7FC0095102FB801A7010E94D42851
:105270008C01C6010E948727080F191FC8011F91C2
:105280000F91FF90EF90DF90CF9008950E94D32769
:105290000895EF92FF920F931F937C010E94D327F2
:1052A0008C01C7010E948727080F191FC8011F9191
:1052B0000F91FF90EF900895282F80915806882332
:1052C000C1F057FF1AC015C02898909357068091D7
:1052D000F1008193E217F307B9F74115510539F051
:1052E0008091F200882319F48BE68093E800AFBF29
:1052F00002C04FEF5FEFCA010895AFB7F89427706F
:105300002093E9008091F200282F30E02417350720
:105310000CF4A901FB019B01240F311D94E6DACFA7
:10532000DF93CF930F92CDB7DEB7BE016F5F7F4F94
:1053300041E050E00E945C29019719F02FEF3FEF08
:1053400003C08981282F30E0C9010F90CF91DF91F0
:105350000895FF920F931F93F82E142F052F40915D
:105360005B0650915C06212F302FC901DC01FB0147
:105370006EEF29C0F7FE02C0949101C09081209188
:10538000590630915A0624173507ACF48091E8008D
:105390008570E1F38091E80082FF03C02FEF3FEFBB
:1053A00017C09093F100C90101968F739070892BFB
:1053B00011F46093E8002F5F3F4F30935A0620931B
:1053C0005906119731961097A9F6812F902F9C01BD
:1053D000C9011F910F91FF9008959C018091E800F1
:1053E00082FFFCCFF901260F311D03C08091F1002F
:1053F0008193E217F307D1F7289884E68093570644
:105400008BEF8093E800CB0108958093E9008091B1
:10541000F200882319F08AE38093E8000895089544
:105420001092580681E08093D70080EA8093D800DC
:1054300082E189BD09B400FEFDCF61E070E080E04B
:1054400090E00E946A2480E98093D8008CE08093E9
:10545000E2001092E000559A209A08955F926F92B0
:105460007F928F929F92AF92BF92CF92DF92EF92F4
:10547000FF920F931F93CF93DF93E82E842E752E08
:1054800080915806882371F18B01242F352FC90193
:10549000EC017AEFF72E67E0962E9E2050E4552E11
:1054A0008E2D90E040E2A42EB12CA822B9223AE33E
:1054B000632E20E4C22ED12CC822D92258C09FB717
:1054C000F8949092E9008091E80085FD02C020E008
:1054D00004C08091F200252D281B9FBF222361F478
:1054E000FA9419F42FEF3FEF4DC061E070E080E0D7
:1054F00090E00E946A243BC0822F90E0C817D90731
:105500000CF42C2FC21BD1094FB7F8949092E900EC
:10551000A114B10421F406C01092F10021502223FD
:10552000D9F719C0E7FC03C0F801922F10C0C801D9
:10553000322F06C0FC010196E491E093F100315056
:105540003323C1F706C081918093F10091509923D4
:10555000D1F7020F111D8091E80085FF05C020974B
:1055600029F4C114D10411F06092E8004FBF2097D4
:1055700009F0A5CF5D9884E680935606282D372D37
:10558000C9019C01C901DF91CF911F910F91FF903B
:10559000EF90DF90CF90BF90AF909F908F907F90D3
:1055A0006F905F9008951F920F920FB60F92112483
:1055B0002F933F934F935F936F937F938F939F931B
:1055C000AF93BF93EF93FF938091E1001092E100BE
:1055D000982F83FF0FC01092E90081E08093EB00C9
:1055E0001092EC0082E38093ED001092580688E060
:1055F0008093F00092FF34C083E08093E9008091B3
:10560000F200882319F08AE38093E8008FB7F894BA
:1056100092E09093E9009091F2008FBF992321F0DE
:1056200088E496E00E94972680915606882351F0E0
:1056300080915606815080935606809156068823A5
:1056400009F45D9A80915706882351F0809157069E
:1056500081508093570680915706882309F4289A31
:10566000FF91EF91BF91AF919F918F917F916F913A
:105670005F914F913F912F910F900FBE0F901F9010
:1056800018950F931F93DF93CF930F92CDB7DEB78B
:1056900019828E010F5F1F4FC8010E94BD26C801ED
:1056A0000E94042E898190E00F90CF91DF911F918D
:1056B0000F9108951F920F920FB60F921124EF923F
:1056C000FF921F932F933F934F935F936F937F931B
:1056D0008F939F93AF93BF93EF93FF93DF93CF93FA
:1056E000CDB7DEB76197DEBFCDBF1092E9008091E4
:1056F000E80083FF0FC1FE0131969E01275F3F4FF7
:1057000003C08091F1008193E217F307D1F7289845
:1057100084E68093570682EF8093E800998197FF93
:1057200005C08091E80080FFFCCF03C08EEF80931E
:10573000E800292F30E0C90180769070892B09F0AC
:10574000C2C08A81882329F41092F1001092F100DE
:10575000D6C0813009F4D3C0833009F4D0C085307D
:1057600049F48091E80080FFFCCF8B8180688093B2
:10577000E300C5C0863009F07CC01C81EF80F8844E
:105780001230C1F51092E90010925A061092590693
:1057900010925C0610925B060E94412B99E0FE017C
:1057A0003996DF01292F1D922A95E9F799871A87E3
:1057B00091E09E8790E8988B9AEF998B20915906FB
:1057C00030915A06275F3F4F3C872B878D87109279
:1057D000E90010925A0610925906F0925C06E09287
:1057E0005B0680E0BF0149E050E00E94A9290E94C9
:1057F000412B85C01092E90010925A06109259066A
:10580000F0925C06E0925B06123241F482E290E094
:105810000E94FC2D892B09F476C071C0113079F4F7
:1058200088E0E816F10419F481E080935D06809128
:105830005D06882309F06BC0E9EFFAE013C013306E
:1058400009F061C08B81882319F4EBEBFAE00AC000
:10585000823019F4EFEBFAE005C0813009F053C053
:10586000E1EEFAE0449180E8BF0150E00E94A929EE
:1058700046C0873009F447C0883021F481E0809326
:10588000F1003DC08930D9F523703070232BD9F554
:10589000EEE1FBE091E031E026E39093E900309304
:1058A000EB0084918093EC002093ED009F5F319694
:1058B000953099F78EE78093EA001092EA008B8189
:1058C000809358061CC08F8198851092E900109231
:1058D0005A061092590690935C0680935B068D8160
:1058E000882329F4CE0101960E94C92606C0823081
:1058F00051F4CE0101960E94CD2C882321F08EEF29
:105900008093E80007C081E28093EB0003C0EBE0E6
:10591000FBE0A8CF6196DEBFCDBFCF91DF91FF91B5
:10592000EF91BF91AF919F918F917F916F915F9117
:105930004F913F912F911F91FF90EF900F900FBECD
:105940000F901F901895EF92FF920F931F937B017A
:105950008C01611571058105910529F420E030E085
:1059600040E050E00BC00E949106A80197010E9400
:10597000642EAC01CB01DA019C01AD01B901CA0171
:105980001F910F91FF90EF900895009729F0BC01AF
:1059900080E090E00E9496060895FC01918180814C
:1059A000813A31F4913089F080E0933089F40DC070
:1059B000813269F49B3021F482818093FE0305C01B
:1059C0009A3029F482818093FF0381E0089580E07A
:1059D0000895EF92FF920F931F938C01E62EDC0146
:1059E000ED91FC910480F581E02D0995F82ED80108
:1059F000ED91FC910680F781E02DC8016E2D09958F
:105A00008F2D90E01F910F91FF90EF9008951092CD
:105A10005F06109263061092620684E594E090930C
:105A20006106809360060895EF92FF920F931F9393
:105A3000DF93CF930F92CDB7DEB789838B017A01C5
:105A400084E0BE016F5F7F4F41E050E00E942E2A4C
:105A500084E4B801A7010E942E2A0F90CF91DF9114
:105A60001F910F91FF90EF90089582E048E050E081
:105A70000E94142D0895FC0116821782108611864B
:105A80001286138614823496BF010E94352D089524
:105A9000DC01683810F0685829C0E62FF0E067FF95
:105AA00013C0E058F04081E090E002C0880F991FD9
:105AB000EA95E2F7809514962C9114972823149672
:105AC0002C93149760E012C0E056F44F6491662363
:105AD00019F420E030E01DC067FF08C014968C91D7
