:100000000C9414060C943C060C943C060C943C0690
:100010000C943C060C943C060C943C060C943C0658
:100020000C943C060C942F080C94982A0C941F2BCB
:100030000C943C060C943C060C943C060C943C0638
:100040000C94F60B0C943C060C943C060C943C0669
:100050000C943C060C943C060C943C060C94B32384
:100060000C943C060C943C060C943C060C943C0608
:100070000C943C060C943C060C943C060C943C06F8
:100080000C943C060C943C060C943C060C943C06E8
:100090000C943C060C943C060C943C060C943C06D8
:1000A0000C943C060C943C060C943C06B319BB190A
:1000B000BB19B319BB19BB19BB19BB19BB19BB19A8
:1000C000BB19BB19BB19BB19BB19BB19BB19D0177D
:1000D000BB19BB19BB19BB19BB193117BB19BB190C
:1000E000BB19BB19BB19BB19BB19BB19BB19BB1970
:1000F000BB19BB19BB19BB19BB19DC17DC17DC1703
:10010000DC17DC17DC17DC17DC17DC17BB19BB1995
:10011000BB19BB19BB19BB193817DB17DB17DB176A
:10012000DB17BB19F117FB1705180D1815181D184B
:1001300025182D1837184118BB19BB197F173F1701
:10014000BB19BB19BB19BB19D017BB19BB19BB19FC
:10015000BB19BB19BB19BB19BB19DA17DA17DA17A8
:10016000DA17BB19F117FB1705180D1815181D180C
:1001700025182D1837184118BB19BB197F173F17C1
:10018000BB19BB19BB19BB19D017456E746572201A
:100190006D656E752E2E2E00436F6E6E65637469ED
:1001A0006E6720746F2052582C20706F7765722014
:1001B000757020746865205258202877697468200B
:1001C00062696E6420706C7567206966206E6F745A
:1001D000207573696E6720616C776179732062693D
:1001E0006E642900546F67676C65642027616C77C3
:1001F0006179732062696E642700546F67676C656C
:10020000642050504D206368616E6E656C206C698F
:100210006D697400536574205253534920696E6AA6
:1002200065636374696F6E206368616E6E656C20D0
:1002300028303D3D64697361626C652900536574C3
:100240002050504D206D696E696D756D2073796E0B
:10025000630053657420626561636F6E20696E741C
:10026000657276616C0053657420626561636F6EC0
:100270002064656C61790053657420626561636F09
:100280006E206672657175656E637920696E2048AF
:100290007A3A20303D64697361626C652C20507835
:1002A0003D504D52206368616E6E656C20782C2045
:1002B00046783D465253206368616E6E656C2078C7
:1002C00000536574206661696C73616665206465BE
:1002D0006C617920287820302E31732900546F67A3
:1002E000676C6564202773746F702050574D27002A
:1002F000546F67676C6564202773746F702050506B
:100300004D27002A2A2A2A2A2A2A2A2A2A2A2A2A57
:100310002A2A2A2A2A2A2A2A2A2A2A2A2A2A2A2A3D
:100320000052582041636B6564202D20726576650C
:100330007274207375636365737366756C21002A2C
:100340002A2A2A2A2A2A2A2A2A2A2A2A2A2A2A2A0D
:100350002A2A2A2A2A2A2A2A2A2A2A2A002A2A2A27
:100360002A2A2A2A2A2A2A2A2A2A2A2A2A2A2A2AED
:100370002A2A2A2A2A2A2A2A2A2A0052582041636B
:100380006B6564202D2075706461746520737563DE
:100390006365737366756C21002A2A2A2A2A2A2A21
:1003A0002A2A2A2A2A2A2A2A2A2A2A2A2A2A2A2AAD
:1003B0002A2A2A2A2A2A0056616C69642063686FF7
:1003C00069636573206172653A205B315D2D5B3135
:1003D000365D20286368616E6E656C20312D313684
:1003E0002900536574206F757470757420666F7280
:1003F00020706F727420005B585D2061626F7274B0
:10040000206368616E67657320616E64206578693A
:100410007420525820636F6E666967005B535D20DD
:10042000736176652073657474696E677320746F89
:10043000205258005B525D207265766572742052BE
:10044000582073657474696E677320746F206465D7
:100450006661756C747300557365206E756D6265A9
:100460007273205B312D445D20746F206564697464
:1004700020706F727473205B452D4E5D20666F7225
:100480002073657474696E6773000A6F70656E4CD3
:1004900052536E672076332E31202D2072656365AE
:1004A0006976657220636F6E666967757261746FD5
:1004B00072005365742073657269616C20626175A6
:1004C00064726174653A2000546F67676C656420DC
:1004D0004672536B7920656D756C6174696F6E211E
:1004E00000546F67676C65642074656C656D657436
:1004F0007279210056616C69642063686F69636575
:10050000733A2031202D20342B34202F2032202DFF
:100510002038202F2033202D20382B34202F20343A
:10052000202D203132202F2035202D2031322B3428
:10053000202F2036202D203136005365742043684B
:10054000616E6E656C20636F6E6669673A2000535A
:1005500065742044617461726174652028302D32A5
:10056000293A200053657420486F70206368616EDB
:100570006E656C7320286D61782032342C20736591
:100580007061726174656420627920636F6D6D6162
:1005900073292076616C69642076616C75657320BF
:1005A000312D3235353A2000536574206368616E11
:1005B0006E656C2073706163696E672028783130D6
:1005C0006B487A293A200053657420524620706F98
:1005D0007765722028302D37293A20005365742022
:1005E0005246206D61676963202868657829206517
:1005F0002E672E20307844454144463030443A201E
:10060000005365742062617365206672657175655B
:100610006E63792028696E20487A293A20005B5A57
:100620005D20656E746572207265636569766572BA
:1006300020636F6E66696775726174696F6E20758D
:1006400074696C79005B465D20646973706C6179D4
:100650002061637475616C206672657175656E6387
:100660006965732075736564005B525D2063616C1E
:1006700063756C6174652072616E646F6D206B656B
:100680007920616E6420686F70206C697374005B00
:10069000495D207265696E697469616C697A65206B
:1006A00073657474696E677320746F20736B6574FF
:1006B00063682064656661756C7473005B585D20C7
:1006C000726576657274206368616E676573206118
:1006D0006E642065786974206D656E75005B535D8E
:1006E00020736176652073657474696E6773207416
:1006F0006F20454550524F4D20616E6420657869EA
:1007000074206D656E7500557365206E756D62653C
:100710007273205B302D395D20746F2065646974BD
:1007200020706172616D6574657273000A6F706527
:100730006E4C52536E672076332E31004F29205471
:10074000696D65642042494E442061742073746170
:100750007274757020203A20004E292050504D2090
:100760006F7574707574206C696D69746564202090
:100770002020203A200044495341424C4544004D3A
:10078000292050504D205253534920746F206368E4
:10079000616E6E656C202020203A20004C2920508C
:1007A000504D206D696E696D756D2073796E632093
:1007B0002875732920203A200044495341424C4572
:1007C00044004B29204661696C736166652062654F
:1007D00061636F6E20696E74762E2028352D323558
:1007E00035293A20004A29204661696C73616665A3
:1007F00020626561636F6E2064656C6179202831C9
:10080000302D3635353335293A20004929204661C7
:10081000696C7361666520626561636F6E206672E4
:10082000712E203A2000207820302E317300482984
:10083000204661696C73616665207370656564202C
:100840002020202020203A200047292053746F7058
:100850002050574D206F6E206661696C736166652C
:10086000203A204F0046292053746F702050504D7D
:10087000206F6E206661696C73616665203A204F57
:100880000050574D206368616E6E656C2000667580
:100890006E6374696F6E3A20002920706F72742045
:1008A00000445446205548462033322D6269742056
:1008B00031306368004F70656E4C52536E6752580A
:1008C000206D696E692034636800466C7974726FBC
:1008D0006E2F4F72616E676552582055484620381A
:1008E000636800525820747970653A2000487A0095
:1008F000203D3D200043616C63756C61746564202C
:100900007061636B657420696E74657276616C3AB0
:10091000200030292053657269616C206261756422
:10092000726174653A003929204672536B792065EB
:100930006D756C6174696F6E3A20003829205465BA
:100940006C656D657472793A20202020202020008B
:100950003729204368616E6E656C20636F6E66692F
:10096000673A202000362920446174617261746501
:100970002028302D32293A20202000352920486FA8
:1009800070206368616E6E656C733A2020202020B1
:10099000003429204368616E6E656C20737061635A
:1009A000696E673A202000332920524620706F7705
:1009B00065722028302D37293A2020200032292046
:1009C0005246206D616769633A2020202020202054
:1009D000202000312920426173652066726571759F
:1009E000656E63793A202020000000000024002773
:1009F000002A002D00300000000000250028002BF8
:100A0000002E003100000000002300260029002CE9
:100A1000002F00040404040403040502020202047B
:100A20000302020202060606060606040402020289
:100A300004040802011040804010204080408008DB
:100A4000020401804020100201108010204040006C
:100A500000000200080E0000030401000B0000006B
:100A60000000000000000000000000000007060574
:100A7000040100080A0B0C0D09080B000202020118
:100A80000009040000010202000005240010010515
:100A90002401010104240206052406000107058142
:100AA0000310004009040100020A000000070502CB
:100AB00002400000070583024000000403090422ED
:100AC00003410072006400750069006E006F002031
:100AD000004C0065006F006E006100720064006FE2
:100AE000001803410072006400750069006E006F19
:100AF0000020004C004C00430012010002000000E6
:100B0000404123368000010102000112010002026F
:100B10000000404123368000010102000100C18035
:100B200081C105010902A1010901A1008501050991
:100B3000190129031500250195037501810295010D
:100B40007505810305010930093109381581257FB3
:100B5000750895038106C0C005010906A10185023B
:100B6000050719E029E7150025017501950881029F
:100B7000950175088103950675081500256505071B
:100B8000190029658100C00904020001030000006A
:100B900009210101000122650007058403400001CD
:100BA00000000000000000002A2B280000000000C8
:100BB0000000000000000000000000000000000035
:100BC0002C9EB4A0A1A2A434A6A7A5AE362D37387A
:100BD000271E1F20212223242526B333B62EB7B883
:100BE0009F8485868788898A8B8C8D8E8F90919241
:100BF000939495969798999A9B9C9D2F3130A3AD8D
:100C0000350405060708090A0B0C0D0E0F1011120A
:100C1000131415161718191A1B1C1DAFB1B0B50007
:100C2000820C1926D429CC2C11241FBECFEFDAE078
:100C3000DEBFCDBF14E0A0E0B1E0E4E4FDE502C01A
:100C400005900D92AC34B107D9F716E0ACE4B4E0EE
:100C500001C01D92AC35B107E1F71CE0C8E2DCE051
:100C600004C02297FE010E945A2EC032D107C9F754
:100C70000E94E4260C94A02E0C940000A0E0B0E0AA
:100C8000E4E4F6E00C94712EEC01A880B980CA80EF
:100C9000DB80A114B104C104D10441F484E2A82E84
:100CA00089EDB82E8BE5C82E87E0D82EC601B50198
:100CB0002DE133EF41E050E00E94292E27EA31E494
:100CC00040E050E00E94D52D7B018C01C601B501AA
:100CD0002DE133EF41E050E00E94292ECA01B90115
:100CE0002CEE34EF4FEF5FEF0E94D52D6E0D7F1D80
:100CF000801F911F97FF04C0615070408040904852
:100D0000688379838A839B839B01AC015F77B901F8
:100D1000CA01CDB7DEB7EAE00C948D2E0E943E06E4
:100D2000089588E393E00E943E0608956093380397
:100D30007093390380933A0390933B030895A0E0A6
:100D4000B0E0E5EAF6E00C946A2EEC012B016A01B2
:100D50006115710519F0FB0191838083C114D104E1
:100D600049F0C6010297839728F020E030E040E088
:100D700050E0DCC0A9908A2D90E00E945E2E892B65
:100D8000C9F7FDE2AF1621F4A9903324339405C0CE
:100D90008BE2A81609F4A9903324C114D10421F0E0
:100DA000E0E1CE16D10411F5F0E3AF1669F48881C5
:100DB000883711F0883541F4A980229682E0382ADC
:100DC00020E1C22ED12C12C0C114D10479F4E0E389
:100DD000AE1659F199E9E92E99E9F92E99E9092F09
:100DE00099E1192F8AE0C82ED12C3AC0FAE0CF162B
:100DF000D10491F080E1C816D10429F0E8E0CE16C4
:100E0000D104F9F415C0BFEFEB2EBFEFFB2EBFEFFF
:100E10000B2FBFE01B2F24C0A9E9EA2EA9E9FA2E67
:100E2000A9E90A2FA9E11A2F1BC0F8E0CF2ED12C77
:100E3000EFEFEE2EEFEFFE2EEFEF0E2FEFE11E2F76
:100E40000FC09601442737FD4095542F6FEF7FEF79
:100E50008FEF9FEF0E94072EC901DA017C018D01FF
:100E600020E030E040E050E060E03601882477FC8C
:100E70008094982C70EDB72EBA0CF9E0FB1570F445
:100E80008A2D81548A3118F499ECB92E06C08A2D26
:100E900081568A3148F589EAB82EBA0C8B2D90E03C
:100EA0008C159D050CF56F3FE9F0E216F30604077B
:100EB0001507B8F0CA01B901A40193010E94D52D0C
:100EC0009B01AC018B2D90E0A0E0B0E0280F391F12
:100ED0004A1F5B1F281739074A075B0710F061E0BC
:100EE00001C06FEFA990C6CF4114510451F06623A1
:100EF00011F0219703C031FE04C02297F201D18383
:100F0000C08330FE07C050954095309521953F4FE6
:100F10004F4F5F4F67FF0AC082E290E090935B06FD
:100F200080935A062FEF3FEF4FEF5FEFB901CA01F1
:100F3000CDB7DEB7E1E10C94862EFC018827992716
:100F4000E89421912032E9F3293010F02E30C8F3D3
:100F50002B3241F02D3239F4689404C00E94FB0713
:100F6000820F911D219120532A30C0F31EF49095D9
:100F700081959F4F08954CE454E00E94C90708955D
:100F8000FB01DC0102C001900D9241505040D8F7A6
:100F90000895009731F4DA018D919C91009709F43E
:100FA0000EC0DC01FB013D912191222319F0321783
:100FB000C9F3FACF332331F4DA011D921C9288274A
:100FC000992708951197AF93BF93FB013D9121910C
:100FD000321771F4332321F488279927119702C01F
:100FE0001E921196FA01A193B0839F918F9108955B
:100FF000222369F7EACF7AE0979F902D879F802D73
:10100000910D11240895009721F19C0140E050E0DA
:1010100068E478EE81E090E00E94292EC901DA01AF
:101020008F3F9105A105B10531F028F08FEF90E0D9
:10103000A0E0B0E008C00097A105B10521F481E06F
:1010400090E0A0E0B0E08093D1008091C00080618A
:1010500003C08091C0008F7E8093C00008951F92CE
:101060000F920FB60F9211248F931F990EC080918B
:101070004E04813019F482E080934E0480914E0436
:10108000833019F484E080934E048F910F900FBE4B
:101090000F901F90189527E020934F0480E092EC6A
:1010A000A1E0B0E08093500490935104A0935204C7
:1010B000B093530420935C0480EC92E9ADEEB9E167
:1010C0008093540490935504A0935604B09357040E
:1010D00085E080935D048DEE9EEFADEABEED8093DA
:1010E000580490935904A0935A04B0935B04AEE55E
:1010F000B4E080E090E0863010F0E0E004C0FC0155
:10110000EB5DFB4FE081ED9301968831910599F7F6
:1011100082E0809376048AE08093770408958F922A
:101120009F92AF92BF92CF92DF92EF92FF920F9376
:101130001F93FC0100A510E087A190E023E130E0BF
:10114000829FF001839FF00D929FF00D1124EB58C8
:10115000FC4F80809180A280B380F801E770F0702E
:10116000E35EFB4F608170E0615F7F4F882777FD12
:101170008095982F20E43FE14DE750E00E94D52D67
:10118000A50194010E94072E69017A0180ED97E084
:10119000A0E0B0E0C80ED91EEA1EFB1E03FF10C07F
:1011A00060E07EEE8AEB9BE0A50194010E94072E91
:1011B00028513C4F4F4F5F4FC20ED31EE41EF51E09
:1011C00087EE93E0A0E0B0E0C80ED91EEA1EFB1E39
:1011D000C701B60128EE33E040E050E00E94072E40
:1011E000CA01B90128EE33E040E050E00E94D52D5D
:1011F0001F910F91FF90EF90DF90CF90BF90AF9035
:101200009F908F900895FF920F931F93082FFB01DB
:10121000DA01F82EF69410E0808191818C9382811E
:10122000938111968C9311978481958112968C935A
:1012300012978681978113968C9313972081318121
:101240004281538164817581868197819295990F3E
:10125000990F907C832F8370982B852F8370880F34
:10126000880F982B872F83708295807F982B1496F8
:101270009C931497159638961F5FF11668F600FF39
:101280005CC0808191818F3F910509F010F440E0AE
:101290000CC022E08030920710F441E006C080507C
:1012A000934010F043E001C042E0828193818F3F80
:1012B000910509F010F450E00CC022E08030920754
:1012C00010F451E006C08050934010F053E001C08C
:1012D00052E0848195818F3F910509F010F480E000
:1012E0000CC022E08030920710F481E006C08050EC
:1012F000934010F083E001C082E0268137812F3FC8
:10130000310509F010F490E00CC092E0203039076C
:1013100010F491E006C02050334010F093E001C07B
:1013200092E05295507F4295440F440F407C452BEC
:10133000880F880F842B892B8C931F910F91FF901E
:10134000089523E08032920718F420E030E026C0B0
:1013500023E0883E920748F49C012F513340E4E09B
:1013600036952795EA95E1F719C027E0803D920769
:1013700020F49C012C5D334011C028E0883992078D
:1013800018F02FEF33E00AC09C01285C374074E06E
:10139000369527957A95E1F72D503C4FC901089570
:1013A000882339F0299800002A9A0000299A000021
:1013B0000895299800002A980000299A00000895AD
:1013C0000F931F93082F5E9A29985E9810E0802F44
:1013D00080780E94D009000F1F5F1830C1F729984C
:1013E0001F910F9108958F770E94E00908950F9340
:1013F0001F93082F10E0802F80780E94D009000FE3
:101400001F5F1830C1F729981F910F9108952998EF
:1014100030E020E0220F299A000083B129980000D3
:1014200090E043E0969587954A95E1F78170280F03
:101430003F5F383079F7822F08950E94F3090E94A8
:10144000070A5E9A08951F93162F80680E94E0098C
:10145000812F0E94F7095E9A1F910895682F89E7EE
:101460000E94230A089586E20E941D0A08950F93A0
:101470001F938C018CE1F80164810E94230A8DE1A5
:10148000F80165810E94230A8EE1F80166810E94BD
:10149000230A80E2F80167810E94230A81E2F801B1
:1014A00060850E94230A82E2F80161850E94230A76
:1014B00083E2F80162850E94230A84E2F8016385D1
:1014C0000E94230A85E2F80164850E94230A8AE2C9
:1014D000F80165850E94230A8EE6F80166850E9460
:1014E000230A8FE6F80167850E94230A80E7F80146
:1014F00060890E94230A81E7F80161890E94230A1A
:1015000082E7F80162890E94230A1F910F910895D2
:10151000EF92FF920F931F93CF93DF937B018C0188
:10152000603028E372072CE982072CE1920728F546
:1015300020E836E948E950E00E94072EE901689763
:10154000B90180E090E020E839E647E65FEF0E94CD
:10155000D52D6E0D7F1D801F911FF2E0660F771F46
:10156000881F991FFA95D1F721E732E040E050E05B
:101570000E94072E890180E421C020E03DE241E382
:1015800051E00E94072EE9016897B90180E090E0E0
:1015900020E033ED4EEC5EEF0E94D52D6E0D7F1DE9
:1015A000801F911F660F771F881F991F21E732E068
:1015B00040E050E00E94072E890180E69E012F71D5
:1015C000622F680F85E70E94230A86E7612F0E9439
:1015D000230A87E7602F0E94230ADF91CF911F9192
:1015E0000F91FF90EF9008959F92AF92BF92CF928C
:1015F000DF920F93DF93CF9300D000D0CDB7DEB74B
:10160000982E83E00E941D0A8093920484E00E9439
:101610001D0A8093930486E060E00E94230A87E01D
:1016200061E00E94230A89E06FE70E94230A8AE0B2
:1016300065E00E94230A8BE065E10E94230A8CE0AA
:1016400062E10E94230A8DE06DEF0E94230A8EE082
:1016500060E00E94230A992019F08EEA93E008C006
:101660008091760423E1829FC00111248B589C4F06
:101670000E94370A80E36CE80E94230A82E36FE04D
:101680000E94230A83E362E40E94230A84E36AE05F
:101690000E94230A85E36AE20E94230A86E36DE240
:1016A0000E94230A87E364ED0E94230A88E360E036
:1016B0000E94230A89E360E00E94230A992049F0EE
:1016C0000CE1A02E0EEBB02E01ECC02E0EEDD02EB4
:1016D00008C0A0905804B0905904C0905A04D0900B
:1016E0005B040AE38D2D9927AA27BB2789839A8358
:1016F000AB83BC83802F69810E94230A802F8B5F7C
:1017000069810E94230ADC2CCB2CBA2CAA240F5FFF
:101710000E3341F783E46FEF0E94230A84E46FEFF6
:101720000E94230A85E46FEF0E94230A86E46FEF8C
:101730000E94230A992019F08DE660E003C08DE62F
:1017400060915C040E94230A89E760E00E94230AFA
:101750008AE760915D040E94230A83E760E00E94AB
:10176000230A84E760E00E94230A992029F060ECB4
:1017700072E98DEE99E108C06091540470915504AE
:1017800080915604909157040E94880A0F900F9000
:101790000F900F90CF91DF910F91DF90CF90BF907E
:1017A000AF909F90089587E061E00E94230A8EE742
:1017B00064E20E94230A88E063E00E94230A88E032
:1017C00060E00E94230A87E065E00E94230A85E02A
:1017D00062E00E94230A83E00E941D0A8093920423
:1017E00084E00E941D0A8093930408951F920F9233
:1017F0000FB60F921124EF92FF921F932F933F93F6
:101800004F935F936F937F938F939F93AF93BF9308
:10181000CF93DF93EF93FF93C0918600D091870021
:1018200080919C0590919D059E01281B390B80910C
:10183000E2038823F9F08091E203833368F0109289
:10184000E20380919B058B3020F081E080939B0523
:101850003BC010929B0538C02C5D354028F4809128
:101860009B058F5F80939B058091E2038F5F809340
:10187000E2032AC080919B05882311F436952795B1
:10188000E9E0253C3E0728F01092E10310929A050A
:101890001BC0F2E02D3B3F0788F18091E1038031CE
:1018A00068F51091E103E12EFF24C9010E94A1090E
:1018B000EE0CFF1C21EC33E0E20EF31EF7019183E6
:1018C00080831F5F1093E103D0939D05C0939C0517
:1018D000FF91EF91DF91CF91BF91AF919F918F9148
:1018E0007F916F915F914F913F912F911F91FF9049
:1018F000EF900F900FBE0F901F90189580E180938E
:10190000E103E2CF10929A0410929F0410929E0479
:101910001092A1041092A0040895FF920F931F93B8
:10192000CF93DF93182F092FF62E8EE30E94230A00
:10193000212F302FC901EC0110E005C08FE769911C
:101940000E94230A1F5F1F15C8F385E064E00E9410
:10195000230A83E00E941D0A8093920484E00E947F
:101960001D0A809393040E94092460939404709349
:101970009504809396049093970487E069E00E9411
:10198000230A81E080934E04DF91CF911F910F9144
:10199000FF9008950E948D0C80914E048130D9F4FF
:1019A0000E9409242091940430919504409196045A
:1019B00050919704621B730B840B950B605A764809
:1019C0008140904040F4E8CF86E396E060E071E02B
:1019D0000E940E29089580914E048130A9F3089544
:1019E0000F931F93CF93DF93182F092F86E396E071
:1019F0006EE70E943026212F302FC901EC0110E044
:101A000000E288818D57823040F486E396E06DE7EE
:101A10000E94302688818027888386E396E069913A
:101A20000E9430261F5F193061F786E396E06EE76B
:101A30000E943026DF91CF911F910F910895DF937F
:101A4000CF93CDB7DEB729970FB6F894DEBF0FBEA0
:101A5000CDBF382F80917F05882379F48EEF89835D
:101A60003A836B83842F90E0959587958C832D83A3
:101A7000198618861F821E822FC040917E05842FF2
:101A800090E09C012F70307054E0959587955A95A1
:101A9000E1F78217930721F18DEF89831A821B8268
:101AA000DE01149620E008C0E259FA4F80818D9340
:101AB000405F2F5F263069F0842F90E0FC0134E016
:101AC000F595E7953A95E1F78F709070E817F9076B
:101AD00059F740937E052A83CE0101960E94F00CAF
:101AE00080917F0590E0019666E070E00E94F42D01
:101AF00080937F0529960FB6F894DEBF0FBECDBF49
:101B0000CF91DF910895FF920F931F938C01F62ED2
:101B100086E396E00E943026F80184818F25848335
:101B20001F910F91FF900895BF92CF92DF92EF9295
:101B3000FF920F931F937C01D62EC42EB52E06E381
:101B400016E0C80165EB0E943026C80162E60E94DB
:101B50003026F7011482C7016D2D0E94830DC70145
:101B60006C2D0E94830DC7016B2D0E94830D1F9168
:101B70000F91FF90EF90DF90CF90BF9008950F935B
:101B80001F938C016AEC41E050E00E94940DC80163
:101B900060E00E94830D1F910F910895219A229A6F
:101BA00023988BE060E00E94DE248CE061E00E94DC
:101BB000DE24089588E08093C1008AE061E00E94FD
:101BC000DE248AE060E00E946B25089586E396E0BB
:101BD00060E875E20E94CE25089583E00E941D0A08
:101BE0008093920484E00E941D0A8093930487E00E
:101BF00061E00E94230A6AE070E080E090E00E94C9
:101C00002F240E94D30B000008950F931F93082FD9
:101C100017C05F9A64E670E080E090E00E942F2495
:101C20005F9864E670E080E090E00E942F241F5FE0
:101C3000101778F36CE271E080E090E00E942F24AE
:101C400010E0F6CF809181058130D1F0813020F015
:101C5000823009F043C037C082E10E949E25892B63
:101C600009F03CC081E0809381050E94FB236093D2
:101C7000820570938305809384059093850508956C
:101C800082E10E949E25892BD9F40E94FB2320919A
:101C90008205309183054091840550918505621B32
:101CA000730B840B950B695E734080409040B0F0DD
:101CB00082E08093810580ED97E00E9403080895FB
:101CC00010928105089582E10E949E25892B31F0B2
:101CD00080E090E00E940308109281050895AF9281
:101CE000BF92CF92DF92EF92FF920F931F93CF9309
:101CF000DF938CE00E941D0A882369F486E396E056
:101D00006CE071E00E940E295F9A80E00E94F40A64
:101D10000E94D30B5F9886E396E00E94CF25892B23
:101D200009F455C28091E605C82FD0E09E012F5FCF
:101D30003F4F2F7130708091E50590E028173907EB
:101D400009F445C286E396E00E94F625C454DA4FB2
:101D500088838091E60590E001968F719070809362
:101D6000E605D9CF0E94092460938A0570938B05FC
:101D700080938C0590938D05611571058105910502
:101D800061F481E090E0A0E0B0E080938A05909358
:101D90008B05A0938C05B0938D0583E080934E0452
:101DA0008FE70E94F309C3EBD5E00E94070A8993ED
:101DB00005E0CC3BD007C9F740919E058091B30563
:101DC000282F30E0842F90E08227932786FF54C08D
:101DD00080E4482740939E05C90188739070C89796
:101DE000D9F510E02EC01F5F80917704E12FF0E05D
:101DF00084FF20C0ED54FA4F608140917E05842F0E
:101E000090E0FC01EF70F0709F012F5F3F4F74E096
:101E1000959587957A95E1F72817390791F0E2595A
:101E2000FA4F6083842F8F5F8F70407F842B809365
:101E30007E0507C0ED54FA4F86E396E060810E946C
:101E40003026212F30E08091B30590E087709070AC
:101E50008217930744F610C02F733070232B61F460
:101E60008091B405809392058091B5058093940587
:101E70008091B605809395058091E705813019F42E
:101E800082E08093E7058091E705833011F410929A
:101E9000E7050E9409245B016C01809196059091F1
:101EA0009705A0919805B09199050097A105B105F6
:101EB000C9F0A6019501281B390B4A0B5B0BDA010F
:101EC000C901885B9B40A040B04060F00E94330A8B
:101ED000809393051092960510929705109298059D
:101EE000109299058FE494E00E948F082091860556
:101EF00030918705409188055091890586017501CB
:101F0000E21AF30A040B150BE616F7060807190781
:101F100008F414C1A0928605B0928705C092880586
:101F2000D092890580919A05883008F0FFC0809191
:101F30009A058F5F80939A05E0908A05F0908B0553
:101F400000918C0510918D05E114F1040105110536
:101F5000F1F08FE494E00E948F08AE18BF08C00A29
:101F6000D10A6A157B058C059D0568F480ED97E024
:101F70000E94030810928A0510928B0510928C051E
:101F800010928D0504C080E090E00E94030820912B
:101F90009E05207C20939E055091E6059091E505D5
:101FA0005917D1F18091E7058230B1F5205820937F
:101FB0009E05E0917704F0E0E770F070E35EFB4F80
:101FC000E081E93010F048E002C04E2F415030E08F
:101FD00013C03F5FA32FB0E0892F90E0FC01E454D1
:101FE000FA4F2081FD01E256FA4F2083A452BA4FE6
:101FF0002C930196982F9F71341710F4951749F779
:102000009093E505832F895C90919E05892B8093A1
:102010009E053093DC051AC09091E7059430D1F409
:102020009091DC05EDEDF5E0AFE9B5E0292F30E06A
:102030002E0F3F1F02C081918D93E217F307D9F74E
:10204000995C80919E05982B90939E0583E08093E8
:10205000E70523C080918105823029F42160209317
:102060009E055F9A0FC020939E055F98992319F4EF
:1020700081E08093E7058091E705833019F484E0DF
:102080008093E705F89480917704877061EC73E0A2
:102090004FE955E00E9403097894469AE091800543
:1020A000F0E0E15BFB4F87850E942E0AE091770408
:1020B000F0E0E770F070E35EFB4F8EE995E0608141
:1020C0000E94CA0CE0918005EF5FE0938005E83143
:1020D00031F0F0E0E15BFB4F8785882311F410922B
:1020E00080058091770483FF29C083E080934E04AC
:1020F0000E94D30B0E940924609396057093970564
:102100008093980590939905611571058105910556
:10211000A9F481E090E0A0E0B0E080939605909370
:102120009705A0939805B093990508C080919A05EA
:10213000883009F45F9A89E080939A05809177044A
:1021400084FF37C00E94092420918E0530918F05AD
:102150004091900550919105621B730B840B950B78
:10216000615375478040904020F10E94092460939C
:102170008E0570938F058093900590939105309113
:1021800094056091950580918A0590918B05A091A9
:102190008C05B0918D050097A105B10519F420E0DB
:1021A00040E004C04091920520919305832F0E9446
:1021B0001F0D46980E94220EDF91CF911F910F9123
:1021C000FF90EF90DF90CF90BF90AF9008958091F7
:1021D0004E04843009F05DCEC5CD10926C0585E6C5
:1021E000E7E0F5E0DF011D928A95E9F708951F9376
:1021F000182F8F3711F08830E1F5E0916C05EE2350
:1022000009F454C0E150E0936C05F0E0E95FFA4F47
:10221000108286E396E06DE00E94302610E00AC04E
:10222000E12FF0E0E95FFA4F86E396E060810E94DB
:1022300030261F5F80916C05181790F386E396E0B7
:1022400060E20E94302686E396E06DE00E94302630
:1022500010E00AC0E12FF0E0E95FFA4F86E396E074
:1022600060810E9430261F5F80916C05181790F3E3
:1022700022C08B3119F40E94ED1002C08D3011F490
:1022800081E01AC080916C05843680F486E396E084
:10229000612F0E94302680916C05E82FF0E0E95F05
:1022A000FA4F10838F5F80936C0505C086E396E03C
:1022B00067E00E94442780E01F9108951F93CF9309
:1022C000DF93CEE5D4E010E03BC086E396E06BE11F
:1022D00071E00E940B2986E396E0612F4AE050E00E
:1022E0000E94692886E396E068E271E00E940B296B
:1022F000699170E080E090E020915D0430E040E082
:1023000050E00E94D52D20E137E240E050E00E94ED
:10231000D52DDC01CB0140915404509155046091BE
:10232000560470915704480F591F6A1F7B1F86E39C
:1023300096E02AE030E00E9427281F5F183119F04C
:102340008881882311F6DF91CF911F910895FF9224
:102350000F931F93CF93DF9386E396E063EE78E0CD
:102360000E94212780917804813049F486E396E029
:102370006AEC78E00E946C270DE0F02E15C08230E8
:1023800049F486E396E065EB78E00E946C2716E05E
:10239000F12E0AC0843041F486E396E061EA78E0E9
:1023A0000E946C27BAE0FB2E09E714E0C0E0D0E001
:1023B00043C0C930D10514F0685C01C06F5C86E38E
:1023C00096E00E94442786E396E069E978E00E945F
:1023D0002127219686E396E0BE014AE050E00E9464
:1023E000D92886E396E06EE878E00E942127D8019C
:1023F000EC91E03190F486E396E061E878E00E94A9
:102400002127F801608170E06F5F7F4F86E396E0DF
:102410004AE050E00E94EC280DC0F0E0E770F07058
:10242000EE0FFF1FE351FC4F6081718186E396E060
:102430000E940E290F5F1F4F6C2FCF1508F4B9CFE4
:1024400086E396E065E678E00E9421278091860485
:1024500080FD03C06CE271E002C06FE271E086E3D0
:1024600096E00E940E2986E396E069E478E00E94F7
:1024700021278091860481FD03C06CE271E002C0D7
:102480006FE271E086E396E00E940E2986E396E013
:102490006EE278E00E94212786E396E06091910445
:1024A0004AE050E00E94692886E396E066E278E020
:1024B0000E946C2786E396E06BE078E00E9421277B
:1024C000409188045091890460918A0470918B0432
:1024D000411551056105710529F186E396E02AE071
:1024E00030E00E94272886E396E065EE77E00E94C0
:1024F000212760918C0470918D0486E396E04AE078
:1025000050E00E944C2886E396E062EC77E00E945F
:10251000212786E396E060918E044AE050E00E9415
:102520007B2806C086E396E069EB77E00E946C2783
:1025300086E396E06CE977E00E94212760918F04A2
:102540007091900486E396E04AE050E00E944C28A7
:1025500086E396E06FE777E00E9421276091870489
:10256000603150F470E06F5F7F4F86E396E04AE0A1
:1025700050E00E94EC2806C086E396E066E777E02C
:102580000E946C2786E396E069E577E00E942127A8
:102590008091860482FD03C061E371E002C065E3BF
:1025A00071E086E396E00E940E2986E396E06CE3F4
:1025B00077E00E9421278091860483FD03C069E3B0
:1025C00071E002C062E471E086E396E00E940E29A9
:1025D000DF91CF911F910F91FF9008951F93CF939B
:1025E000DF93809106058B3054F48730DCF58F3F04
:1025F00051F08F3F0CF495C08130CCF592C08E30F5
:102600000CF08FC02AC086E396E06CE00E94302672
:1026100086E396E06AE874E00E946C2786E396E021
:1026200067E574E00E946C2786E396E064E374E05B
:102630000E946C2786E396E06CE174E00E946C27B0
:1026400086E396E067EF73E00E946C2786E396E0EE
:102650000E944C270E94A71164C0809178048430A6
:1026600009F45FC080917804823009F45AC086E38F
:1026700096E062EE73E00E942127609106057727BD
:1026800067FD709586E396E04AE050E00E94EC28F2
:1026900086E396E067EB73E00E94212714E1CCE328
:1026A000D3E038C080917804981799F5298130E0FB
:1026B00080910605992787FD90950197281739077E
:1026C00041F586E396E06AE471E00E940B2986E317
:1026D00096E0612F4AE050E00E94692886E396E088
:1026E0006EE471E00E940B29EA81F0E0E770F0707F
:1026F000EE0FFF1FE351FC4F6081718186E396E08E
:102700000E940B2986E396E062E571E00E940B29A6
:102710001F5F23969881992329F686E396E00E940D
:102720004C276AE070E080E090E00E942F2404C013
:1027300086E396E00E94F62586E396E00E94CF2588
:10274000892BB1F7DF91CF911F9108951F93CF93FC
:10275000DF9386E396E063ED79E00E9421274091C4
:10276000540450915504609156047091570486E3C7
:1027700096E02AE030E00E94272886E396E06DEBA1
:1027800079E00E94212740915804509159046091AA
:102790005A0470915B0486E396E020E130E00E94E9
:1027A000272886E396E067EA79E00E94212786E3FE
:1027B00096E060915C044AE050E00E947B2886E34A
:1027C00096E061E979E00E94212786E396E0609136
:1027D0005D044AE050E00E947B2886E396E06BE7C8
:1027E00079E00E942127CEE5D4E010E012C0112349
:1027F00031F086E396E064E571E00E940B2986E300
:1028000096E069914AE050E00E9469281F5F183104
:1028100019F08881882359F786E396E00E944C27B7
:1028200086E396E065E679E00E94212786E396E05C
:10283000609176044AE050E00E947B2886E396E0AF
:1028400060E579E00E942127E0917704F0E0E770ED
:10285000F070EE0FFF1FE350FC4F6081718186E343
:1028600096E00E940E2986E396E06BE379E00E94F1
:1028700021278091770483FD03C069E371E002C0E2
:1028800062E471E086E396E00E940E2986E396E01A
:1028900066E279E00E9421278091770484FD03C0DD
:1028A00069E371E002C062E471E086E396E00E94B1
:1028B0000E2986E396E062E179E00E9421274091AB
:1028C000500450915104609152047091530486E376
:1028D00096E02AE030E00E94272886E396E065EF44
:1028E00078E00E9421278FE494E00E948F08AB01DA
:1028F000BC0186E396E02AE030E00E94182886E3D7
:1029000096E060EF78E00E9421278FE494E00E9437
:102910008F089B01AC0160E472E48FE090E00E94BC
:10292000072E86E396E0BA01A9012AE030E00E9472
:10293000182886E396E06DEE78E00E946C27DF9120
:10294000CF911F91089580910605853009F477C0D5
:10295000863094F4823009F463C0833034F48F3FBE
:10296000F1F0813009F090C056C0833009F45DC0A9
:10297000843009F089C05EC0883009F475C08930A0
:102980003CF4863009F460C0873009F07DC061C036
:10299000893009F46EC08A3009F076C06FC086E3D2
:1029A00096E06CE00E94302686E396E06CE277E0E9
:1029B0000E946C2786E396E067E077E00E946C2730
:1029C00086E396E06DED76E00E946C2786E396E064
:1029D0006CEB76E00E946C2786E396E06FE876E089
:1029E0000E946C2786E396E069E676E00E946C27F9
:1029F00086E396E065E476E00E946C2786E396E045
:102A00006EE176E00E946C2786E396E00E944C27F8
:102A10000E94A61339C086E396E061E076E032C0FA
:102A200086E396E06CED75E02DC086E396E067ECFA
:102A300075E028C086E396E068EA75E023C086E387
:102A400096E064E675E01EC086E396E06FE475E00C
:102A500019C086E396E06AE375E00E946C2786E37E
:102A600096E064EF74E00EC086E396E061EE74E0F9
:102A700009C086E396E068EC74E004C086E396E063
:102A800062EB74E00E946C276AE070E080E090E006
:102A90000E942F2404C086E396E00E94F62586E378
:102AA00096E00E94CF25892BB1F708952F923F928F
:102AB0004F925F926F927F928F929F92AF92BF924E
:102AC000CF92DF92EF92FF920F931F93DF93CF93FA
:102AD00000D000D00F92CDB7DEB78C839D834B0121
:102AE0008DB79EB79A838983ADB69EB79B830E94AC
:102AF000FB231B012C018DB79EB7881999090FB6CE
:102B0000F8949EBF0FBE8DBF6DB67EB60894611C53
:102B1000711CEE24FF24BB24B8C086E396E00E941B
:102B2000CF25892B09F4B1C086E396E00E94F625F3
:102B3000282F93E0B916E1F09B1530F081E0B8162C
:102B4000B9F08B15D0F00EC095E0B91609F471C03C
:102B5000B916E0F186E0B81659F097E0B91609F019
:102B600094C06CC0233509F09CC0BB24B3948DC0C5
:102B70002A3309F096C0B39488C0822F80538A30DC
:102B8000A8F4C701A3E0880F991FAA95E1F7EE0CFE
:102B9000FF1CE80EF91E80ED9FEFE80EF91E822F54
:102BA000992787FD9095E80EF91E6FC0283409F02B
:102BB00078C0E814F90409F074C0EE24FF24E3E0BF
:102BC000BE2E00E010E0CC24DD245FC0822F8053B5
:102BD0008A30C0F1822F8154863070F474E0000F87
:102BE000111F7A95E1F707531040822F992787FD2F
:102BF0009095080F191F49C02C3209F052C0F301FB
:102C0000EE0DFF1D00830894E11CF11C8D2D99270A
:102C100087FD90958827990F881F9927CC0CDD1C7C
:102C2000C80ED91E1070C026D126E814F90459F533
:102C300028C02435B1F546E0B42E25C0822F80533C
:102C40008A3040F434E0000F111F3A95E1F7005349
:102C50001040CBCF822F8154863008F4BFCF2A3367
:102C6000A1F4C016D106E9F486E396E066E571E0CA
:102C70000E940E298C819D81B301A4010E94C0078E
:102C800027C025E0B22E00E010E00E94FB2362196D
:102C9000730984099509605D77408040904008F48D
:102CA0003CCF86E396E065E671E00E940E296AE07B
:102CB00070E080E090E00E942F2404C086E396E05C
:102CC0000E94F62586E396E00E94CF25892BB1F776
:102CD0008A2D9B819C010FB6F8943EBF0FBE2DBF7D
:102CE00089819A810FB6F8949EBF0FBE8DBF0F9059
:102CF0000F900F900F900F90CF91DF911F910F9138
:102D0000FF90EF90DF90CF90BF90AF909F908F900B
:102D10007F906F905F904F903F902F900895EF922B
:102D2000FF920F931F93CF93DF93182F092F7B01EF
:102D300086E396E068E771E00E940B2986E396E05F
:102D4000B7014AE050E00E943B28E114F10419F475
:102D5000C0E0D0E044C0812F902F9C01890186E320
:102D600096E06CE771E00E940B29C0E0D0E0D8014A
:102D7000EC91F0E034E0F595E7953A95E1F7E35F03
:102D8000FB4F86E396E060810E944427D801EC91D6
:102D9000F0E0EF70F070E35FFB4F86E396E0608158
:102DA0000E94442786E396E06CE20E9444278D2F20
:102DB000992787FD90958827990F881F9927CC0F11
:102DC000DD1FC80FD91FF80181918F0190E0C8273E
:102DD000D9270894E108F108E114F10441F686E3EB
:102DE00096E06FE771E00E940B2986E396E0BE0152
:102DF00040E150E00E943B2886E396E062E871E003
:102E00000E940E29DF91CF911F910F91FF90EF90BB
:102E10000895EF92FF920F931F93DF93CF93CDB757
:102E2000DEB76B970FB6F894DEBF0FBECDBF282F6D
:102E3000809106058F3F09F031C1822F992787FDC8
:102E40009095A92FB92FFC013A97EF36F10508F0BC
:102E500092C2EA5AFF4FEE0FFF1F0590F491E02D4A
:102E6000099488E794E06AE170E00E948F1683C2BB
:102E700088E794E06AE170E00E94561574C286E328
:102E800096E064E871E00E940E2985E78983DE01FF
:102E90001296E8E7F4E08AE101900D928150E1F7A3
:102EA000CE0101966BE10E94CA0C0E94D30B83E015
:102EB00080934E0468EC70E080E090E00E942F2444
:102EC00080914E04843009F056C28FE70E94F309C6
:102ED0000E94070A8983853509F04DC286E396E092
:102EE00069E973E00E946C2786E396E06BE773E084
:102EF0000E946C2786E396E06DE573E0B5C086E33B
:102F000096E06CE971E00E940E2989E68983CE0182
:102F1000019661E00E94CA0C0E94D30B83E080936B
:102F20004E0468EC70E080E090E00E942F248091D5
:102F30004E04843009F01FC28FE70E94F3090E94FB
:102F4000070A89838E010E5F1F4F7CE1E72EF12C6B
:102F5000EC0EFD1E0E94070AD8018D938D01AE155F
:102F6000BF05C1F7A8E7B4E0FE0132968AE10190FF
:102F70000D928150E1F78981893409F0FCC186E323
:102F800096E06FE373E00E946C2786E396E061E2CF
:102F900073E00E946C2786E396E063E073E064C010
:102FA00086E396E066EB71E00E940E298EEF809337
:102FB0000605E1C120522750822F8053909178045A
:102FC000873014F0923031F08B300CF472C09430B2
:102FD00009F06FC086E396E065EC71E00E940E296F
:102FE000CAC186E396E060EF72E00E946C27809190
:102FF000860491E04FC086E396E06DED72E00E949A
:103000006C278091860492E045C086E18093060596
:1030100086E396E061EC72E027C087E180930605C5
:1030200086E396E067E772E01FC088E180930605BB
:1030300086E396E066E672E017C089E180930605B4
:1030400086E396E062E572E00FC08AE180930605B0
:1030500086E396E06DE372E007C08BE1809306059E
:1030600086E396E064E172E00E946C2784C186E307
:1030700096E06AEF71E00E946C278091860494E0EC
:1030800009C086E396E064EE71E00E946C278091AF
:10309000860498E08927809386040AC0822F0E94C4
:1030A000F710882309F467C180916C05882321F407
:1030B0008FEF8093060557C187E095E060E070E0F0
:1030C00040E050E00E949F069B01AC01E0910605A4
:1030D000EE3044F4EB30E4F4E1300CF434C1E7308A
:1030E0000CF11BC0E83109F4D3C0E9313CF4E631FE
:1030F00009F45AC0E73109F026C164C0EA3109F485
:10310000E5C0EA310CF4D4C0EB3109F01CC1EFC0CA
:1031100080917804843009F416C18091780482305B
:1031200009F411C1DA01C9010197A109B109409758
:10313000A105B10570F0E090780464E1F62EF0E0AE
:103140006CE373E00E2F112707FD1095015010401E
:1031500026C0FF27E7FDF095E858FB4F822F8150EE
:103160008083D9C08E15C9F4DB0111968C9190E053
:103170008017910791F48F2D90E0A0E0B0E08217C6
:103180009307A407B50741F4F801E858FB4FDB01AA
:1031900012968C918183F1E0F3946D5F7F4FDB0198
:1031A0008C918823F9F6B5C0DC01CB010197A10908
:1031B000B1098F3F9105A105B10508F0C4C0209366
:1031C0009104A9C0809107058062803719F588E0D5
:1031D00095E060E070E040E050E00E949F069B01B7
:1031E000AC01DC01CB010197A109B1090897A10548
:1031F000B10508F0BBC0CA01B90124ED30E340E0DD
:1032000050E00E94D52D9B01AC012A5E3C4A4A4603
:10321000554E24C0863611F588E095E060E070E0F8
:1032200040E050E00E949F069B01AC01DC01CB0115
:103230000197A109B1090797A105B10508F096C04A
:10324000CA01B90128EA31E640E050E00E94D52DDC
:103250009B01AC01245E3C434E46544E2115310582
:103260004105510561F0DA01C9018054914EAD4923
:10327000B8418158904FAA4FB24008F064C02093E3
:1032800088043093890440938A0450938B0443C08C
:10329000DC01CB010A97A109B109865F9F4FA040CD
:1032A000B04008F050C030938D0420938C0433C09C
:1032B000DC01CB010597A109B1098B3F9105A1055F
:1032C000B10508F040C020938E0425C0DC01CB017D
:1032D000845C9940A040B0408D549D41A040B040D6
:1032E00030F43093900420938F04F1E001C0F0E0BB
:1032F000211531054105510511F48FEF07C021312A
:1033000031054105510528F4822F815080938704AF
:1033100002C0FF23C1F080916D058823D1F4809114
:10332000580490915904A0915A04B0915B040196FD
:10333000A11DB11D8093580490935904A0935A0481
:10334000B0935B0406C086E396E067ED71E00E94EF
:103350000E290E94ED108FEF8093060586E396E01C
:103360006AE00E9480270E94EE1205C021E030E052
:1033700040E050E078CF6B960FB6F894DEBF0FBEFA
:10338000CDBFCF91DF911F910F91FF90EF900895E6
:10339000AF92BF92CF92DF92EF92FF920F931F9363
:1033A000DF93CF93CDB7DEB76B970FB6F894DEBF40
:1033B0000FBECDBF0E9409247B018C0186E396E0FD
:1033C00068E971E00E946C2781E00E94F40AF0E74E
:1033D000AF2E6E010894C11CD11CE3E0BE2EA98261
:1033E000C60161E00E94CA0CB0924E040E94D30B49
:1033F0006AEF70E080E090E00E942F2486E396E080
:1034000065EF71E00E940B2980914E04833009F032
:103410004BC00E9409246E197F09800B910B6050EC
:103420007D428143914008F03FC0D9CF86E396E0CA
:1034300067EF71E012C086E396E06FEF71E00E94E3
:103440000E298FE70E94F3090E94070A89838035BD
:1034500039F086E396E06CE072E00E940E2929C004
:1034600008E714E00E94070AF80181938F01F4E055
:1034700002391F07B9F78FEF8093060510926D058B
:103480000E94EE120CC086E396E00E94CF25892BA5
:1034900031F086E396E00E94F6250E94091780919C
:1034A00006058E3F81F705C080914E04833019F6E2
:1034B000BDCF6B960FB6F894DEBF0FBECDBFCF91D8
:1034C000DF911F910F91FF90EF90DF90CF90BF9011
:1034D000AF9008952F923F924F925F926F927F929A
:1034E0008F929F92AF92BF92CF92DF92EF92FF9214
:1034F0000F93DF93CF93CDB7DEB7A8970FB6F894AD
:10350000DEBF0FBECDBF7E010894E11CF11C80E13F
:10351000D7011D928A95E9F75F98469886E396E071
:103520006DE172E00E940E290E94ED0D20E431EE63
:103530004DE958E129A33AA34BA35CA380EC91ED9C
:10354000A8E9BBE18D8F9E8FAF8FB8A324EF31E048
:1035500040E050E0298F3A8F4B8F5C8F80E593ECF1
:10356000A0E0B0E08D8B9E8BAF8BB88FB0E44B2E7C
:10357000B1EE5B2EBDE96B2EB8E17B2E8824992439
:10358000540100E022243324198A1A8A1B8A1C8AD7
:1035900002C186E396E00E94F6258C32D9F184348C
:1035A00021F0833209F0C5C024C086E396E064E4CC
:1035B0000E94442786E396E040E451EE6DE978E10D
:1035C0002AE030E00E94992886E396E06CE20E94AF
:1035D000442786E396E040EC51ED68E97BE12AE080
:1035E00030E00E94992886E396E06CE20E948027F2
:1035F000D2C019821A821B821C821D821E821F82E7
:10360000188619861A861B861C861D861E861F86AE
:10361000188A42C00F5F043009F0BDC069817A8109
:103620008B819C8128EE33E040E050E00E94D52D54
:1036300069A37AA38BA39CA36D817E818F819885DA
:103640000E94D52D6D8F7E8F8F8F98A329853A8507
:103650004B855C85298F3A8F4B8F5C8F6D857E857E
:103660008F85988928EE33E040E050E00E94D52D08
:103670006D8B7E8B8F8B988F60527E448040904004
:1036800068F48CE162E30E94230A49A05AA06BA06F
:103690007CA088249924540100E07DC08D899E89F6
:1036A000AF89B88D80539547A040B04018F48CE1A5
:1036B00062E2E9CF2D893E894F89588D20543C49DB
:1036C0004040504018F48CE166E2DDCF2D893E8900
:1036D0004F89588D2055334C4040504018F48CE1B0
:1036E00062E1D1CF2D893E894F89588D20563A4EBF
:1036F0004040504018F48CE165E1C5CF2D893E89EA
:103700004F89588D205731414140504018F48CE189
:1037100061E0B9CF2D893E894F89588D205A3648AE
:103720004140504018F48CE163E0ADCF8CE165E09E
:10373000AACF80538A3078F5C02EDD24CC0CDD1C56
:10374000CC0CDD1CA1E0B0E0AC0FBD1FCA0EDB1E2F
:10375000282F332727FD3095432F532F2DA33EA32A
:103760004FA358A7D6016D917D918D919C912AE030
:1037700030E040E050E00E94D52D2DA13EA14FA1A8
:1037800058A5260F371F481F591FD6012D933D936B
:103790004D935C93139786E396E00E94CF25892B87
:1037A00009F0F7CE81149104A104B10489F4C30196
:1037B000B2010E94880A61E070E080E090E00E941F
:1037C0002F2422242A943324198A1A8A1B8A1C8AB9
:1037D000298D3A8D4B8D5C8D82169306A406B50615
:1037E000D0F40E94330A29893A894B895C89280FD1
:1037F000311D411D511D298B3A8B4B8B5C8B38162B
:1038000008F4382E821508F4282E0894811C911C87
:10381000A11CB11CC0CFC301B20128EE33E040E0CF
:1038200050E00E94072E86E396E0BA01A9012AE043
:1038300030E00E94182886E396E06CE20E9444275C
:1038400086E396E0632D4AE050E00E94692886E313
:1038500096E06CE20E94442769897A898B899C8969
:10386000A50194010E94072E86E396E0BA01A90102
:103870002AE030E00E94182886E396E06CE20E947D
:10388000442786E396E0622D4AE050E00E946928D2
:1038900086E396E06CE20E9480278D899E89AF893D
:1038A000B88D480E591E6A1E7B1E2D8D3E8D4F8D84
:1038B00058A1241535054605570520F449A05AA0FE
:1038C0006BA07CA088249924540165CFDF92EF92ED
:1038D000FF920F931F93CF93DF930E940924DC0183
:1038E000CB010E948A2C1092580410925904109215
:1038F0005A0410925B04DD24E0905804F0905904BF
:1039000000915A0410915B04102F0F2DFE2CEE2411
:103910006FEF70E080E090E00E94682CE60EF71EEA
:10392000081F191FE0925804F092590400935A049A
:1039300010935B04D39484E0D816F1F6CEE5D4E07E
:1039400010E015C062E370E080E090E00E94682C17
:103950006F5FEEE5F4E090E004C08191861791F38B
:103960009F5F9117D0F369931F5F183119F0888119
:10397000882341F7DF91CF911F910F91FF90EF9036
:10398000DF900895EF92FF920F931F93CF93DF93F1
:1039900080E090E0A0E0B0E0C0E0D1E0EE24F82EBE
:1039A000092F1A2F88EE95E0BE010E94A023A801DE
:1039B0009701280F311D411D511DDA01C9012196C2
:1039C00031E0C430D30751F78C519E4BA14CBE4D12
:1039D00019F020E030E018C0C4E0D1E088EE95E0B6
:1039E000BE010E94A023FE01E55BFC4F808321966F
:1039F00051E0CD32D50791F720E030E080914F04BF
:103A0000873011F421E030E0C901DF91CF911F919F
:103A10000F91FF90EF9008950F931F93CF93DF9333
:103A2000EC01062F15E0115071F088EE95E0BE0113
:103A30000E94A023081751F088EE95E0BE01402FA8
:103A40000E94A723F0CF82E00E94050EDF91CF9164
:103A50001F910F910895CF92DF92EF92FF920F93F3
:103A60001F93CF93DF93C8E1D0E000E011E03CE189
:103A7000C32E3EEBD32E31ECE32E3EEDF32EA70109
:103A800096010C2E04C056954795379527950A94B4
:103A9000D2F7C801622F0E940C1D28970F5F1F4F9D
:103AA0008FEFC83FD80759F7C4E0D1E0FE01E55BCE
:103AB000FC4FCE0160810E940C1D219681E0CD3229
:103AC000D807A1F7DF91CF911F910F91FF90EF9051
:103AD000DF90CF9008958F929F92AF92BF92CF9236
:103AE000DF92EF92FF920F931F93DF93CF93CDB7A7
:103AF000DEB7E6970FB6F894DEBF0FBECDBF7C01F0
:103B0000FC018281863609F4B2C0873690F4833096
:103B100009F448C0843030F48130F1F0823009F08B
:103B200044C12DC0843009F48CC0853609F03DC1F4
:103B30008BC0893609F4E7C08A3638F4873609F431
:103B4000A9C0883609F031C1AEC08A3609F4E4C094
:103B5000873C09F02AC126C1C70161E049E250E073
:103B60000E94940D0FE414E0C701F80161918F01E8
:103B70000E94830DF4E008371F07B1F719C1C70190
:103B800062E04AE150E00E94940D08E714E0C701AA
:103B9000F80161918F010E94830DF4E002391F0743
:103BA000B1F706C1C70163E041E050E00E94940D07
:103BB0000E9409245B016C0181E00E94F40A60E725
:103BC000862E8E010F5F1F4F53E0952E8982C8010C
:103BD00061E00E94CA0C90924E040E94D30B68ECE4
:103BE00070E080E090E00E942F2480914E048330AA
:103BF00009F0F7C00E9409246A197B098C099D0904
:103C0000605876498849904008F0EBC0DFCFC70183
:103C100062E0C5C08FE70E94F3090E94070A89830A
:103C2000803519F0C70163E0BAC008E714E00E94CC
:103C3000070AF80181938F01F4E002391F07B9F7F1
:103C4000A9C00E946A1AB4C0F7018781908589973C
:103C500009F0ABC0D701EFE4F4E019968C91199705
:103C60008193119624E0E837F207B9F7A1C0F70174
:103C7000878190854A9709F098C0D701E8E7F4E07A
:103C800019968C9119978193119624E0E239F207E5
:103C9000B9F78EC0C70167E641E050E00E94940D7D
:103CA0000E942B1D77C0C70168E641E050E00E94EA
:103CB000940D85E78983DE011296E8E7F4E08AE156
:103CC00001900D928150E1F7CE0101966BE10E94C7
:103CD000CA0C0E94D30B83E080934E0468EC70E022
:103CE00080E090E00E942F2480914E04843009F0FF
:103CF0005FC08FE70E94F3090E94070A8983853518
:103D000009F04BC047C0C70169E641E050E00E949E
:103D1000940D0E944B083EC0C7016AE641E050E0A6
:103D20000E94940D89E68C8FCE014C9661E00E9432
:103D3000CA0C0E94D30B83E080934E0468EC70E0C1
:103D400080E090E00E942F2480914E04843081F521
:103D50008FE70E94F3090E94070A8C8F8E01035E91
:103D60001F4F47E3C42ED12CCC0EDD1E0E94070A44
:103D7000F80181938F01EC15FD05C1F7A8E7B4E0C8
:103D8000FE017D968AE101900D928150E1F78C8DC4
:103D9000893419F4C70161E002C0C70160E00E94E4
:103DA000830D06C01092980403C0C7010E94BF0D86
:103DB00086E396E0F70164810E943026E6960FB60E
:103DC000F894DEBF0FBECDBFCF91DF911F910F9151
:103DD000FF90EF90DF90CF90BF90AF909F908F902B
:103DE000089580914E04833009F014CF10CF6F9264
:103DF0007F928F929F92AF92BF92CF92DF92EF927B
:103E0000FF920F931F93CF93DF9381E080939804E9
:103E10008EE9E82E84E0F82E04E0C02ED12CCE0CE2
:103E2000DF1C14E6612EB4E07B2EA6E09A2EF5E0AE
:103E30008F2EE2E0AE2E73E0B72EB8C086E396E098
:103E40000E94CF25892B09F4B1C0A9C086E396E072
:103E50000E94F625982F8093990480919A048330CC
:103E600021F1843028F4813099F08230B8F409C00F
:103E7000853009F450C0853020F1863009F08FC0BC
:103E800067C0953B09F08BC081E080939A0487C09E
:103E9000923609F082C0A0929A0481C090939B044C
:103EA00090939C04B0929A047AC090939E04F70178
:103EB000118280919C04892780939C0470929A04BB
:103EC0006EC0D92FC0E020919E0430919F042C2B0E
:103ED0003D2B30939F0420939E0480919C0489275E
:103EE00080939C0480929A042536310508F457C0CB
:103EF00089E994E06CEC41E050E00E94940D89E97E
:103F000094E061E00E94830D86E396E060919D0459
:103F10000E94302642C02091A0043091A104F901F2
:103F2000E756FB4F918780919C04892780939C04DE
:103F30002F5F3F4F3093A1042093A00480919E04F3
:103F400090919F042817390750F190929A0427C046
:103F500000919C04091729F489E994E00E946B1DE3
:103F600013C010919B0489E994E06BEC42E050E0AF
:103F70000E94940D89E994E0612F0E94830D89E9E4
:103F800094E0602F0E94830DF601862D11928A9590
:103F9000E9F71092A1041092A00410929A0486E30B
:103FA00096E00E94CF25892B09F050CF809198048C
:103FB000813009F443CFDF91CF911F910F91FF9092
:103FC000EF90DF90CF90BF90AF909F908F907F90B9
:103FD0006F9008950F931F93009106050F3F09F00E
:103FE0009EC0863409F47AC0873414F5803309F40E
:103FF00091C0813384F48D3009F471C18E3024F482
:104000008A3009F074C16BC18B3109F44BC0813225
:1040100009F06DC132C0883309F465C088330CF4EF
:1040200060C0893309F468C0803409F060C12CC0D5
:10403000863609F453C0873684F4833561F18435BC
:1040400034F48934D9F1823509F051C13EC0883544
:1040500049F18A3509F04BC15FC08337E1F08437FD
:1040600034F4893659F1823709F041C12EC08837BE
:10407000C9F08A3709F03BC14FC08FE494E069E290
:1040800070E00E948F1633C18FE494E069E270E023
:104090000E94561524C10E942B1D86E396E06AE219
:1040A00072E006C00E94C21C86E396E064E472E0FF
:1040B0000E940E298EEF8093060519C10E944B08BD
:1040C00086E396E063E672E006C00E94661C86E323
:1040D00096E06CE772E00E940E2901C10E945E1119
:1040E00006C1805326C018E0109306050E94A31451
:1040F00080917704812709C089E0809306050E949A
:10410000A3148091770490E189278093770400932A
:104110000605E5C08AE00DC00E94C81909C00E94CA
:10412000F710882309F4E3C080916C05882321F4FB
:104130008FEF80930605D3C087E095E060E070E0E4
:1041400040E050E00E949F069B01AC018091060573
:10415000843009F441C0853044F4823041F1833029
:1041600094F5813009F097C00DC0863009F467C01E
:1041700086300CF43EC0873009F469C08A3009F0FB
:104180008AC075C0DA01C9018154914EAD49B84168
:104190008F57904FAA4FB24008F07DC0209354042F
:1041A0003093550440935604509357049BC020937A
:1041B00058043093590440935A0450935B0481E0AF
:1041C00080936D058FC0283031054105510508F0F9
:1041D00062C020935C0486C0DA01C9010197A1097D
:1041E000B1090A97A105B10508F055C020935D04F7
:1041F00079C087E095E064E571E00E94BB0710E0BC
:104200000EC0183130F4E12FF0E0E15BFB4F8787FF
:104210001F5F80E090E064E571E00E94BB070097BB
:1042200059F00E949D07009761F706C0E12FF0E06A
:10423000E15BFB4F17861F5F1831C0F353C023307B
:1042400031054105510538F5209376044BC0DA015C
:10425000C9010197A109B1090697A105B105D8F4D3
:1042600080917704887F822B809377043BC0DA01AA
:10427000C901805B9440A040B04081559D4BA14056
:10428000B04048F4209350043093510440935204BA
:104290005093530427C086E396E067ED71E00E94D7
:1042A0000E2913C08091580490915904A0915A048A
:1042B000B0915B040196A11DB11D809358049093A9
:1042C0005904A0935A04B0935B040E94ED108FEF41
:1042D0008093060586E396E06AE00E9480270E94AC
:1042E000A31405C080916D058823E1F2EECF1F91E4
:1042F0000F9108958FEF8093060510926D050E942F
:10430000A3140CC086E396E00E94CF25892B31F0E0
:1043100086E396E00E94F6250E94EA1F809106053A
:104320008E3F81F76AE070E080E090E00E942F24E9
:1043300004C086E396E00E94F62586E396E00E949C
:10434000CF25892BB1F708957F928F929F92AF92DC
:10435000BF92CF92DF92EF92FF920F931F93DF9362
:10436000CF93CDB7DEB7AA970FB6F894DEBF0FBED6
:10437000CDBF0E94FB236B017C0181E00E94F40A07
:1043800004C086E396E00E94F62586E396E00E944C
:10439000CF25892BB1F711E022E6722E92E0892E0B
:1043A000912C8C0E9D1E5E010894A11CB11C03E093
:1043B0000E94FB2320E030E06C197D098E099F09E3
:1043C000693C71058105910510F021E030E0812FF5
:1043D00090E028233923232BA9F10E94FB236B01B2
:1043E0007C01469A80ED97E00E9403087982D4010F
:1043F000EFE4F4E089E201900D928150E1F7C5010C
:104400006AE20E94CA0C469880E090E00E9403088D
:1044100000934E040E94D30B62E370E080E090E0D2
:104420000E942F2480914E04843059F400934E044E
:104430008FE70E94F3090E94070A823411F410E00A
:1044400001C011E082E10E949E25892B21F511E037
:1044500022C086E396E00E94F6258D30910569F032
:104460008E3091051CF40A97B1F407C08332910590
:1044700069F08234910579F40CC086E396E06AE82D
:1044800071E00E946C270E947A2105C00E946A1A7E
:1044900002C00E94F71E86E396E00E94CF25892B7A
:1044A00009F486CFD6CF8F929F92AF92BF92CF92D0
:1044B000DF92EF92FF920F931F9382E10E949E255D
:1044C000892B09F08AC068EC70E080E090E00E94DF
:1044D0002F2480E090E00E9403080E94FB235B01F0
:1044E0006C0130ECE32E32E1F32E012D112DE60E9E
:1044F000F71E081F191F06C082E10E949E25892B06
:1045000009F063C00E94FB236E157F0580079107A9
:1045100098F382E10E949E25892B09F056C080ED18
:1045200097E00E9403080E94FB237B018C019924E1
:104530009394882488E496E2A0E0B0E0A80EB91E27
:10454000CA1EDB1E29C0AE14BF04C006D10638F453
:1045500080ED97E00E940308882483941DC00E9488
:10456000FB236E197F09800B910B693C7105810556
:10457000910590F00E94FB237B018C0180E0992043
:1045800009F481E0982E882319F480E090E002C0BD
:1045900080ED97E00E94030882E10E949E25892B0E
:1045A00091F280E090E00E9403080E940924DC015F
:1045B000CB010E948A2C882011F00E944B080E9497
:1045C000661C0E942B1D0E94A61386E396E069E9F3
:1045D00072E00E940E290E94A4211F910F91FF906A
:1045E000EF90DF90CF90BF90AF909F908F90089505
:1045F0000E94CE0D86E061E00E94DE2485E061E04D
:104600000E94DE2482E160E00E94DE2484E060E01B
:104610000E94DE2484E061E00E946B250E94DA0D96
:1046200086E396E060E072EC0E94CE250E94C21CF8
:10463000892B39F086E396E060EB72E00E940E2948
:1046400010C086E396E06DEC72E00E940B290E9498
:104650004B080E942B1D86E396E06FEE72E00E94ED
:104660000B2981E08093E20310929B0583E0809305
:1046700080008AE1809381008FEF9FEF9093890003
:104680008093880080916F00806280936F0080919A
:104690006B00806880936B008091680081608093DC
:1046A000680080E00E94F40AE0918005F0E0E15BA0
:1046B000FB4F87850E942E0A789480ED97E00E9438
:1046C000030882E161E00E946B255F9A64E670E076
:1046D00080E090E00E942F240E9453225F9880E0A7
:1046E00090E00E9403088FEF80939A050E94D30BFD
:1046F0001092E5051092E6051092E7058091770487
:1047000084FF13C00E94E60D0E94092460938E0569
:1047100070938F05809390059093910586E396E0C2
:1047200060E875E20E94CE25089583FF08C060917D
:1047300050047091510486E396E00E94CE250895BE
:10474000F999FECF72BD61BDF89A80B50895F999C7
:10475000FECF1FBA72BD61BD40BD0FB6F894FA9A84
:10476000F99A0FBE08951F920F920FB60F9211245F
:104770002F933F938F939F93AF93BF938091ED05BA
:104780009091EE05A091EF05B091F0053091F10503
:104790000196A11DB11D232F2D5F2D3720F02D5720
:1047A0000196A11DB11D2093F1058093ED05909315
:1047B000EE05A093EF05B093F0058091E905909187
:1047C000EA05A091EB05B091EC050196A11DB11D84
:1047D0008093E9059093EA05A093EB05B093EC056F
:1047E000BF91AF919F918F913F912F910F900FBEED
:1047F0000F901F9018958FB7F8942091ED05309188
:10480000EE054091EF055091F0058FBFB901CA0147
:1048100008959FB7F8942091E9053091EA054091F9
:10482000EB055091EC0586B5A89B06C08F3F21F0A3
:104830002F5F3F4F4F4F5F4F9FBF542F432F322F5C
:104840002227280F311D411D511D82E0220F331FE9
:10485000441F551F8A95D1F7B901CA0108959B01DC
:10486000AC017FB7F8948091E9059091EA05A09199
:10487000EB05B091EC0566B5A89B05C06F3F19F03C
:104880000196A11DB11D7FBFBA2FA92F982F882790
:10489000860F911DA11DB11D62E0880F991FAA1FEF
:1048A000BB1F6A95D1F7BC012DC0FFB7F89480916A
:1048B000E9059091EA05A091EB05B091EC05E6B50C
:1048C000A89B05C0EF3F19F00196A11DB11DFFBFC8
:1048D000BA2FA92F982F88278E0F911DA11DB11DCA
:1048E000E2E0880F991FAA1FBB1FEA95D1F7861B2C
:1048F000970B885E9340C8F22150304040405040B2
:1049000068517C4F211531054105510571F6089517
:10491000789484B5826084BD84B5816084BD85B59A
:10492000826085BD85B5816085BDEEE6F0E0808161
:1049300081608083E1E8F0E0108280818260808382
:10494000808181608083E0E8F0E080818160808305
:10495000E1E9F0E0808182608083808181608083F2
:10496000E0E9F0E0808181608083E1ECF0E080812B
:104970008460808380818260808380818160808385
:10498000E3ECF0E0808181608083E0ECF0E0808106
:1049900082608083E2ECF0E0808181608083EAE7DE
:1049A000F0E0808184608083808182608083808168
:1049B000816080838081806880830895CF93DF93B6
:1049C000482F50E0CA018F5C954FFC0134914D5E39
:1049D000554FFA018491882369F190E0880F991F5F
:1049E000FC01E751F64FA591B491FC01E950F64F57
:1049F000C591D491662351F42FB7F8948C91932FDD
:104A0000909589238C93888189230BC0623061F44F
:104A10002FB7F8948C91932F909589238C9388814C
:104A2000832B88832FBF06C09FB7F8948C91832B6C
:104A30008C939FBFDF91CF910895883071F18930B9
:104A400068F4823031F1833020F4813009F042C0C3
:104A50001DC0833089F08430E9F512C08B3059F1E4
:104A60008C3028F48930E9F08A30A1F51EC08C30F2
:104A700031F18E3079F529C0809180008F7703C0A5
:104A8000809180008F7D80938000089584B58F771A
:104A900002C084B58F7D84BD0895809190008F778A
:104AA00007C0809190008F7D03C080919000877F28
:104AB0008093900008958091C0008F7703C080910B
:104AC000C0008F7D8093C00008958091C200877FD1
:104AD0008093C2000895FF920F931F93F62E482FE4
:104AE00050E0CA01815B954FFC012491CA018F5CA3
:104AF000954FFC0114914D5E554FFA01049100232E
:104B0000C9F0222319F0822F0E941D25E02FF0E02A
:104B1000EE0FFF1FE950F64FA591B4919FB7F8949F
:104B2000FF2021F48C911095812302C08C91812B60
:104B30008C939FBF1F910F91FF9008950F931F9328
:104B4000482F50E0CA01815B954FFC012491CA01B6
:104B50008F5C954FFC0104914D5E554FFA01149105
:104B6000112319F420E030E015C0222319F0822F20
:104B70000E941D25812F90E0880F991F8B5F954F14
:104B8000FC01A591B4918C9120E030E0802311F0DC
:104B900021E030E0C9011F910F91089508952091FF
:104BA0003206309133068091340690913506281BE9
:104BB000390B2F733070C90108952091320630915E
:104BC000330680913406909135062817390719F479
:104BD0002FEF3FEF09C0E0913406F0913506EE501B
:104BE000FA4F8081282F30E0C901089520913206C4
:104BF0003091330680913406909135062817390795
:104C000019F42FEF3FEF13C0E0913406F091350611
:104C1000EE50FA4F2081809134069091350601962E
:104C20008F739070909335068093340630E0C901FD
:104C30000895109239061092380688EE93E0A0E0AD
:104C4000B0E080933A0690933B06A0933C06B09365
:104C50003D068FE294E090933706809336060895E0
:104C60000F931F93DF93CF930F92CDB7DEB78C01D5
:104C700069838091EA03882369F083E0BE016F5F56
:104C80007F4F41E050E00E94F3291816190614F4F2
:104C90009C0107C081E090E0F8019383828320E0CB
:104CA00030E0C9010F90CF91DF911F910F910895CE
:104CB00083E00E94CA290895CF93DF9312C082E057
:104CC0000E9455292FEF8F3F9207C9F0E0913206DD
:104CD000F0913306EE50FA4F8083D0933306C093A1
:104CE0003206C0913206D09133062196CF73D07030
:104CF0008091340690913506C817D90701F7DF91E6
:104D0000CF910895FC0180818E5F808380E869E700
:104D10007AE042E450E00E946E290895FC0181810E
:104D20009081913A59F4813209F04CC080E063EEF1
:104D300073E047E050E00E946E2942C0913209F0D2
:104D400041C0803239F483EE93E067E070E00E9466
:104D5000B22936C0823209F035C082818093EA03DD
:104D60008091E3039091E403A091E503B091E60301
:104D7000805B9440A040B04019F58091EA0380FD2B
:104D800012C087E797E790930108809300082BE013
:104D900088E190E00FB6F894A895809360000FBE6C
:104DA000209360000DC088E10FB6F89480936000F6
:104DB000109260000FBEA895109201081092000892
:104DC00081E0089580E00895CF93DF930E948824C6
:104DD0008CE496E00E94D5290E94F822C0E0D0E041
:104DE0000E946F0E2097E1F30E940000F9CFCF924E
:104DF000DF92EF92FF920F931F93CF93DF937C018B
:104E00006B018A01C0E0D0E00FC0D6016D916D0149
:104E1000D701ED91FC910190F081E02DC70109953A
:104E2000C80FD91F015010400115110571F7CE01AF
:104E3000DF91CF911F910F91FF90EF90DF90CF9076
:104E40000895EF92FF920F931F93CF93DF937C010E
:104E50008B01C0E0D0E0F8010F5F1F4F6491662323
:104E600059F0D701ED91FC910190F081E02DC7013F
:104E70000995C80FD91FEFCFCE01DF91CF911F91B8
:104E80000F91FF90EF900895DC01ED91FC9101905E
:104E9000F081E02D09950895EF92FF920F931F93F3
:104EA0008C01DC01ED91FC910190F081E02D6DE031
:104EB00009957C01D801ED91FC910190F081E02DE4
:104EC000C8016AE009959C012E0D3F1DC9011F9183
:104ED0000F91FF90EF900895EF92FF920F931F9321
:104EE0007C010E9421278C01C7010E944C279C0154
:104EF000200F311FC9011F910F91FF90EF9008956E
:104F0000EF92FF920F931F937C01DC01ED91FC91D6
:104F10000190F081E02D09958C01C7010E944C277A
:104F2000080F191FC8011F910F91FF90EF9008956E
:104F3000CF93DF93EC016115710519F420E030E0A7
:104F40000FC0DB010D900020E9F71197A61BB70BEE
:104F5000E881F9810280F381E02DAD0109959C0182
:104F6000C901DF91CF9108954F925F927F928F9206
:104F70009F92AF92BF92CF92DF92EF92FF920F93E8
:104F80001F93DF93CF93CDB7DEB7A1970FB6F894F9
:104F9000DEBF0FBECDBF2C01742ECB01223008F432
:104FA0002AE019A231E2C32ED12CCC0EDD1E822EB6
:104FB0009924AA24BB24672D752FA50194010E9472
:104FC000072E79018A01C801B701A50194010E9449
:104FD000D52D472D461B0894C108D1084A3014F43A
:104FE000405D01C0495CF6014083E114F104010514
:104FF000110521F07E2C5F2DC801DDCFC201B60165
:105000000E949827A1960FB6F894DEBF0FBECDBFC1
:10501000CF91DF911F910F91FF90EF90DF90CF9094
:10502000BF90AF909F908F907F905F904F9008952A
:10503000DC012115310541F4ED91FC910190F081E5
:10504000E02D642F099508950E94B4270895EF92EA
:10505000FF920F931F937C010E9418288C01C701B7
:105060000E944C279C01200F311FC9011F910F91F5
:10507000FF90EF900895EF92FF920F931F939A0184
:105080007B0100E010E0B801A7010E9418281F91E1
:105090000F91FF90EF900895CF92DF92EF92FF92E1
:1050A0000F931F936C017B019A0100E010E0B8019F
:1050B000A7010E9418288C01C6010E944C27080FE6
:1050C000191FC8011F910F91FF90EF90DF90CF90B3
:1050D0000895EF92FF920F931F939A01E62EFF24FB
:1050E00000E010E0B801A7010E9418281F910F915D
:1050F000FF90EF900895CF92DF92EF92FF920F937F
:105100001F936C01E62E9A01FF2400E010E0B80125
:10511000A7010E9418288C01C6010E944C27080F85
:10512000191FC8011F910F91FF90EF90DF90CF9052
:105130000895CF92DF92EF92FF920F931F93CF9338
:10514000DF93EC016A017B012115310541F4E8810F
:10515000F9810190F081E02D642F09951FC02A305C
:105160003105D1F477FF17C0E881F9810190F08112
:10517000E02D6DE209958C0144275527BA014C19A1
:105180005D096E097F09CE012AE00E94B4279801CB
:10519000280F391F04C02AE00E94B4279C01C901CE
:1051A000DF91CF911F910F91FF90EF90DF90CF9003
:1051B0000895EF92FF920F931F937B019A010027AE
:1051C000F7FC0095102FB801A7010E9499281F91A4
:1051D0000F91FF90EF900895CF92DF92EF92FF92A0
:1051E0000F931F936C017B019A010027F7FC009538
:1051F000102FB801A7010E9499288C01C6010E94B6
:105200004C27080F191FC8011F910F91FF90EF90B5
:10521000DF90CF9008950E9498270895EF92FF9213
:105220000F931F937C010E9498278C01C7010E9455
:105230004C27080F191FC8011F910F91FF90EF9085
:105240000895282F809146068823C1F057FF1AC081
:1052500015C02898909345068091F1008193E2173C
:10526000F307B9F74115510539F08091F200882311
:1052700019F48BE68093E800AFBF02C04FEF5FEFF9
:10528000CA010895AFB7F89427702093E900809180
:10529000F200282F30E0241735070CF4A901FB0198
:1052A0009B01240F311D94E6DACFDF93CF930F9249
:1052B000CDB7DEB7BE016F5F7F4F41E050E00E9487
:1052C0002129019719F02FEF3FEF03C08981282F83
:1052D00030E0C9010F90CF91DF910895FF920F93B5
:1052E0001F93F82E142F052F4091490650914A061E
:1052F000212F302FC901DC01FB016EEF29C0F7FE21
:1053000002C0949101C090812091470630914806D7
:1053100024173507ACF48091E8008570E1F38091A3
:10532000E80082FF03C02FEF3FEF17C09093F1001A
:10533000C90101968F739070892B11F46093E80076
:105340002F5F3F4F309348062093470611973196C1
:105350001097A9F6812F902F9C01C9011F910F91E1
:10536000FF9008959C018091E80082FFFCCFF90135
:10537000260F311D03C08091F1008193E217F307DE
:10538000D1F7289884E6809345068BEF8093E80058
:10539000CB0108958093E9008091F200882319F0F1
:1053A0008AE38093E800089508951092460681E00C
:1053B0008093D70080EA8093D80082E189BD09B448
:1053C00000FEFDCF61E070E080E090E00E942F24BD
:1053D00080E98093D8008CE08093E2001092E00096
:1053E000559A209A08955F926F927F928F929F9222
:1053F000AF92BF92CF92DF92EF92FF920F931F93E3
:10540000CF93DF93E82E842E752E80914606882355
:1054100071F18B01242F352FC901EC017AEFF72EA2
:1054200067E0962E9E2050E4552E8E2D90E040E2AF
:10543000A42EB12CA822B9223AE3632E20E4C22E76
:10544000D12CC822D92258C09FB7F8949092E90075
:105450008091E80085FD02C020E004C08091F20048
:10546000252D281B9FBF222361F4FA9419F42FEFF6
:105470003FEF4DC061E070E080E090E00E942F249B
:105480003BC0822F90E0C817D9070CF42C2FC21B09
:10549000D1094FB7F8949092E900A114B10421F416
:1054A00006C01092F10021502223D9F719C0E7FC61
:1054B00003C0F801922F10C0C801322F06C0FC01B2
:1054C0000196E491E093F10031503323C1F706C017
:1054D00081918093F10091509923D1F7020F111D12
:1054E0008091E80085FF05C0209729F4C114D104FC
:1054F00011F06092E8004FBF209709F0A5CF5D98AA
:1055000084E680934406282D372DC9019C01C901EA
:10551000DF91CF911F910F91FF90EF90DF90CF908F
:10552000BF90AF909F908F907F906F905F90089505
:105530001F920F920FB60F9211242F933F934F9308
:105540005F936F937F938F939F93AF93BF93EF93EB
:10555000FF938091E1001092E100982F83FF0FC02C
:105560001092E90081E08093EB001092EC0082E35E
:105570008093ED001092460688E08093F00092FF41
:1055800034C083E08093E9008091F200882319F011
:105590008AE38093E8008FB7F89492E09093E90053
:1055A0009091F2008FBF992321F086E396E00E944C
:1055B0005C2680914406882351F0809144068150F6
:1055C0008093440680914406882309F45D9A809173
:1055D0004506882351F08091450681508093450609
:1055E00080914506882309F4289AFF91EF91BF9195
:1055F000AF919F918F917F916F915F914F913F916B
:105600002F910F900FBE0F901F9018950F931F931F
:10561000DF93CF930F92CDB7DEB719828E010F5F64
:105620001F4FC8010E948226C8010E94C92D89818E
:1056300090E00F90CF91DF911F910F9108951F92ED
:105640000F920FB60F921124EF92FF921F932F9398
:105650003F934F935F936F937F938F939F93AF93FA
:10566000BF93EF93FF93DF93CF93CDB7DEB76197EF
:10567000DEBFCDBF1092E9008091E80083FF0FC12B
:10568000FE0131969E01275F3F4F03C08091F100DC
:105690008193E217F307D1F7289884E680934506B3
:1056A00082EF8093E800998197FF05C08091E80020
:1056B00080FFFCCF03C08EEF8093E800292F30E0FD
:1056C000C90180769070892B09F0C2C08A81882335
:1056D00029F41092F1001092F100D6C0813009F443
:1056E000D3C0833009F4D0C0853049F48091E800FC
:1056F00080FFFCCF8B8180688093E300C5C086303B
:1057000009F07CC01C81EF80F8841230C1F5109242
:10571000E900109248061092470610924A0610922D
:1057200049060E94062B99E0FE013996DF01292FD8
:105730001D922A95E9F799871A8791E09E8790E84C
:10574000988B9AEF998B2091470630914806275FF6
:105750003F4F3C872B878D871092E90010924806B7
:1057600010924706F0924A06E092490680E0BF0197
:1057700049E050E00E946E290E94062B85C01092DD
:10578000E9001092480610924706F0924A06E0920D
:105790004906123241F482E290E00E94C12D892B29
:1057A00009F476C071C0113079F488E0E816F1048C
:1057B00019F481E080934B0680914B06882309F011
:1057C0006BC0E9EFFAE013C0133009F061C08B81C0
:1057D000882319F4EBEBFAE00AC0823019F4EFEBFE
:1057E000FAE005C0813009F053C0E1EEFAE04491DF
:1057F00080E8BF0150E00E946E2946C0873009F45E
:1058000047C0883021F481E08093F1003DC08930A9
:10581000D9F523703070232BD9F5EEE1FBE091E050
:1058200031E026E39093E9003093EB00849180937C
:10583000EC002093ED009F5F3196953099F78EE74D
:105840008093EA001092EA008B81809346061CC088
:105850008F8198851092E9001092480610924706B1
:1058600090934A06809349068D81882329F4CE01BE
:1058700001960E948E2606C0823051F4CE01019618
:105880000E94922C882321F08EEF8093E80007C0BD
:1058900081E28093EB0003C0EBE0FBE0A8CF6196D0
:1058A000DEBFCDBFCF91DF91FF91EF91BF91AF915F
:1058B0009F918F917F916F915F914F913F912F9128
:1058C0001F91FF90EF900F900FBE0F901F901895B3
:1058D000EF92FF920F931F937B018C01611571056D
:1058E0008105910529F420E030E040E050E00BC054
:1058F0000E949106A80197010E94292EAC01CB01BC
:10590000DA019C01AD01B901CA011F910F91FF900D
:10591000EF900895009729F0BC0180E090E00E948C
:1059200096060895FC0191818081813A31F491308D
:1059300089F080E0933089F40DC0813269F49B30A6
:1059400021F482818093EB0305C09A3029F482818F
:105950008093EC0381E0089580E00895EF92FF9238
:105960000F931F938C01E62EDC01ED91FC910480D6
:10597000F581E02D0995F82ED801ED91FC91068076
:10598000F781E02DC8016E2D09958F2D90E01F91B4
:105990000F91FF90EF90089510924D0610925106CE
:1059A0001092500681E494E090934F0680934E0647
:1059B0000895EF92FF920F931F93DF93CF930F926F
:1059C000CDB7DEB789838B017A0184E0BE016F5FBA
:1059D0007F4F41E050E00E94F32984E4B801A70121
:1059E0000E94F3290F90CF91DF911F910F91FF90AB
:1059F000EF90089582E048E050E00E94D92C08958D
:105A0000FC01168217821086118612861386148274
:105A10003496BF010E94FA2C0895DC01683810F01A
:105A2000685829C0E62FF0E067FF13C0E058F04047
:105A300081E090E002C0880F991FEA95E2F7809517
:105A400014962C911497282314962C93149760E0A5
:105A500012C0E056F44F6491662319F420E030E060
:105A60001DC067FF08C014968C9114978D7F149603
:105A70008C9314976F77FD0190E0662321F0868167
:105A8000861709F416829F5F31969630B1F7CD01E3
:105A90001496BD010E94FA2C21E030E0C90108955E
:105AA000CF93DF93DC01683810F0685825C0E62FEB
:105AB000F0E067FF12C0E058F04081E090E002C0E3
:105AC000880F991FEA95E2F714962C911497282BCA
:105AD00014962C93149760E00FC0E056F44F649135
