:100000000C947E000C94F3140C9420150C94A60010
:100010000C94A6000C94A6000C94A6000C94A600C8
:100020000C94A6000C94A6000C94A6000C94A600B8
:100030000C94A6000C94F1040C94A6000C94A60059
:100040000C944D150C94A6000C9470170C94BE17CC
:100050000C94A6000C94A6000C94A6000C94A60088
:100060000C94A6000C94A60053656E64696E67201C
:100070005258207479706520696E666F0052656908
:100080006E697420525820636F6E6669670053650D
:100090006E64696E6720525820636F6E66696700F0
:1000A00000000000240027002A00000000002500B6
:1000B00028002B0000000000230026002900040473
:1000C0000404040404040202020202020303030300
:1000D00003030102040810204080010204081020DC
:1000E00001020408102000000007000201000003C4
:1000F000040600000000000000002A1911241FBEA1
:10010000CFEFD8E0DEBFCDBF12E0A0E0B1E0EEE37C
:10011000F7E302C005900D92A63FB107D9F714E0AE
:10012000A6EFB2E001C01D92A33BB107E1F710E0DA
:10013000CCEFD0E004C02297FE010E94991BCA3F79
:10014000D107C9F70E9480190C949D1B0C940000E4
:100150008091F602813019F482E08093F60280915A
:10016000F602833019F484E08093F6020895682F34
:1001700070E0CB018C599F4F8E3B910548F4665F30
:100180007F4F80E090E02AE030E040E050E014C093
:10019000823D910548F46055704080E090E024E68F
:1001A00030E040E050E008C06956704080E090E0E8
:1001B00028E532E040E050E00E94271B24E630E0D2
:1001C00040E050E00E94271B0895FC0120A530E08C
:1001D000C901817090700196277030703595279510
:1001E000820F931F880F880F08958F929F92AF926E
:1001F000BF92CF92DF92EF92FF920F931F93FC0179
:1002000000A510E087A190E023E130E0829FF0019B
:10021000839FF00D929FF00D1124EC5EFD4F8080C6
:100220009180A280B380F801E770F070E252FD4F38
:10023000608170E0615F7F4F882777FD8095982F00
:1002400020E43FE14DE750E00E94271BA501940107
:100250000E945A1B69017A0180ED97E0A0E0B0E0AE
:10026000C80ED91EEA1EFB1E08711070012B81F00A
:1002700060E07EEE8AEB9BE0A50194010E945A1B90
:1002800028513C4F4F4F5F4FC20ED31EE41EF51E48
:1002900087EE93E0A0E0B0E0C80ED91EEA1EFB1E78
:1002A000C701B60128EE33E040E050E00E945A1B3F
:1002B000CA01B90128EE33E040E050E00E94271B5C
:1002C0001F910F91FF90EF90DF90CF90BF90AF9074
:1002D0009F908F900895FF920F931F93082FFB011B
:1002E000DA01F82EF69410E0808191818C9382815E
:1002F000938111968C9311978481958112968C939A
:1003000012978681978113968C9313972081318160
:100310004281538164817581868197819295990F7D
:10032000990F907C832F8370982B852F8370880F73
:10033000880F982B872F83708295807F982B149637
:100340009C931497159638961F5FF11668F600FF78
:100350005CC0808191818F3F910509F010F440E0ED
:100360000CC022E08030920710F441E006C08050BB
:10037000934010F043E001C042E0828193818F3FBF
:10038000910509F010F450E00CC022E08030920793
:1003900010F451E006C08050934010F053E001C0CB
:1003A00052E0848195818F3F910509F010F480E03F
:1003B0000CC022E08030920710F481E006C080502B
:1003C000934010F083E001C082E0268137812F3F07
:1003D000310509F010F490E00CC092E020303907AC
:1003E00010F491E006C02050334010F093E001C0BB
:1003F00092E05295507F4295440F440F407C452B2C
:10040000880F880F842B892B8C931F910F91FF905D
:1004100008951F93182FDB01FA01482F469530E00D
:10042000848190E083709070982F88272081820FBC
:10043000911D11969C938E93848190E08C709070A6
:1004400056E0880F991F5A95E1F72181820F911D7F
:1004500013969C938E931297848190E08073907092
:1004600024E0880F991F2A95E1F72281820F911DC0
:1004700015969C938E931497848190E0807C907065
:10048000880F991F880F991F2381820F911D17963E
:100490009C938E931697359618963F5F431708F0F6
:1004A000BFCF10FF50C0808182958695869583705E
:1004B00090E02DE431E0AC01429FC001439F900DDC
:1004C000529F900D11240C9611969C938E938081CF
:1004D00090E064E0969587956A95E1F78370907057
:1004E000AC01429FC001439F900D529F900D11247B
:1004F0000C9613969C938E931297808190E096951C
:1005000087959695879583709070AC01429FC00146
:10051000439F900D529F900D11240C9615969C931D
:100520008E931497808190E083709070AC01429F0D
:10053000C001439F900D529F900D11240C96179669
:100540009C938E9316971F910895882339F04298B3
:100550000000419A0000429A00000895429800006D
:1005600041980000429A000008950F931F93082FAE
:100570005C9A42985C9810E0802F80780E94A502D7
:10058000000F1F5F1830C1F742981F910F91089517
:100590008F770E94B50208950F931F93082F10E0E4
:1005A000802F80780E94A502000F1F5F1830C1F7CE
:1005B00042981F910F910895429890E020E0990F82
:1005C000429A000086B1429800008170980F2F5F18
:1005D0002830A9F7892F08950E94C8020E94DC02E2
:1005E0005C9A08951F93162F80680E94B502812F90
:1005F0000E94CC025C9A1F9108951F9310910003F2
:100600001827E7EFF2E0E80FF11D89E767850E9400
:10061000F2028DE3612F0E94F20282E4612F0E94B8
:10062000F2021F91089586E20E94EC0208950F9352
:100630001F938BE20E94EC02082F8CE20E94EC02D6
:10064000282F30E076E0369527957A95E1F710E08F
:10065000000F111F000F111F202B312BC9011F91FB
:100660000F9108950F931F938C018CE1F801648121
:100670000E94F2028DE1F80165810E94F2028EE192
:10068000F80166810E94F20280E2F80167810E940F
:10069000F20281E2F80160850E94F20282E2F80132
:1006A00061850E94F20283E2F80162850E94F202F3
:1006B00084E2F80163850E94F20285E2F801648514
:1006C0000E94F2028AE2F80165850E94F2028EE63B
:1006D000F80166850E94F2028FE6F80167850E94A4
:1006E000F20280E7F80160890E94F20281E7F801D6
:1006F00061890E94F20282E7F80162890E94F20297
:100700001F910F910895EF92FF920F931F93CF9334
:10071000DF937B018C01603028E372072CE98207AC
:100720002CE1920728F520E836E948E950E00E94DC
:100730005A1BE9016897B90180E090E020E839E6AA
:1007400047E65FEF0E94271B6E0D7F1D801F911FE4
:10075000F2E0660F771F881F991FFA95D1F721E7FE
:1007600032E040E050E00E945A1B890180E421C041
:1007700020E03DE241E351E00E945A1BE901689705
:10078000B90180E090E020E033ED4EEC5EEF0E9496
:10079000271B6E0D7F1D801F911F660F771F881FFF
:1007A000991F21E732E040E050E00E945A1B890186
:1007B00080E69E012F71622F680F85E70E94F2028A
:1007C00086E7612F0E94F20287E7602F0E94F20203
:1007D000DF91CF911F910F91FF90EF9008959F921D
:1007E000AF92BF92CF92DF920F93DF93CF9300D05F
:1007F00000D0CDB7DEB7982E83E00E94EC02809344
:100800003B0384E00E94EC0280933C0386E060E0BE
:100810000E94F20287E061E00E94F20289E06FE745
:100820000E94F2028AE065E00E94F2028BE062E13F
:100830000E94F2028CE065E10E94F2028DE06DEF11
:100840000E94F2028EE060E00E94F202992019F00C
:1008500083E792E008C080911E0323E1829FC001DC
:1008600011248C5E9D4F0E94320380E36CE80E944D
:10087000F20282E36FE00E94F20283E362E40E94EC
:10088000F20284E36AE00E94F20285E36AE20E94D7
:10089000F20286E36DE20E94F20287E364ED0E94B9
:1008A000F20288E360E00E94F20289E360E00E94C5
:1008B000F202992049F00EE1A02E0EEBB02E01ECD1
:1008C000C02E0EEDD02E08C0A0900003B090010302
:1008D000C0900203D09003030AE38D2D9927AA2725
:1008E000BB2789839A83AB83BC83802F69810E9455
:1008F000F202802F8B5F69810E94F202DC2CCB2CEC
:10090000BA2CAA240F5F0E3341F783E46FEF0E94E5
:10091000F20284E46FEF0E94F20285E46FEF0E941E
:10092000F20286E46FEF0E94F202992019F08DE640
:1009300066E003C08DE6609104030E94F20289E73D
:1009400060E00E94F2028AE7609105030E94F202D1
:1009500083E760E00E94F20284E760E00E94F20216
:10096000992029F060EC72E98DEE99E108C0609160
:10097000FC027091FD028091FE029091FF020E94A4
:1009800083030F900F900F900F90CF91DF910F91F5
:10099000DF90CF90BF90AF909F90089587E061E087
:1009A0000E94F2028EE764E20E94F20288E063E0B5
:1009B0000E94F20288E060E00E94F20287E065E0B7
:1009C0000E94F20285E062E00E94F20283E00E944F
:1009D000EC0280933B0384E00E94EC0280933C0392
:1009E00008951F920F920FB60F9211242F933F93E9
:1009F0004F938F939F93EF93FF9340915C033091BC
:100A0000A802431708F099C08091B8039091B903E8
:100A10009093870080938600E42FF0E0EE0FFF1F95
:100A2000EA57FD4F0190F081E02DEC30F10540F4E4
:100A300024E0EE0FFF1F2A95E1F7E85DFC4F15C09B
:100A400083E0E43FF80718F4E452FC4F0EC084E062
:100A5000E030F80718F0E0E9F8E007C0E657F34F98
:100A600094E0EE0FFF1F9A95E1F7EE0FFF1FF09352
:100A7000B903E093B8032091B8033091B903809192
:100A8000A6029091A702821B930B9093A7028093DA
:100A9000A6022091360330913703220F331F8217AD
:100AA000930720F43093A7022093A60280915E035F
:100AB000882339F480912E0380FF98C0483008F4D1
:100AC00095C08FEF9FEF909389008093880080916D
:100AD0008400909185008097D0F385B19091B50303
:100AE000892385B988B19091B603892388B98BB1E0
:100AF0009091B70389238BB980915D038823C9F452
:100B00004423B9F025B14150842F90E04F5FFC01A0
:100B1000EE0FFF1FE80FF91FEB57FC4F8081282BCA
:100B200025B988B19181892B88B98BB19281892BA4
:100B30008BB94F5F40935C0360C08091B803909184
:100B4000B90390938700809386008091A6029091CC
:100B5000A7029093B9038093B80380915E03882322
:100B600019F08FEF9FEF06C08091B8039091B90301
:100B700088559240909389008093880080E49CE996
:100B80009093A7028093A6028091840090918500A3
:100B90008097D0F385B19091B503892385B988B149
:100BA0009091B603892388B98BB19091B7038923BB
:100BB0008BB980915D038823B1F425B13150832F27
:100BC00090E0FC01EE0FFF1FE80FF91FEB57FC4F01
:100BD0008081282B25B988B19181892B88B98BB167
:100BE0009281892B8BB910925C0307C08091B80366
:100BF0009091B9038855924066CFFF91EF919F91F4
:100C00008F914F913F912F910F900FBE0F901F909A
:100C100018958091F602813011F081E008950E94CC
:100C2000A31520913D0330913E0340913F03509125
:100C30004003621B730B840B950B615A764881400D
:100C4000904010F480E0089582E00895FF920F93A1
:100C50001F93CF93DF93182F092FF62E8EE30E9458
:100C6000F202212F302FC901EC0110E005C08FE7FF
:100C700069910E94F2021F5F1F15C8F385E064E0CE
:100C80000E94F20283E00E94EC0280933B0384E026
:100C90000E94EC0280933C030E94A31560933D03E5
:100CA00070933E0380933F039093400387E069E095
:100CB0000E94F20281E08093F602DF91CF911F91B2
:100CC0000F91FF9008950E9426068091F6028130D0
:100CD000D9F40E94A31520913D0330913E03409129
:100CE0003F0350914003621B730B840B950B605ABA
:100CF00076488140904040F4E8CF81E994E060E09C
:100D000071E00E94141B08958091F6028130A9F3CE
:100D10000895CF93DF9381E994E00E948018892B96
:100D2000F9F08091F903C82FD0E09E012F5F3F4F6B
:100D30002F7130708091F80390E02817390781F007
:100D400081E994E00E94B118C852DC4F88838091F9
:100D5000F90390E001968F7190708093F903DBCFD7
:100D6000DF91CF9108958EE060E00E9489168FE0B8
:100D700061E00E94891680E161E00E94891682E0AC
:100D800060E00E94891684E061E00E94891608955F
:100D9000EF92FF921F93CF93DF9387EF92E00E9431
:100DA000E5008093A80290912F03981719F49F5F94
:100DB0009093A802E5E8F3E0108211821282339644
:100DC00083E0EC3AF807C1F78FEF8093B503809387
:100DD000B6038093B70381E2E82E83E0F82EA7EBF9
:100DE000B2E0E7016FEF5FEF4FEF88818031F0F401
:100DF00090E03C91FC01EE0FFF1FE80FF91FEB574D
:100E0000FC4F8081832B808311962C9111978181D7
:100E1000822B818312969C9112978281892B8283E7
:100E2000309543232095522390956923219613965C
:100E3000E3E0CE32DE07C9F66093B7035093B60302
:100E40004093B503CAEAD2E010E0F7018081823214
:100E500038F08632B0F0863219F4888160E00FC035
:100E60001B3021F48091C1008F7E05C01C3029F415
:100E70008091C100877F8093C100888161E00E94DA
:100E800089161F5F0894E11CF11C21961D30E9F6BC
:100E900080912603803231F489E061E00E94C81617
:100EA00082E801C082E08093800081E080935D034E
:100EB00080935E0380912103813211F08732D9F44F
:100EC00083E061E00E94891683E060E00E94C8161A
:100ED00080912103813231F481E08093B1008093CD
:100EE000B00009C082E08093B00085E08093B1003B
:100EF0008EE38093B3008AE1809381008FEF9FEFB0
:100F0000909389008093880080ED97E0909387000C
:100F10008093860080E49CE99093A7028093A602C8
:100F20009093B9038093B80310925C0380916F0093
:100F3000816080936F0080912E0383FF25C0809194
:100F40008003882309F180912F03482F50E0A0E609
:100F5000B3E020E030E02417350761F0F8948D917C
:100F60009C911197F901EE0FFF1FEA57FD4F9183F6
:100F7000808378942F5F3F4F12962031310559F7C7
:100F800010925E0310925D03DF91CF911F91FF904D
:100F9000EF900895E0912F03E031E0F4F894809110
:100FA000570390E0880F991F880F991F8C30910587
:100FB00018F48CE090E006C023E0853F920710F023
:100FC00084EF93E0F0E0EE0FFF1FEA57FD4F9183AF
:100FD00080837894809121038132C9F490915703E2
:100FE000892F81508E3F60F08091B0008F7D80937B
:100FF000B00060E0911161E083E00E94C81608959E
:101000009093B4008091B00080628093B000089506
:10101000EF92FF920F931F93CF93DF93EB019C010D
:10102000442737FD4095542F60E271EA87E090E055
:101030000E947C1B89011216130614F001E010E0D7
:10104000BE01882777FD8095982F20E231EA47E09E
:1010500050E00E94271B9801442737FD4095542FEC
:101060000E947C1B7901C0E0D0E009C0419AC80110
:101070000E9422164198C8010E9422162196CE1580
:10108000DF05A4F3DF91CF911F910F91FF90EF90B7
:101090000895FF920F931F93082FF62E61E00E9490
:1010A0008916802F61E00E94C8168F2D61E00E9492
:1010B000C8168AE090E00E9422168F2D0E941C170D
:1010C000892B11F410E00FC0802F60E00E94C81639
:1010D0008AE090E00E9422168F2D0E941C1710E0DB
:1010E000892B09F411E0802F60E00E948916802F7F
:1010F00060E00E94C8168F2D60E00E94C816812F04
:101100001F910F91FF900895EF92FF920F931F93FD
:10111000DF93CF93CDB7DEB764970FB6F894DEBFF9
:101120000FBECDBF00E010E07E010894E11CF11C71
:10113000B80160587E4F8BEF93E00E94BD14F70119
:10114000E00FF11F80830F5F1F4F0430110581F7FF
:1011500089818A3F49F58A81813131F58B818A35D0
:1011600019F58C818E3F01F500E010E07E010894B6
:10117000E11CF11CB8016C577E4F8BEF93E00E948D
:10118000BD14F701E00FF11F80830F5F1F4F043183
:10119000110581F786E060E673E0A7010E9409026D
:1011A00081E08093800302C01092800364960FB6A2
:1011B000F894DEBF0FBECDBFCF91DF911F910F918D
:1011C000FF90EF900895EF92FF920F931F93CF93AC
:1011D000DF9380E090E0A0E0B0E0C0E0D1E0EE245A
:1011E000F82E092F1A2F8BEF93E0BE010E94BD1439
:1011F000A8019701280F311D411D511DDA01C901B8
:10120000219631E0C430D30751F78E519E4BA14C4B
:10121000BE4D19F020E030E018C0C4E0D1E08BEF03
:1012200093E0BE010E94BD14FE01ED50FE4F80838D
:10123000219651E0CD32D50791F720E030E0809142
:10124000F702893011F421E030E0C901DF91CF913C
:101250001F910F91FF90EF9008952D9A83E00E94C7
:10126000EC0280933B0384E00E94EC0280933C03F9
:1012700086E060E00E94F20287E061E00E94F202F4
:1012800089E06FE70E94F2028AE065E00E94F202C4
:101290008BE062E10E94F2028CE065E10E94F202C2
:1012A0008DE06DEF0E94F2028EE060E00E94F2029B
:1012B00080E76CE20E94F20280E360E00E94F202AA
:1012C00089E760E00E94F2028AE765E00E94F2028C
:1012D00081E762E10E94F20282E762E00E94F2028C
:1012E00083E760E00E94F20284E760E00E94F2027D
:1012F00060913003709131038091320390913303F8
:101300000E9483038DE667E00E94F2026AE070E0CB
:1013100080E090E00E94C91587E069E00E94F20237
:101320006AE070E080E090E00E94C91588E891E0F2
:1013300061E070E00E9408088DE665E00E94F2021C
:101340006AE070E080E090E00E94C91588EB91E0CF
:1013500061E070E00E9408088DE664E00E94F202FD
:101360006AE070E080E090E00E94C9158DE591E0B0
:1013700061E070E00E9408088DE662E00E94F202DF
:101380006AE070E080E090E00E94C9158FEA90E08A
:1013900061E070E00E9408088DE660E00E94F202C1
:1013A0006AE070E080E090E00E94C91585E091E07D
:1013B00062E070E00E94080887E061E00E94F202AB
:1013C0002D98089583E00E94EC0280933B0384E013
:1013D0000E94EC0280933C0387E061E00E94F202ED
:1013E0006AE070E080E090E00E94C9150E94CE049F
:1013F000000008950F931F93082F17C0439A64E6C7
:1014000070E080E090E00E94C915439864E670E0C7
:1014100080E090E00E94C9151F5F101778F36CE21E
:1014200071E080E090E00E94C91510E0F6CF2F92A5
:101430003F924F925F926F927F928F929F92AF9264
:10144000BF92CF92DF92EF92FF920F93DF93CF93F1
:10145000CDB7DEB7A8970FB6F894DEBF0FBECDBFED
:101460007E010894E11CF11C80E1D7011D928A9550
:10147000E9F743982D9881E994E06CE071E00E94CF
:10148000141B0E94E20920E431EE4DE958E129A342
:101490003AA34BA35CA380EC91EDA8E9BBE18D8F4F
:1014A0009E8FAF8FB8A324EF31E040E050E0298F4A
:1014B0003A8F4B8F5C8F80E593ECA0E0B0E08D8B92
:1014C0009E8BAF8BB88F70E4472E71EE572E7DE95F
:1014D000672E78E1772E88249924540100E0222495
:1014E000198A1A8A1B8A1C8A332402C181E994E072
:1014F0000E94B1188C32D9F1843421F0833209F082
:10150000C5C024C081E994E064E40E94DC1981E94B
:1015100094E040E451EE6DE978E12AE030E00E9489
:10152000D11A81E994E06CE20E94DC1981E994E02F
:1015300040EC51ED68E97BE12AE030E00E94D11AED
:1015400081E994E06CE20E94181AD2C019821A82D2
:101550001B821C821D821E821F82188619861A8693
:101560001B861C861D861E861F86188A42C00F5F3A
:10157000043009F0BDC069817A818B819C8128EE9D
:1015800033E040E050E00E94271B69A37AA38BA3BD
:101590009CA36D817E818F8198850E94271B6D8F12
:1015A0007E8F8F8F98A329853A854B855C85298FFF
:1015B0003A8F4B8F5C8F6D857E858F85988928EE5D
:1015C00033E040E050E00E94271B6D8B7E8B8F8BB9
:1015D000988F60527E448040904068F48CE162E3D2
:1015E0000E94F20249A05AA06BA07CA088249924F2
:1015F000540100E07DC08D899E89AF89B88D8053EC
:101600009547A040B04018F48CE162E2E9CF2D8903
:101610003E894F89588D20543C494040504018F431
:101620008CE166E2DDCF2D893E894F89588D2055AA
:10163000334C4040504018F48CE162E1D1CF2D8909
:101640003E894F89588D20563A4E4040504018F4FC
:101650008CE165E1C5CF2D893E894F89588D205792
:1016600031414140504018F48CE161E0B9CF2D89FF
:101670003E894F89588D205A36484140504018F4D1
:101680008CE163E0ADCF8CE165E0AACF80538A3076
:1016900078F5C02EDD24CC0CDD1CCC0CDD1CA1E0CB
:1016A000B0E0AC0FBD1FCA0EDB1E282F332727FD6D
:1016B0003095432F532F2DA33EA34FA358A7D601F8
:1016C0006D917D918D919C912AE030E040E050E059
:1016D0000E94271B2DA13EA14FA158A5260F371F01
:1016E000481F591FD6012D933D934D935C9313973B
:1016F00081E994E00E948018892B09F0F7CE8114CB
:101700009104A104B10489F4C301B2010E948303CE
:1017100061E070E080E090E00E94C91522242A94E4
:10172000198A1A8A1B8A1C8A3324298D3A8D4B8D7B
:101730005C8D82169306A406B506D0F40E941303AE
:1017400029893A894B895C89280F311D411D511D1A
:10175000298B3A8B4B8B5C8B381608F4382E82150C
:1017600008F4282E0894811C911CA11CB11C5AC09D
:10177000C301B20128EE33E040E050E00E945A1B62
:1017800081E994E0BA01A9012AE030E00E94B01A90
:1017900081E994E06CE20E94DC1981E994E0632D18
:1017A0004AE050E00E94BF1A81E994E06CE20E9496
:1017B000DC1969897A898B899C89A50194010E9429
:1017C0005A1B81E994E0BA01A9012AE030E00E94A5
:1017D000B01A81E994E06CE20E94DC1981E994E09E
:1017E000622D4AE050E00E94BF1A81E994E06CE269
:1017F0000E94181A8D899E89AF89B88D480E591E8E
:101800006A1E7B1E2D8D3E8D4F8D58A124153505EA
:101810004605570520F449A05AA06BA07CA0882457
:101820009924540189A19AA1ABA1BCA1885E9340DF
:10183000A040B04009F05CCFA8960FB6F894DEBF88
:101840000FBECDBFCF91DF910F91FF90EF90DF9052
:10185000CF90BF90AF909F908F907F906F905F9050
:101860004F903F902F9008950F931F93CF93DF9346
:10187000EC01062F15E0115071F08BEF93E0BE01E3
:101880000E94BD14081751F08BEF93E0BE01402F6A
:101890000E94C414F0CF82E00E94FA09DF91CF9138
:1018A0001F910F910895AF92BF92CF92DF92EF9266
:1018B000FF920F931F93DF93CF93CDB7DEB764975B
:1018C0000FB6F894DEBF0FBECDBF0E9495155B0129
:1018D0006C01A0E6B3E020E030E0F901EE0FFF1F5D
:1018E000EA57FD4F808191818D939D932F5F3F4FEC
:1018F0002031310591F781E08093800386E060E636
:1019000073E08E010F5F1F4FA8010E946B01EE2450
:10191000FF24F801EE0DFF1DC7018C579E4F60811B
:101920000E94340C0894E11CF11C84E1E816F104D7
:1019300081F78AEF898381E18A838AE58B838EEF41
:101940008C8300E010E07E010894E11CF11CF7019B
:10195000E00FF11FC80180589E4F60810E94340C37
:101960000F5F1F4F0430110591F70E9495159B01E1
:10197000AC012A193B094C095D09283C3105410598
:10198000510550F468EC70E080E090E0621B730B4E
:10199000840B950B0E94C91564960FB6F894DEBFB0
:1019A0000FBECDBFCF91DF911F910F91FF90EF90B0
:1019B000DF90CF90BF90AF9008954F925F926F925B
:1019C0007F928F929F92AF92BF92CF92DF92EF92CF
:1019D000FF920F931F93CF93DF938CE00E94EC0252
:1019E000882359F481E994E069E171E00E94141BB5
:1019F00080E00E94EF030E94E2090E9489060E9493
:101A0000A3158091F602843009F061C10E94A315EC
:101A10006093420370934303809344039093450380
:101A20001092820380915A0390915B03880F991F53
:101A3000816090935B0380935A0343982D9A809121
:101A40002103873229F48091B0008F7E8093B0000B
:101A50008FE70E94C80200E010E008C00E94DC028C
:101A6000F801E654FC4F80830F5F1F4FE0911F0386
:101A7000F0E0E770F070E252FD4F808190E00817CF
:101A8000190764F30E941703909359038093580336
:101A90008091BA03282F30E0C9018E739070892B92
:101AA000E1F5F89480911F03877066E872E04BEBD4
:101AB00053E00E940902E0912F03E031D0F48091BD
:101AC000570390E0880F991F880F991F8C3091055C
:101AD00018F48CE090E006C023E0853F920710F0F8
:101AE00084EF93E0F0E0EE0FFF1FEA57FD4F918384
:101AF000808378948091BA039091840380FF08C01A
:101B0000992379F50E94530C81E08093840329C0C6
:101B1000992339F11092840324C0C901887390700D
:101B2000C897F9F44091CF03842F822787FF19C00B
:101B300040584093CF0310E00AC01F5FE12FF0E050
:101B4000E654FC4F81E994E060810E94EA18212F5D
:101B500030E08091BA0390E087709070821793070D
:101B600064F780918103882319F481E080938103D5
:101B700010925F0310925D0310925E0380911F0329
:101B8000887109F49BC04091CF038091BA0390E023
:101B9000242F30E08227932786FD84C0407C80E498
:101BA00048274093CF039091F8038091F903981749
:101BB00001F1A0EDB3E030E00FC03F5F892F90E06E
:101BC000FC01E852FC4F20812D9301968F7190709B
:101BD0008093F803383031F09091F8038091F90345
:101BE000981759F7395C8091CF03382B3093CF0386
:101BF00059C0809155038093D00380912A03863287
:101C000051F482E10E946716959587959595879581
:101C10008093D10302C01092D10380912B038632AE
:101C200051F483E10E946716959587959595879560
:101C30008093D20302C01092D20380915903809303
:101C4000D303809158038093D40320915A03309199
:101C50005B033F7EC9019695879585759575281B11
:101C6000390BA9015695479556954795437353737C
:101C700023733373420F531FCA0124E0969587954F
:101C80002A95E1F7840F951F8F709F7021E031E056
:101C9000AC01429FC001439F900D529F900D1124B3
:101CA0009093D5038FEC93E069E00E94260602C072
:101CB0000E9489060E9409068823D1F383E080935D
:101CC000F6020E94CE0481E0809383032D980E9447
:101CD000A3155B016C010E9495152B013C018091BD
:101CE0008203823008F0A9C0E0904203F0904303E1
:101CF000009144031091450380914603909147035E
:101D0000A0914803B09149038E159F05A007B10724
:101D100009F493C087EF92E00E94F500A6019501B7
:101D20002E193F09400B510B6C5D7540804090406F
:101D3000621773078407950708F07FC0E092460397
:101D4000F092470300934803109349030E94130342
:101D5000809355032091530330915403280F311D74
:101D60003093540320935303609152036F5F609349
:101D70005203693008F461C0C90170E00E94461B3B
:101D8000CB0170935403609353036091560323E097
:101D9000629FB0011124680F791F7695679576953B
:101DA00067956093560320915A0330915B033F7708
:101DB000C9019695879585759575281B390BA901DD
:101DC00056954795569547954373537323733373CD
:101DD000420F531FCA01B4E096958795BA95E1F773
:101DE000840F951F8F709F7021E031E0AC01429FFE
:101DF000C001439F900D529F900D1124892F90E0B8
:101E000070E0759567957595679560547F4F9C0157
:101E1000269FC001279F900D369F900D11246FE0E3
:101E200070E00E94461B609357030E94CA071092FD
:101E300054031092530310925203809181038090B7
:101E4000FA03882309F445C290908203981408F09D
:101E500084C2E0904203F090430300914403109148
:101E6000450387EF92E00E94F500AE18BF08C00A54
:101E7000D10A68517C4F8F4F9F4F6A157B058C05A7
:101E80009D0508F0B5C0C0915A03D0915B03CC0FFB
:101E9000DD1FD0935B03C0935A0381E080938303DB
:101EA000992081F440924A0350924B0360924C0374
:101EB00070924D0310924E0310924F0310925003F4
:101EC0001092510393949092820387EF92E00E94C4
:101ED000F500E60EF71E081F191FE0924203F0926C
:101EE0004303009344031093450381E080938303ED
:101EF000439A80912103873229F48091B000806158
:101F00008093B0009E013F77C901969587958575AE
:101F10009575281B390BA9015695479556954795F8
:101F20004373537323733373420F531FCA0164E027
:101F3000969587956A95E1F7840F951F8F709F702E
:101F400021E031E0AC01429FC001439F900D529FC0
:101F5000900D1124292F30E08091560390E0959543
:101F600087959595879580549F4FAC01249FC0011C
:101F7000259F900D349F900D11246FE070E00E941A
:101F8000461B609357030E94CA0732C087EF92E056
:101F90000E94F5009B01AC018091420390914303A4
:101FA000A0914403B091450386017501E81AF90A2E
:101FB0000A0B1B0B692D70E080E090E00E94271B4C
:101FC0006E157F058007910798F410925B031092BD
:101FD0005A0381E080938303109257030E94CA073B
:101FE000A0924203B0924303C0924403D0924503AF
:101FF00080918203882309F496C160913803662397
:1020000009F47DC080915F03882309F078C0E090D7
:102010004A03F0904B0300914C0310914D0370E084
:102020006436710518F480E090E022C06E3B7105C3
:1020300048F46A55704080E090E02AE030E040E0EB
:1020400050E014C0623D710548F4645B704080E06C
:1020500090E024E630E040E050E008C06D5C704065
:1020600080E090E028E532E040E050E00E94271B4D
:10207000A30192012E193F09400B510B79018A01EE
:1020800024E630E040E050E00E94271B6E157F05FB
:1020900080079107A0F581E080935F038091800322
:1020A0008823E1F0A0E6B3E020E030E080912F0348
:1020B00090E02817390761F0F8948D919C91119761
:1020C000F901EE0FFF1FEA57FD4F9183808378944B
:1020D0002F5F3F4F12962031310541F78091340335
:1020E0000E94B700640D751D861D971D6160609389
:1020F0004E0370934F03809350039093510360916C
:102100003A03662309F44CC080915D03882309F0EB
:1021100047C0E0904A03F0904B0300914C031091AC
:102120004D0370E06436710518F480E090E022C041
:102130006E3B710548F46A55704080E090E02AE0FB
:1021400030E040E050E014C0623D710548F4645B4B
:10215000704080E090E024E630E040E050E008C0CD
:102160006D5C704080E090E028E532E040E050E0B7
:102170000E94271BA30192012E193F09400B510B0E
:1021800079018A0124E630E040E050E00E94271BFC
:102190006E157F058007910718F481E080935D0339
:1021A00080913A03882309F44FC080915E0388230D
:1021B00009F04AC0E0904A03F0904B0300914C03B1
:1021C00010914D0380913903682F70E064367105DA
:1021D00018F480E090E022C06E3B710548F46A5527
:1021E000704080E090E02AE030E040E050E014C031
:1021F000623D710548F4645B704080E090E024E645
:1022000030E040E050E008C06D5C704080E090E05D
:1022100028E532E040E050E00E94271BA301920134
:102220002E193F09400B510B79018A0124E630E059
:1022300040E050E00E94271B6E157F058007910744
:1022400018F481E080935E03809130039091310314
:10225000A0913203B09133030097A105B10509F4B1
:1022600062C080914E0390914F03A0915003B091B2
:1022700051030097A105B10509F455C0830172010E
:10228000E81AF90A0A0B1B0B17FD4DC060913503C4
:1022900070E080E090E028EE33E040E050E00E9403
:1022A000271B6E157F0580079107E8F50E942D0911
:1022B00080E00E94EF030E94CE040E9495156160A9
:1022C00060934E0370934F03809350039093510398
:1022D0002AC087EF92E00E94F5009B01AC0180913B
:1022E000420390914303A0914403B09145038601BA
:1022F0007501E81AF90A0A0B1B0B682D70E080E0E3
:1023000090E00E94271B6E157F058007910758F407
:10231000A0924203B0924303C0924403D09245037B
:1023200081E080938303809183038130D1F4E09135
:102330004103EF5FE0934103E83131F0F0E0E95011
:10234000FD4F8785882311F410924103809141034A
:102350000E94FD021092830304C0981409F048CE35
:1023600015CEDF91CF911F910F91FF90EF90DF90ED
:10237000CF90BF90AF909F908F907F906F905F9025
:102380004F900895CF92DF92EF92FF920F931F9399
:10239000CF93DF93C8E1D0E000E411E08EE1C82ED6
:1023A0008EEBD82E81ECE82E8EEDF82EA70196014B
:1023B0000C2E04C056954795379527950A94D2F769
:1023C000C801622F0E94340C28970F5F1F4F8FEFB8
:1023D000C83FD80759F7C4E4D1E0FE01E452FE4FEC
:1023E000CE0160810E94340C219681E0CF35D80760
:1023F000A1F7DF91CF911F910F91FF90EF90DF90A8
:10240000CF900895282F81E08093200381E280936C
:102410002103E2E2F3E080E081938F5F8830E1F70F
:1024200086E280932A0380932B0384E280932C031B
:1024300085E280932D0382E080932E038FEF8093BB
:102440002F039AE0909338031092390310923A03C5
:102450001092300310923103109232031092330322
:102460008EE1809334039093350388EB9BE0909347
:10247000370380933603222311F00E94C21108957E
:10248000EF92FF920F931F93CF93DF9380E090E042
:10249000A0E0B0E0C0E4D1E0EE24F82E092F1A2F1E
:1024A0008BEF93E0BE010E94BD14A8019701280F95
:1024B000311D411D511DDA01C901219631E0C4349D
:1024C000D30751F78E519E4BA14CBE4D21F081E0B8
:1024D0000E9402121DC0C4E4D1E08BEF93E0BE0164
:1024E0000E94BD14FE01E452FE4F8083219651E00C
:1024F000CF35D50791F780912003813019F081E025
:102500000E94021281E994E061E271E00E94141BD2
:10251000DF91CF911F910F91FF90EF9008952F922F
:102520003F924F925F926F927F928F929F92AF9263
:10253000BF92CF92DF92EF92FF920F931F93DF93A0
:10254000CF93CDB7DEB7E4970FB6F894DEBF0FBEDA
:10255000CDBF6B017C010E9495154B015C0181E0B0
:102560000E94EF0383E08093F6020E94E20981E972
:1025700094E06FE271E00E94141B1E010894211C7C
:10258000311C47E0442E512C4C0E5D1E32E0632E70
:10259000712C6C0E7D1E93C081E994E06DE371E0B7
:1025A0000E94141B8FE70E94C8020E94DC028983EC
:1025B000823601F507EF12E00E94DC02F8018193F8
:1025C0008F01F3E000321F07B9F78091F7028930DD
:1025D00009F070C081E994E066E471E00E94141B88
:1025E00082E48983CE01019661E00E9463062D9A00
:1025F00081E07BC0803719F0893629F50CC081E96C
:1026000094E06EE870E00E94041A80E5898FCC2483
:10261000DD2476010BC081E994E06DE770E00E9453
:10262000041A81E00E940212E9E4E98FDE015A9661
:10263000E0E2F3E08BE101900D928150E1F7CE01F1
:1026400049966CE135C0843701F581E994E068E68C
:1026500070E00E94041AF4E5FA8383E08B83E4E3DC
:10266000EC83FDE0FD8389E08E83D201E2E0F2E0BD
:1026700082E101900D928150E1F7C30167E10E9470
:102680006306CC24DD24760115C0853799F400E279
:1026900013E00E94DC02F80181938F01F3E00B3319
:1026A0001F07B9F70E94C21185E58983C10161E066
:1026B0000E946306E3E0E093F6020E94CE04C11498
:1026C000D104E104F10459F00E94951568197909C3
:1026D0008A099B096C157D058E059F0528F480915C
:1026E000F602843061F758CF80E0E4960FB6F89494
:1026F000DEBF0FBECDBFCF91DF911F910F91FF9035
:10270000EF90DF90CF90BF90AF909F908F907F9091
:102710006F905F904F903F902F900895CF92DF92EF
:10272000EF92FF920F931F93CF93DF93C8E1D0E016
:1027300000E011E05EE1C52E5EEBD52E51ECE52EFA
:102740005EEDF52EA70196010C2E04C05695479517
:10275000379527950A94D2F7C801622F0E94340C4E
:1027600028970F5F1F4F8FEFC83FD80759F7C4E076
:10277000D1E0FE01ED50FE4FCE0160810E94340C8D
:10278000219681E0CD32D807A1F7DF91CF911F913B
:102790000F91FF90EF90DF90CF90089580E068EA6E
:1027A00070E042E050E00E94D01408958DE061E0B6
:1027B0000E94891681E161E00E9489160E94B30699
:1027C00080E060E00E94891681E061E00E94891645
:1027D00081E994E040E052EC61E070E00E94F9177A
:1027E0000E9440120E94840881E994E061E571E052
:1027F0000E94141B0E94CE137894439A86E067E0EF
:102800000E944908882319F00E94170AFDCF83E02F
:1028100065E00E944908882329F40E94E308892B77
:1028200009F0A4C081E994E067E671E00E94111B01
:1028300060E070E080E090E00E948F12882349F011
:102840000E948E1381E994E060EA71E00E94141BFB
:102850002D9A0E94C80615C082FD13C064EF71E076
:1028600080E090E00E948F12882359F00E948E131E
:1028700081E994E060EA71E00E94141B0E94C8069E
:102880002D9A80912A038232C1F480912B038332E6
:10289000A1F480912E0382FF0AC081E994E06BEBE2
:1028A00071E00E94141B85E00E94FA0906C081E9CC
:1028B00094E066EC71E00E94141B81E994E06DEEF7
:1028C00071E00E94111B80E00E94EF03109241030F
:1028D00080E00E94FD021092FA0390E0983158F4D3
:1028E000292F2F5FE92FF0E0E950FD4F87858823DE
:1028F00011F0922FF3CF9093FA0383E08093F602C6
:102900000E94E20980911F038871803139F481E9C6
:1029100094E040E855E260E070E00AC04091F802BF
:102920005091F9026091FA027091FB0281E994E002
:102930000E94F91704C081E994E00E94B11881E96E
:1029400094E00E948018892BB1F71092F80310923E
:10295000F903109281030E94A315609342037093C0
:102960004303809344039093450308950E94C8064F
:1029700080912E0381FD70CF84CFF999FECF72BD77
:1029800061BDF89A80B50895F999FECF1FBA72BD5E
:1029900061BD40BD0FB6F894FA9AF99A0FBE08953A
:1029A000823000F5E82FF0E0EE0FFF1FE450FC4FFF
:1029B00071836083882319F08130A1F408C080916D
:1029C00069008C7F842B80936900E89A0895809138
:1029D0006900440F551F440F551F837F842B80933C
:1029E0006900E99A08951F920F920FB60F92112471
:1029F0002F933F934F935F936F937F938F939F9307
:102A0000AF93BF93EF93FF938091FC039091FD03ED
:102A1000892B29F0E091FC03F091FD030995FF91CA
:102A2000EF91BF91AF919F918F917F916F915F9146
:102A30004F913F912F910F900FBE0F901F901895BF
:102A40001F920F920FB60F9211242F933F934F9323
:102A50005F936F937F938F939F93AF93BF93EF9306
:102A6000FF938091FE039091FF03892B29F0E09161
:102A7000FE03F091FF030995FF91EF91BF91AF9194
:102A80009F918F917F916F915F914F913F912F9186
:102A90000F900FBE0F901F9018951F920F920FB6B8
:102AA0000F9211242F933F938F939F93AF93BF93D4
:102AB0008091040490910504A0910604B09107044C
:102AC000309108040196A11DB11D232F2D5F2D37D4
:102AD00020F02D570196A11DB11D2093080480936D
:102AE000040490930504A0930604B0930704809116
:102AF000000490910104A0910204B0910304019696
:102B0000A11DB11D8093000490930104A0930204C1
:102B1000B0930304BF91AF919F918F913F912F91FB
:102B20000F900FBE0F901F9018958FB7F8942091BB
:102B300004043091050440910604509107048FBFAE
:102B4000B901CA0108959FB7F8942091000430910B
:102B50000104409102045091030486B5A89B06C06D
:102B60008F3F21F02F5F3F4F4F4F5F4F9FBF542F3D
:102B7000432F322F2227280F311D411D511D82E086
:102B8000220F331F441F551F8A95D1F7B901CA017F
:102B900008959B01AC017FB7F89480910004909157
:102BA0000104A0910204B091030466B5A89B05C07E
:102BB0006F3F19F00196A11DB11D7FBFBA2FA92F3C
:102BC000982F8827860F911DA11DB11D62E0880FE7
:102BD000991FAA1FBB1F6A95D1F7BC012DC0FFB773
:102BE000F8948091000490910104A0910204B091A6
:102BF0000304E6B5A89B05C0EF3F19F00196A11D9F
:102C0000B11DFFBFBA2FA92F982F88278E0F911DB6
:102C1000A11DB11DE2E0880F991FAA1FBB1FEA95F5
:102C2000D1F7861B970B885E9340C8F22150304045
:102C30004040504068517C4F2115310541055105F8
:102C400071F60895019739F0880F991F880F991F21
:102C500002970197F1F70895789484B5826084BD56
:102C600084B5816084BD85B5826085BD85B5816090
:102C700085BDEEE6F0E0808181608083E1E8F0E0F0
:102C80001082808182608083808181608083E0E81F
:102C9000F0E0808181608083E1EBF0E080818460FE
:102CA0008083E0EBF0E0808181608083EAE7F0E000
:102CB0008081846080838081826080838081816064
:102CC00080838081806880831092C1000895982F4E
:102CD0008E3008F09E5097708091A9028295880FDF
:102CE000880F807C892B80937C0080917A0080649F
:102CF00080937A0080917A0086FDFCCF2091780045
:102D000040917900942F80E030E0282B392BC901C5
:102D10000895CF93DF93482F50E0CA018E529F4F02
:102D2000FC01349142545F4FFA018491882369F188
:102D300090E0880F991FFC01E056FF4FA591B491D8
:102D4000FC01E655FF4FC591D491662351F42FB78E
:102D5000F8948C91932F909589238C938881892363
:102D60000BC0623061F42FB7F8948C91932F90953B
:102D700089238C938881832B88832FBF06C09FB7BC
:102D8000F8948C91832B8C939FBFDF91CF91089502
:102D9000482F50E0CA018A519F4FFC012491CA017B
:102DA0008E529F4FFC01949142545F4FFA0134912F
:102DB000332309F440C0222351F1233071F0243031
:102DC00028F42130A1F0223011F514C02630B1F0E2
:102DD0002730C1F02430D9F404C0809180008F776F
:102DE00003C0809180008F7D8093800010C084B5E7
:102DF0008F7702C084B58F7D84BD09C08091B000FB
:102E00008F7703C08091B0008F7D8093B000E32F57
:102E1000F0E0EE0FFF1FE655FF4FA591B4912FB7DD
:102E2000F894662321F48C919095892302C08C91AB
:102E3000892B8C932FBF0895682F70E0CB018A51A6
:102E40009F4FFC012491CB018E529F4FFC01449176
:102E500062547F4FFB019491992319F420E030E0F4
:102E60003CC0222351F1233071F0243028F421306A
:102E7000A1F0223011F514C02630B1F02730C1F096
:102E80002430D9F404C0809180008F7703C08091F2
:102E900080008F7D8093800010C084B58F7702C042
:102EA00084B58F7D84BD09C08091B0008F7703C049
:102EB0008091B0008F7D8093B000892F90E0880FC3
:102EC000991F8C549F4FFC01A591B4918C9120E0E7
:102ED00030E0842311F021E030E0C9010895089525
:102EE0001F920F920FB60F9211242F933F934F937F
:102EF0008F939F93EF93FF938091C00082FD1DC03D
:102F00004091C6002091490430914A042F5F3F4F01
:102F10002F73307080914B0490914C04281739071F
:102F200071F0E0914904F0914A04E75FFB4F408360
:102F300030934A042093490402C08091C600FF9157
:102F4000EF919F918F914F913F912F910F900FBED5
:102F50000F901F901895E0919D04F0919E04E05C05
:102F6000FF4F8191919120813181821B930B8F734F
:102F70009070892B11F00E946F1708951F920F9285
:102F80000FB60F9211242F933F938F939F93EF933C
:102F9000FF9320918D0430918E0480918F04909145
:102FA00090042817390731F48091C1008F7D8093F8
:102FB000C10014C0E0918F04F0919004E35BFB4FDB
:102FC000208180918F049091900401968F7390706E
:102FD0009093900480938F042093C600FF91EF910B
:102FE0009F918F913F912F910F900FBE0F901F9047
:102FF0001895AF92BF92DF92EF92FF920F931F93BB
:10300000CF93DF93EC017A018B01DD24403081EE18
:10301000580780E0680780E0780711F0DD24D3943A
:1030200091E0A92EB12CEC89FD89DD2069F0C50164
:1030300008A002C0880F991F0A94E2F7808360E01D
:1030400079E08DE390E005C0108260E874E88EE1DD
:1030500090E0A80197010E945A1B21503040404047
:103060005040569547953795279580E12030380791
:1030700020F0DD2011F0DD24D6CFE889F9893083F6
:10308000EA89FB89208319A2EE89FF89408121E02A
:1030900030E0C9010C8C02C0880F991F0A94E2F736
:1030A000482B4083EE89FF894081C9010D8C02C005
:1030B000880F991F0A94E2F7482B4083EE89FF8915
:1030C0004081C9010E8C02C0880F991F0A94E2F753
:1030D000482B4083EE89FF8980810F8C02C0220F2C
:1030E000331F0A94E2F7209528232083DF91CF91A4
:1030F0001F910F91FF90EF90DF90BF90AF900895D8
:10310000DC011C96ED91FC911D97E05CFF4F219135
:10311000319180819181281B390B2F733070C90147
:103120000895DC011C96ED91FC911D97E05CFF4F2A
:1031300020813181E054F040DF01AE5BBF4F8D91C3
:103140009C9111972817390719F42FEF3FEF07C00B
:103150008D919C91E80FF91F8081282F30E0C901E3
:103160000895DC011C96ED91FC911D97E05CFF4FEA
:1031700020813181E054F040DF01AE5BBF4F8D9183
:103180009C9111972817390719F42FEF3FEF10C0C2
:103190008D919C911197E80FF91F20818D919C9141
:1031A000119701968F73907011969C938E9330E0D7
:1031B000C9010895DC0191968C919197882339F08B
:1031C0005496ED91FC915597808186FFF9CF9196A9
:1031D0001C920895CF93DF93EC01EE85FF85E05CB0
:1031E000FF4F20813181E054F0402F5F3F4F2F731C
:1031F0003070DF01AE5BBF4F8D919C911197281706
:103200003907D1F3E05CFF4F80819181E054F040B9
:10321000E80FF91F6083EE85FF85E05CFF4F318387
:103220002083EE89FF89208181E090E00F8C02C02D
:10323000880F991F0A94E2F7282B208381E089A345
:10324000EC89FD8980818064808381E090E0DF915A
:10325000CF910895109294041092930488EE93E015
:10326000A0E0B0E08093950490939604A093970417
:10327000B09398048AEE92E0909392048093910424
:1032800089E094E090939E0480939D048DE494E003
:103290009093A00480939F0485EC90E09093A20407
:1032A0008093A10484EC90E09093A4048093A30401
:1032B00080EC90E09093A6048093A50481EC90E0CC
:1032C0009093A8048093A70482EC90E09093AA04C2
:1032D0008093A90486EC90E09093AC048093AB04B7
:1032E00084E08093AD0483E08093AE0487E0809314
:1032F000AF0485E08093B00481E08093B104089529
:10330000CF93DF930E942C160E94D613CBEAD7E10D
:103310000E94DD0C2097E1F30E94AB17F9CFCF920A
:10332000DF92EF92FF920F931F93CF93DF937C0175
:103330006B018A01C0E0D0E00FC0D6016D916D0134
:10334000D701ED91FC910190F081E02DC701099525
:10335000C80FD91F015010400115110571F7CE019A
:10336000DF91CF911F910F91FF90EF90DF90CF9061
:103370000895EF92FF920F931F93CF93DF937C01F9
:103380008B01C0E0D0E0F8010F5F1F4F649166230E
:1033900059F0D701ED91FC910190F081E02DC7012A
:1033A0000995C80FD91FEFCFCE01DF91CF911F91A3
:1033B0000F91FF90EF900895DC01ED91FC91019049
:1033C000F081E02D09950895EF92FF920F931F93DE
:1033D0008C01DC01ED91FC910190F081E02D6DE01C
:1033E00009957C01D801ED91FC910190F081E02DCF
:1033F000C8016AE009959C012E0D3F1DC9011F916E
:103400000F91FF90EF900895EF92FF920F931F930B
:103410007C010E94B9198C01C7010E94E4199C012A
:10342000200F311FC9011F910F91FF90EF90089558
:10343000EF92FF920F931F937C01DC01ED91FC91C1
:103440000190F081E02D09958C01C7010E94E419DB
:10345000080F191FC8011F910F91FF90EF90089559
:10346000CF93DF93EC016115710519F420E030E092
:103470000FC0DB010D900020E9F71197A61BB70BD9
:10348000E881F9810280F381E02DAD0109959C016D
:10349000C901DF91CF9108954F925F927F928F92F1
:1034A0009F92AF92BF92CF92DF92EF92FF920F93D3
:1034B0001F93DF93CF93CDB7DEB7A1970FB6F894E4
:1034C000DEBF0FBECDBF2C01742ECB01223008F41D
:1034D0002AE019A231E2C32ED12CCC0EDD1E822EA1
:1034E0009924AA24BB24672D752FA50194010E945D
:1034F0005A1B79018A01C801B701A50194010E94F4
:10350000271B472D461B0894C108D1084A3014F4E4
:10351000405D01C0495CF6014083E114F1040105FE
:10352000110521F07E2C5F2DC801DDCFC201B6014F
:103530000E94301AA1960FB6F894DEBF0FBECDBF21
:10354000CF91DF911F910F91FF90EF90DF90CF907F
:10355000BF90AF909F908F907F905F904F90089515
:10356000DC012115310541F4ED91FC910190F081D0
:10357000E02D642F099508950E944C1A0895EF924A
:10358000FF920F931F939A01E62EFF2400E010E0B4
:10359000B801A7010E94B01A1F910F91FF90EF9000
:1035A0000895CF92DF92EF92FF920F931F93CF93E4
:1035B000DF93EC016A017B012115310541F4E881BB
:1035C000F9810190F081E02D642F09951FC02A3008
:1035D0003105D1F477FF17C0E881F9810190F081BE
:1035E000E02D6DE209958C0144275527BA014C194D
:1035F0005D096E097F09CE012AE00E944C1A9801EC
:10360000280F391F04C02AE00E944C1A9C01C901EE
:10361000DF91CF911F910F91FF90EF90DF90CF90AE
:1036200008950E94301A0895EF92FF920F931F930E
:103630007C010E94301A8C01C7010E94E419080F16
:10364000191FC8011F910F91FF90EF900895629F7D
:10365000D001739FF001829FE00DF11D649FE00D8A
:10366000F11D929FF00D839FF00D749FF00D659FEB
:10367000F00D9927729FB00DE11DF91F639FB00DEA
:10368000E11DF91FBD01CF0111240895AA1BBB1B29
:1036900051E107C0AA1FBB1FA617B70710F0A61B52
:1036A000B70B881F991F5A95A9F780959095BC0173
:1036B000CD010895A1E21A2EAA1BBB1BFD010DC06E
:1036C000AA1FBB1FEE1FFF1FA217B307E407F507D2
:1036D00020F0A21BB30BE40BF50B661F771F881FAE
:1036E000991F1A9469F760957095809590959B0144
:1036F000AC01BD01CF01089597FB092E05260ED020
:1037000057FD04D0D7DF0AD0001C38F450954095FF
:10371000309521953F4F4F4F5F4F0895F6F79095A5
:103720008095709561957F4F8F4F9F4F0895EE0F55
:0E373000FF1F0590F491E02D0994F894FFCF4F
:10373E0054582074696D656F757421007363616EE2
:10374E006E6572206D6F64650052582068616E67F9
:10375E00005258636F6E66206C6F6164656400572B
:10376E00616974696E672062696E640A00476F74DE
:10377E0020706B740A006461746120676F6F640A55
:10378E00004F70656E4C52536E6720525820737402
:10379E00617274696E6700454550524F4D206461E9
:1037AE007461206E6F742076616C6964206F722074
:1037BE0062696E64206A756D7070657220736574CF
:1037CE002C20666F7263696E672062696E640A00F0
:1037DE0053617665642062696E6420646174612051
:1037EE00746F20454550524F4D0A004920616D209F
:1037FE00736C617665004C6F6F6B696E6720666FD8
:10380E007220736C6176652C206E6F7420696D70FA
:10381E006C656D656E7465642079657400456E74B3
:10382E006572696E67206E6F726D616C206D6F646C
:10383E006500002100270520092209260A230A26F1
:10384E000B240C25C01200001A400AA1204EA50020
:10385E001B1E27522C23308025000005400AA12074
:10386E004EA50020244EA52C2330004B0000064010
:10387E000AD0009D49007B289D492C233000E10091
:10388E000005400A4501D7DC03B81E0EBF00232EEB
:10389E0048E801008A400A6001555502AD1E20001D
:1038AE000023C88025000005400AA1204EA5002057
:1038BE00244EA52C2330000200020002000200025A
:1038CE0000020002000200020002000200020002DA
:1038DE00000200020002409C0801030506070809C9
:1038EE000A0B0C121300010000080000200000401B
:1038FE00000080010000020000040000080000101B
:10390E00000000100000200000000100000200076F
:10391E000B0C1011150000000000EA188F1980180A
:06392E00B1189118DA182F
:00000001FF
