:100000000C947E000C9403150C9430150C94A600EF
:100010000C94A6000C94A6000C94A6000C94A600C8
:100020000C94A6000C94A6000C94A6000C94A600B8
:100030000C94A6000C94F7040C94A6000C94A60053
:100040000C945D150C94A6000C9480170C94CE179C
:100050000C94A6000C94A6000C94A6000C94A60088
:100060000C94A6000C94A60053656E64696E67201C
:100070005258207479706520696E666F0052656908
:100080006E697420525820636F6E6669670053650D
:100090006E64696E6720525820636F6E66696700F0
:1000A00000000000240027002A00000000002500B6
:1000B00028002B0000000000230026002900040473
:1000C0000404040404040202020202020303030300
:1000D00003030102040810204080010204081020DC
:1000E00001020408102000000007000201000003C4
:1000F000040600000000000000003A1911241FBE91
:10010000CFEFD8E0DEBFCDBF12E0A0E0B1E0EEE57A
:10011000F7E302C005900D92A63EB107D9F714E0AF
:10012000A6EEB2E001C01D92A33AB107E1F710E0DC
:10013000CCEFD0E004C02297FE010E94A91BCA3F69
:10014000D107C9F70E9490190C94AD1B0C940000C4
:100150008091E602813019F482E08093E60280917A
:10016000E602833019F484E08093E6020895682F54
:1001700070E0CB018C599F4F8E3B910548F4665F30
:100180007F4F80E090E02AE030E040E050E014C093
:10019000823D910548F46055704080E090E024E68F
:1001A00030E040E050E008C06956704080E090E0E8
:1001B00028E532E040E050E00E94371B24E630E0C2
:1001C00040E050E00E94371B0895FC0120A530E07C
:1001D000C901817090700196277030703595279510
:1001E000820F931F880F880F08958F929F92AF926E
:1001F000BF92CF92DF92EF92FF920F931F93FC0179
:1002000000A510E087A190E023E130E0829FF0019B
:10021000839FF00D929FF00D1124E85EFD4F8080CA
:100220009180A280B380F801E770F070E253FD4F37
:10023000608170E0615F7F4F882777FD8095982F00
:1002400020E43FE14DE750E00E94371BA5019401F7
:100250000E946A1B69017A0180ED97E0A0E0B0E09E
:10026000C80ED91EEA1EFB1E08711070012B81F00A
:1002700060E07EEE8AEB9BE0A50194010E946A1B80
:1002800028513C4F4F4F5F4FC20ED31EE41EF51E48
:1002900087EE93E0A0E0B0E0C80ED91EEA1EFB1E78
:1002A000C701B60128EE33E040E050E00E946A1B2F
:1002B000CA01B90128EE33E040E050E00E94371B4C
:1002C0001F910F91FF90EF90DF90CF90BF90AF9074
:1002D0009F908F900895FF920F931F93082FFB011B
:1002E000DA01F82EF69410E0808191818C9382815E
:1002F000938111968C9311978481958112968C939A
:1003000012978681978113968C9313972081318160
:100310004281538164817581868197819295990F7D
:10032000990F907C832F8370982B852F8370880F73
:10033000880F982B872F83708295807F982B149637
:100340009C931497159638961F5FF11668F600FF78
:100350005CC0808191818F3F910509F010F440E0ED
:100360000CC022E08030920710F441E006C08050BB
:10037000934010F043E001C042E0828193818F3FBF
:10038000910509F010F450E00CC022E08030920793
:1003900010F451E006C08050934010F053E001C0CB
:1003A00052E0848195818F3F910509F010F480E03F
:1003B0000CC022E08030920710F481E006C080502B
:1003C000934010F083E001C082E0268137812F3F07
:1003D000310509F010F490E00CC092E020303907AC
:1003E00010F491E006C02050334010F093E001C0BB
:1003F00092E05295507F4295440F440F407C452B2C
:10040000880F880F842B892B8C931F910F91FF905D
:1004100008951F93182FDB01FA01482F469530E00D
:10042000848190E083709070982F88272081820FBC
:10043000911D11969C938E93848190E08C709070A6
:1004400056E0880F991F5A95E1F72181820F911D7F
:1004500013969C938E931297848190E08073907092
:1004600024E0880F991F2A95E1F72281820F911DC0
:1004700015969C938E931497848190E0807C907065
:10048000880F991F880F991F2381820F911D17963E
:100490009C938E931697359618963F5F431708F0F6
:1004A000BFCF10FF50C0808182958695869583705E
:1004B00090E02DE431E0AC01429FC001439F900DDC
:1004C000529F900D11240C9611969C938E938081CF
:1004D00090E064E0969587956A95E1F78370907057
:1004E000AC01429FC001439F900D529F900D11247B
:1004F0000C9613969C938E931297808190E096951C
:1005000087959695879583709070AC01429FC00146
:10051000439F900D529F900D11240C9615969C931D
:100520008E931497808190E083709070AC01429F0D
:10053000C001439F900D529F900D11240C96179669
:100540009C938E9316971F910895882339F02D98C8
:1005500000002B9A00002D9A000008952D980000AD
:100560002B9800002D9A000008950F931F93082FD9
:100570005C9A2D985C9810E0802F80780E94A502EC
:10058000000F1F5F1830C1F72D981F910F9108952C
:100590008F770E94B50208950F931F93082F10E0E4
:1005A000802F80780E94A502000F1F5F1830C1F7CE
:1005B0002D981F910F9108952D9820E030E0220F83
:1005C0002D9A000083B12D98000090E074E096957C
:1005D00087957A95E1F78170280F3F5F383079F77A
:1005E000822F08950E94C8020E94DC025C9A08953E
:1005F0001F93162F80680E94B502812F0E94CC02A3
:100600005C9A1F9108951F931091F0021827E7EE4E
:10061000F2E0E80FF11D89E767850E94F8028DE39B
:10062000612F0E94F80282E4612F0E94F8021F915C
:10063000089586E20E94F20208950F931F938BE2C1
:100640000E94F202082F8CE20E94F202282F30E072
:10065000F6E036952795FA95E1F710E0000F111FA7
:10066000000F111F202B312BC9011F910F910895ED
:100670000F931F938C018CE1F80164810E94F802B2
:100680008DE1F80165810E94F8028EE1F801668132
:100690000E94F80280E2F80167810E94F80281E27C
:1006A000F80160850E94F80282E2F80161850E94EB
:1006B000F80283E2F80162850E94F80284E2F80100
:1006C00063850E94F80285E2F80164850E94F802C1
:1006D0008AE2F80165850E94F8028EE6F8016685D7
:1006E0000E94F8028FE6F80167850E94F80280E711
:1006F000F80160890E94F80281E7F80161890E948F
:10070000F80282E7F80162890E94F8021F910F91B6
:100710000895EF92FF920F931F93CF93DF937B0186
:100720008C01603028E372072CE982072CE19207E4
:1007300028F520E836E948E950E00E946A1BE90103
:100740006897B90180E090E020E839E647E65FEF7E
:100750000E94371B6E0D7F1D801F911FB2E0660F38
:10076000771F881F991FBA95D1F721E732E040E043
:1007700050E00E946A1B890180E421C020E03DE234
:1007800041E351E00E946A1BE9016897B90180E0EA
:1007900090E020E033ED4EEC5EEF0E94371B6E0DD3
:1007A0007F1D801F911F660F771F881F991F21E7EC
:1007B00032E040E050E00E946A1B890180E69E0121
:1007C0002F71622F680F85E70E94F80286E7612F7C
:1007D0000E94F80287E7602F0E94F802DF91CF9114
:1007E0001F910F91FF90EF9008959F92AF92BF924B
:1007F000CF92DF920F93DF93CF9300D000D0CDB78D
:10080000DEB7982E83E00E94F20280932B0384E0EF
:100810000E94F20280932C0386E060E00E94F802BE
:1008200087E061E00E94F80289E06FE70E94F80229
:100830008AE065E00E94F8028BE062E10E94F80223
:100840008CE065E10E94F8028DE06DEF0E94F802F5
:100850008EE060E00E94F802992019F087E792E0AC
:1008600008C080910E0323E1829FC0011124885E9D
:100870009D4F0E94380380E36CE80E94F80282E3F7
:100880006FE00E94F80283E362E40E94F80284E3CE
:100890006AE00E94F80285E36AE20E94F80286E3B9
:1008A0006DE20E94F80287E364ED0E94F80288E39B
:1008B00060E00E94F80289E360E00E94F80299205B
:1008C00049F02EE1A22E2EEBB22E21ECC22E2EEDFF
:1008D000D22E08C0A090F002B090F102C090F202B7
:1008E000D090F3020AE38D2D9927AA27BB2789838D
:1008F0009A83AB83BC83802F69810E94F802802F8A
:100900008B5F69810E94F802DC2CCB2CBA2CAA24C4
:100910000F5F0E3341F783E46FEF0E94F80284E427
:100920006FEF0E94F80285E46FEF0E94F80286E400
:100930006FEF0E94F802992019F08DE666E003C07F
:100940008DE66091F4020E94F80289E760E00E945F
:10095000F8028AE76091F5020E94F80283E760E0FE
:100960000E94F80284E760E00E94F802992029F0D2
:1009700060EC72E98DEE99E108C06091EC02709133
:10098000ED028091EE029091EF020E9489030F9098
:100990000F900F900F90CF91DF910F91DF90CF903C
:1009A000BF90AF909F90089587E061E00E94F802A9
:1009B0008EE764E20E94F80288E063E00E94F80299
:1009C00088E060E00E94F80287E065E00E94F8029B
:1009D00085E062E00E94F80283E00E94F2028093C8
:1009E0002B0384E00E94F20280932C0308951F924F
:1009F0000F920FB60F9211242F933F934F938F9323
:100A00009F93EF93FF9340914C033091AC024317B7
:100A100008F099C08091A8039091A9039093870052
:100A200080938600E42FF0E0EE0FFF1FE657FD4FA6
:100A30000190F081E02DEC30F10540F424E0EE0F60
:100A4000FF1F2A95E1F7E85DFC4F15C083E0E43F06
:100A5000F80718F4E452FC4F0EC084E0E030F807C9
:100A600018F0E0E9F8E007C0E657F34F94E0EE0F26
:100A7000FF1F9A95E1F7EE0FFF1FF093A903E09394
:100A8000A8032091A8033091A9038091AA02909114
:100A9000AB02821B930B9093AB028093AA0220912E
:100AA000260330912703220F331F8217930720F468
:100AB0003093AB022093AA0280914E03882339F42D
:100AC00080911E0380FF98C0483008F495C08FEFD6
:100AD0009FEF90938900809388008091840090918B
:100AE00085008097D0F385B19091A503892385B9BE
:100AF00088B19091A603892388B98BB19091A703FF
:100B000089238BB980914D038823C9F44423B9F01C
:100B100025B14150842F90E04F5FFC01EE0FFF1F85
:100B2000E80FF91FEB58FC4F8081282B25B988B1BD
:100B30009181892B88B98BB19281892B8BB94F5FB9
:100B400040934C0360C08091A8039091A9039093B7
:100B50008700809386008091AA029091AB029093C7
:100B6000A9038093A80380914E03882319F08FEF87
:100B70009FEF06C08091A8039091A90388559240E9
:100B8000909389008093880080E49CE99093AB0265
:100B90008093AA0280918400909185008097D0F381
:100BA00085B19091A503892385B988B19091A60359
:100BB000892388B98BB19091A70389238BB9809140
:100BC0004D038823B1F425B13150832F90E0FC010F
:100BD000EE0FFF1FE80FF91FEB58FC4F8081282B09
:100BE00025B988B19181892B88B98BB19281892BE4
:100BF0008BB910924C0307C08091A8039091A90370
:100C00008855924066CFFF91EF919F918F914F91C0
:100C10003F912F910F900FBE0F901F9018958091CC
:100C2000E602813011F081E008950E94B315209111
:100C30002D0330912E0340912F0350913003621BFE
:100C4000730B840B950B615A76488140904010F4E9
:100C500080E0089582E00895FF920F931F93CF9351
:100C6000DF93182F092FF62E8EE30E94F802212F12
:100C7000302FC901EC0110E005C08FE769910E9497
:100C8000F8021F5F1F15C8F385E064E00E94F802B8
:100C900083E00E94F20280932B0384E00E94F20220
:100CA00080932C030E94B31560932D0370932E0341
:100CB00080932F039093300387E069E00E94F8024D
:100CC00081E08093E602DF91CF911F910F91FF9019
:100CD00008950E942C068091E6028130D9F40E948A
:100CE000B31520912D0330912E0340912F03509185
:100CF0003003621B730B840B950B605A764881405E
:100D0000904040F4E8CF81E894E060E071E00E9418
:100D1000241B08958091E6028130A9F30895CF93B2
:100D2000DF9381E894E00E949018892BF9F080917C
:100D3000E903C82FD0E09E012F5F3F4F2F71307025
:100D40008091E80390E02817390781F081E894E06A
:100D50000E94C118C853DC4F88838091E90390E05A
:100D600001968F7190708093E903DBCFDF91CF9173
:100D700008958CE060E00E9499168BE061E00E948B
:100D800099168DE061E00E94991682E060E00E9471
:100D9000991684E061E00E9499160895EF92FF92FF
:100DA0001F93CF93DF9387EE92E00E94E50080933C
:100DB000AC0290911F03981719F49F5F9093AC02B7
:100DC000E5E7F3E0108211821282339683E0ED387A
:100DD000F807C1F78FEF8093A5038093A603809354
:100DE000A70381E1E82E83E0F82EA6EBB2E0E7014D
:100DF0006FEF5FEF4FEF88818031F0F490E03C912E
:100E0000FC01EE0FFF1FE80FF91FEB58FC4F80812C
:100E1000832B808311962C9111978181822B818362
:100E200012969C9112978281892B8283309543235D
:100E3000209552239095692321961396E3E0C931BA
:100E4000DE07C9F66093A7035093A6034093A5035A
:100E5000CEEAD2E010E0F7018081823238F08632AB
:100E6000B0F0863219F4888160E00FC0163021F4AA
:100E70008091C1008F7E05C0173029F48091C10098
:100E8000877F8093C100888161E00E9499161F5F6F
:100E90000894E11CF11C21961830E9F680911103A9
:100EA000803231F489E061E00E94D81682E801C006
:100EB00082E08093800081E080934D0380934E0315
:100EC00080911303813211F08732D9F483E061E01D
:100ED0000E94991683E060E00E94D8168091130367
:100EE000813231F481E08093B1008093B00009C079
:100EF00082E08093B00085E08093B1008EE3809320
:100F0000B3008AE1809381008FEF9FEF9093890077
:100F10008093880080ED97E090938700809386000F
:100F200080E49CE99093AB028093AA029093A9037A
:100F30008093A80310924C0380916F00816080938E
:100F40006F0080911E0383FF25C08091700388236A
:100F500009F180911F03482F50E0A0E5B3E020E0A5
:100F600030E02417350761F0F8948D919C9111972A
:100F7000F901EE0FFF1FE657FD4F918380837894B0
:100F80002F5F3F4F12962031310559F710924E03D3
:100F900010924D03DF91CF911F91FF90EF90089534
:100FA000E0911F03E031E0F4F8948091470390E072
:100FB000880F991F880F991F8C30910518F48CE0C9
:100FC00090E006C023E0853F920710F084EF93E0A5
:100FD000F0E0EE0FFF1FE657FD4F9183808378947A
:100FE000809113038132C9F490914703892F815076
:100FF0008E3F60F08091B0008F7D8093B00060E004
:10100000911161E083E00E94D81608959093B40096
:101010008091B00080628093B0000895EF92FF92BB
:101020000F931F93CF93DF93EB019C01442737FD70
:101030004095542F60E271EA87E090E00E948C1B9B
:1010400089011216130614F001E010E0BE01882792
:1010500077FD8095982F20E231EA47E050E00E942A
:10106000371B9801442737FD4095542F0E948C1B55
:101070007901C0E0D0E009C02B9AC8010E94321665
:101080002B98C8010E9432162196CE15DF05A4F3D5
:10109000DF91CF911F910F91FF90EF900895FF92F4
:1010A0000F931F93082FF62E61E00E949916802F50
:1010B00061E00E94D8168F2D61E00E94D8168AE068
:1010C00090E00E9432168F2D0E942C17892B11F46C
:1010D00010E00FC0802F60E00E94D8168AE090E0F8
:1010E0000E9432168F2D0E942C1710E0892B09F4D4
:1010F00011E0802F60E00E949916802F60E00E942E
:10110000D8168F2D60E00E94D816812F1F910F9165
:10111000FF900895EF92FF920F931F93DF93CF9369
:10112000CDB7DEB764970FB6F894DEBF0FBECDBF64
:1011300000E010E07E010894E11CF11CB801605849
:101140007E4F8BEE93E00E94CD14F701E00FF11F6C
:1011500080830F5F1F4F0430110581F789818A3F1B
:1011600049F58A81813131F58B818A3519F58C8178
:101170008E3F01F500E010E07E010894E11CF11CB7
:10118000B8016C577E4F8BEE93E00E94CD14F701AF
:10119000E00FF11F80830F5F1F4F0431110581F7AE
:1011A00086E060E573E0A7010E94090281E0809378
:1011B000700302C01092700364960FB6F894DEBFFD
:1011C0000FBECDBFCF91DF911F910F91FF90EF9098
:1011D0000895EF92FF920F931F93CF93DF9380E0D8
:1011E00090E0A0E0B0E0C0E0D1E0EE24F82E092FBE
:1011F0001A2F8BEE93E0BE010E94CD14A801970137
:10120000280F311D411D511DDA01C901219631E020
:10121000C430D30751F78E519E4BA14CBE4D19F0EF
:1012200020E030E018C0C4E0D1E08BEE93E0BE01D6
:101230000E94CD14FE01ED51FE4F8083219651E0B6
:10124000CD32D50791F720E030E08091E702893078
:1012500011F421E030E0C901DF91CF911F910F918E
:10126000FF90EF9008955D9A83E00E94F2028093D0
:101270002B0384E00E94F20280932C0386E060E05E
:101280000E94F80287E061E00E94F80289E06FE7BF
:101290000E94F8028AE065E00E94F8028BE062E1B9
:1012A0000E94F8028CE065E10E94F8028DE06DEF8B
:1012B0000E94F8028EE060E00E94F80280E76CE293
:1012C0000E94F80280E360E00E94F80289E760E093
:1012D0000E94F8028AE765E00E94F80281E762E175
:1012E0000E94F80282E762E00E94F80283E760E071
:1012F0000E94F80284E760E00E94F80260912003F7
:101300007091210380912203909123030E9489030D
:101310008DE667E00E94F8026AE070E080E090E00D
:101320000E94D91587E069E00E94F8026AE070E047
:1013300080E090E00E94D91588E891E061E070E0DB
:101340000E940E088DE665E00E94F8026AE070E0F7
:1013500080E090E00E94D91588EB91E061E070E0B8
:101360000E940E088DE664E00E94F8026AE070E0D8
:1013700080E090E00E94D9158DE591E061E070E099
:101380000E940E088DE662E00E94F8026AE070E0BA
:1013900080E090E00E94D9158FEA90E061E070E073
:1013A0000E940E088DE660E00E94F8026AE070E09C
:1013B00080E090E00E94D91585E091E062E070E065
:1013C0000E940E0887E061E00E94F8025D9808958F
:1013D00083E00E94F20280932B0384E00E94F202D9
:1013E00080932C0387E061E00E94F8026AE070E0DD
:1013F00080E090E00E94D9150E94D4040000089576
:101400000F931F93082F17C05E9A64E670E080E088
:1014100090E00E94D9155E9864E670E080E090E06C
:101420000E94D9151F5F101778F36CE271E080E01D
:1014300090E00E94D91510E0F6CF2F923F924F9284
:101440005F926F927F928F929F92AF92BF92CF9254
:10145000DF92EF92FF920F93DF93CF93CDB7DEB77A
:10146000A8970FB6F894DEBF0FBECDBF7E010894DB
:10147000E11CF11C80E1D7011D928A95E9F75E9885
:101480005D9881E894E06CE071E00E94241B0E946A
:10149000E80920E431EE4DE958E129A33AA34BA332
:1014A0005CA380EC91EDA8E9BBE18D8F9E8FAF8F9F
:1014B000B8A324EF31E040E050E0298F3A8F4B8F02
:1014C0005C8F80E593ECA0E0B0E08D8B9E8BAF8BC2
:1014D000B88F70E4472E71EE572E7DE9672E78E1C4
:1014E000772E88249924540100E022243324198A79
:1014F0001A8A1B8A1C8A02C181E894E00E94C118E2
:101500008C32D9F1843421F0833209F0C5C024C073
:1015100081E894E064E40E94EC1981E894E040E4FE
:1015200051EE6DE978E12AE030E00E94E11A81E8AD
:1015300094E06CE20E94EC1981E894E040EC51EDFB
:1015400068E97BE12AE030E00E94E11A81E894E05A
:101550006CE20E94281AD2C019821A821B821C8255
:101560001D821E821F82188619861A861B861C867B
:101570001D861E861F86188A42C00F5F043009F040
:10158000BDC069817A818B819C8128EE33E040E087
:1015900050E00E94371B69A37AA38BA39CA36D81A3
:1015A0007E818F8198850E94371B6D8F7E8F8F8FF4
:1015B00098A329853A854B855C85298F3A8F4B8F77
:1015C0005C8F6D857E858F85988928EE33E040E0BD
:1015D00050E00E94371B6D8B7E8B8F8B988F6052F3
:1015E0007E448040904068F48CE162E30E94F802FF
:1015F00049A05AA06BA07CA088249924540100E043
:101600007DC08D899E89AF89B88D80539547A04054
:10161000B04018F48CE162E2E9CF2D893E894F8910
:10162000588D20543C494040504018F48CE166E20B
:10163000DDCF2D893E894F89588D2055334C404050
:10164000504018F48CE162E1D1CF2D893E894F8959
:10165000588D20563A4E4040504018F48CE165E1D8
:10166000C5CF2D893E894F89588D20573141414042
:10167000504018F48CE161E0B9CF2D893E894F8943
:10168000588D205A36484140504018F48CE163E0B0
:10169000ADCF8CE165E0AACF80538A3078F5C02EBB
:1016A000DD24CC0CDD1CCC0CDD1CA1E0B0E0AC0FCB
:1016B000BD1FCA0EDB1E282F332727FD3095432F71
:1016C000532F2DA33EA34FA358A7D6016D917D9113
:1016D0008D919C912AE030E040E050E00E94371B61
:1016E0002DA13EA14FA158A5260F371F481F591FF6
:1016F000D6012D933D934D935C93139781E894E02D
:101700000E949018892B09F0F7CE81149104A1044E
:10171000B10489F4C301B2010E94890361E070E061
:1017200080E090E00E94D915222433243A94198A4B
:101730001A8A1B8A1C8A298D3A8D4B8D5C8D8216E4
:101740009306A406B506D0F40E94190329893A89A4
:101750004B895C89280F311D411D511D298B3A8B06
:101760004B8B5C8B281608F4282E831508F4382E32
:101770000894811C911CA11CB11C5AC0C301B20168
:1017800028EE33E040E050E00E946A1B81E894E0DC
:10179000BA01A9012AE030E00E94C01A81E894E071
:1017A0006CE20E94EC1981E894E0622D4AE050E07E
:1017B0000E94CF1A81E894E06CE20E94EC196989DA
:1017C0007A898B899C89A50194010E946A1B81E812
:1017D00094E0BA01A9012AE030E00E94C01A81E831
:1017E00094E06CE20E94EC1981E894E0632D4AE0F9
:1017F00050E00E94CF1A81E894E06CE20E94281A1F
:101800008D899E89AF89B88D480E591E6A1E7B1E30
:101810002D8D3E8D4F8D58A1241535054605570554
:1018200020F449A05AA06BA07CA0882499245401DC
:1018300089A19AA1ABA1BCA1885E9340A040B04011
:1018400009F05CCFA8960FB6F894DEBF0FBECDBFEF
:10185000CF91DF910F91FF90EF90DF90CF90BF90ED
:10186000AF909F908F907F906F905F904F903F9040
:101870002F9008950F931F93CF93DF93EC01062FC2
:1018800015E0115071F08BEE93E0BE010E94CD1473
:10189000081751F08BEE93E0BE01402F0E94D41444
:1018A000F0CF82E00E94000ADF91CF911F910F914B
:1018B0000895AF92BF92CF92DF92EF92FF920F9373
:1018C0001F93DF93CF93CDB7DEB764970FB6F8942D
:1018D000DEBF0FBECDBF0E94A5155B016C01A0E568
:1018E000B3E020E030E0F901EE0FFF1FE657FD4FB7
:1018F000808191818D939D932F5F3F4F20313105E2
:1019000091F781E08093700386E060E573E08E01DB
:101910000F5F1F4FA8010E946B01EE24FF24F80106
:10192000EE0DFF1DC7018C579E4F60810E943A0C3F
:101930000894E11CF11C84E1E816F10481F78AEFB8
:10194000898381E18A838AE58B838EEF8C8300E033
:1019500010E07E010894E11CF11CF701E00FF11F7B
:10196000C80180589E4F60810E943A0C0F5F1F4F44
:101970000430110591F70E94A5159B01AC012A19AD
:101980003B094C095D09283C31054105510550F4DE
:1019900068EC70E080E090E0621B730B840B950BA9
:1019A0000E94D91564960FB6F894DEBF0FBECDBF66
:1019B000CF91DF911F910F91FF90EF90DF90CF902B
:1019C000BF90AF9008954F925F926F927F928F92E7
:1019D0009F92AF92BF92CF92DF92EF92FF920F93BE
:1019E0001F938CE00E94F202882359F481E894E06E
:1019F00069E171E00E94241B80E00E94F5030E94CF
:101A0000E8090E948F060E94B3158091E602843097
:101A100009F06DC10E94B3156093320370933303D4
:101A200080933403909335031092720380914A039C
:101A300090914B03880F991F816090934B03809383
:101A40004A035E985D9A80911303873229F480914E
:101A5000B0008F7E8093B0008FE70E94C80200E044
:101A600010E008C00E94DC02F801E655FC4F8083BC
:101A70000F5F1F4FE0910F03F0E0E770F070E2534B
:101A8000FD4F808190E00817190764F30E941D0341
:101A900090934903809348038091AA03282F30E054
:101AA000C9018E739070892BE1F5F89480910F0332
:101AB00087706AE872E04BEA53E00E940902E09105
:101AC0001F03E031D0F48091470390E0880F991F05
:101AD000880F991F8C30910518F48CE090E006C0B7
:101AE00023E0853F920710F084EF93E0F0E0EE0FE3
:101AF000FF1FE657FD4F9183808378948091AA035E
:101B00009091740380FF08C0992379F50E94590CC5
:101B100081E08093740329C0992339F110927403F2
:101B200024C0C90188739070C897F9F44091BF032D
:101B3000842F822787FF19C040584093BF0310E0CD
:101B40000AC01F5FE12FF0E0E655FC4F81E894E00A
:101B500060810E94FA18212F30E08091AA0390E062
:101B6000877090708217930764F7809171038823C0
:101B700019F481E08093710310924F0310924D038A
:101B800010924E0380910F03887109F4A7C0409111
:101B9000BF038091AA0390E0242F30E0822793278F
:101BA00086FD90C0407C80E448274093BF0390911D
:101BB000E8038091E903981701F1A0ECB3E030E06D
:101BC0000FC03F5F892F90E0FC01E853FC4F20815C
:101BD0002D9301968F7190708093E803383031F027
:101BE0009091E8038091E903981759F7395C809147
:101BF000BF03382B3093BF0365C0809145038093AA
:101C0000C00380911203863211F482E105C08091F5
:101C10001503863251F48EE00E94771695958795CC
:101C2000959587958093C10302C01092C10380915E
:101C30001403863211F483E105C0809116038632C5
:101C400051F48FE00E947716959587959595879525
:101C50008093C20302C01092C20380914903809313
:101C6000C303809148038093C40320914A033091B9
:101C70004B033F7EC9019695879585759575281B01
:101C8000390BA9015695479556954795437353735C
:101C900023733373420F531FCA0124E0969587952F
:101CA0002A95E1F7840F951F8F709F7021E031E036
:101CB000AC01429FC001439F900D529F900D112493
:101CC0009093C5038FEB93E069E00E942C0602C05D
:101CD0000E948F060E940F068823D1F383E0809331
:101CE000E6020E94D40481E0809373035D980E9411
:101CF000B3155B016C010E94A5152B013C0180917D
:101D00007203823008F0A9C0E0903203F0903303F0
:101D1000009134031091350380913603909137037D
:101D2000A0913803B09139038E159F05A007B10724
:101D300009F493C087EE92E00E94F500A601950198
:101D40002E193F09400B510B6C5D7540804090404F
:101D5000621773078407950708F07FC0E092360387
:101D6000F092370300933803109339030E9419034C
:101D7000809345032091430330914403280F311D84
:101D80003093440320934303609142036F5F609359
:101D90004203693008F461C0C90170E00E94561B1B
:101DA000CB0170934403609343036091460323E0A7
:101DB000629FB0011124680F791F7695679576951B
:101DC00067956093460320914A0330914B033F7718
:101DD000C9019695879585759575281B390BA901BD
:101DE00056954795569547954373537323733373AD
:101DF000420F531FCA01B4E096958795BA95E1F753
:101E0000840F951F8F709F7021E031E0AC01429FDD
:101E1000C001439F900D529F900D1124892F90E097
:101E200070E0759567957595679560547F4F9C0137
:101E3000269FC001279F900D369F900D11246FE0C3
:101E400070E00E94561B609347030E94D0071092D7
:101E500044031092430310924203809171038090D7
:101E6000EA03882309F448C290907203981408F09A
:101E700087C2E0903203F090330300913403109155
:101E8000350387EE92E00E94F500AE18BF08C00A45
:101E9000D10A68517C4F8F4F9F4F6A157B058C0587
:101EA0009D0508F0B8C080914A0390914B03880FBC
:101EB000991F90934B0380934A0381E080937303AF
:101EC000992081F440923A0350923B0360923C0384
:101ED00070923D0310923E0310923F031092400314
:101EE0001092410393949092720387EE92E00E94C5
:101EF000F500E60EF71E081F191FE0923203F0925C
:101F00003303009334031093350381E0809373030C
:101F10005E9A80911303873229F48091B00080612A
:101F20008093B00020914A0330914B033F77C90161
:101F30009695879585759575281B390BA90156953A
:101F40004795569547954373537323733373420FE5
:101F5000531FCA0164E0969587956A95E1F7840F4F
:101F6000951F8F709F7021E031E0AC01429FC0014E
:101F7000439F900D529F900D1124292F30E08091A6
:101F8000460390E0959587959595879580549F4F4A
:101F9000AC01249FC001259F900D349F900D11240A
:101FA0006FE070E00E94561B609347030E94D007C9
:101FB00032C087EE92E00E94F5009B01AC01809157
:101FC000320390913303A0913403B091350386011D
:101FD0007501E81AF90A0A0B1B0B692D70E080E005
:101FE00090E00E94371B6E157F058007910798F4DB
:101FF00010924B0310924A0381E080937303109276
:1020000047030E94D007A0923203B0923303C092DC
:102010003403D092350380917203882309F496C16A
:1020200060912803662309F47DC080914F038823C3
:1020300009F078C0E0903A03F0903B0300913C0334
:1020400010913D0370E06436710518F480E090E073
:1020500022C06E3B710548F46A55704080E090E004
:102060002AE030E040E050E014C0623D710548F4E1
:10207000645B704080E090E024E630E040E050E0B7
:1020800008C06D5C704080E090E028E532E040E000
:1020900050E00E94371BA30192012E193F09400B0B
:1020A000510B79018A0124E630E040E050E00E94C3
:1020B000371B6E157F0580079107A0F581E080939F
:1020C0004F03809170038823E1F0A0E5B3E020E0A6
:1020D00030E080911F0390E02817390761F0F894F1
:1020E0008D919C911197F901EE0FFF1FE657FD4F5F
:1020F0009183808378942F5F3F4F12962031310572
:1021000041F7809124030E94B700640D751D861D60
:10211000971D616060933E0370933F03809340037B
:102120009093410360912A03662309F44CC0809187
:102130004D03882309F047C0E0903A03F0903B0339
:1021400000913C0310913D0370E06436710518F472
:1021500080E090E022C06E3B710548F46A55704003
:1021600080E090E02AE030E040E050E014C0623DC2
:10217000710548F4645B704080E090E024E630E054
:1021800040E050E008C06D5C704080E090E028E5E1
:1021900032E040E050E00E94371BA30192012E196B
:1021A0003F09400B510B79018A0124E630E040E001
:1021B00050E00E94371B6E157F058007910718F4C9
:1021C00081E080934D0380912A03882309F44FC056
:1021D00080914E03882309F04AC0E0903A03F090C2
:1021E0003B0300913C0310913D0380912903682F2C
:1021F00070E06436710518F480E090E022C06E3B18
:10220000710548F46A55704080E090E02AE030E0C3
:1022100040E050E014C0623D710548F4645B7040DA
:1022200080E090E024E630E040E050E008C06D5CE3
:10223000704080E090E028E532E040E050E00E940D
:10224000371BA30192012E193F09400B510B790155
:102250008A0124E630E040E050E00E94371B6E1512
:102260007F058007910718F481E080934E038091E9
:10227000200390912103A0912203B09123030097A2
:10228000A105B10509F462C080913E0390913F031E
:10229000A0914003B09141030097A105B10509F455
:1022A00055C083017201E81AF90A0A0B1B0B17FDCE
:1022B0004DC06091250370E080E090E028EE33E0AF
:1022C00040E050E00E94371B6E157F0580079107A4
:1022D000E8F50E94330980E00E94F5030E94D404CF
:1022E0000E94A515616060933E0370933F03809345
:1022F0004003909341032AC087EE92E00E94F500CC
:102300009B01AC018091320390913303A09134037F
:10231000B091350386017501E81AF90A0A0B1B0B07
:10232000682D70E080E090E00E94371B6E157F05FD
:102330008007910758F4A0923203B0923303C09201
:102340003403D092350381E080937303809173034B
:102350008130D1F4E0913103EF5FE0933103E83154
:1023600031F0F0E0E951FD4F8785882311F4109298
:102370003103809131030E9403031092730304C060
:10238000981409F048CE15CE1F910F91FF90EF9051
:10239000DF90CF90BF90AF909F908F907F906F9085
:1023A0005F904F900895CF92DF92EF92FF920F933C
:1023B0001F93CF93DF93C8E1D0E000E411E08EE1FA
:1023C000C82E8EEBD82E81ECE82E8EEDF82EA701CC
:1023D00096010C2E04C056954795379527950A947B
:1023E000D2F7C801622F0E943A0C28970F5F1F4F47
:1023F0008FEFC83FD80759F7C4E4D1E0FE01E4539A
:10240000FE4FCE0160810E943A0C219681E0CF35CB
:10241000D807A1F7DF91CF911F910F91FF90EF9017
:10242000DF90CF90089522E02093100310921103C3
:1024300091E0909312032093130393E0909314037D
:1024400094E09093150395E09093160394E2909393
:10245000170395E29093180320931E039FEF909328
:102460001F032AE0209328031092290310922A03C5
:102470001092200310922103109222031092230342
:102480009EE1909324032093250328EB3BE03093B7
:10249000270320932603882311F00E94D311089567
:1024A000EF92FF920F931F93CF93DF9380E090E022
:1024B000A0E0B0E0C0E4D1E0EE24F82E092F1A2FFE
:1024C0008BEE93E0BE010E94CD14A8019701280F66
:1024D000311D411D511DDA01C901219631E0C4347D
:1024E000D30751F78E519E4BA14CBE4D21F081E098
:1024F0000E9413121DC0C4E4D1E08BEE93E0BE0134
:102500000E94CD14FE01E453FE4F8083219651E0DA
:10251000CF35D50791F780911003823019F081E013
:102520000E94131281E894E061E271E00E94241B92
:10253000DF91CF911F910F91FF90EF9008952F920F
:102540003F924F925F926F927F928F929F92AF9243
:10255000BF92CF92DF92EF92FF920F931F93DF9380
:10256000CF93CDB7DEB7E8970FB6F894DEBF0FBEB6
:10257000CDBF6B017C010E94A5154B015C0181E080
:102580000E94F50383E08093E6020E94E80981E857
:1025900094E06FE271E00E94241B1E010894211C4C
:1025A000311C47E0442E512C4C0E5D1E32E0632E50
:1025B000712C6C0E7D1E93C081E894E06DE371E098
:1025C0000E94241B8FE70E94C8020E94DC028983BC
:1025D000823601F507EE12E00E94DC02F8018193D9
:1025E0008F01F3E000311F07B9F78091E7028930CE
:1025F00009F070C081E894E066E471E00E94241B59
:1026000082E48983CE01019661E00E9469065D9AA9
:1026100081E07BC0803719F0893629F50CC081E84C
:1026200094E06EE870E00E94141A80E58D8FCC244F
:10263000DD2476010BC081E894E06DE770E00E9434
:10264000141A81E00E941312E9E4ED8FDE015E9618
:10265000E0E1F3E08BE101900D928150E1F7CE01D2
:102660004D966CE135C0843701F581E894E068E669
:1026700070E00E94141AF4E5FA8383E08B83E4E3AC
:10268000EC83F8E0FD838BE08E83D201E2E0F2E0A0
:1026900086E101900D928150E1F7C3016BE10E9448
:1026A0006906CC24DD24760115C0853799F400E154
:1026B00013E00E94DC02F80181938F01F3E00B32FA
:1026C0001F07B9F70E94D31185E58983C10161E035
:1026D0000E946906E3E0E093E6020E94D404C1147C
:1026E000D104E104F10459F00E94A5156819790993
:1026F0008A099B096C157D058E059F0528F480913C
:10270000E602843061F758CF80E0E8960FB6F8947F
:10271000DEBF0FBECDBFCF91DF911F910F91FF9014
:10272000EF90DF90CF90BF90AF909F908F907F9071
:102730006F905F904F903F902F900895CF92DF92CF
:10274000EF92FF920F931F93CF93DF93C8E1D0E0F6
:1027500000E011E05EE1C52E5EEBD52E51ECE52EDA
:102760005EEDF52EA70196010C2E04C056954795F7
:10277000379527950A94D2F7C801622F0E943A0C28
:1027800028970F5F1F4F8FEFC83FD80759F7C4E056
:10279000D1E0FE01ED51FE4FCE0160810E943A0C66
:1027A000219681E0CD32D807A1F7DF91CF911F911B
:1027B0000F91FF90EF90DF90CF90089580E068EA4E
:1027C00070E042E050E00E94E014089585E061E08E
:1027D0000E94991686E061E00E9499160E94B9064F
:1027E00080E060E00E94991681E061E00E94991605
:1027F00081E894E040E052EC61E070E00E9409184A
:102800000E9450120E948A0881E894E061E571E01C
:102810000E94241B0E94DE1378945E9A83E063E199
:102820000E944F08882319F00E941D0AFDCF89E0FD
:1028300062E10E944F08882329F40E94E908892B4D
:1028400009F0A4C081E894E067E671E00E94211BD2
:1028500060E070E080E090E00E949F12882349F0E1
:102860000E949E1381E894E060EA71E00E94241BBC
:102870005D9A0E94CE0615C082FD13C064EF71E020
:1028800080E090E00E949F12882359F00E949E13DE
:1028900081E894E060EA71E00E94241B0E94CE0669
:1028A0005D9A809112038232C1F4809114038332C5
:1028B000A1F480911E0382FF0AC081E894E06BEBD3
:1028C00071E00E94241B85E00E94000A06C081E896
:1028D00094E066EC71E00E94241B81E894E06DEEC8
:1028E00071E00E94211B80E00E94F50310923103E9
:1028F00080E00E9403031092EA0390E0983158F4BC
:10290000292F2F5FE92FF0E0E951FD4F87858823BC
:1029100011F0922FF3CF9093EA0383E08093E602C5
:102920000E94E80980910F038871803139F481E8B1
:1029300094E040E855E260E070E00AC04091E802AF
:102940005091E9026091EA027091EB0281E894E013
:102950000E94091804C081E894E00E94C11881E82F
:1029600094E00E949018892BB1F71092E80310921E
:10297000E903109271030E94B315609332037093C0
:102980003303809334039093350308950E94CE0659
:1029900080911E0381FD70CF84CFF999FECF72BD67
:1029A00061BDF89A80B50895F999FECF1FBA72BD3E
:1029B00061BD40BD0FB6F894FA9AF99A0FBE08951A
:1029C000823000F5E82FF0E0EE0FFF1FE451FC4FDE
:1029D00071836083882319F08130A1F408C080914D
:1029E00069008C7F842B80936900E89A0895809118
:1029F0006900440F551F440F551F837F842B80931C
:102A00006900E99A08951F920F920FB60F92112450
:102A10002F933F934F935F936F937F938F939F93E6
:102A2000AF93BF93EF93FF938091EC039091ED03ED
:102A3000892B29F0E091EC03F091ED030995FF91CA
:102A4000EF91BF91AF919F918F917F916F915F9126
:102A50004F913F912F910F900FBE0F901F9018959F
:102A60001F920F920FB60F9211242F933F934F9303
:102A70005F936F937F938F939F93AF93BF93EF93E6
:102A8000FF938091EE039091EF03892B29F0E09161
:102A9000EE03F091EF030995FF91EF91BF91AF9194
:102AA0009F918F917F916F915F914F913F912F9166
:102AB0000F900FBE0F901F9018951F920F920FB698
:102AC0000F9211242F933F938F939F93AF93BF93B4
:102AD0008091F4039091F503A091F603B091F70370
:102AE0003091F8030196A11DB11D232F2D5F2D37C5
:102AF00020F02D570196A11DB11D2093F80380935E
:102B0000F4039093F503A093F603B093F703809139
:102B1000F0039091F103A091F203B091F3030196B9
:102B2000A11DB11D8093F0039093F103A093F203D4
:102B3000B093F303BF91AF919F918F913F912F91EC
:102B40000F900FBE0F901F9018958FB7F89420919B
:102B5000F4033091F5034091F6035091F7038FBFD2
:102B6000B901CA0108959FB7F8942091F0033091FC
:102B7000F1034091F2035091F30386B5A89B06C080
:102B80008F3F21F02F5F3F4F4F4F5F4F9FBF542F1D
:102B9000432F322F2227280F311D411D511D82E066
:102BA000220F331F441F551F8A95D1F7B901CA015F
:102BB00008959B01AC017FB7F8948091F003909148
:102BC000F103A091F203B091F30366B5A89B05C091
:102BD0006F3F19F00196A11DB11D7FBFBA2FA92F1C
:102BE000982F8827860F911DA11DB11D62E0880FC7
:102BF000991FAA1FBB1F6A95D1F7BC012DC0FFB753
:102C0000F8948091F0039091F103A091F203B091B8
:102C1000F303E6B5A89B05C0EF3F19F00196A11D8F
:102C2000B11DFFBFBA2FA92F982F88278E0F911D96
:102C3000A11DB11DE2E0880F991FAA1FBB1FEA95D5
:102C4000D1F7861B970B885E9340C8F22150304025
:102C50004040504068517C4F2115310541055105D8
:102C600071F60895019739F0880F991F880F991F01
:102C700002970197F1F70895789484B5826084BD36
:102C800084B5816084BD85B5826085BD85B5816070
:102C900085BDEEE6F0E0808181608083E1E8F0E0D0
:102CA0001082808182608083808181608083E0E8FF
:102CB000F0E0808181608083E1EBF0E080818460DE
:102CC0008083E0EBF0E0808181608083EAE7F0E0E0
:102CD0008081846080838081826080838081816044
:102CE00080838081806880831092C1000895982F2E
:102CF0008E3008F09E5097708091AD028295880FBB
:102D0000880F807C892B80937C0080917A0080647E
:102D100080937A0080917A0086FDFCCF2091780024
:102D200040917900942F80E030E0282B392BC901A5
:102D30000895CF93DF93482F50E0CA018E529F4FE2
:102D4000FC01349142545F4FFA018491882369F168
:102D500090E0880F991FFC01E056FF4FA591B491B8
:102D6000FC01E655FF4FC591D491662351F42FB76E
:102D7000F8948C91932F909589238C938881892343
:102D80000BC0623061F42FB7F8948C91932F90951B
:102D900089238C938881832B88832FBF06C09FB79C
:102DA000F8948C91832B8C939FBFDF91CF910895E2
:102DB000482F50E0CA018A519F4FFC012491CA015B
:102DC0008E529F4FFC01949142545F4FFA0134910F
:102DD000332309F440C0222351F1233071F0243011
:102DE00028F42130A1F0223011F514C02630B1F0C2
:102DF0002730C1F02430D9F404C0809180008F774F
:102E000003C0809180008F7D8093800010C084B5C6
:102E10008F7702C084B58F7D84BD09C08091B000DA
:102E20008F7703C08091B0008F7D8093B000E32F37
:102E3000F0E0EE0FFF1FE655FF4FA591B4912FB7BD
:102E4000F894662321F48C919095892302C08C918B
:102E5000892B8C932FBF0895682F70E0CB018A5186
:102E60009F4FFC012491CB018E529F4FFC01449156
:102E700062547F4FFB019491992319F420E030E0D4
:102E80003CC0222351F1233071F0243028F421304A
:102E9000A1F0223011F514C02630B1F02730C1F076
:102EA0002430D9F404C0809180008F7703C08091D2
:102EB00080008F7D8093800010C084B58F7702C022
:102EC00084B58F7D84BD09C08091B0008F7703C029
:102ED0008091B0008F7D8093B000892F90E0880FA3
:102EE000991F8C549F4FFC01A591B4918C9120E0C7
:102EF00030E0842311F021E030E0C9010895089505
:102F00001F920F920FB60F9211242F933F934F935E
:102F10008F939F93EF93FF938091C00082FD1DC01C
:102F20004091C6002091390430913A042F5F3F4F01
:102F30002F73307080913B0490913C04281739071F
:102F400071F0E0913904F0913A04E750FC4F40836E
:102F500030933A042093390402C08091C600FF9157
:102F6000EF919F918F914F913F912F910F900FBEB5
:102F70000F901F901895E0918D04F0918E04E05C05
:102F8000FF4F8191919120813181821B930B8F732F
:102F90009070892B11F00E947F1708951F920F9255
:102FA0000FB60F9211242F933F938F939F93EF931C
:102FB000FF9320917D0430917E0480917F04909155
:102FC00080042817390731F48091C1008F7D8093E8
:102FD000C10014C0E0917F04F0918004E35CFB4FDA
:102FE000208180917F049091800401968F7390706E
:102FF0009093800480937F042093C600FF91EF910B
:103000009F918F913F912F910F900FBE0F901F9026
:103010001895AF92BF92DF92EF92FF920F931F939A
:10302000CF93DF93EC017A018B01DD24403081EEF8
:10303000580780E0680780E0780711F0DD24D3941A
:1030400091E0A92EB12CEC89FD89DD2069F0C50144
:1030500008A002C0880F991F0A94E2F7808360E0FD
:1030600079E08DE390E005C0108260E874E88EE1BD
:1030700090E0A80197010E946A1B21503040404017
:103080005040569547953795279580E12030380771
:1030900020F0DD2011F0DD24D6CFE889F9893083D6
:1030A000EA89FB89208319A2EE89FF89408121E00A
:1030B00030E0C9010C8C02C0880F991F0A94E2F716
:1030C000482B4083EE89FF894081C9010D8C02C0E5
:1030D000880F991F0A94E2F7482B4083EE89FF89F5
:1030E0004081C9010E8C02C0880F991F0A94E2F733
:1030F000482B4083EE89FF8980810F8C02C0220F0C
:10310000331F0A94E2F7209528232083DF91CF9183
:103110001F910F91FF90EF90DF90BF90AF900895B7
:10312000DC011C96ED91FC911D97E05CFF4F219115
:10313000319180819181281B390B2F733070C90127
:103140000895DC011C96ED91FC911D97E05CFF4F0A
:1031500020813181E054F040DF01AE5BBF4F8D91A3
:103160009C9111972817390719F42FEF3FEF07C0EB
:103170008D919C91E80FF91F8081282F30E0C901C3
:103180000895DC011C96ED91FC911D97E05CFF4FCA
:1031900020813181E054F040DF01AE5BBF4F8D9163
:1031A0009C9111972817390719F42FEF3FEF10C0A2
:1031B0008D919C911197E80FF91F20818D919C9121
:1031C000119701968F73907011969C938E9330E0B7
:1031D000C9010895DC0191968C919197882339F06B
:1031E0005496ED91FC915597808186FFF9CF919689
:1031F0001C920895CF93DF93EC01EE85FF85E05C90
:10320000FF4F20813181E054F0402F5F3F4F2F73FB
:103210003070DF01AE5BBF4F8D919C9111972817E5
:103220003907D1F3E05CFF4F80819181E054F04099
:10323000E80FF91F6083EE85FF85E05CFF4F318367
:103240002083EE89FF89208181E090E00F8C02C00D
:10325000880F991F0A94E2F7282B208381E089A325
:10326000EC89FD8980818064808381E090E0DF913A
:10327000CF910895109284041092830488EE93E015
:10328000A0E0B0E08093850490938604A093870427
:10329000B09388048AED92E0909382048093810435
:1032A00089EF93E090938E0480938D048DE394E0F6
:1032B0009093900480938F0485EC90E09093920417
:1032C0008093910484EC90E0909394048093930411
:1032D00080EC90E0909396048093950481EC90E0CC
:1032E000909398048093970482EC90E090939A04D2
:1032F0008093990486EC90E090939C0480939B04C7
:1033000084E080939D0483E080939E0487E0809313
:103310009F0485E08093A00481E08093A104089538
:10332000CF93DF930E943C160E94E613CBEBD7E1CC
:103330000E94E30C2097E1F30E94BB17F9CFCF92D4
:10334000DF92EF92FF920F931F93CF93DF937C0155
:103350006B018A01C0E0D0E00FC0D6016D916D0114
:10336000D701ED91FC910190F081E02DC701099505
:10337000C80FD91F015010400115110571F7CE017A
:10338000DF91CF911F910F91FF90EF90DF90CF9041
:103390000895EF92FF920F931F93CF93DF937C01D9
:1033A0008B01C0E0D0E0F8010F5F1F4F64916623EE
:1033B00059F0D701ED91FC910190F081E02DC7010A
:1033C0000995C80FD91FEFCFCE01DF91CF911F9183
:1033D0000F91FF90EF900895DC01ED91FC91019029
:1033E000F081E02D09950895EF92FF920F931F93BE
:1033F0008C01DC01ED91FC910190F081E02D6DE0FC
:1034000009957C01D801ED91FC910190F081E02DAE
:10341000C8016AE009959C012E0D3F1DC9011F914D
:103420000F91FF90EF900895EF92FF920F931F93EB
:103430007C010E94C9198C01C7010E94F4199C01EA
:10344000200F311FC9011F910F91FF90EF90089538
:10345000EF92FF920F931F937C01DC01ED91FC91A1
:103460000190F081E02D09958C01C7010E94F419AB
:10347000080F191FC8011F910F91FF90EF90089539
:10348000CF93DF93EC016115710519F420E030E072
:103490000FC0DB010D900020E9F71197A61BB70BB9
:1034A000E881F9810280F381E02DAD0109959C014D
:1034B000C901DF91CF9108954F925F927F928F92D1
:1034C0009F92AF92BF92CF92DF92EF92FF920F93B3
:1034D0001F93DF93CF93CDB7DEB7A1970FB6F894C4
:1034E000DEBF0FBECDBF2C01742ECB01223008F4FD
:1034F0002AE019A231E2C32ED12CCC0EDD1E822E81
:103500009924AA24BB24672D752FA50194010E943C
:103510006A1B79018A01C801B701A50194010E94C3
:10352000371B472D461B0894C108D1084A3014F4B4
:10353000405D01C0495CF6014083E114F1040105DE
:10354000110521F07E2C5F2DC801DDCFC201B6012F
:103550000E94401AA1960FB6F894DEBF0FBECDBFF1
:10356000CF91DF911F910F91FF90EF90DF90CF905F
:10357000BF90AF909F908F907F905F904F900895F5
:10358000DC012115310541F4ED91FC910190F081B0
:10359000E02D642F099508950E945C1A0895EF921A
:1035A000FF920F931F939A01E62EFF2400E010E094
:1035B000B801A7010E94C01A1F910F91FF90EF90D0
:1035C0000895CF92DF92EF92FF920F931F93CF93C4
:1035D000DF93EC016A017B012115310541F4E8819B
:1035E000F9810190F081E02D642F09951FC02A30E8
:1035F0003105D1F477FF17C0E881F9810190F0819E
:10360000E02D6DE209958C0144275527BA014C192C
:103610005D096E097F09CE012AE00E945C1A9801BB
:10362000280F391F04C02AE00E945C1A9C01C901BE
:10363000DF91CF911F910F91FF90EF90DF90CF908E
:1036400008950E94401A0895EF92FF920F931F93DE
:103650007C010E94401A8C01C7010E94F419080FD6
:10366000191FC8011F910F91FF90EF900895629F5D
:10367000D001739FF001829FE00DF11D649FE00D6A
:10368000F11D929FF00D839FF00D749FF00D659FCB
:10369000F00D9927729FB00DE11DF91F639FB00DCA
:1036A000E11DF91FBD01CF0111240895AA1BBB1B09
:1036B00051E107C0AA1FBB1FA617B70710F0A61B32
:1036C000B70B881F991F5A95A9F780959095BC0153
:1036D000CD010895A1E21A2EAA1BBB1BFD010DC04E
:1036E000AA1FBB1FEE1FFF1FA217B307E407F507B2
:1036F00020F0A21BB30BE40BF50B661F771F881F8E
:10370000991F1A9469F760957095809590959B0123
:10371000AC01BD01CF01089597FB092E05260ED0FF
:1037200057FD04D0D7DF0AD0001C38F450954095DF
:10373000309521953F4F4F4F5F4F0895F6F7909585
:103740008095709561957F4F8F4F9F4F0895EE0F35
:0E375000FF1F0590F491E02D0994F894FFCF2F
:10375E0054582074696D656F757421007363616EC2
:10376E006E6572206D6F64650052582068616E67D9
:10377E00005258636F6E66206C6F6164656400570B
:10378E00616974696E672062696E640A00476F74BE
:10379E0020706B740A006461746120676F6F640A35
:1037AE00004F70656E4C52536E67205258207374E2
:1037BE00617274696E6700454550524F4D206461C9
:1037CE007461206E6F742076616C6964206F722054
:1037DE0062696E64206A756D7070657220736574AF
:1037EE002C20666F7263696E672062696E640A00D0
:1037FE0053617665642062696E6420646174612031
:10380E00746F20454550524F4D0A004920616D207E
:10381E00736C617665004C6F6F6B696E6720666FB7
:10382E007220736C6176652C206E6F7420696D70DA
:10383E006C656D656E7465642079657400456E7493
:10384E006572696E67206E6F726D616C206D6F644C
:10385E0065000020012201260221022703230326F0
:10386E000426052606240725C01200001A400AA1C8
:10387E00204EA5001B1E27522C233080250000054C
:10388E00400AA1204EA50020244EA52C2330004B2B
:10389E00000006400AD0009D49007B289D492C233C
:1038AE003000E1000005400A4501D7DC03B81E0ECA
:1038BE00BF00232E48E801008A400A6001555502D8
:1038CE00AD1E20000023C88025000005400AA1205F
:1038DE004EA50020244EA52C23300002000200022B
:1038EE0000020002000200020002000200020002BA
:1038FE0000020002000200020002409C08010912B0
:10390E0003130E0F0001020000001000000008005B
:10391E00200000010000020000000100000200076C
:10392E000B0C1011150000000000FA189F199018CA
:06393E00C118A118EA18EF
:00000001FF
